{"abi":[{"inputs":[{"internalType":"uint256","name":"minimum","type":"uint256"},{"internalType":"uint256","name":"soft","type":"uint256"},{"internalType":"uint256","name":"hard","type":"uint256"},{"internalType":"address","name":"sender","type":"address"},{"internalType":"contract Token","name":"_token","type":"address"}],"stateMutability":"nonpayable","type":"constructor"},{"inputs":[{"internalType":"uint256","name":"index","type":"uint256"}],"name":"approveRequest","outputs":[],"stateMutability":"nonpayable","type":"function"},{"inputs":[{"internalType":"address","name":"","type":"address"}],"name":"approvers","outputs":[{"internalType":"uint256","name":"","type":"uint256"}],"stateMutability":"view","type":"function"},{"inputs":[],"name":"approversCount","outputs":[{"internalType":"uint256","name":"","type":"uint256"}],"stateMutability":"view","type":"function"},{"inputs":[],"name":"contribute","outputs":[],"stateMutability":"payable","type":"function"},{"inputs":[{"internalType":"string","name":"description","type":"string"},{"internalType":"uint256","name":"value","type":"uint256"},{"internalType":"address","name":"recipient","type":"address"}],"name":"createRequest","outputs":[],"stateMutability":"nonpayable","type":"function"},{"inputs":[],"name":"finalizeRefund","outputs":[],"stateMutability":"nonpayable","type":"function"},{"inputs":[{"internalType":"uint256","name":"index","type":"uint256"}],"name":"finalizeRequest","outputs":[],"stateMutability":"nonpayable","type":"function"},{"inputs":[],"name":"funded","outputs":[{"internalType":"uint256","name":"","type":"uint256"}],"stateMutability":"view","type":"function"},{"inputs":[{"internalType":"address","name":"sender","type":"address"},{"internalType":"uint256","name":"index","type":"uint256"}],"name":"getApprovalRequest","outputs":[{"internalType":"bool","name":"","type":"bool"}],"stateMutability":"view","type":"function"},{"inputs":[],"name":"getSummary","outputs":[{"internalType":"uint256","name":"","type":"uint256"},{"internalType":"uint256","name":"","type":"uint256"},{"internalType":"uint256","name":"","type":"uint256"},{"internalType":"uint256","name":"","type":"uint256"},{"internalType":"address","name":"","type":"address"},{"internalType":"uint256","name":"","type":"uint256"}],"stateMutability":"view","type":"function"},{"inputs":[],"name":"hardcap","outputs":[{"internalType":"uint256","name":"","type":"uint256"}],"stateMutability":"view","type":"function"},{"inputs":[],"name":"minimumContribution","outputs":[{"internalType":"uint256","name":"","type":"uint256"}],"stateMutability":"view","type":"function"},{"inputs":[],"name":"numRequests","outputs":[{"internalType":"uint256","name":"","type":"uint256"}],"stateMutability":"view","type":"function"},{"inputs":[],"name":"owner","outputs":[{"internalType":"address","name":"","type":"address"}],"stateMutability":"view","type":"function"},{"inputs":[],"name":"refundRequest","outputs":[{"internalType":"uint256","name":"","type":"uint256"}],"stateMutability":"view","type":"function"},{"inputs":[{"internalType":"uint256","name":"","type":"uint256"}],"name":"requests","outputs":[{"internalType":"string","name":"description","type":"string"},{"internalType":"uint256","name":"value","type":"uint256"},{"internalType":"address payable","name":"recipient","type":"address"},{"internalType":"bool","name":"complete","type":"bool"},{"internalType":"uint256","name":"approvalCount","type":"uint256"}],"stateMutability":"view","type":"function"},{"inputs":[],"name":"requstRefund","outputs":[],"stateMutability":"nonpayable","type":"function"},{"inputs":[],"name":"softcap","outputs":[{"internalType":"uint256","name":"","type":"uint256"}],"stateMutability":"view","type":"function"}],"devdoc":{"kind":"dev","methods":{},"version":1},"evm":{"assembly":"    /* \"Campaign.sol\":6220:10132  contract Campaign {... */\n  mstore(0x40, 0x80)\n    /* \"Campaign.sol\":7068:7301  constructor(uint256 minimum,uint256 soft,uint256 hard, address sender, Token _token) {... */\n  callvalue\n  dup1\n  iszero\n  tag_1\n  jumpi\n  0x00\n  dup1\n  revert\ntag_1:\n  pop\n  mload(0x40)\n  sub(codesize, bytecodeSize)\n  dup1\n  bytecodeSize\n  dup4\n  codecopy\n  dup2\n  dup2\n  add\n  0x40\n  mstore\n  dup2\n  add\n  swap1\n  tag_2\n  swap2\n  swap1\n  tag_3\n  jump\t// in\ntag_2:\n    /* \"Campaign.sol\":7172:7178  sender */\n  dup2\n    /* \"Campaign.sol\":7164:7169  owner */\n  0x00\n  dup1\n    /* \"Campaign.sol\":7164:7178  owner = sender */\n  0x0100\n  exp\n  dup2\n  sload\n  dup2\n  0xffffffffffffffffffffffffffffffffffffffff\n  mul\n  not\n  and\n  swap1\n  dup4\n  0xffffffffffffffffffffffffffffffffffffffff\n  and\n  mul\n  or\n  swap1\n  sstore\n  pop\n    /* \"Campaign.sol\":7211:7218  minimum */\n  dup5\n    /* \"Campaign.sol\":7189:7208  minimumContribution */\n  0x01\n    /* \"Campaign.sol\":7189:7218  minimumContribution = minimum */\n  dup2\n  swap1\n  sstore\n  pop\n    /* \"Campaign.sol\":7239:7243  soft */\n  dup4\n    /* \"Campaign.sol\":7229:7236  softcap */\n  0x04\n    /* \"Campaign.sol\":7229:7243  softcap = soft */\n  dup2\n  swap1\n  sstore\n  pop\n    /* \"Campaign.sol\":7264:7268  hard */\n  dup3\n    /* \"Campaign.sol\":7254:7261  hardcap */\n  0x05\n    /* \"Campaign.sol\":7254:7268  hardcap = hard */\n  dup2\n  swap1\n  sstore\n  pop\n    /* \"Campaign.sol\":7287:7293  _token */\n  dup1\n    /* \"Campaign.sol\":7279:7284  token */\n  0x0a\n  0x00\n    /* \"Campaign.sol\":7279:7293  token = _token */\n  0x0100\n  exp\n  dup2\n  sload\n  dup2\n  0xffffffffffffffffffffffffffffffffffffffff\n  mul\n  not\n  and\n  swap1\n  dup4\n  0xffffffffffffffffffffffffffffffffffffffff\n  and\n  mul\n  or\n  swap1\n  sstore\n  pop\n    /* \"Campaign.sol\":7068:7301  constructor(uint256 minimum,uint256 soft,uint256 hard, address sender, Token _token) {... */\n  pop\n  pop\n  pop\n  pop\n  pop\n    /* \"Campaign.sol\":6220:10132  contract Campaign {... */\n  jump(tag_6)\n    /* \"#utility.yul\":88:205   */\ntag_8:\n    /* \"#utility.yul\":197:198   */\n  0x00\n    /* \"#utility.yul\":194:195   */\n  dup1\n    /* \"#utility.yul\":187:199   */\n  revert\n    /* \"#utility.yul\":334:411   */\ntag_10:\n    /* \"#utility.yul\":371:378   */\n  0x00\n    /* \"#utility.yul\":400:405   */\n  dup2\n    /* \"#utility.yul\":389:405   */\n  swap1\n  pop\n    /* \"#utility.yul\":334:411   */\n  swap2\n  swap1\n  pop\n  jump\t// out\n    /* \"#utility.yul\":417:539   */\ntag_11:\n    /* \"#utility.yul\":490:514   */\n  tag_26\n    /* \"#utility.yul\":508:513   */\n  dup2\n    /* \"#utility.yul\":490:514   */\n  tag_10\n  jump\t// in\ntag_26:\n    /* \"#utility.yul\":483:488   */\n  dup2\n    /* \"#utility.yul\":480:515   */\n  eq\n    /* \"#utility.yul\":470:533   */\n  tag_27\n  jumpi\n    /* \"#utility.yul\":529:530   */\n  0x00\n    /* \"#utility.yul\":526:527   */\n  dup1\n    /* \"#utility.yul\":519:531   */\n  revert\n    /* \"#utility.yul\":470:533   */\ntag_27:\n    /* \"#utility.yul\":417:539   */\n  pop\n  jump\t// out\n    /* \"#utility.yul\":545:688   */\ntag_12:\n    /* \"#utility.yul\":602:607   */\n  0x00\n    /* \"#utility.yul\":633:639   */\n  dup2\n    /* \"#utility.yul\":627:640   */\n  mload\n    /* \"#utility.yul\":618:640   */\n  swap1\n  pop\n    /* \"#utility.yul\":649:682   */\n  tag_29\n    /* \"#utility.yul\":676:681   */\n  dup2\n    /* \"#utility.yul\":649:682   */\n  tag_11\n  jump\t// in\ntag_29:\n    /* \"#utility.yul\":545:688   */\n  swap3\n  swap2\n  pop\n  pop\n  jump\t// out\n    /* \"#utility.yul\":694:820   */\ntag_13:\n    /* \"#utility.yul\":731:738   */\n  0x00\n    /* \"#utility.yul\":771:813   */\n  0xffffffffffffffffffffffffffffffffffffffff\n    /* \"#utility.yul\":764:769   */\n  dup3\n    /* \"#utility.yul\":760:814   */\n  and\n    /* \"#utility.yul\":749:814   */\n  swap1\n  pop\n    /* \"#utility.yul\":694:820   */\n  swap2\n  swap1\n  pop\n  jump\t// out\n    /* \"#utility.yul\":826:922   */\ntag_14:\n    /* \"#utility.yul\":863:870   */\n  0x00\n    /* \"#utility.yul\":892:916   */\n  tag_32\n    /* \"#utility.yul\":910:915   */\n  dup3\n    /* \"#utility.yul\":892:916   */\n  tag_13\n  jump\t// in\ntag_32:\n    /* \"#utility.yul\":881:916   */\n  swap1\n  pop\n    /* \"#utility.yul\":826:922   */\n  swap2\n  swap1\n  pop\n  jump\t// out\n    /* \"#utility.yul\":928:1050   */\ntag_15:\n    /* \"#utility.yul\":1001:1025   */\n  tag_34\n    /* \"#utility.yul\":1019:1024   */\n  dup2\n    /* \"#utility.yul\":1001:1025   */\n  tag_14\n  jump\t// in\ntag_34:\n    /* \"#utility.yul\":994:999   */\n  dup2\n    /* \"#utility.yul\":991:1026   */\n  eq\n    /* \"#utility.yul\":981:1044   */\n  tag_35\n  jumpi\n    /* \"#utility.yul\":1040:1041   */\n  0x00\n    /* \"#utility.yul\":1037:1038   */\n  dup1\n    /* \"#utility.yul\":1030:1042   */\n  revert\n    /* \"#utility.yul\":981:1044   */\ntag_35:\n    /* \"#utility.yul\":928:1050   */\n  pop\n  jump\t// out\n    /* \"#utility.yul\":1056:1199   */\ntag_16:\n    /* \"#utility.yul\":1113:1118   */\n  0x00\n    /* \"#utility.yul\":1144:1150   */\n  dup2\n    /* \"#utility.yul\":1138:1151   */\n  mload\n    /* \"#utility.yul\":1129:1151   */\n  swap1\n  pop\n    /* \"#utility.yul\":1160:1193   */\n  tag_37\n    /* \"#utility.yul\":1187:1192   */\n  dup2\n    /* \"#utility.yul\":1160:1193   */\n  tag_15\n  jump\t// in\ntag_37:\n    /* \"#utility.yul\":1056:1199   */\n  swap3\n  swap2\n  pop\n  pop\n  jump\t// out\n    /* \"#utility.yul\":1205:1314   */\ntag_17:\n    /* \"#utility.yul\":1255:1262   */\n  0x00\n    /* \"#utility.yul\":1284:1308   */\n  tag_39\n    /* \"#utility.yul\":1302:1307   */\n  dup3\n    /* \"#utility.yul\":1284:1308   */\n  tag_14\n  jump\t// in\ntag_39:\n    /* \"#utility.yul\":1273:1308   */\n  swap1\n  pop\n    /* \"#utility.yul\":1205:1314   */\n  swap2\n  swap1\n  pop\n  jump\t// out\n    /* \"#utility.yul\":1320:1468   */\ntag_18:\n    /* \"#utility.yul\":1406:1443   */\n  tag_41\n    /* \"#utility.yul\":1437:1442   */\n  dup2\n    /* \"#utility.yul\":1406:1443   */\n  tag_17\n  jump\t// in\ntag_41:\n    /* \"#utility.yul\":1399:1404   */\n  dup2\n    /* \"#utility.yul\":1396:1444   */\n  eq\n    /* \"#utility.yul\":1386:1462   */\n  tag_42\n  jumpi\n    /* \"#utility.yul\":1458:1459   */\n  0x00\n    /* \"#utility.yul\":1455:1456   */\n  dup1\n    /* \"#utility.yul\":1448:1460   */\n  revert\n    /* \"#utility.yul\":1386:1462   */\ntag_42:\n    /* \"#utility.yul\":1320:1468   */\n  pop\n  jump\t// out\n    /* \"#utility.yul\":1474:1643   */\ntag_19:\n    /* \"#utility.yul\":1544:1549   */\n  0x00\n    /* \"#utility.yul\":1575:1581   */\n  dup2\n    /* \"#utility.yul\":1569:1582   */\n  mload\n    /* \"#utility.yul\":1560:1582   */\n  swap1\n  pop\n    /* \"#utility.yul\":1591:1637   */\n  tag_44\n    /* \"#utility.yul\":1631:1636   */\n  dup2\n    /* \"#utility.yul\":1591:1637   */\n  tag_18\n  jump\t// in\ntag_44:\n    /* \"#utility.yul\":1474:1643   */\n  swap3\n  swap2\n  pop\n  pop\n  jump\t// out\n    /* \"#utility.yul\":1649:2652   */\ntag_3:\n    /* \"#utility.yul\":1768:1774   */\n  0x00\n    /* \"#utility.yul\":1776:1782   */\n  dup1\n    /* \"#utility.yul\":1784:1790   */\n  0x00\n    /* \"#utility.yul\":1792:1798   */\n  dup1\n    /* \"#utility.yul\":1800:1806   */\n  0x00\n    /* \"#utility.yul\":1849:1852   */\n  0xa0\n    /* \"#utility.yul\":1837:1846   */\n  dup7\n    /* \"#utility.yul\":1828:1835   */\n  dup9\n    /* \"#utility.yul\":1824:1847   */\n  sub\n    /* \"#utility.yul\":1820:1853   */\n  slt\n    /* \"#utility.yul\":1817:1937   */\n  iszero\n  tag_46\n  jumpi\n    /* \"#utility.yul\":1856:1935   */\n  tag_47\n  tag_8\n  jump\t// in\ntag_47:\n    /* \"#utility.yul\":1817:1937   */\ntag_46:\n    /* \"#utility.yul\":1976:1977   */\n  0x00\n    /* \"#utility.yul\":2001:2065   */\n  tag_48\n    /* \"#utility.yul\":2057:2064   */\n  dup9\n    /* \"#utility.yul\":2048:2054   */\n  dup3\n    /* \"#utility.yul\":2037:2046   */\n  dup10\n    /* \"#utility.yul\":2033:2055   */\n  add\n    /* \"#utility.yul\":2001:2065   */\n  tag_12\n  jump\t// in\ntag_48:\n    /* \"#utility.yul\":1991:2065   */\n  swap6\n  pop\n    /* \"#utility.yul\":1947:2075   */\n  pop\n    /* \"#utility.yul\":2114:2116   */\n  0x20\n    /* \"#utility.yul\":2140:2204   */\n  tag_49\n    /* \"#utility.yul\":2196:2203   */\n  dup9\n    /* \"#utility.yul\":2187:2193   */\n  dup3\n    /* \"#utility.yul\":2176:2185   */\n  dup10\n    /* \"#utility.yul\":2172:2194   */\n  add\n    /* \"#utility.yul\":2140:2204   */\n  tag_12\n  jump\t// in\ntag_49:\n    /* \"#utility.yul\":2130:2204   */\n  swap5\n  pop\n    /* \"#utility.yul\":2085:2214   */\n  pop\n    /* \"#utility.yul\":2253:2255   */\n  0x40\n    /* \"#utility.yul\":2279:2343   */\n  tag_50\n    /* \"#utility.yul\":2335:2342   */\n  dup9\n    /* \"#utility.yul\":2326:2332   */\n  dup3\n    /* \"#utility.yul\":2315:2324   */\n  dup10\n    /* \"#utility.yul\":2311:2333   */\n  add\n    /* \"#utility.yul\":2279:2343   */\n  tag_12\n  jump\t// in\ntag_50:\n    /* \"#utility.yul\":2269:2343   */\n  swap4\n  pop\n    /* \"#utility.yul\":2224:2353   */\n  pop\n    /* \"#utility.yul\":2392:2394   */\n  0x60\n    /* \"#utility.yul\":2418:2482   */\n  tag_51\n    /* \"#utility.yul\":2474:2481   */\n  dup9\n    /* \"#utility.yul\":2465:2471   */\n  dup3\n    /* \"#utility.yul\":2454:2463   */\n  dup10\n    /* \"#utility.yul\":2450:2472   */\n  add\n    /* \"#utility.yul\":2418:2482   */\n  tag_16\n  jump\t// in\ntag_51:\n    /* \"#utility.yul\":2408:2482   */\n  swap3\n  pop\n    /* \"#utility.yul\":2363:2492   */\n  pop\n    /* \"#utility.yul\":2531:2534   */\n  0x80\n    /* \"#utility.yul\":2558:2635   */\n  tag_52\n    /* \"#utility.yul\":2627:2634   */\n  dup9\n    /* \"#utility.yul\":2618:2624   */\n  dup3\n    /* \"#utility.yul\":2607:2616   */\n  dup10\n    /* \"#utility.yul\":2603:2625   */\n  add\n    /* \"#utility.yul\":2558:2635   */\n  tag_19\n  jump\t// in\ntag_52:\n    /* \"#utility.yul\":2548:2635   */\n  swap2\n  pop\n    /* \"#utility.yul\":2502:2645   */\n  pop\n    /* \"#utility.yul\":1649:2652   */\n  swap3\n  swap6\n  pop\n  swap3\n  swap6\n  swap1\n  swap4\n  pop\n  jump\t// out\n    /* \"Campaign.sol\":6220:10132  contract Campaign {... */\ntag_6:\n  dataSize(sub_0)\n  dup1\n  dataOffset(sub_0)\n  0x00\n  codecopy\n  0x00\n  return\nstop\n\nsub_0: assembly {\n        /* \"Campaign.sol\":6220:10132  contract Campaign {... */\n      mstore(0x40, 0x80)\n      jumpi(tag_1, lt(calldatasize, 0x04))\n      shr(0xe0, calldataload(0x00))\n      dup1\n      0x8da5cb5b\n      gt\n      tag_20\n      jumpi\n      dup1\n      0xcd034234\n      gt\n      tag_21\n      jumpi\n      dup1\n      0xcd034234\n      eq\n      tag_15\n      jumpi\n      dup1\n      0xd7bb99ba\n      eq\n      tag_16\n      jumpi\n      dup1\n      0xd7d1bbdb\n      eq\n      tag_17\n      jumpi\n      dup1\n      0xf3a504f2\n      eq\n      tag_18\n      jumpi\n      dup1\n      0xf89be593\n      eq\n      tag_19\n      jumpi\n      jump(tag_1)\n    tag_21:\n      dup1\n      0x8da5cb5b\n      eq\n      tag_11\n      jumpi\n      dup1\n      0x937e09b1\n      eq\n      tag_12\n      jumpi\n      dup1\n      0x9fb42b1f\n      eq\n      tag_13\n      jumpi\n      dup1\n      0xb071cbe6\n      eq\n      tag_14\n      jumpi\n      jump(tag_1)\n    tag_20:\n      dup1\n      0x56728fb1\n      gt\n      tag_22\n      jumpi\n      dup1\n      0x56728fb1\n      eq\n      tag_6\n      jumpi\n      dup1\n      0x7075b4ab\n      eq\n      tag_7\n      jumpi\n      dup1\n      0x81d12c58\n      eq\n      tag_8\n      jumpi\n      dup1\n      0x82fde093\n      eq\n      tag_9\n      jumpi\n      dup1\n      0x8a9cfd55\n      eq\n      tag_10\n      jumpi\n      jump(tag_1)\n    tag_22:\n      dup1\n      0x03441006\n      eq\n      tag_2\n      jumpi\n      dup1\n      0x0a144391\n      eq\n      tag_3\n      jumpi\n      dup1\n      0x387b8b12\n      eq\n      tag_4\n      jumpi\n      dup1\n      0x4051ddac\n      eq\n      tag_5\n      jumpi\n    tag_1:\n      0x00\n      dup1\n      revert\n        /* \"Campaign.sol\":8455:8854  function finalizeRequest(uint256 index) public restricted {... */\n    tag_2:\n      callvalue\n      dup1\n      iszero\n      tag_23\n      jumpi\n      0x00\n      dup1\n      revert\n    tag_23:\n      pop\n      tag_24\n      0x04\n      dup1\n      calldatasize\n      sub\n      dup2\n      add\n      swap1\n      tag_25\n      swap2\n      swap1\n      tag_26\n      jump\t// in\n    tag_25:\n      tag_27\n      jump\t// in\n    tag_24:\n      stop\n        /* \"Campaign.sol\":6656:6700  mapping(address => uint256) public approvers */\n    tag_3:\n      callvalue\n      dup1\n      iszero\n      tag_28\n      jumpi\n      0x00\n      dup1\n      revert\n    tag_28:\n      pop\n      tag_29\n      0x04\n      dup1\n      calldatasize\n      sub\n      dup2\n      add\n      swap1\n      tag_30\n      swap2\n      swap1\n      tag_31\n      jump\t// in\n    tag_30:\n      tag_32\n      jump\t// in\n    tag_29:\n      mload(0x40)\n      tag_33\n      swap2\n      swap1\n      tag_34\n      jump\t// in\n    tag_33:\n      mload(0x40)\n      dup1\n      swap2\n      sub\n      swap1\n      return\n        /* \"Campaign.sol\":9328:9806  function finalizeRefund() public {... */\n    tag_4:\n      callvalue\n      dup1\n      iszero\n      tag_35\n      jumpi\n      0x00\n      dup1\n      revert\n    tag_35:\n      pop\n      tag_36\n      tag_37\n      jump\t// in\n    tag_36:\n      stop\n        /* \"Campaign.sol\":9820:10127  function getSummary() public view returns ( uint256, uint256, uint256, uint256, address, uint256)... */\n    tag_5:\n      callvalue\n      dup1\n      iszero\n      tag_38\n      jumpi\n      0x00\n      dup1\n      revert\n    tag_38:\n      pop\n      tag_39\n      tag_40\n      jump\t// in\n    tag_39:\n      mload(0x40)\n      tag_41\n      swap7\n      swap6\n      swap5\n      swap4\n      swap3\n      swap2\n      swap1\n      tag_42\n      jump\t// in\n    tag_41:\n      mload(0x40)\n      dup1\n      swap2\n      sub\n      swap1\n      return\n        /* \"Campaign.sol\":8862:9005  function getApprovalRequest(address sender, uint256 index) public view returns (bool) {... */\n    tag_6:\n      callvalue\n      dup1\n      iszero\n      tag_43\n      jumpi\n      0x00\n      dup1\n      revert\n    tag_43:\n      pop\n      tag_44\n      0x04\n      dup1\n      calldatasize\n      sub\n      dup2\n      add\n      swap1\n      tag_45\n      swap2\n      swap1\n      tag_46\n      jump\t// in\n    tag_45:\n      tag_47\n      jump\t// in\n    tag_44:\n      mload(0x40)\n      tag_48\n      swap2\n      swap1\n      tag_49\n      jump\t// in\n    tag_48:\n      mload(0x40)\n      dup1\n      swap2\n      sub\n      swap1\n      return\n        /* \"Campaign.sol\":9013:9320  function requstRefund() public {... */\n    tag_7:\n      callvalue\n      dup1\n      iszero\n      tag_50\n      jumpi\n      0x00\n      dup1\n      revert\n    tag_50:\n      pop\n      tag_51\n      tag_52\n      jump\t// in\n    tag_51:\n      stop\n        /* \"Campaign.sol\":6779:6822  mapping(uint256 => Request) public requests */\n    tag_8:\n      callvalue\n      dup1\n      iszero\n      tag_53\n      jumpi\n      0x00\n      dup1\n      revert\n    tag_53:\n      pop\n      tag_54\n      0x04\n      dup1\n      calldatasize\n      sub\n      dup2\n      add\n      swap1\n      tag_55\n      swap2\n      swap1\n      tag_26\n      jump\t// in\n    tag_55:\n      tag_56\n      jump\t// in\n    tag_54:\n      mload(0x40)\n      tag_57\n      swap6\n      swap5\n      swap4\n      swap3\n      swap2\n      swap1\n      tag_58\n      jump\t// in\n    tag_57:\n      mload(0x40)\n      dup1\n      swap2\n      sub\n      swap1\n      return\n        /* \"Campaign.sol\":6534:6563  uint256 public approversCount */\n    tag_9:\n      callvalue\n      dup1\n      iszero\n      tag_59\n      jumpi\n      0x00\n      dup1\n      revert\n    tag_59:\n      pop\n      tag_60\n      tag_61\n      jump\t// in\n    tag_60:\n      mload(0x40)\n      tag_62\n      swap2\n      swap1\n      tag_34\n      jump\t// in\n    tag_62:\n      mload(0x40)\n      dup1\n      swap2\n      sub\n      swap1\n      return\n        /* \"Campaign.sol\":7705:8105  function createRequest(... */\n    tag_10:\n      callvalue\n      dup1\n      iszero\n      tag_63\n      jumpi\n      0x00\n      dup1\n      revert\n    tag_63:\n      pop\n      tag_64\n      0x04\n      dup1\n      calldatasize\n      sub\n      dup2\n      add\n      swap1\n      tag_65\n      swap2\n      swap1\n      tag_66\n      jump\t// in\n    tag_65:\n      tag_67\n      jump\t// in\n    tag_64:\n      stop\n        /* \"Campaign.sol\":6466:6486  address public owner */\n    tag_11:\n      callvalue\n      dup1\n      iszero\n      tag_68\n      jumpi\n      0x00\n      dup1\n      revert\n    tag_68:\n      pop\n      tag_69\n      tag_70\n      jump\t// in\n    tag_69:\n      mload(0x40)\n      tag_71\n      swap2\n      swap1\n      tag_72\n      jump\t// in\n    tag_71:\n      mload(0x40)\n      dup1\n      swap2\n      sub\n      swap1\n      return\n        /* \"Campaign.sol\":6493:6527  uint256 public minimumContribution */\n    tag_12:\n      callvalue\n      dup1\n      iszero\n      tag_73\n      jumpi\n      0x00\n      dup1\n      revert\n    tag_73:\n      pop\n      tag_74\n      tag_75\n      jump\t// in\n    tag_74:\n      mload(0x40)\n      tag_76\n      swap2\n      swap1\n      tag_34\n      jump\t// in\n    tag_76:\n      mload(0x40)\n      dup1\n      swap2\n      sub\n      swap1\n      return\n        /* \"Campaign.sol\":6746:6772  uint256 public numRequests */\n    tag_13:\n      callvalue\n      dup1\n      iszero\n      tag_77\n      jumpi\n      0x00\n      dup1\n      revert\n    tag_77:\n      pop\n      tag_78\n      tag_79\n      jump\t// in\n    tag_78:\n      mload(0x40)\n      tag_80\n      swap2\n      swap1\n      tag_34\n      jump\t// in\n    tag_80:\n      mload(0x40)\n      dup1\n      swap2\n      sub\n      swap1\n      return\n        /* \"Campaign.sol\":6627:6649  uint256 public hardcap */\n    tag_14:\n      callvalue\n      dup1\n      iszero\n      tag_81\n      jumpi\n      0x00\n      dup1\n      revert\n    tag_81:\n      pop\n      tag_82\n      tag_83\n      jump\t// in\n    tag_82:\n      mload(0x40)\n      tag_84\n      swap2\n      swap1\n      tag_34\n      jump\t// in\n    tag_84:\n      mload(0x40)\n      dup1\n      swap2\n      sub\n      swap1\n      return\n        /* \"Campaign.sol\":6859:6887  uint256 public refundRequest */\n    tag_15:\n      callvalue\n      dup1\n      iszero\n      tag_85\n      jumpi\n      0x00\n      dup1\n      revert\n    tag_85:\n      pop\n      tag_86\n      tag_87\n      jump\t// in\n    tag_86:\n      mload(0x40)\n      tag_88\n      swap2\n      swap1\n      tag_34\n      jump\t// in\n    tag_88:\n      mload(0x40)\n      dup1\n      swap2\n      sub\n      swap1\n      return\n        /* \"Campaign.sol\":7309:7697  function contribute() public payable {... */\n    tag_16:\n      tag_89\n      tag_90\n      jump\t// in\n    tag_89:\n      stop\n        /* \"Campaign.sol\":8113:8447  function approveRequest(uint256 index) public {... */\n    tag_17:\n      callvalue\n      dup1\n      iszero\n      tag_91\n      jumpi\n      0x00\n      dup1\n      revert\n    tag_91:\n      pop\n      tag_92\n      0x04\n      dup1\n      calldatasize\n      sub\n      dup2\n      add\n      swap1\n      tag_93\n      swap2\n      swap1\n      tag_26\n      jump\t// in\n    tag_93:\n      tag_94\n      jump\t// in\n    tag_92:\n      stop\n        /* \"Campaign.sol\":6570:6591  uint256 public funded */\n    tag_18:\n      callvalue\n      dup1\n      iszero\n      tag_95\n      jumpi\n      0x00\n      dup1\n      revert\n    tag_95:\n      pop\n      tag_96\n      tag_97\n      jump\t// in\n    tag_96:\n      mload(0x40)\n      tag_98\n      swap2\n      swap1\n      tag_34\n      jump\t// in\n    tag_98:\n      mload(0x40)\n      dup1\n      swap2\n      sub\n      swap1\n      return\n        /* \"Campaign.sol\":6598:6620  uint256 public softcap */\n    tag_19:\n      callvalue\n      dup1\n      iszero\n      tag_99\n      jumpi\n      0x00\n      dup1\n      revert\n    tag_99:\n      pop\n      tag_100\n      tag_101\n      jump\t// in\n    tag_100:\n      mload(0x40)\n      tag_102\n      swap2\n      swap1\n      tag_34\n      jump\t// in\n    tag_102:\n      mload(0x40)\n      dup1\n      swap2\n      sub\n      swap1\n      return\n        /* \"Campaign.sol\":8455:8854  function finalizeRequest(uint256 index) public restricted {... */\n    tag_27:\n        /* \"Campaign.sol\":6965:6970  owner */\n      0x00\n      dup1\n      sload\n      swap1\n      0x0100\n      exp\n      swap1\n      div\n      0xffffffffffffffffffffffffffffffffffffffff\n      and\n        /* \"Campaign.sol\":6951:6970  msg.sender == owner */\n      0xffffffffffffffffffffffffffffffffffffffff\n      and\n        /* \"Campaign.sol\":6951:6961  msg.sender */\n      caller\n        /* \"Campaign.sol\":6951:6970  msg.sender == owner */\n      0xffffffffffffffffffffffffffffffffffffffff\n      and\n      eq\n        /* \"Campaign.sol\":6929:7040  require(... */\n      tag_104\n      jumpi\n      mload(0x40)\n      0x08c379a000000000000000000000000000000000000000000000000000000000\n      dup2\n      mstore\n      0x04\n      add\n      tag_105\n      swap1\n      tag_106\n      jump\t// in\n    tag_105:\n      mload(0x40)\n      dup1\n      swap2\n      sub\n      swap1\n      revert\n    tag_104:\n        /* \"Campaign.sol\":8524:8547  Request storage request */\n      0x00\n        /* \"Campaign.sol\":8550:8558  requests */\n      0x09\n        /* \"Campaign.sol\":8550:8565  requests[index] */\n      0x00\n        /* \"Campaign.sol\":8559:8564  index */\n      dup4\n        /* \"Campaign.sol\":8550:8565  requests[index] */\n      dup2\n      mstore\n      0x20\n      add\n      swap1\n      dup2\n      mstore\n      0x20\n      add\n      0x00\n      keccak256\n        /* \"Campaign.sol\":8524:8565  Request storage request = requests[index] */\n      swap1\n      pop\n        /* \"Campaign.sol\":8585:8592  request */\n      dup1\n        /* \"Campaign.sol\":8585:8601  request.complete */\n      0x02\n      add\n      0x14\n      swap1\n      sload\n      swap1\n      0x0100\n      exp\n      swap1\n      div\n      0xff\n      and\n        /* \"Campaign.sol\":8584:8601  !request.complete */\n      iszero\n        /* \"Campaign.sol\":8576:8634  require(!request.complete, \"Request is already completed\") */\n      tag_108\n      jumpi\n      mload(0x40)\n      0x08c379a000000000000000000000000000000000000000000000000000000000\n      dup2\n      mstore\n      0x04\n      add\n      tag_109\n      swap1\n      tag_110\n      jump\t// in\n    tag_109:\n      mload(0x40)\n      dup1\n      swap2\n      sub\n      swap1\n      revert\n    tag_108:\n        /* \"Campaign.sol\":8709:8710  2 */\n      0x02\n        /* \"Campaign.sol\":8692:8706  approversCount */\n      dup1\n      sload\n        /* \"Campaign.sol\":8692:8710  approversCount / 2 */\n      tag_111\n      swap2\n      swap1\n      tag_112\n      jump\t// in\n    tag_111:\n        /* \"Campaign.sol\":8667:8674  request */\n      dup2\n        /* \"Campaign.sol\":8667:8688  request.approvalCount */\n      0x04\n      add\n      sload\n        /* \"Campaign.sol\":8667:8710  request.approvalCount >= approversCount / 2 */\n      lt\n      iszero\n        /* \"Campaign.sol\":8645:8758  require(... */\n      tag_113\n      jumpi\n      mload(0x40)\n      0x08c379a000000000000000000000000000000000000000000000000000000000\n      dup2\n      mstore\n      0x04\n      add\n      tag_114\n      swap1\n      tag_115\n      jump\t// in\n    tag_114:\n      mload(0x40)\n      dup1\n      swap2\n      sub\n      swap1\n      revert\n    tag_113:\n        /* \"Campaign.sol\":8771:8778  request */\n      dup1\n        /* \"Campaign.sol\":8771:8788  request.recipient */\n      0x02\n      add\n      0x00\n      swap1\n      sload\n      swap1\n      0x0100\n      exp\n      swap1\n      div\n      0xffffffffffffffffffffffffffffffffffffffff\n      and\n        /* \"Campaign.sol\":8771:8797  request.recipient.transfer */\n      0xffffffffffffffffffffffffffffffffffffffff\n      and\n        /* \"Campaign.sol\":8771:8812  request.recipient.transfer(request.value) */\n      0x08fc\n        /* \"Campaign.sol\":8798:8805  request */\n      dup3\n        /* \"Campaign.sol\":8798:8811  request.value */\n      0x01\n      add\n      sload\n        /* \"Campaign.sol\":8771:8812  request.recipient.transfer(request.value) */\n      swap1\n      dup2\n      iszero\n      mul\n      swap1\n      mload(0x40)\n      0x00\n      mload(0x40)\n      dup1\n      dup4\n      sub\n      dup2\n      dup6\n      dup9\n      dup9\n      call\n      swap4\n      pop\n      pop\n      pop\n      pop\n      iszero\n      dup1\n      iszero\n      tag_117\n      jumpi\n      returndatasize\n      0x00\n      dup1\n      returndatacopy\n      revert(0x00, returndatasize)\n    tag_117:\n      pop\n        /* \"Campaign.sol\":8842:8846  true */\n      0x01\n        /* \"Campaign.sol\":8823:8830  request */\n      dup2\n        /* \"Campaign.sol\":8823:8839  request.complete */\n      0x02\n      add\n      0x14\n        /* \"Campaign.sol\":8823:8846  request.complete = true */\n      0x0100\n      exp\n      dup2\n      sload\n      dup2\n      0xff\n      mul\n      not\n      and\n      swap1\n      dup4\n      iszero\n      iszero\n      mul\n      or\n      swap1\n      sstore\n      pop\n        /* \"Campaign.sol\":8513:8854  {... */\n      pop\n        /* \"Campaign.sol\":8455:8854  function finalizeRequest(uint256 index) public restricted {... */\n      pop\n      jump\t// out\n        /* \"Campaign.sol\":6656:6700  mapping(address => uint256) public approvers */\n    tag_32:\n      mstore(0x20, 0x06)\n      dup1\n      0x00\n      mstore\n      keccak256(0x00, 0x40)\n      0x00\n      swap2\n      pop\n      swap1\n      pop\n      sload\n      dup2\n      jump\t// out\n        /* \"Campaign.sol\":9328:9806  function finalizeRefund() public {... */\n    tag_37:\n        /* \"Campaign.sol\":9370:9392  Request storage refund */\n      0x00\n        /* \"Campaign.sol\":9395:9403  requests */\n      0x09\n        /* \"Campaign.sol\":9395:9418  requests[refundRequest] */\n      0x00\n        /* \"Campaign.sol\":9404:9417  refundRequest */\n      sload(0x0b)\n        /* \"Campaign.sol\":9395:9418  requests[refundRequest] */\n      dup2\n      mstore\n      0x20\n      add\n      swap1\n      dup2\n      mstore\n      0x20\n      add\n      0x00\n      keccak256\n        /* \"Campaign.sol\":9370:9418  Request storage refund = requests[refundRequest] */\n      swap1\n      pop\n        /* \"Campaign.sol\":9436:9442  refund */\n      dup1\n        /* \"Campaign.sol\":9436:9451  refund.complete */\n      0x02\n      add\n      0x14\n      swap1\n      sload\n      swap1\n      0x0100\n      exp\n      swap1\n      div\n      0xff\n      and\n        /* \"Campaign.sol\":9435:9451  !refund.complete */\n      iszero\n        /* \"Campaign.sol\":9427:9483  require(!refund.complete, \"Refund is already completed\") */\n      tag_119\n      jumpi\n      mload(0x40)\n      0x08c379a000000000000000000000000000000000000000000000000000000000\n      dup2\n      mstore\n      0x04\n      add\n      tag_120\n      swap1\n      tag_121\n      jump\t// in\n    tag_120:\n      mload(0x40)\n      dup1\n      swap2\n      sub\n      swap1\n      revert\n    tag_119:\n        /* \"Campaign.sol\":9559:9560  3 */\n      0x03\n        /* \"Campaign.sol\":9554:9555  4 */\n      0x04\n        /* \"Campaign.sol\":9537:9551  approversCount */\n      sload(0x02)\n        /* \"Campaign.sol\":9537:9555  approversCount / 4 */\n      tag_122\n      swap2\n      swap1\n      tag_112\n      jump\t// in\n    tag_122:\n        /* \"Campaign.sol\":9536:9560  (approversCount / 4) * 3 */\n      tag_123\n      swap2\n      swap1\n      tag_124\n      jump\t// in\n    tag_123:\n        /* \"Campaign.sol\":9512:9518  refund */\n      dup2\n        /* \"Campaign.sol\":9512:9532  refund.approvalCount */\n      0x04\n      add\n      sload\n        /* \"Campaign.sol\":9512:9560  refund.approvalCount >= (approversCount / 4) * 3 */\n      lt\n      iszero\n        /* \"Campaign.sol\":9492:9604  require(... */\n      tag_125\n      jumpi\n      mload(0x40)\n      0x08c379a000000000000000000000000000000000000000000000000000000000\n      dup2\n      mstore\n      0x04\n      add\n      tag_126\n      swap1\n      tag_115\n      jump\t// in\n    tag_126:\n      mload(0x40)\n      dup1\n      swap2\n      sub\n      swap1\n      revert\n    tag_125:\n        /* \"Campaign.sol\":9615:9624  uint256 i */\n      0x00\n        /* \"Campaign.sol\":9637:9799  while (i < keys.length) {... */\n    tag_127:\n        /* \"Campaign.sol\":9648:9652  keys */\n      0x07\n        /* \"Campaign.sol\":9648:9659  keys.length */\n      dup1\n      sload\n      swap1\n      pop\n        /* \"Campaign.sol\":9644:9645  i */\n      dup2\n        /* \"Campaign.sol\":9644:9659  i < keys.length */\n      lt\n        /* \"Campaign.sol\":9637:9799  while (i < keys.length) {... */\n      iszero\n      tag_128\n      jumpi\n        /* \"Campaign.sol\":9674:9686  uint256 part */\n      0x00\n        /* \"Campaign.sol\":9751:9754  100 */\n      0x64\n        /* \"Campaign.sol\":9727:9748  address(this).balance */\n      selfbalance\n        /* \"Campaign.sol\":9720:9723  100 */\n      0x64\n        /* \"Campaign.sol\":9711:9717  funded */\n      sload(0x03)\n        /* \"Campaign.sol\":9690:9699  approvers */\n      0x06\n        /* \"Campaign.sol\":9690:9708  approvers[keys[i]] */\n      0x00\n        /* \"Campaign.sol\":9700:9704  keys */\n      0x07\n        /* \"Campaign.sol\":9705:9706  i */\n      dup9\n        /* \"Campaign.sol\":9700:9707  keys[i] */\n      dup2\n      sload\n      dup2\n      lt\n      tag_129\n      jumpi\n      tag_130\n      tag_131\n      jump\t// in\n    tag_130:\n    tag_129:\n      swap1\n      0x00\n      mstore\n      keccak256(0x00, 0x20)\n      add\n      0x00\n      swap1\n      sload\n      swap1\n      0x0100\n      exp\n      swap1\n      div\n      0xffffffffffffffffffffffffffffffffffffffff\n      and\n        /* \"Campaign.sol\":9690:9708  approvers[keys[i]] */\n      0xffffffffffffffffffffffffffffffffffffffff\n      and\n      0xffffffffffffffffffffffffffffffffffffffff\n      and\n      dup2\n      mstore\n      0x20\n      add\n      swap1\n      dup2\n      mstore\n      0x20\n      add\n      0x00\n      keccak256\n      sload\n        /* \"Campaign.sol\":9690:9717  approvers[keys[i]] / funded */\n      tag_133\n      swap2\n      swap1\n      tag_112\n      jump\t// in\n    tag_133:\n        /* \"Campaign.sol\":9690:9723  approvers[keys[i]] / funded * 100 */\n      tag_134\n      swap2\n      swap1\n      tag_124\n      jump\t// in\n    tag_134:\n        /* \"Campaign.sol\":9689:9748  (approvers[keys[i]] / funded * 100) / address(this).balance */\n      tag_135\n      swap2\n      swap1\n      tag_112\n      jump\t// in\n    tag_135:\n        /* \"Campaign.sol\":9689:9754  (approvers[keys[i]] / funded * 100) / address(this).balance * 100 */\n      tag_136\n      swap2\n      swap1\n      tag_124\n      jump\t// in\n    tag_136:\n        /* \"Campaign.sol\":9674:9754  uint256 part = (approvers[keys[i]] / funded * 100) / address(this).balance * 100 */\n      swap1\n      pop\n        /* \"Campaign.sol\":9767:9771  keys */\n      0x07\n        /* \"Campaign.sol\":9772:9773  i */\n      dup3\n        /* \"Campaign.sol\":9767:9774  keys[i] */\n      dup2\n      sload\n      dup2\n      lt\n      tag_137\n      jumpi\n      tag_138\n      tag_131\n      jump\t// in\n    tag_138:\n    tag_137:\n      swap1\n      0x00\n      mstore\n      keccak256(0x00, 0x20)\n      add\n      0x00\n      swap1\n      sload\n      swap1\n      0x0100\n      exp\n      swap1\n      div\n      0xffffffffffffffffffffffffffffffffffffffff\n      and\n        /* \"Campaign.sol\":9767:9783  keys[i].transfer */\n      0xffffffffffffffffffffffffffffffffffffffff\n      and\n        /* \"Campaign.sol\":9767:9789  keys[i].transfer(part) */\n      0x08fc\n        /* \"Campaign.sol\":9784:9788  part */\n      dup3\n        /* \"Campaign.sol\":9767:9789  keys[i].transfer(part) */\n      swap1\n      dup2\n      iszero\n      mul\n      swap1\n      mload(0x40)\n      0x00\n      mload(0x40)\n      dup1\n      dup4\n      sub\n      dup2\n      dup6\n      dup9\n      dup9\n      call\n      swap4\n      pop\n      pop\n      pop\n      pop\n      iszero\n      dup1\n      iszero\n      tag_141\n      jumpi\n      returndatasize\n      0x00\n      dup1\n      returndatacopy\n      revert(0x00, returndatasize)\n    tag_141:\n      pop\n        /* \"Campaign.sol\":9661:9799  {... */\n      pop\n        /* \"Campaign.sol\":9637:9799  while (i < keys.length) {... */\n      jump(tag_127)\n    tag_128:\n        /* \"Campaign.sol\":9361:9806  {... */\n      pop\n      pop\n        /* \"Campaign.sol\":9328:9806  function finalizeRefund() public {... */\n      jump\t// out\n        /* \"Campaign.sol\":9820:10127  function getSummary() public view returns ( uint256, uint256, uint256, uint256, address, uint256)... */\n    tag_40:\n        /* \"Campaign.sol\":9864:9871  uint256 */\n      0x00\n        /* \"Campaign.sol\":9873:9880  uint256 */\n      dup1\n        /* \"Campaign.sol\":9882:9889  uint256 */\n      0x00\n        /* \"Campaign.sol\":9891:9898  uint256 */\n      dup1\n        /* \"Campaign.sol\":9900:9907  address */\n      0x00\n        /* \"Campaign.sol\":9909:9916  uint256 */\n      dup1\n        /* \"Campaign.sol\":9956:9975  minimumContribution */\n      sload(0x01)\n        /* \"Campaign.sol\":9990:10011  address(this).balance */\n      selfbalance\n        /* \"Campaign.sol\":10026:10040  approversCount */\n      sload(0x02)\n        /* \"Campaign.sol\":10055:10062  hardcap */\n      sload(0x05)\n        /* \"Campaign.sol\":10077:10082  owner */\n      0x00\n      dup1\n      sload\n      swap1\n      0x0100\n      exp\n      swap1\n      div\n      0xffffffffffffffffffffffffffffffffffffffff\n      and\n        /* \"Campaign.sol\":10097:10108  numRequests */\n      sload(0x08)\n        /* \"Campaign.sol\":9934:10119  return (... */\n      swap6\n      pop\n      swap6\n      pop\n      swap6\n      pop\n      swap6\n      pop\n      swap6\n      pop\n      swap6\n      pop\n        /* \"Campaign.sol\":9820:10127  function getSummary() public view returns ( uint256, uint256, uint256, uint256, address, uint256)... */\n      swap1\n      swap2\n      swap3\n      swap4\n      swap5\n      swap6\n      jump\t// out\n        /* \"Campaign.sol\":8862:9005  function getApprovalRequest(address sender, uint256 index) public view returns (bool) {... */\n    tag_47:\n        /* \"Campaign.sol\":8942:8946  bool */\n      0x00\n        /* \"Campaign.sol\":8964:8972  requests */\n      0x09\n        /* \"Campaign.sol\":8964:8979  requests[index] */\n      0x00\n        /* \"Campaign.sol\":8973:8978  index */\n      dup4\n        /* \"Campaign.sol\":8964:8979  requests[index] */\n      dup2\n      mstore\n      0x20\n      add\n      swap1\n      dup2\n      mstore\n      0x20\n      add\n      0x00\n      keccak256\n        /* \"Campaign.sol\":8964:8989  requests[index].approvals */\n      0x03\n      add\n        /* \"Campaign.sol\":8964:8997  requests[index].approvals[sender] */\n      0x00\n        /* \"Campaign.sol\":8990:8996  sender */\n      dup5\n        /* \"Campaign.sol\":8964:8997  requests[index].approvals[sender] */\n      0xffffffffffffffffffffffffffffffffffffffff\n      and\n      0xffffffffffffffffffffffffffffffffffffffff\n      and\n      dup2\n      mstore\n      0x20\n      add\n      swap1\n      dup2\n      mstore\n      0x20\n      add\n      0x00\n      keccak256\n      0x00\n      swap1\n      sload\n      swap1\n      0x0100\n      exp\n      swap1\n      div\n      0xff\n      and\n        /* \"Campaign.sol\":8957:8997  return requests[index].approvals[sender] */\n      swap1\n      pop\n        /* \"Campaign.sol\":8862:9005  function getApprovalRequest(address sender, uint256 index) public view returns (bool) {... */\n      swap3\n      swap2\n      pop\n      pop\n      jump\t// out\n        /* \"Campaign.sol\":9013:9320  function requstRefund() public {... */\n    tag_52:\n        /* \"Campaign.sol\":9069:9080  numRequests */\n      sload(0x08)\n        /* \"Campaign.sol\":9053:9066  refundRequest */\n      0x0b\n        /* \"Campaign.sol\":9053:9080  refundRequest = numRequests */\n      dup2\n      swap1\n      sstore\n      pop\n        /* \"Campaign.sol\":9089:9111  Request storage refund */\n      0x00\n        /* \"Campaign.sol\":9114:9122  requests */\n      0x09\n        /* \"Campaign.sol\":9114:9137  requests[numRequests++] */\n      0x00\n        /* \"Campaign.sol\":9123:9134  numRequests */\n      0x08\n      0x00\n        /* \"Campaign.sol\":9123:9136  numRequests++ */\n      dup2\n      sload\n      dup1\n      swap3\n      swap2\n      swap1\n      tag_145\n      swap1\n      tag_146\n      jump\t// in\n    tag_145:\n      swap2\n      swap1\n      pop\n      sstore\n        /* \"Campaign.sol\":9114:9137  requests[numRequests++] */\n      dup2\n      mstore\n      0x20\n      add\n      swap1\n      dup2\n      mstore\n      0x20\n      add\n      0x00\n      keccak256\n        /* \"Campaign.sol\":9089:9137  Request storage refund = requests[numRequests++] */\n      swap1\n      pop\n        /* \"Campaign.sol\":9146:9175  refund.description = \"Refund\" */\n      mload(0x40)\n      dup1\n      0x40\n      add\n      0x40\n      mstore\n      dup1\n      0x06\n      dup2\n      mstore\n      0x20\n      add\n      0x526566756e640000000000000000000000000000000000000000000000000000\n      dup2\n      mstore\n      pop\n        /* \"Campaign.sol\":9146:9152  refund */\n      dup2\n        /* \"Campaign.sol\":9146:9164  refund.description */\n      0x00\n      add\n        /* \"Campaign.sol\":9146:9175  refund.description = \"Refund\" */\n      swap1\n      dup1\n      mload\n      swap1\n      0x20\n      add\n      swap1\n      tag_147\n      swap3\n      swap2\n      swap1\n      tag_148\n      jump\t// in\n    tag_147:\n      pop\n        /* \"Campaign.sol\":9199:9200  0 */\n      0x00\n        /* \"Campaign.sol\":9184:9190  refund */\n      dup2\n        /* \"Campaign.sol\":9184:9196  refund.value */\n      0x01\n      add\n        /* \"Campaign.sol\":9184:9200  refund.value = 0 */\n      dup2\n      swap1\n      sstore\n      pop\n        /* \"Campaign.sol\":9236:9246  msg.sender */\n      caller\n        /* \"Campaign.sol\":9209:9215  refund */\n      dup2\n        /* \"Campaign.sol\":9209:9225  refund.recipient */\n      0x02\n      add\n      0x00\n        /* \"Campaign.sol\":9209:9247  refund.recipient = payable(msg.sender) */\n      0x0100\n      exp\n      dup2\n      sload\n      dup2\n      0xffffffffffffffffffffffffffffffffffffffff\n      mul\n      not\n      and\n      swap1\n      dup4\n      0xffffffffffffffffffffffffffffffffffffffff\n      and\n      mul\n      or\n      swap1\n      sstore\n      pop\n        /* \"Campaign.sol\":9274:9279  false */\n      0x00\n        /* \"Campaign.sol\":9256:9262  refund */\n      dup2\n        /* \"Campaign.sol\":9256:9271  refund.complete */\n      0x02\n      add\n      0x14\n        /* \"Campaign.sol\":9256:9279  refund.complete = false */\n      0x0100\n      exp\n      dup2\n      sload\n      dup2\n      0xff\n      mul\n      not\n      and\n      swap1\n      dup4\n      iszero\n      iszero\n      mul\n      or\n      swap1\n      sstore\n      pop\n        /* \"Campaign.sol\":9311:9312  0 */\n      0x00\n        /* \"Campaign.sol\":9288:9294  refund */\n      dup2\n        /* \"Campaign.sol\":9288:9308  refund.approvalCount */\n      0x04\n      add\n        /* \"Campaign.sol\":9288:9312  refund.approvalCount = 0 */\n      dup2\n      swap1\n      sstore\n      pop\n        /* \"Campaign.sol\":9044:9320  {... */\n      pop\n        /* \"Campaign.sol\":9013:9320  function requstRefund() public {... */\n      jump\t// out\n        /* \"Campaign.sol\":6779:6822  mapping(uint256 => Request) public requests */\n    tag_56:\n      mstore(0x20, 0x09)\n      dup1\n      0x00\n      mstore\n      keccak256(0x00, 0x40)\n      0x00\n      swap2\n      pop\n      swap1\n      pop\n      dup1\n      0x00\n      add\n      dup1\n      sload\n      tag_149\n      swap1\n      tag_150\n      jump\t// in\n    tag_149:\n      dup1\n      0x1f\n      add\n      0x20\n      dup1\n      swap2\n      div\n      mul\n      0x20\n      add\n      mload(0x40)\n      swap1\n      dup2\n      add\n      0x40\n      mstore\n      dup1\n      swap3\n      swap2\n      swap1\n      dup2\n      dup2\n      mstore\n      0x20\n      add\n      dup3\n      dup1\n      sload\n      tag_151\n      swap1\n      tag_150\n      jump\t// in\n    tag_151:\n      dup1\n      iszero\n      tag_152\n      jumpi\n      dup1\n      0x1f\n      lt\n      tag_153\n      jumpi\n      0x0100\n      dup1\n      dup4\n      sload\n      div\n      mul\n      dup4\n      mstore\n      swap2\n      0x20\n      add\n      swap2\n      jump(tag_152)\n    tag_153:\n      dup3\n      add\n      swap2\n      swap1\n      0x00\n      mstore\n      keccak256(0x00, 0x20)\n      swap1\n    tag_154:\n      dup2\n      sload\n      dup2\n      mstore\n      swap1\n      0x01\n      add\n      swap1\n      0x20\n      add\n      dup1\n      dup4\n      gt\n      tag_154\n      jumpi\n      dup3\n      swap1\n      sub\n      0x1f\n      and\n      dup3\n      add\n      swap2\n    tag_152:\n      pop\n      pop\n      pop\n      pop\n      pop\n      swap1\n      dup1\n      0x01\n      add\n      sload\n      swap1\n      dup1\n      0x02\n      add\n      0x00\n      swap1\n      sload\n      swap1\n      0x0100\n      exp\n      swap1\n      div\n      0xffffffffffffffffffffffffffffffffffffffff\n      and\n      swap1\n      dup1\n      0x02\n      add\n      0x14\n      swap1\n      sload\n      swap1\n      0x0100\n      exp\n      swap1\n      div\n      0xff\n      and\n      swap1\n      dup1\n      0x04\n      add\n      sload\n      swap1\n      pop\n      dup6\n      jump\t// out\n        /* \"Campaign.sol\":6534:6563  uint256 public approversCount */\n    tag_61:\n      sload(0x02)\n      dup2\n      jump\t// out\n        /* \"Campaign.sol\":7705:8105  function createRequest(... */\n    tag_67:\n        /* \"Campaign.sol\":6965:6970  owner */\n      0x00\n      dup1\n      sload\n      swap1\n      0x0100\n      exp\n      swap1\n      div\n      0xffffffffffffffffffffffffffffffffffffffff\n      and\n        /* \"Campaign.sol\":6951:6970  msg.sender == owner */\n      0xffffffffffffffffffffffffffffffffffffffff\n      and\n        /* \"Campaign.sol\":6951:6961  msg.sender */\n      caller\n        /* \"Campaign.sol\":6951:6970  msg.sender == owner */\n      0xffffffffffffffffffffffffffffffffffffffff\n      and\n      eq\n        /* \"Campaign.sol\":6929:7040  require(... */\n      tag_156\n      jumpi\n      mload(0x40)\n      0x08c379a000000000000000000000000000000000000000000000000000000000\n      dup2\n      mstore\n      0x04\n      add\n      tag_157\n      swap1\n      tag_106\n      jump\t// in\n    tag_157:\n      mload(0x40)\n      dup1\n      swap2\n      sub\n      swap1\n      revert\n    tag_156:\n        /* \"Campaign.sol\":7852:7875  Request storage request */\n      0x00\n        /* \"Campaign.sol\":7878:7886  requests */\n      0x09\n        /* \"Campaign.sol\":7878:7901  requests[numRequests++] */\n      0x00\n        /* \"Campaign.sol\":7887:7898  numRequests */\n      0x08\n      0x00\n        /* \"Campaign.sol\":7887:7900  numRequests++ */\n      dup2\n      sload\n      dup1\n      swap3\n      swap2\n      swap1\n      tag_159\n      swap1\n      tag_146\n      jump\t// in\n    tag_159:\n      swap2\n      swap1\n      pop\n      sstore\n        /* \"Campaign.sol\":7878:7901  requests[numRequests++] */\n      dup2\n      mstore\n      0x20\n      add\n      swap1\n      dup2\n      mstore\n      0x20\n      add\n      0x00\n      keccak256\n        /* \"Campaign.sol\":7852:7901  Request storage request = requests[numRequests++] */\n      swap1\n      pop\n        /* \"Campaign.sol\":7934:7945  description */\n      dup4\n        /* \"Campaign.sol\":7912:7919  request */\n      dup2\n        /* \"Campaign.sol\":7912:7931  request.description */\n      0x00\n      add\n        /* \"Campaign.sol\":7912:7945  request.description = description */\n      swap1\n      dup1\n      mload\n      swap1\n      0x20\n      add\n      swap1\n      tag_160\n      swap3\n      swap2\n      swap1\n      tag_148\n      jump\t// in\n    tag_160:\n      pop\n        /* \"Campaign.sol\":7972:7977  value */\n      dup3\n        /* \"Campaign.sol\":7956:7963  request */\n      dup2\n        /* \"Campaign.sol\":7956:7969  request.value */\n      0x01\n      add\n        /* \"Campaign.sol\":7956:7977  request.value = value */\n      dup2\n      swap1\n      sstore\n      pop\n        /* \"Campaign.sol\":8016:8025  recipient */\n      dup2\n        /* \"Campaign.sol\":7988:7995  request */\n      dup2\n        /* \"Campaign.sol\":7988:8005  request.recipient */\n      0x02\n      add\n      0x00\n        /* \"Campaign.sol\":7988:8026  request.recipient = payable(recipient) */\n      0x0100\n      exp\n      dup2\n      sload\n      dup2\n      0xffffffffffffffffffffffffffffffffffffffff\n      mul\n      not\n      and\n      swap1\n      dup4\n      0xffffffffffffffffffffffffffffffffffffffff\n      and\n      mul\n      or\n      swap1\n      sstore\n      pop\n        /* \"Campaign.sol\":8056:8061  false */\n      0x00\n        /* \"Campaign.sol\":8037:8044  request */\n      dup2\n        /* \"Campaign.sol\":8037:8053  request.complete */\n      0x02\n      add\n      0x14\n        /* \"Campaign.sol\":8037:8061  request.complete = false */\n      0x0100\n      exp\n      dup2\n      sload\n      dup2\n      0xff\n      mul\n      not\n      and\n      swap1\n      dup4\n      iszero\n      iszero\n      mul\n      or\n      swap1\n      sstore\n      pop\n        /* \"Campaign.sol\":8096:8097  0 */\n      0x00\n        /* \"Campaign.sol\":8072:8079  request */\n      dup2\n        /* \"Campaign.sol\":8072:8093  request.approvalCount */\n      0x04\n      add\n        /* \"Campaign.sol\":8072:8097  request.approvalCount = 0 */\n      dup2\n      swap1\n      sstore\n      pop\n        /* \"Campaign.sol\":7841:8105  {... */\n      pop\n        /* \"Campaign.sol\":7705:8105  function createRequest(... */\n      pop\n      pop\n      pop\n      jump\t// out\n        /* \"Campaign.sol\":6466:6486  address public owner */\n    tag_70:\n      0x00\n      dup1\n      sload\n      swap1\n      0x0100\n      exp\n      swap1\n      div\n      0xffffffffffffffffffffffffffffffffffffffff\n      and\n      dup2\n      jump\t// out\n        /* \"Campaign.sol\":6493:6527  uint256 public minimumContribution */\n    tag_75:\n      sload(0x01)\n      dup2\n      jump\t// out\n        /* \"Campaign.sol\":6746:6772  uint256 public numRequests */\n    tag_79:\n      sload(0x08)\n      dup2\n      jump\t// out\n        /* \"Campaign.sol\":6627:6649  uint256 public hardcap */\n    tag_83:\n      sload(0x05)\n      dup2\n      jump\t// out\n        /* \"Campaign.sol\":6859:6887  uint256 public refundRequest */\n    tag_87:\n      sload(0x0b)\n      dup2\n      jump\t// out\n        /* \"Campaign.sol\":7309:7697  function contribute() public payable {... */\n    tag_90:\n        /* \"Campaign.sol\":7373:7392  minimumContribution */\n      sload(0x01)\n        /* \"Campaign.sol\":7360:7369  msg.value */\n      callvalue\n        /* \"Campaign.sol\":7360:7392  msg.value >= minimumContribution */\n      lt\n        /* \"Campaign.sol\":7357:7690  if(msg.value >= minimumContribution) {... */\n      tag_162\n      jumpi\n        /* \"Campaign.sol\":7431:7440  msg.value */\n      callvalue\n        /* \"Campaign.sol\":7407:7416  approvers */\n      0x06\n        /* \"Campaign.sol\":7407:7428  approvers[msg.sender] */\n      0x00\n        /* \"Campaign.sol\":7417:7427  msg.sender */\n      caller\n        /* \"Campaign.sol\":7407:7428  approvers[msg.sender] */\n      0xffffffffffffffffffffffffffffffffffffffff\n      and\n      0xffffffffffffffffffffffffffffffffffffffff\n      and\n      dup2\n      mstore\n      0x20\n      add\n      swap1\n      dup2\n      mstore\n      0x20\n      add\n      0x00\n      keccak256\n        /* \"Campaign.sol\":7407:7440  approvers[msg.sender] = msg.value */\n      dup2\n      swap1\n      sstore\n      pop\n        /* \"Campaign.sol\":7453:7467  approversCount */\n      0x02\n      0x00\n        /* \"Campaign.sol\":7453:7469  approversCount++ */\n      dup2\n      sload\n      dup1\n      swap3\n      swap2\n      swap1\n      tag_163\n      swap1\n      tag_146\n      jump\t// in\n    tag_163:\n      swap2\n      swap1\n      pop\n      sstore\n      pop\n        /* \"Campaign.sol\":7492:7501  msg.value */\n      callvalue\n        /* \"Campaign.sol\":7482:7488  funded */\n      0x03\n      0x00\n        /* \"Campaign.sol\":7482:7501  funded += msg.value */\n      dup3\n      dup3\n      sload\n      tag_164\n      swap2\n      swap1\n      tag_165\n      jump\t// in\n    tag_164:\n      swap3\n      pop\n      pop\n      dup2\n      swap1\n      sstore\n      pop\n        /* \"Campaign.sol\":7514:7518  keys */\n      0x07\n        /* \"Campaign.sol\":7532:7542  msg.sender */\n      caller\n        /* \"Campaign.sol\":7514:7544  keys.push(payable(msg.sender)) */\n      swap1\n      dup1\n      0x01\n      dup2\n      sload\n      add\n      dup1\n      dup3\n      sstore\n      dup1\n      swap2\n      pop\n      pop\n      0x01\n      swap1\n      sub\n      swap1\n      0x00\n      mstore\n      keccak256(0x00, 0x20)\n      add\n      0x00\n      swap1\n      swap2\n      swap1\n      swap2\n      swap1\n      swap2\n      0x0100\n      exp\n      dup2\n      sload\n      dup2\n      0xffffffffffffffffffffffffffffffffffffffff\n      mul\n      not\n      and\n      swap1\n      dup4\n      0xffffffffffffffffffffffffffffffffffffffff\n      and\n      mul\n      or\n      swap1\n      sstore\n      pop\n        /* \"Campaign.sol\":7587:7594  hardcap */\n      sload(0x05)\n        /* \"Campaign.sol\":7562:7583  address(this).balance */\n      selfbalance\n        /* \"Campaign.sol\":7562:7594  address(this).balance >= hardcap */\n      lt\n        /* \"Campaign.sol\":7559:7679  if(address(this).balance >= hardcap) {... */\n      tag_167\n      jumpi\n        /* \"Campaign.sol\":7613:7618  token */\n      0x0a\n      0x00\n      swap1\n      sload\n      swap1\n      0x0100\n      exp\n      swap1\n      div\n      0xffffffffffffffffffffffffffffffffffffffff\n      and\n        /* \"Campaign.sol\":7613:7626  token.deposit */\n      0xffffffffffffffffffffffffffffffffffffffff\n      and\n      0xd0e30db0\n        /* \"Campaign.sol\":7658:7662  1000 */\n      0x03e8\n        /* \"Campaign.sol\":7634:7655  address(this).balance */\n      selfbalance\n        /* \"Campaign.sol\":7634:7662  address(this).balance / 1000 */\n      tag_168\n      swap2\n      swap1\n      tag_112\n      jump\t// in\n    tag_168:\n        /* \"Campaign.sol\":7613:7665  token.deposit{value: address(this).balance / 1000}() */\n      mload(0x40)\n      dup3\n      0xffffffff\n      and\n      0xe0\n      shl\n      dup2\n      mstore\n      0x04\n      add\n      0x00\n      mload(0x40)\n      dup1\n      dup4\n      sub\n      dup2\n      dup6\n      dup9\n      dup1\n      extcodesize\n      iszero\n      dup1\n      iszero\n      tag_169\n      jumpi\n      0x00\n      dup1\n      revert\n    tag_169:\n      pop\n      gas\n      call\n      iszero\n      dup1\n      iszero\n      tag_171\n      jumpi\n      returndatasize\n      0x00\n      dup1\n      returndatacopy\n      revert(0x00, returndatasize)\n    tag_171:\n      pop\n      pop\n      pop\n      pop\n      pop\n        /* \"Campaign.sol\":7559:7679  if(address(this).balance >= hardcap) {... */\n    tag_167:\n        /* \"Campaign.sol\":7357:7690  if(msg.value >= minimumContribution) {... */\n    tag_162:\n        /* \"Campaign.sol\":7309:7697  function contribute() public payable {... */\n      jump\t// out\n        /* \"Campaign.sol\":8113:8447  function approveRequest(uint256 index) public {... */\n    tag_94:\n        /* \"Campaign.sol\":8170:8193  Request storage request */\n      0x00\n        /* \"Campaign.sol\":8196:8204  requests */\n      0x09\n        /* \"Campaign.sol\":8196:8211  requests[index] */\n      0x00\n        /* \"Campaign.sol\":8205:8210  index */\n      dup4\n        /* \"Campaign.sol\":8196:8211  requests[index] */\n      dup2\n      mstore\n      0x20\n      add\n      swap1\n      dup2\n      mstore\n      0x20\n      add\n      0x00\n      keccak256\n        /* \"Campaign.sol\":8170:8211  Request storage request = requests[index] */\n      swap1\n      pop\n        /* \"Campaign.sol\":8257:8258  0 */\n      0x00\n        /* \"Campaign.sol\":8232:8241  approvers */\n      0x06\n        /* \"Campaign.sol\":8232:8253  approvers[msg.sender] */\n      0x00\n        /* \"Campaign.sol\":8242:8252  msg.sender */\n      caller\n        /* \"Campaign.sol\":8232:8253  approvers[msg.sender] */\n      0xffffffffffffffffffffffffffffffffffffffff\n      and\n      0xffffffffffffffffffffffffffffffffffffffff\n      and\n      dup2\n      mstore\n      0x20\n      add\n      swap1\n      dup2\n      mstore\n      0x20\n      add\n      0x00\n      keccak256\n      sload\n        /* \"Campaign.sol\":8232:8258  approvers[msg.sender] != 0 */\n      eq\n      iszero\n        /* \"Campaign.sol\":8224:8278  require(approvers[msg.sender] != 0, \"Is not approver\") */\n      tag_173\n      jumpi\n      mload(0x40)\n      0x08c379a000000000000000000000000000000000000000000000000000000000\n      dup2\n      mstore\n      0x04\n      add\n      tag_174\n      swap1\n      tag_175\n      jump\t// in\n    tag_174:\n      mload(0x40)\n      dup1\n      swap2\n      sub\n      swap1\n      revert\n    tag_173:\n        /* \"Campaign.sol\":8298:8305  request */\n      dup1\n        /* \"Campaign.sol\":8298:8315  request.approvals */\n      0x03\n      add\n        /* \"Campaign.sol\":8298:8327  request.approvals[msg.sender] */\n      0x00\n        /* \"Campaign.sol\":8316:8326  msg.sender */\n      caller\n        /* \"Campaign.sol\":8298:8327  request.approvals[msg.sender] */\n      0xffffffffffffffffffffffffffffffffffffffff\n      and\n      0xffffffffffffffffffffffffffffffffffffffff\n      and\n      dup2\n      mstore\n      0x20\n      add\n      swap1\n      dup2\n      mstore\n      0x20\n      add\n      0x00\n      keccak256\n      0x00\n      swap1\n      sload\n      swap1\n      0x0100\n      exp\n      swap1\n      div\n      0xff\n      and\n        /* \"Campaign.sol\":8297:8327  !request.approvals[msg.sender] */\n      iszero\n        /* \"Campaign.sol\":8289:8348  require(!request.approvals[msg.sender], \"Can't vote twice\") */\n      tag_176\n      jumpi\n      mload(0x40)\n      0x08c379a000000000000000000000000000000000000000000000000000000000\n      dup2\n      mstore\n      0x04\n      add\n      tag_177\n      swap1\n      tag_178\n      jump\t// in\n    tag_177:\n      mload(0x40)\n      dup1\n      swap2\n      sub\n      swap1\n      revert\n    tag_176:\n        /* \"Campaign.sol\":8393:8397  true */\n      0x01\n        /* \"Campaign.sol\":8361:8368  request */\n      dup2\n        /* \"Campaign.sol\":8361:8378  request.approvals */\n      0x03\n      add\n        /* \"Campaign.sol\":8361:8390  request.approvals[msg.sender] */\n      0x00\n        /* \"Campaign.sol\":8379:8389  msg.sender */\n      caller\n        /* \"Campaign.sol\":8361:8390  request.approvals[msg.sender] */\n      0xffffffffffffffffffffffffffffffffffffffff\n      and\n      0xffffffffffffffffffffffffffffffffffffffff\n      and\n      dup2\n      mstore\n      0x20\n      add\n      swap1\n      dup2\n      mstore\n      0x20\n      add\n      0x00\n      keccak256\n      0x00\n        /* \"Campaign.sol\":8361:8397  request.approvals[msg.sender] = true */\n      0x0100\n      exp\n      dup2\n      sload\n      dup2\n      0xff\n      mul\n      not\n      and\n      swap1\n      dup4\n      iszero\n      iszero\n      mul\n      or\n      swap1\n      sstore\n      pop\n        /* \"Campaign.sol\":8408:8416  requests */\n      0x09\n        /* \"Campaign.sol\":8408:8423  requests[index] */\n      0x00\n        /* \"Campaign.sol\":8417:8422  index */\n      dup4\n        /* \"Campaign.sol\":8408:8423  requests[index] */\n      dup2\n      mstore\n      0x20\n      add\n      swap1\n      dup2\n      mstore\n      0x20\n      add\n      0x00\n      keccak256\n        /* \"Campaign.sol\":8408:8437  requests[index].approvalCount */\n      0x04\n      add\n      0x00\n        /* \"Campaign.sol\":8408:8439  requests[index].approvalCount++ */\n      dup2\n      sload\n      dup1\n      swap3\n      swap2\n      swap1\n      tag_179\n      swap1\n      tag_146\n      jump\t// in\n    tag_179:\n      swap2\n      swap1\n      pop\n      sstore\n      pop\n        /* \"Campaign.sol\":8159:8447  {... */\n      pop\n        /* \"Campaign.sol\":8113:8447  function approveRequest(uint256 index) public {... */\n      pop\n      jump\t// out\n        /* \"Campaign.sol\":6570:6591  uint256 public funded */\n    tag_97:\n      sload(0x03)\n      dup2\n      jump\t// out\n        /* \"Campaign.sol\":6598:6620  uint256 public softcap */\n    tag_101:\n      sload(0x04)\n      dup2\n      jump\t// out\n    tag_148:\n      dup3\n      dup1\n      sload\n      tag_180\n      swap1\n      tag_150\n      jump\t// in\n    tag_180:\n      swap1\n      0x00\n      mstore\n      keccak256(0x00, 0x20)\n      swap1\n      0x1f\n      add\n      0x20\n      swap1\n      div\n      dup2\n      add\n      swap3\n      dup3\n      tag_182\n      jumpi\n      0x00\n      dup6\n      sstore\n      jump(tag_181)\n    tag_182:\n      dup3\n      0x1f\n      lt\n      tag_183\n      jumpi\n      dup1\n      mload\n      not(0xff)\n      and\n      dup4\n      dup1\n      add\n      or\n      dup6\n      sstore\n      jump(tag_181)\n    tag_183:\n      dup3\n      dup1\n      add\n      0x01\n      add\n      dup6\n      sstore\n      dup3\n      iszero\n      tag_181\n      jumpi\n      swap2\n      dup3\n      add\n    tag_184:\n      dup3\n      dup2\n      gt\n      iszero\n      tag_185\n      jumpi\n      dup3\n      mload\n      dup3\n      sstore\n      swap2\n      0x20\n      add\n      swap2\n      swap1\n      0x01\n      add\n      swap1\n      jump(tag_184)\n    tag_185:\n    tag_181:\n      pop\n      swap1\n      pop\n      tag_186\n      swap2\n      swap1\n      tag_187\n      jump\t// in\n    tag_186:\n      pop\n      swap1\n      jump\t// out\n    tag_187:\n    tag_188:\n      dup1\n      dup3\n      gt\n      iszero\n      tag_189\n      jumpi\n      0x00\n      dup2\n      0x00\n      swap1\n      sstore\n      pop\n      0x01\n      add\n      jump(tag_188)\n    tag_189:\n      pop\n      swap1\n      jump\t// out\n        /* \"#utility.yul\":7:82   */\n    tag_190:\n        /* \"#utility.yul\":40:46   */\n      0x00\n        /* \"#utility.yul\":73:75   */\n      0x40\n        /* \"#utility.yul\":67:76   */\n      mload\n        /* \"#utility.yul\":57:76   */\n      swap1\n      pop\n        /* \"#utility.yul\":7:82   */\n      swap1\n      jump\t// out\n        /* \"#utility.yul\":88:205   */\n    tag_191:\n        /* \"#utility.yul\":197:198   */\n      0x00\n        /* \"#utility.yul\":194:195   */\n      dup1\n        /* \"#utility.yul\":187:199   */\n      revert\n        /* \"#utility.yul\":211:328   */\n    tag_192:\n        /* \"#utility.yul\":320:321   */\n      0x00\n        /* \"#utility.yul\":317:318   */\n      dup1\n        /* \"#utility.yul\":310:322   */\n      revert\n        /* \"#utility.yul\":334:411   */\n    tag_193:\n        /* \"#utility.yul\":371:378   */\n      0x00\n        /* \"#utility.yul\":400:405   */\n      dup2\n        /* \"#utility.yul\":389:405   */\n      swap1\n      pop\n        /* \"#utility.yul\":334:411   */\n      swap2\n      swap1\n      pop\n      jump\t// out\n        /* \"#utility.yul\":417:539   */\n    tag_194:\n        /* \"#utility.yul\":490:514   */\n      tag_241\n        /* \"#utility.yul\":508:513   */\n      dup2\n        /* \"#utility.yul\":490:514   */\n      tag_193\n      jump\t// in\n    tag_241:\n        /* \"#utility.yul\":483:488   */\n      dup2\n        /* \"#utility.yul\":480:515   */\n      eq\n        /* \"#utility.yul\":470:533   */\n      tag_242\n      jumpi\n        /* \"#utility.yul\":529:530   */\n      0x00\n        /* \"#utility.yul\":526:527   */\n      dup1\n        /* \"#utility.yul\":519:531   */\n      revert\n        /* \"#utility.yul\":470:533   */\n    tag_242:\n        /* \"#utility.yul\":417:539   */\n      pop\n      jump\t// out\n        /* \"#utility.yul\":545:684   */\n    tag_195:\n        /* \"#utility.yul\":591:596   */\n      0x00\n        /* \"#utility.yul\":629:635   */\n      dup2\n        /* \"#utility.yul\":616:636   */\n      calldataload\n        /* \"#utility.yul\":607:636   */\n      swap1\n      pop\n        /* \"#utility.yul\":645:678   */\n      tag_244\n        /* \"#utility.yul\":672:677   */\n      dup2\n        /* \"#utility.yul\":645:678   */\n      tag_194\n      jump\t// in\n    tag_244:\n        /* \"#utility.yul\":545:684   */\n      swap3\n      swap2\n      pop\n      pop\n      jump\t// out\n        /* \"#utility.yul\":690:1019   */\n    tag_26:\n        /* \"#utility.yul\":749:755   */\n      0x00\n        /* \"#utility.yul\":798:800   */\n      0x20\n        /* \"#utility.yul\":786:795   */\n      dup3\n        /* \"#utility.yul\":777:784   */\n      dup5\n        /* \"#utility.yul\":773:796   */\n      sub\n        /* \"#utility.yul\":769:801   */\n      slt\n        /* \"#utility.yul\":766:885   */\n      iszero\n      tag_246\n      jumpi\n        /* \"#utility.yul\":804:883   */\n      tag_247\n      tag_191\n      jump\t// in\n    tag_247:\n        /* \"#utility.yul\":766:885   */\n    tag_246:\n        /* \"#utility.yul\":924:925   */\n      0x00\n        /* \"#utility.yul\":949:1002   */\n      tag_248\n        /* \"#utility.yul\":994:1001   */\n      dup5\n        /* \"#utility.yul\":985:991   */\n      dup3\n        /* \"#utility.yul\":974:983   */\n      dup6\n        /* \"#utility.yul\":970:992   */\n      add\n        /* \"#utility.yul\":949:1002   */\n      tag_195\n      jump\t// in\n    tag_248:\n        /* \"#utility.yul\":939:1002   */\n      swap2\n      pop\n        /* \"#utility.yul\":895:1012   */\n      pop\n        /* \"#utility.yul\":690:1019   */\n      swap3\n      swap2\n      pop\n      pop\n      jump\t// out\n        /* \"#utility.yul\":1025:1151   */\n    tag_196:\n        /* \"#utility.yul\":1062:1069   */\n      0x00\n        /* \"#utility.yul\":1102:1144   */\n      0xffffffffffffffffffffffffffffffffffffffff\n        /* \"#utility.yul\":1095:1100   */\n      dup3\n        /* \"#utility.yul\":1091:1145   */\n      and\n        /* \"#utility.yul\":1080:1145   */\n      swap1\n      pop\n        /* \"#utility.yul\":1025:1151   */\n      swap2\n      swap1\n      pop\n      jump\t// out\n        /* \"#utility.yul\":1157:1253   */\n    tag_197:\n        /* \"#utility.yul\":1194:1201   */\n      0x00\n        /* \"#utility.yul\":1223:1247   */\n      tag_251\n        /* \"#utility.yul\":1241:1246   */\n      dup3\n        /* \"#utility.yul\":1223:1247   */\n      tag_196\n      jump\t// in\n    tag_251:\n        /* \"#utility.yul\":1212:1247   */\n      swap1\n      pop\n        /* \"#utility.yul\":1157:1253   */\n      swap2\n      swap1\n      pop\n      jump\t// out\n        /* \"#utility.yul\":1259:1381   */\n    tag_198:\n        /* \"#utility.yul\":1332:1356   */\n      tag_253\n        /* \"#utility.yul\":1350:1355   */\n      dup2\n        /* \"#utility.yul\":1332:1356   */\n      tag_197\n      jump\t// in\n    tag_253:\n        /* \"#utility.yul\":1325:1330   */\n      dup2\n        /* \"#utility.yul\":1322:1357   */\n      eq\n        /* \"#utility.yul\":1312:1375   */\n      tag_254\n      jumpi\n        /* \"#utility.yul\":1371:1372   */\n      0x00\n        /* \"#utility.yul\":1368:1369   */\n      dup1\n        /* \"#utility.yul\":1361:1373   */\n      revert\n        /* \"#utility.yul\":1312:1375   */\n    tag_254:\n        /* \"#utility.yul\":1259:1381   */\n      pop\n      jump\t// out\n        /* \"#utility.yul\":1387:1526   */\n    tag_199:\n        /* \"#utility.yul\":1433:1438   */\n      0x00\n        /* \"#utility.yul\":1471:1477   */\n      dup2\n        /* \"#utility.yul\":1458:1478   */\n      calldataload\n        /* \"#utility.yul\":1449:1478   */\n      swap1\n      pop\n        /* \"#utility.yul\":1487:1520   */\n      tag_256\n        /* \"#utility.yul\":1514:1519   */\n      dup2\n        /* \"#utility.yul\":1487:1520   */\n      tag_198\n      jump\t// in\n    tag_256:\n        /* \"#utility.yul\":1387:1526   */\n      swap3\n      swap2\n      pop\n      pop\n      jump\t// out\n        /* \"#utility.yul\":1532:1861   */\n    tag_31:\n        /* \"#utility.yul\":1591:1597   */\n      0x00\n        /* \"#utility.yul\":1640:1642   */\n      0x20\n        /* \"#utility.yul\":1628:1637   */\n      dup3\n        /* \"#utility.yul\":1619:1626   */\n      dup5\n        /* \"#utility.yul\":1615:1638   */\n      sub\n        /* \"#utility.yul\":1611:1643   */\n      slt\n        /* \"#utility.yul\":1608:1727   */\n      iszero\n      tag_258\n      jumpi\n        /* \"#utility.yul\":1646:1725   */\n      tag_259\n      tag_191\n      jump\t// in\n    tag_259:\n        /* \"#utility.yul\":1608:1727   */\n    tag_258:\n        /* \"#utility.yul\":1766:1767   */\n      0x00\n        /* \"#utility.yul\":1791:1844   */\n      tag_260\n        /* \"#utility.yul\":1836:1843   */\n      dup5\n        /* \"#utility.yul\":1827:1833   */\n      dup3\n        /* \"#utility.yul\":1816:1825   */\n      dup6\n        /* \"#utility.yul\":1812:1834   */\n      add\n        /* \"#utility.yul\":1791:1844   */\n      tag_199\n      jump\t// in\n    tag_260:\n        /* \"#utility.yul\":1781:1844   */\n      swap2\n      pop\n        /* \"#utility.yul\":1737:1854   */\n      pop\n        /* \"#utility.yul\":1532:1861   */\n      swap3\n      swap2\n      pop\n      pop\n      jump\t// out\n        /* \"#utility.yul\":1867:1985   */\n    tag_200:\n        /* \"#utility.yul\":1954:1978   */\n      tag_262\n        /* \"#utility.yul\":1972:1977   */\n      dup2\n        /* \"#utility.yul\":1954:1978   */\n      tag_193\n      jump\t// in\n    tag_262:\n        /* \"#utility.yul\":1949:1952   */\n      dup3\n        /* \"#utility.yul\":1942:1979   */\n      mstore\n        /* \"#utility.yul\":1867:1985   */\n      pop\n      pop\n      jump\t// out\n        /* \"#utility.yul\":1991:2213   */\n    tag_34:\n        /* \"#utility.yul\":2084:2088   */\n      0x00\n        /* \"#utility.yul\":2122:2124   */\n      0x20\n        /* \"#utility.yul\":2111:2120   */\n      dup3\n        /* \"#utility.yul\":2107:2125   */\n      add\n        /* \"#utility.yul\":2099:2125   */\n      swap1\n      pop\n        /* \"#utility.yul\":2135:2206   */\n      tag_264\n        /* \"#utility.yul\":2203:2204   */\n      0x00\n        /* \"#utility.yul\":2192:2201   */\n      dup4\n        /* \"#utility.yul\":2188:2205   */\n      add\n        /* \"#utility.yul\":2179:2185   */\n      dup5\n        /* \"#utility.yul\":2135:2206   */\n      tag_200\n      jump\t// in\n    tag_264:\n        /* \"#utility.yul\":1991:2213   */\n      swap3\n      swap2\n      pop\n      pop\n      jump\t// out\n        /* \"#utility.yul\":2219:2337   */\n    tag_201:\n        /* \"#utility.yul\":2306:2330   */\n      tag_266\n        /* \"#utility.yul\":2324:2329   */\n      dup2\n        /* \"#utility.yul\":2306:2330   */\n      tag_197\n      jump\t// in\n    tag_266:\n        /* \"#utility.yul\":2301:2304   */\n      dup3\n        /* \"#utility.yul\":2294:2331   */\n      mstore\n        /* \"#utility.yul\":2219:2337   */\n      pop\n      pop\n      jump\t// out\n        /* \"#utility.yul\":2343:3118   */\n    tag_42:\n        /* \"#utility.yul\":2576:2580   */\n      0x00\n        /* \"#utility.yul\":2614:2617   */\n      0xc0\n        /* \"#utility.yul\":2603:2612   */\n      dup3\n        /* \"#utility.yul\":2599:2618   */\n      add\n        /* \"#utility.yul\":2591:2618   */\n      swap1\n      pop\n        /* \"#utility.yul\":2628:2699   */\n      tag_268\n        /* \"#utility.yul\":2696:2697   */\n      0x00\n        /* \"#utility.yul\":2685:2694   */\n      dup4\n        /* \"#utility.yul\":2681:2698   */\n      add\n        /* \"#utility.yul\":2672:2678   */\n      dup10\n        /* \"#utility.yul\":2628:2699   */\n      tag_200\n      jump\t// in\n    tag_268:\n        /* \"#utility.yul\":2709:2781   */\n      tag_269\n        /* \"#utility.yul\":2777:2779   */\n      0x20\n        /* \"#utility.yul\":2766:2775   */\n      dup4\n        /* \"#utility.yul\":2762:2780   */\n      add\n        /* \"#utility.yul\":2753:2759   */\n      dup9\n        /* \"#utility.yul\":2709:2781   */\n      tag_200\n      jump\t// in\n    tag_269:\n        /* \"#utility.yul\":2791:2863   */\n      tag_270\n        /* \"#utility.yul\":2859:2861   */\n      0x40\n        /* \"#utility.yul\":2848:2857   */\n      dup4\n        /* \"#utility.yul\":2844:2862   */\n      add\n        /* \"#utility.yul\":2835:2841   */\n      dup8\n        /* \"#utility.yul\":2791:2863   */\n      tag_200\n      jump\t// in\n    tag_270:\n        /* \"#utility.yul\":2873:2945   */\n      tag_271\n        /* \"#utility.yul\":2941:2943   */\n      0x60\n        /* \"#utility.yul\":2930:2939   */\n      dup4\n        /* \"#utility.yul\":2926:2944   */\n      add\n        /* \"#utility.yul\":2917:2923   */\n      dup7\n        /* \"#utility.yul\":2873:2945   */\n      tag_200\n      jump\t// in\n    tag_271:\n        /* \"#utility.yul\":2955:3028   */\n      tag_272\n        /* \"#utility.yul\":3023:3026   */\n      0x80\n        /* \"#utility.yul\":3012:3021   */\n      dup4\n        /* \"#utility.yul\":3008:3027   */\n      add\n        /* \"#utility.yul\":2999:3005   */\n      dup6\n        /* \"#utility.yul\":2955:3028   */\n      tag_201\n      jump\t// in\n    tag_272:\n        /* \"#utility.yul\":3038:3111   */\n      tag_273\n        /* \"#utility.yul\":3106:3109   */\n      0xa0\n        /* \"#utility.yul\":3095:3104   */\n      dup4\n        /* \"#utility.yul\":3091:3110   */\n      add\n        /* \"#utility.yul\":3082:3088   */\n      dup5\n        /* \"#utility.yul\":3038:3111   */\n      tag_200\n      jump\t// in\n    tag_273:\n        /* \"#utility.yul\":2343:3118   */\n      swap8\n      swap7\n      pop\n      pop\n      pop\n      pop\n      pop\n      pop\n      pop\n      jump\t// out\n        /* \"#utility.yul\":3124:3598   */\n    tag_46:\n        /* \"#utility.yul\":3192:3198   */\n      0x00\n        /* \"#utility.yul\":3200:3206   */\n      dup1\n        /* \"#utility.yul\":3249:3251   */\n      0x40\n        /* \"#utility.yul\":3237:3246   */\n      dup4\n        /* \"#utility.yul\":3228:3235   */\n      dup6\n        /* \"#utility.yul\":3224:3247   */\n      sub\n        /* \"#utility.yul\":3220:3252   */\n      slt\n        /* \"#utility.yul\":3217:3336   */\n      iszero\n      tag_275\n      jumpi\n        /* \"#utility.yul\":3255:3334   */\n      tag_276\n      tag_191\n      jump\t// in\n    tag_276:\n        /* \"#utility.yul\":3217:3336   */\n    tag_275:\n        /* \"#utility.yul\":3375:3376   */\n      0x00\n        /* \"#utility.yul\":3400:3453   */\n      tag_277\n        /* \"#utility.yul\":3445:3452   */\n      dup6\n        /* \"#utility.yul\":3436:3442   */\n      dup3\n        /* \"#utility.yul\":3425:3434   */\n      dup7\n        /* \"#utility.yul\":3421:3443   */\n      add\n        /* \"#utility.yul\":3400:3453   */\n      tag_199\n      jump\t// in\n    tag_277:\n        /* \"#utility.yul\":3390:3453   */\n      swap3\n      pop\n        /* \"#utility.yul\":3346:3463   */\n      pop\n        /* \"#utility.yul\":3502:3504   */\n      0x20\n        /* \"#utility.yul\":3528:3581   */\n      tag_278\n        /* \"#utility.yul\":3573:3580   */\n      dup6\n        /* \"#utility.yul\":3564:3570   */\n      dup3\n        /* \"#utility.yul\":3553:3562   */\n      dup7\n        /* \"#utility.yul\":3549:3571   */\n      add\n        /* \"#utility.yul\":3528:3581   */\n      tag_195\n      jump\t// in\n    tag_278:\n        /* \"#utility.yul\":3518:3581   */\n      swap2\n      pop\n        /* \"#utility.yul\":3473:3591   */\n      pop\n        /* \"#utility.yul\":3124:3598   */\n      swap3\n      pop\n      swap3\n      swap1\n      pop\n      jump\t// out\n        /* \"#utility.yul\":3604:3694   */\n    tag_202:\n        /* \"#utility.yul\":3638:3645   */\n      0x00\n        /* \"#utility.yul\":3681:3686   */\n      dup2\n        /* \"#utility.yul\":3674:3687   */\n      iszero\n        /* \"#utility.yul\":3667:3688   */\n      iszero\n        /* \"#utility.yul\":3656:3688   */\n      swap1\n      pop\n        /* \"#utility.yul\":3604:3694   */\n      swap2\n      swap1\n      pop\n      jump\t// out\n        /* \"#utility.yul\":3700:3809   */\n    tag_203:\n        /* \"#utility.yul\":3781:3802   */\n      tag_281\n        /* \"#utility.yul\":3796:3801   */\n      dup2\n        /* \"#utility.yul\":3781:3802   */\n      tag_202\n      jump\t// in\n    tag_281:\n        /* \"#utility.yul\":3776:3779   */\n      dup3\n        /* \"#utility.yul\":3769:3803   */\n      mstore\n        /* \"#utility.yul\":3700:3809   */\n      pop\n      pop\n      jump\t// out\n        /* \"#utility.yul\":3815:4025   */\n    tag_49:\n        /* \"#utility.yul\":3902:3906   */\n      0x00\n        /* \"#utility.yul\":3940:3942   */\n      0x20\n        /* \"#utility.yul\":3929:3938   */\n      dup3\n        /* \"#utility.yul\":3925:3943   */\n      add\n        /* \"#utility.yul\":3917:3943   */\n      swap1\n      pop\n        /* \"#utility.yul\":3953:4018   */\n      tag_283\n        /* \"#utility.yul\":4015:4016   */\n      0x00\n        /* \"#utility.yul\":4004:4013   */\n      dup4\n        /* \"#utility.yul\":4000:4017   */\n      add\n        /* \"#utility.yul\":3991:3997   */\n      dup5\n        /* \"#utility.yul\":3953:4018   */\n      tag_203\n      jump\t// in\n    tag_283:\n        /* \"#utility.yul\":3815:4025   */\n      swap3\n      swap2\n      pop\n      pop\n      jump\t// out\n        /* \"#utility.yul\":4031:4130   */\n    tag_204:\n        /* \"#utility.yul\":4083:4089   */\n      0x00\n        /* \"#utility.yul\":4117:4122   */\n      dup2\n        /* \"#utility.yul\":4111:4123   */\n      mload\n        /* \"#utility.yul\":4101:4123   */\n      swap1\n      pop\n        /* \"#utility.yul\":4031:4130   */\n      swap2\n      swap1\n      pop\n      jump\t// out\n        /* \"#utility.yul\":4136:4305   */\n    tag_205:\n        /* \"#utility.yul\":4220:4231   */\n      0x00\n        /* \"#utility.yul\":4254:4260   */\n      dup3\n        /* \"#utility.yul\":4249:4252   */\n      dup3\n        /* \"#utility.yul\":4242:4261   */\n      mstore\n        /* \"#utility.yul\":4294:4298   */\n      0x20\n        /* \"#utility.yul\":4289:4292   */\n      dup3\n        /* \"#utility.yul\":4285:4299   */\n      add\n        /* \"#utility.yul\":4270:4299   */\n      swap1\n      pop\n        /* \"#utility.yul\":4136:4305   */\n      swap3\n      swap2\n      pop\n      pop\n      jump\t// out\n        /* \"#utility.yul\":4311:4618   */\n    tag_206:\n        /* \"#utility.yul\":4379:4380   */\n      0x00\n        /* \"#utility.yul\":4389:4502   */\n    tag_287:\n        /* \"#utility.yul\":4403:4409   */\n      dup4\n        /* \"#utility.yul\":4400:4401   */\n      dup2\n        /* \"#utility.yul\":4397:4410   */\n      lt\n        /* \"#utility.yul\":4389:4502   */\n      iszero\n      tag_289\n      jumpi\n        /* \"#utility.yul\":4488:4489   */\n      dup1\n        /* \"#utility.yul\":4483:4486   */\n      dup3\n        /* \"#utility.yul\":4479:4490   */\n      add\n        /* \"#utility.yul\":4473:4491   */\n      mload\n        /* \"#utility.yul\":4469:4470   */\n      dup2\n        /* \"#utility.yul\":4464:4467   */\n      dup5\n        /* \"#utility.yul\":4460:4471   */\n      add\n        /* \"#utility.yul\":4453:4492   */\n      mstore\n        /* \"#utility.yul\":4425:4427   */\n      0x20\n        /* \"#utility.yul\":4422:4423   */\n      dup2\n        /* \"#utility.yul\":4418:4428   */\n      add\n        /* \"#utility.yul\":4413:4428   */\n      swap1\n      pop\n        /* \"#utility.yul\":4389:4502   */\n      jump(tag_287)\n    tag_289:\n        /* \"#utility.yul\":4520:4526   */\n      dup4\n        /* \"#utility.yul\":4517:4518   */\n      dup2\n        /* \"#utility.yul\":4514:4527   */\n      gt\n        /* \"#utility.yul\":4511:4612   */\n      iszero\n      tag_290\n      jumpi\n        /* \"#utility.yul\":4600:4601   */\n      0x00\n        /* \"#utility.yul\":4591:4597   */\n      dup5\n        /* \"#utility.yul\":4586:4589   */\n      dup5\n        /* \"#utility.yul\":4582:4598   */\n      add\n        /* \"#utility.yul\":4575:4602   */\n      mstore\n        /* \"#utility.yul\":4511:4612   */\n    tag_290:\n        /* \"#utility.yul\":4360:4618   */\n      pop\n        /* \"#utility.yul\":4311:4618   */\n      pop\n      pop\n      pop\n      jump\t// out\n        /* \"#utility.yul\":4624:4726   */\n    tag_207:\n        /* \"#utility.yul\":4665:4671   */\n      0x00\n        /* \"#utility.yul\":4716:4718   */\n      0x1f\n        /* \"#utility.yul\":4712:4719   */\n      not\n        /* \"#utility.yul\":4707:4709   */\n      0x1f\n        /* \"#utility.yul\":4700:4705   */\n      dup4\n        /* \"#utility.yul\":4696:4710   */\n      add\n        /* \"#utility.yul\":4692:4720   */\n      and\n        /* \"#utility.yul\":4682:4720   */\n      swap1\n      pop\n        /* \"#utility.yul\":4624:4726   */\n      swap2\n      swap1\n      pop\n      jump\t// out\n        /* \"#utility.yul\":4732:5096   */\n    tag_208:\n        /* \"#utility.yul\":4820:4823   */\n      0x00\n        /* \"#utility.yul\":4848:4887   */\n      tag_293\n        /* \"#utility.yul\":4881:4886   */\n      dup3\n        /* \"#utility.yul\":4848:4887   */\n      tag_204\n      jump\t// in\n    tag_293:\n        /* \"#utility.yul\":4903:4974   */\n      tag_294\n        /* \"#utility.yul\":4967:4973   */\n      dup2\n        /* \"#utility.yul\":4962:4965   */\n      dup6\n        /* \"#utility.yul\":4903:4974   */\n      tag_205\n      jump\t// in\n    tag_294:\n        /* \"#utility.yul\":4896:4974   */\n      swap4\n      pop\n        /* \"#utility.yul\":4983:5035   */\n      tag_295\n        /* \"#utility.yul\":5028:5034   */\n      dup2\n        /* \"#utility.yul\":5023:5026   */\n      dup6\n        /* \"#utility.yul\":5016:5020   */\n      0x20\n        /* \"#utility.yul\":5009:5014   */\n      dup7\n        /* \"#utility.yul\":5005:5021   */\n      add\n        /* \"#utility.yul\":4983:5035   */\n      tag_206\n      jump\t// in\n    tag_295:\n        /* \"#utility.yul\":5060:5089   */\n      tag_296\n        /* \"#utility.yul\":5082:5088   */\n      dup2\n        /* \"#utility.yul\":5060:5089   */\n      tag_207\n      jump\t// in\n    tag_296:\n        /* \"#utility.yul\":5055:5058   */\n      dup5\n        /* \"#utility.yul\":5051:5090   */\n      add\n        /* \"#utility.yul\":5044:5090   */\n      swap2\n      pop\n        /* \"#utility.yul\":4824:5096   */\n      pop\n        /* \"#utility.yul\":4732:5096   */\n      swap3\n      swap2\n      pop\n      pop\n      jump\t// out\n        /* \"#utility.yul\":5102:5206   */\n    tag_209:\n        /* \"#utility.yul\":5147:5154   */\n      0x00\n        /* \"#utility.yul\":5176:5200   */\n      tag_298\n        /* \"#utility.yul\":5194:5199   */\n      dup3\n        /* \"#utility.yul\":5176:5200   */\n      tag_196\n      jump\t// in\n    tag_298:\n        /* \"#utility.yul\":5165:5200   */\n      swap1\n      pop\n        /* \"#utility.yul\":5102:5206   */\n      swap2\n      swap1\n      pop\n      jump\t// out\n        /* \"#utility.yul\":5212:5354   */\n    tag_210:\n        /* \"#utility.yul\":5315:5347   */\n      tag_300\n        /* \"#utility.yul\":5341:5346   */\n      dup2\n        /* \"#utility.yul\":5315:5347   */\n      tag_209\n      jump\t// in\n    tag_300:\n        /* \"#utility.yul\":5310:5313   */\n      dup3\n        /* \"#utility.yul\":5303:5348   */\n      mstore\n        /* \"#utility.yul\":5212:5354   */\n      pop\n      pop\n      jump\t// out\n        /* \"#utility.yul\":5360:6135   */\n    tag_58:\n        /* \"#utility.yul\":5595:5599   */\n      0x00\n        /* \"#utility.yul\":5633:5636   */\n      0xa0\n        /* \"#utility.yul\":5622:5631   */\n      dup3\n        /* \"#utility.yul\":5618:5637   */\n      add\n        /* \"#utility.yul\":5610:5637   */\n      swap1\n      pop\n        /* \"#utility.yul\":5683:5692   */\n      dup2\n        /* \"#utility.yul\":5677:5681   */\n      dup2\n        /* \"#utility.yul\":5673:5693   */\n      sub\n        /* \"#utility.yul\":5669:5670   */\n      0x00\n        /* \"#utility.yul\":5658:5667   */\n      dup4\n        /* \"#utility.yul\":5654:5671   */\n      add\n        /* \"#utility.yul\":5647:5694   */\n      mstore\n        /* \"#utility.yul\":5711:5789   */\n      tag_302\n        /* \"#utility.yul\":5784:5788   */\n      dup2\n        /* \"#utility.yul\":5775:5781   */\n      dup9\n        /* \"#utility.yul\":5711:5789   */\n      tag_208\n      jump\t// in\n    tag_302:\n        /* \"#utility.yul\":5703:5789   */\n      swap1\n      pop\n        /* \"#utility.yul\":5799:5871   */\n      tag_303\n        /* \"#utility.yul\":5867:5869   */\n      0x20\n        /* \"#utility.yul\":5856:5865   */\n      dup4\n        /* \"#utility.yul\":5852:5870   */\n      add\n        /* \"#utility.yul\":5843:5849   */\n      dup8\n        /* \"#utility.yul\":5799:5871   */\n      tag_200\n      jump\t// in\n    tag_303:\n        /* \"#utility.yul\":5881:5969   */\n      tag_304\n        /* \"#utility.yul\":5965:5967   */\n      0x40\n        /* \"#utility.yul\":5954:5963   */\n      dup4\n        /* \"#utility.yul\":5950:5968   */\n      add\n        /* \"#utility.yul\":5941:5947   */\n      dup7\n        /* \"#utility.yul\":5881:5969   */\n      tag_210\n      jump\t// in\n    tag_304:\n        /* \"#utility.yul\":5979:6045   */\n      tag_305\n        /* \"#utility.yul\":6041:6043   */\n      0x60\n        /* \"#utility.yul\":6030:6039   */\n      dup4\n        /* \"#utility.yul\":6026:6044   */\n      add\n        /* \"#utility.yul\":6017:6023   */\n      dup6\n        /* \"#utility.yul\":5979:6045   */\n      tag_203\n      jump\t// in\n    tag_305:\n        /* \"#utility.yul\":6055:6128   */\n      tag_306\n        /* \"#utility.yul\":6123:6126   */\n      0x80\n        /* \"#utility.yul\":6112:6121   */\n      dup4\n        /* \"#utility.yul\":6108:6127   */\n      add\n        /* \"#utility.yul\":6099:6105   */\n      dup5\n        /* \"#utility.yul\":6055:6128   */\n      tag_200\n      jump\t// in\n    tag_306:\n        /* \"#utility.yul\":5360:6135   */\n      swap7\n      swap6\n      pop\n      pop\n      pop\n      pop\n      pop\n      pop\n      jump\t// out\n        /* \"#utility.yul\":6141:6258   */\n    tag_211:\n        /* \"#utility.yul\":6250:6251   */\n      0x00\n        /* \"#utility.yul\":6247:6248   */\n      dup1\n        /* \"#utility.yul\":6240:6252   */\n      revert\n        /* \"#utility.yul\":6264:6381   */\n    tag_212:\n        /* \"#utility.yul\":6373:6374   */\n      0x00\n        /* \"#utility.yul\":6370:6371   */\n      dup1\n        /* \"#utility.yul\":6363:6375   */\n      revert\n        /* \"#utility.yul\":6387:6567   */\n    tag_213:\n        /* \"#utility.yul\":6435:6512   */\n      0x4e487b7100000000000000000000000000000000000000000000000000000000\n        /* \"#utility.yul\":6432:6433   */\n      0x00\n        /* \"#utility.yul\":6425:6513   */\n      mstore\n        /* \"#utility.yul\":6532:6536   */\n      0x41\n        /* \"#utility.yul\":6529:6530   */\n      0x04\n        /* \"#utility.yul\":6522:6537   */\n      mstore\n        /* \"#utility.yul\":6556:6560   */\n      0x24\n        /* \"#utility.yul\":6553:6554   */\n      0x00\n        /* \"#utility.yul\":6546:6561   */\n      revert\n        /* \"#utility.yul\":6573:6854   */\n    tag_214:\n        /* \"#utility.yul\":6656:6683   */\n      tag_311\n        /* \"#utility.yul\":6678:6682   */\n      dup3\n        /* \"#utility.yul\":6656:6683   */\n      tag_207\n      jump\t// in\n    tag_311:\n        /* \"#utility.yul\":6648:6654   */\n      dup2\n        /* \"#utility.yul\":6644:6684   */\n      add\n        /* \"#utility.yul\":6786:6792   */\n      dup2\n        /* \"#utility.yul\":6774:6784   */\n      dup2\n        /* \"#utility.yul\":6771:6793   */\n      lt\n        /* \"#utility.yul\":6750:6768   */\n      0xffffffffffffffff\n        /* \"#utility.yul\":6738:6748   */\n      dup3\n        /* \"#utility.yul\":6735:6769   */\n      gt\n        /* \"#utility.yul\":6732:6794   */\n      or\n        /* \"#utility.yul\":6729:6817   */\n      iszero\n      tag_312\n      jumpi\n        /* \"#utility.yul\":6797:6815   */\n      tag_313\n      tag_213\n      jump\t// in\n    tag_313:\n        /* \"#utility.yul\":6729:6817   */\n    tag_312:\n        /* \"#utility.yul\":6837:6847   */\n      dup1\n        /* \"#utility.yul\":6833:6835   */\n      0x40\n        /* \"#utility.yul\":6826:6848   */\n      mstore\n        /* \"#utility.yul\":6616:6854   */\n      pop\n        /* \"#utility.yul\":6573:6854   */\n      pop\n      pop\n      jump\t// out\n        /* \"#utility.yul\":6860:6989   */\n    tag_215:\n        /* \"#utility.yul\":6894:6900   */\n      0x00\n        /* \"#utility.yul\":6921:6941   */\n      tag_315\n      tag_190\n      jump\t// in\n    tag_315:\n        /* \"#utility.yul\":6911:6941   */\n      swap1\n      pop\n        /* \"#utility.yul\":6950:6983   */\n      tag_316\n        /* \"#utility.yul\":6978:6982   */\n      dup3\n        /* \"#utility.yul\":6970:6976   */\n      dup3\n        /* \"#utility.yul\":6950:6983   */\n      tag_214\n      jump\t// in\n    tag_316:\n        /* \"#utility.yul\":6860:6989   */\n      swap2\n      swap1\n      pop\n      jump\t// out\n        /* \"#utility.yul\":6995:7303   */\n    tag_216:\n        /* \"#utility.yul\":7057:7061   */\n      0x00\n        /* \"#utility.yul\":7147:7165   */\n      0xffffffffffffffff\n        /* \"#utility.yul\":7139:7145   */\n      dup3\n        /* \"#utility.yul\":7136:7166   */\n      gt\n        /* \"#utility.yul\":7133:7189   */\n      iszero\n      tag_318\n      jumpi\n        /* \"#utility.yul\":7169:7187   */\n      tag_319\n      tag_213\n      jump\t// in\n    tag_319:\n        /* \"#utility.yul\":7133:7189   */\n    tag_318:\n        /* \"#utility.yul\":7207:7236   */\n      tag_320\n        /* \"#utility.yul\":7229:7235   */\n      dup3\n        /* \"#utility.yul\":7207:7236   */\n      tag_207\n      jump\t// in\n    tag_320:\n        /* \"#utility.yul\":7199:7236   */\n      swap1\n      pop\n        /* \"#utility.yul\":7291:7295   */\n      0x20\n        /* \"#utility.yul\":7285:7289   */\n      dup2\n        /* \"#utility.yul\":7281:7296   */\n      add\n        /* \"#utility.yul\":7273:7296   */\n      swap1\n      pop\n        /* \"#utility.yul\":6995:7303   */\n      swap2\n      swap1\n      pop\n      jump\t// out\n        /* \"#utility.yul\":7309:7463   */\n    tag_217:\n        /* \"#utility.yul\":7393:7399   */\n      dup3\n        /* \"#utility.yul\":7388:7391   */\n      dup2\n        /* \"#utility.yul\":7383:7386   */\n      dup4\n        /* \"#utility.yul\":7370:7400   */\n      calldatacopy\n        /* \"#utility.yul\":7455:7456   */\n      0x00\n        /* \"#utility.yul\":7446:7452   */\n      dup4\n        /* \"#utility.yul\":7441:7444   */\n      dup4\n        /* \"#utility.yul\":7437:7453   */\n      add\n        /* \"#utility.yul\":7430:7457   */\n      mstore\n        /* \"#utility.yul\":7309:7463   */\n      pop\n      pop\n      pop\n      jump\t// out\n        /* \"#utility.yul\":7469:7881   */\n    tag_218:\n        /* \"#utility.yul\":7547:7552   */\n      0x00\n        /* \"#utility.yul\":7572:7638   */\n      tag_323\n        /* \"#utility.yul\":7588:7637   */\n      tag_324\n        /* \"#utility.yul\":7630:7636   */\n      dup5\n        /* \"#utility.yul\":7588:7637   */\n      tag_216\n      jump\t// in\n    tag_324:\n        /* \"#utility.yul\":7572:7638   */\n      tag_215\n      jump\t// in\n    tag_323:\n        /* \"#utility.yul\":7563:7638   */\n      swap1\n      pop\n        /* \"#utility.yul\":7661:7667   */\n      dup3\n        /* \"#utility.yul\":7654:7659   */\n      dup2\n        /* \"#utility.yul\":7647:7668   */\n      mstore\n        /* \"#utility.yul\":7699:7703   */\n      0x20\n        /* \"#utility.yul\":7692:7697   */\n      dup2\n        /* \"#utility.yul\":7688:7704   */\n      add\n        /* \"#utility.yul\":7737:7740   */\n      dup5\n        /* \"#utility.yul\":7728:7734   */\n      dup5\n        /* \"#utility.yul\":7723:7726   */\n      dup5\n        /* \"#utility.yul\":7719:7735   */\n      add\n        /* \"#utility.yul\":7716:7741   */\n      gt\n        /* \"#utility.yul\":7713:7825   */\n      iszero\n      tag_325\n      jumpi\n        /* \"#utility.yul\":7744:7823   */\n      tag_326\n      tag_212\n      jump\t// in\n    tag_326:\n        /* \"#utility.yul\":7713:7825   */\n    tag_325:\n        /* \"#utility.yul\":7834:7875   */\n      tag_327\n        /* \"#utility.yul\":7868:7874   */\n      dup5\n        /* \"#utility.yul\":7863:7866   */\n      dup3\n        /* \"#utility.yul\":7858:7861   */\n      dup6\n        /* \"#utility.yul\":7834:7875   */\n      tag_217\n      jump\t// in\n    tag_327:\n        /* \"#utility.yul\":7553:7881   */\n      pop\n        /* \"#utility.yul\":7469:7881   */\n      swap4\n      swap3\n      pop\n      pop\n      pop\n      jump\t// out\n        /* \"#utility.yul\":7901:8241   */\n    tag_219:\n        /* \"#utility.yul\":7957:7962   */\n      0x00\n        /* \"#utility.yul\":8006:8009   */\n      dup3\n        /* \"#utility.yul\":7999:8003   */\n      0x1f\n        /* \"#utility.yul\":7991:7997   */\n      dup4\n        /* \"#utility.yul\":7987:8004   */\n      add\n        /* \"#utility.yul\":7983:8010   */\n      slt\n        /* \"#utility.yul\":7973:8095   */\n      tag_329\n      jumpi\n        /* \"#utility.yul\":8014:8093   */\n      tag_330\n      tag_211\n      jump\t// in\n    tag_330:\n        /* \"#utility.yul\":7973:8095   */\n    tag_329:\n        /* \"#utility.yul\":8131:8137   */\n      dup2\n        /* \"#utility.yul\":8118:8138   */\n      calldataload\n        /* \"#utility.yul\":8156:8235   */\n      tag_331\n        /* \"#utility.yul\":8231:8234   */\n      dup5\n        /* \"#utility.yul\":8223:8229   */\n      dup3\n        /* \"#utility.yul\":8216:8220   */\n      0x20\n        /* \"#utility.yul\":8208:8214   */\n      dup7\n        /* \"#utility.yul\":8204:8221   */\n      add\n        /* \"#utility.yul\":8156:8235   */\n      tag_218\n      jump\t// in\n    tag_331:\n        /* \"#utility.yul\":8147:8235   */\n      swap2\n      pop\n        /* \"#utility.yul\":7963:8241   */\n      pop\n        /* \"#utility.yul\":7901:8241   */\n      swap3\n      swap2\n      pop\n      pop\n      jump\t// out\n        /* \"#utility.yul\":8247:9046   */\n    tag_66:\n        /* \"#utility.yul\":8334:8340   */\n      0x00\n        /* \"#utility.yul\":8342:8348   */\n      dup1\n        /* \"#utility.yul\":8350:8356   */\n      0x00\n        /* \"#utility.yul\":8399:8401   */\n      0x60\n        /* \"#utility.yul\":8387:8396   */\n      dup5\n        /* \"#utility.yul\":8378:8385   */\n      dup7\n        /* \"#utility.yul\":8374:8397   */\n      sub\n        /* \"#utility.yul\":8370:8402   */\n      slt\n        /* \"#utility.yul\":8367:8486   */\n      iszero\n      tag_333\n      jumpi\n        /* \"#utility.yul\":8405:8484   */\n      tag_334\n      tag_191\n      jump\t// in\n    tag_334:\n        /* \"#utility.yul\":8367:8486   */\n    tag_333:\n        /* \"#utility.yul\":8553:8554   */\n      0x00\n        /* \"#utility.yul\":8542:8551   */\n      dup5\n        /* \"#utility.yul\":8538:8555   */\n      add\n        /* \"#utility.yul\":8525:8556   */\n      calldataload\n        /* \"#utility.yul\":8583:8601   */\n      0xffffffffffffffff\n        /* \"#utility.yul\":8575:8581   */\n      dup2\n        /* \"#utility.yul\":8572:8602   */\n      gt\n        /* \"#utility.yul\":8569:8686   */\n      iszero\n      tag_335\n      jumpi\n        /* \"#utility.yul\":8605:8684   */\n      tag_336\n      tag_192\n      jump\t// in\n    tag_336:\n        /* \"#utility.yul\":8569:8686   */\n    tag_335:\n        /* \"#utility.yul\":8710:8773   */\n      tag_337\n        /* \"#utility.yul\":8765:8772   */\n      dup7\n        /* \"#utility.yul\":8756:8762   */\n      dup3\n        /* \"#utility.yul\":8745:8754   */\n      dup8\n        /* \"#utility.yul\":8741:8763   */\n      add\n        /* \"#utility.yul\":8710:8773   */\n      tag_219\n      jump\t// in\n    tag_337:\n        /* \"#utility.yul\":8700:8773   */\n      swap4\n      pop\n        /* \"#utility.yul\":8496:8783   */\n      pop\n        /* \"#utility.yul\":8822:8824   */\n      0x20\n        /* \"#utility.yul\":8848:8901   */\n      tag_338\n        /* \"#utility.yul\":8893:8900   */\n      dup7\n        /* \"#utility.yul\":8884:8890   */\n      dup3\n        /* \"#utility.yul\":8873:8882   */\n      dup8\n        /* \"#utility.yul\":8869:8891   */\n      add\n        /* \"#utility.yul\":8848:8901   */\n      tag_195\n      jump\t// in\n    tag_338:\n        /* \"#utility.yul\":8838:8901   */\n      swap3\n      pop\n        /* \"#utility.yul\":8793:8911   */\n      pop\n        /* \"#utility.yul\":8950:8952   */\n      0x40\n        /* \"#utility.yul\":8976:9029   */\n      tag_339\n        /* \"#utility.yul\":9021:9028   */\n      dup7\n        /* \"#utility.yul\":9012:9018   */\n      dup3\n        /* \"#utility.yul\":9001:9010   */\n      dup8\n        /* \"#utility.yul\":8997:9019   */\n      add\n        /* \"#utility.yul\":8976:9029   */\n      tag_199\n      jump\t// in\n    tag_339:\n        /* \"#utility.yul\":8966:9029   */\n      swap2\n      pop\n        /* \"#utility.yul\":8921:9039   */\n      pop\n        /* \"#utility.yul\":8247:9046   */\n      swap3\n      pop\n      swap3\n      pop\n      swap3\n      jump\t// out\n        /* \"#utility.yul\":9052:9274   */\n    tag_72:\n        /* \"#utility.yul\":9145:9149   */\n      0x00\n        /* \"#utility.yul\":9183:9185   */\n      0x20\n        /* \"#utility.yul\":9172:9181   */\n      dup3\n        /* \"#utility.yul\":9168:9186   */\n      add\n        /* \"#utility.yul\":9160:9186   */\n      swap1\n      pop\n        /* \"#utility.yul\":9196:9267   */\n      tag_341\n        /* \"#utility.yul\":9264:9265   */\n      0x00\n        /* \"#utility.yul\":9253:9262   */\n      dup4\n        /* \"#utility.yul\":9249:9266   */\n      add\n        /* \"#utility.yul\":9240:9246   */\n      dup5\n        /* \"#utility.yul\":9196:9267   */\n      tag_201\n      jump\t// in\n    tag_341:\n        /* \"#utility.yul\":9052:9274   */\n      swap3\n      swap2\n      pop\n      pop\n      jump\t// out\n        /* \"#utility.yul\":9280:9509   */\n    tag_220:\n        /* \"#utility.yul\":9420:9454   */\n      0x4f6e6c7920636f6e7472616374206f776e65722063616e2063616c6c20746869\n        /* \"#utility.yul\":9416:9417   */\n      0x00\n        /* \"#utility.yul\":9408:9414   */\n      dup3\n        /* \"#utility.yul\":9404:9418   */\n      add\n        /* \"#utility.yul\":9397:9455   */\n      mstore\n        /* \"#utility.yul\":9489:9501   */\n      0x732066756e6374696f6e00000000000000000000000000000000000000000000\n        /* \"#utility.yul\":9484:9486   */\n      0x20\n        /* \"#utility.yul\":9476:9482   */\n      dup3\n        /* \"#utility.yul\":9472:9487   */\n      add\n        /* \"#utility.yul\":9465:9502   */\n      mstore\n        /* \"#utility.yul\":9280:9509   */\n      pop\n      jump\t// out\n        /* \"#utility.yul\":9515:9881   */\n    tag_221:\n        /* \"#utility.yul\":9657:9660   */\n      0x00\n        /* \"#utility.yul\":9678:9745   */\n      tag_344\n        /* \"#utility.yul\":9742:9744   */\n      0x2a\n        /* \"#utility.yul\":9737:9740   */\n      dup4\n        /* \"#utility.yul\":9678:9745   */\n      tag_205\n      jump\t// in\n    tag_344:\n        /* \"#utility.yul\":9671:9745   */\n      swap2\n      pop\n        /* \"#utility.yul\":9754:9847   */\n      tag_345\n        /* \"#utility.yul\":9843:9846   */\n      dup3\n        /* \"#utility.yul\":9754:9847   */\n      tag_220\n      jump\t// in\n    tag_345:\n        /* \"#utility.yul\":9872:9874   */\n      0x40\n        /* \"#utility.yul\":9867:9870   */\n      dup3\n        /* \"#utility.yul\":9863:9875   */\n      add\n        /* \"#utility.yul\":9856:9875   */\n      swap1\n      pop\n        /* \"#utility.yul\":9515:9881   */\n      swap2\n      swap1\n      pop\n      jump\t// out\n        /* \"#utility.yul\":9887:10306   */\n    tag_106:\n        /* \"#utility.yul\":10053:10057   */\n      0x00\n        /* \"#utility.yul\":10091:10093   */\n      0x20\n        /* \"#utility.yul\":10080:10089   */\n      dup3\n        /* \"#utility.yul\":10076:10094   */\n      add\n        /* \"#utility.yul\":10068:10094   */\n      swap1\n      pop\n        /* \"#utility.yul\":10140:10149   */\n      dup2\n        /* \"#utility.yul\":10134:10138   */\n      dup2\n        /* \"#utility.yul\":10130:10150   */\n      sub\n        /* \"#utility.yul\":10126:10127   */\n      0x00\n        /* \"#utility.yul\":10115:10124   */\n      dup4\n        /* \"#utility.yul\":10111:10128   */\n      add\n        /* \"#utility.yul\":10104:10151   */\n      mstore\n        /* \"#utility.yul\":10168:10299   */\n      tag_347\n        /* \"#utility.yul\":10294:10298   */\n      dup2\n        /* \"#utility.yul\":10168:10299   */\n      tag_221\n      jump\t// in\n    tag_347:\n        /* \"#utility.yul\":10160:10299   */\n      swap1\n      pop\n        /* \"#utility.yul\":9887:10306   */\n      swap2\n      swap1\n      pop\n      jump\t// out\n        /* \"#utility.yul\":10312:10490   */\n    tag_222:\n        /* \"#utility.yul\":10452:10482   */\n      0x5265717565737420697320616c726561647920636f6d706c6574656400000000\n        /* \"#utility.yul\":10448:10449   */\n      0x00\n        /* \"#utility.yul\":10440:10446   */\n      dup3\n        /* \"#utility.yul\":10436:10450   */\n      add\n        /* \"#utility.yul\":10429:10483   */\n      mstore\n        /* \"#utility.yul\":10312:10490   */\n      pop\n      jump\t// out\n        /* \"#utility.yul\":10496:10862   */\n    tag_223:\n        /* \"#utility.yul\":10638:10641   */\n      0x00\n        /* \"#utility.yul\":10659:10726   */\n      tag_350\n        /* \"#utility.yul\":10723:10725   */\n      0x1c\n        /* \"#utility.yul\":10718:10721   */\n      dup4\n        /* \"#utility.yul\":10659:10726   */\n      tag_205\n      jump\t// in\n    tag_350:\n        /* \"#utility.yul\":10652:10726   */\n      swap2\n      pop\n        /* \"#utility.yul\":10735:10828   */\n      tag_351\n        /* \"#utility.yul\":10824:10827   */\n      dup3\n        /* \"#utility.yul\":10735:10828   */\n      tag_222\n      jump\t// in\n    tag_351:\n        /* \"#utility.yul\":10853:10855   */\n      0x20\n        /* \"#utility.yul\":10848:10851   */\n      dup3\n        /* \"#utility.yul\":10844:10856   */\n      add\n        /* \"#utility.yul\":10837:10856   */\n      swap1\n      pop\n        /* \"#utility.yul\":10496:10862   */\n      swap2\n      swap1\n      pop\n      jump\t// out\n        /* \"#utility.yul\":10868:11287   */\n    tag_110:\n        /* \"#utility.yul\":11034:11038   */\n      0x00\n        /* \"#utility.yul\":11072:11074   */\n      0x20\n        /* \"#utility.yul\":11061:11070   */\n      dup3\n        /* \"#utility.yul\":11057:11075   */\n      add\n        /* \"#utility.yul\":11049:11075   */\n      swap1\n      pop\n        /* \"#utility.yul\":11121:11130   */\n      dup2\n        /* \"#utility.yul\":11115:11119   */\n      dup2\n        /* \"#utility.yul\":11111:11131   */\n      sub\n        /* \"#utility.yul\":11107:11108   */\n      0x00\n        /* \"#utility.yul\":11096:11105   */\n      dup4\n        /* \"#utility.yul\":11092:11109   */\n      add\n        /* \"#utility.yul\":11085:11132   */\n      mstore\n        /* \"#utility.yul\":11149:11280   */\n      tag_353\n        /* \"#utility.yul\":11275:11279   */\n      dup2\n        /* \"#utility.yul\":11149:11280   */\n      tag_223\n      jump\t// in\n    tag_353:\n        /* \"#utility.yul\":11141:11280   */\n      swap1\n      pop\n        /* \"#utility.yul\":10868:11287   */\n      swap2\n      swap1\n      pop\n      jump\t// out\n        /* \"#utility.yul\":11293:11473   */\n    tag_224:\n        /* \"#utility.yul\":11341:11418   */\n      0x4e487b7100000000000000000000000000000000000000000000000000000000\n        /* \"#utility.yul\":11338:11339   */\n      0x00\n        /* \"#utility.yul\":11331:11419   */\n      mstore\n        /* \"#utility.yul\":11438:11442   */\n      0x12\n        /* \"#utility.yul\":11435:11436   */\n      0x04\n        /* \"#utility.yul\":11428:11443   */\n      mstore\n        /* \"#utility.yul\":11462:11466   */\n      0x24\n        /* \"#utility.yul\":11459:11460   */\n      0x00\n        /* \"#utility.yul\":11452:11467   */\n      revert\n        /* \"#utility.yul\":11479:11659   */\n    tag_225:\n        /* \"#utility.yul\":11527:11604   */\n      0x4e487b7100000000000000000000000000000000000000000000000000000000\n        /* \"#utility.yul\":11524:11525   */\n      0x00\n        /* \"#utility.yul\":11517:11605   */\n      mstore\n        /* \"#utility.yul\":11624:11628   */\n      0x11\n        /* \"#utility.yul\":11621:11622   */\n      0x04\n        /* \"#utility.yul\":11614:11629   */\n      mstore\n        /* \"#utility.yul\":11648:11652   */\n      0x24\n        /* \"#utility.yul\":11645:11646   */\n      0x00\n        /* \"#utility.yul\":11638:11653   */\n      revert\n        /* \"#utility.yul\":11665:11850   */\n    tag_112:\n        /* \"#utility.yul\":11705:11706   */\n      0x00\n        /* \"#utility.yul\":11722:11742   */\n      tag_357\n        /* \"#utility.yul\":11740:11741   */\n      dup3\n        /* \"#utility.yul\":11722:11742   */\n      tag_193\n      jump\t// in\n    tag_357:\n        /* \"#utility.yul\":11717:11742   */\n      swap2\n      pop\n        /* \"#utility.yul\":11756:11776   */\n      tag_358\n        /* \"#utility.yul\":11774:11775   */\n      dup4\n        /* \"#utility.yul\":11756:11776   */\n      tag_193\n      jump\t// in\n    tag_358:\n        /* \"#utility.yul\":11751:11776   */\n      swap3\n      pop\n        /* \"#utility.yul\":11795:11796   */\n      dup3\n        /* \"#utility.yul\":11785:11820   */\n      tag_359\n      jumpi\n        /* \"#utility.yul\":11800:11818   */\n      tag_360\n      tag_224\n      jump\t// in\n    tag_360:\n        /* \"#utility.yul\":11785:11820   */\n    tag_359:\n        /* \"#utility.yul\":11842:11843   */\n      dup3\n        /* \"#utility.yul\":11839:11840   */\n      dup3\n        /* \"#utility.yul\":11835:11844   */\n      div\n        /* \"#utility.yul\":11830:11844   */\n      swap1\n      pop\n        /* \"#utility.yul\":11665:11850   */\n      swap3\n      swap2\n      pop\n      pop\n      jump\t// out\n        /* \"#utility.yul\":11856:12026   */\n    tag_226:\n        /* \"#utility.yul\":11996:12018   */\n      0x4e6f7420656e6f75676820617070726f76616c73000000000000000000000000\n        /* \"#utility.yul\":11992:11993   */\n      0x00\n        /* \"#utility.yul\":11984:11990   */\n      dup3\n        /* \"#utility.yul\":11980:11994   */\n      add\n        /* \"#utility.yul\":11973:12019   */\n      mstore\n        /* \"#utility.yul\":11856:12026   */\n      pop\n      jump\t// out\n        /* \"#utility.yul\":12032:12398   */\n    tag_227:\n        /* \"#utility.yul\":12174:12177   */\n      0x00\n        /* \"#utility.yul\":12195:12262   */\n      tag_363\n        /* \"#utility.yul\":12259:12261   */\n      0x14\n        /* \"#utility.yul\":12254:12257   */\n      dup4\n        /* \"#utility.yul\":12195:12262   */\n      tag_205\n      jump\t// in\n    tag_363:\n        /* \"#utility.yul\":12188:12262   */\n      swap2\n      pop\n        /* \"#utility.yul\":12271:12364   */\n      tag_364\n        /* \"#utility.yul\":12360:12363   */\n      dup3\n        /* \"#utility.yul\":12271:12364   */\n      tag_226\n      jump\t// in\n    tag_364:\n        /* \"#utility.yul\":12389:12391   */\n      0x20\n        /* \"#utility.yul\":12384:12387   */\n      dup3\n        /* \"#utility.yul\":12380:12392   */\n      add\n        /* \"#utility.yul\":12373:12392   */\n      swap1\n      pop\n        /* \"#utility.yul\":12032:12398   */\n      swap2\n      swap1\n      pop\n      jump\t// out\n        /* \"#utility.yul\":12404:12823   */\n    tag_115:\n        /* \"#utility.yul\":12570:12574   */\n      0x00\n        /* \"#utility.yul\":12608:12610   */\n      0x20\n        /* \"#utility.yul\":12597:12606   */\n      dup3\n        /* \"#utility.yul\":12593:12611   */\n      add\n        /* \"#utility.yul\":12585:12611   */\n      swap1\n      pop\n        /* \"#utility.yul\":12657:12666   */\n      dup2\n        /* \"#utility.yul\":12651:12655   */\n      dup2\n        /* \"#utility.yul\":12647:12667   */\n      sub\n        /* \"#utility.yul\":12643:12644   */\n      0x00\n        /* \"#utility.yul\":12632:12641   */\n      dup4\n        /* \"#utility.yul\":12628:12645   */\n      add\n        /* \"#utility.yul\":12621:12668   */\n      mstore\n        /* \"#utility.yul\":12685:12816   */\n      tag_366\n        /* \"#utility.yul\":12811:12815   */\n      dup2\n        /* \"#utility.yul\":12685:12816   */\n      tag_227\n      jump\t// in\n    tag_366:\n        /* \"#utility.yul\":12677:12816   */\n      swap1\n      pop\n        /* \"#utility.yul\":12404:12823   */\n      swap2\n      swap1\n      pop\n      jump\t// out\n        /* \"#utility.yul\":12829:13006   */\n    tag_228:\n        /* \"#utility.yul\":12969:12998   */\n      0x526566756e6420697320616c726561647920636f6d706c657465640000000000\n        /* \"#utility.yul\":12965:12966   */\n      0x00\n        /* \"#utility.yul\":12957:12963   */\n      dup3\n        /* \"#utility.yul\":12953:12967   */\n      add\n        /* \"#utility.yul\":12946:12999   */\n      mstore\n        /* \"#utility.yul\":12829:13006   */\n      pop\n      jump\t// out\n        /* \"#utility.yul\":13012:13378   */\n    tag_229:\n        /* \"#utility.yul\":13154:13157   */\n      0x00\n        /* \"#utility.yul\":13175:13242   */\n      tag_369\n        /* \"#utility.yul\":13239:13241   */\n      0x1b\n        /* \"#utility.yul\":13234:13237   */\n      dup4\n        /* \"#utility.yul\":13175:13242   */\n      tag_205\n      jump\t// in\n    tag_369:\n        /* \"#utility.yul\":13168:13242   */\n      swap2\n      pop\n        /* \"#utility.yul\":13251:13344   */\n      tag_370\n        /* \"#utility.yul\":13340:13343   */\n      dup3\n        /* \"#utility.yul\":13251:13344   */\n      tag_228\n      jump\t// in\n    tag_370:\n        /* \"#utility.yul\":13369:13371   */\n      0x20\n        /* \"#utility.yul\":13364:13367   */\n      dup3\n        /* \"#utility.yul\":13360:13372   */\n      add\n        /* \"#utility.yul\":13353:13372   */\n      swap1\n      pop\n        /* \"#utility.yul\":13012:13378   */\n      swap2\n      swap1\n      pop\n      jump\t// out\n        /* \"#utility.yul\":13384:13803   */\n    tag_121:\n        /* \"#utility.yul\":13550:13554   */\n      0x00\n        /* \"#utility.yul\":13588:13590   */\n      0x20\n        /* \"#utility.yul\":13577:13586   */\n      dup3\n        /* \"#utility.yul\":13573:13591   */\n      add\n        /* \"#utility.yul\":13565:13591   */\n      swap1\n      pop\n        /* \"#utility.yul\":13637:13646   */\n      dup2\n        /* \"#utility.yul\":13631:13635   */\n      dup2\n        /* \"#utility.yul\":13627:13647   */\n      sub\n        /* \"#utility.yul\":13623:13624   */\n      0x00\n        /* \"#utility.yul\":13612:13621   */\n      dup4\n        /* \"#utility.yul\":13608:13625   */\n      add\n        /* \"#utility.yul\":13601:13648   */\n      mstore\n        /* \"#utility.yul\":13665:13796   */\n      tag_372\n        /* \"#utility.yul\":13791:13795   */\n      dup2\n        /* \"#utility.yul\":13665:13796   */\n      tag_229\n      jump\t// in\n    tag_372:\n        /* \"#utility.yul\":13657:13796   */\n      swap1\n      pop\n        /* \"#utility.yul\":13384:13803   */\n      swap2\n      swap1\n      pop\n      jump\t// out\n        /* \"#utility.yul\":13809:14157   */\n    tag_124:\n        /* \"#utility.yul\":13849:13856   */\n      0x00\n        /* \"#utility.yul\":13872:13892   */\n      tag_374\n        /* \"#utility.yul\":13890:13891   */\n      dup3\n        /* \"#utility.yul\":13872:13892   */\n      tag_193\n      jump\t// in\n    tag_374:\n        /* \"#utility.yul\":13867:13892   */\n      swap2\n      pop\n        /* \"#utility.yul\":13906:13926   */\n      tag_375\n        /* \"#utility.yul\":13924:13925   */\n      dup4\n        /* \"#utility.yul\":13906:13926   */\n      tag_193\n      jump\t// in\n    tag_375:\n        /* \"#utility.yul\":13901:13926   */\n      swap3\n      pop\n        /* \"#utility.yul\":14094:14095   */\n      dup2\n        /* \"#utility.yul\":14026:14092   */\n      0xffffffffffffffffffffffffffffffffffffffffffffffffffffffffffffffff\n        /* \"#utility.yul\":14022:14096   */\n      div\n        /* \"#utility.yul\":14019:14020   */\n      dup4\n        /* \"#utility.yul\":14016:14097   */\n      gt\n        /* \"#utility.yul\":14011:14012   */\n      dup3\n        /* \"#utility.yul\":14004:14013   */\n      iszero\n        /* \"#utility.yul\":13997:14014   */\n      iszero\n        /* \"#utility.yul\":13993:14098   */\n      and\n        /* \"#utility.yul\":13990:14121   */\n      iszero\n      tag_376\n      jumpi\n        /* \"#utility.yul\":14101:14119   */\n      tag_377\n      tag_225\n      jump\t// in\n    tag_377:\n        /* \"#utility.yul\":13990:14121   */\n    tag_376:\n        /* \"#utility.yul\":14149:14150   */\n      dup3\n        /* \"#utility.yul\":14146:14147   */\n      dup3\n        /* \"#utility.yul\":14142:14151   */\n      mul\n        /* \"#utility.yul\":14131:14151   */\n      swap1\n      pop\n        /* \"#utility.yul\":13809:14157   */\n      swap3\n      swap2\n      pop\n      pop\n      jump\t// out\n        /* \"#utility.yul\":14163:14343   */\n    tag_131:\n        /* \"#utility.yul\":14211:14288   */\n      0x4e487b7100000000000000000000000000000000000000000000000000000000\n        /* \"#utility.yul\":14208:14209   */\n      0x00\n        /* \"#utility.yul\":14201:14289   */\n      mstore\n        /* \"#utility.yul\":14308:14312   */\n      0x32\n        /* \"#utility.yul\":14305:14306   */\n      0x04\n        /* \"#utility.yul\":14298:14313   */\n      mstore\n        /* \"#utility.yul\":14332:14336   */\n      0x24\n        /* \"#utility.yul\":14329:14330   */\n      0x00\n        /* \"#utility.yul\":14322:14337   */\n      revert\n        /* \"#utility.yul\":14349:14582   */\n    tag_146:\n        /* \"#utility.yul\":14388:14391   */\n      0x00\n        /* \"#utility.yul\":14411:14435   */\n      tag_380\n        /* \"#utility.yul\":14429:14434   */\n      dup3\n        /* \"#utility.yul\":14411:14435   */\n      tag_193\n      jump\t// in\n    tag_380:\n        /* \"#utility.yul\":14402:14435   */\n      swap2\n      pop\n        /* \"#utility.yul\":14457:14523   */\n      0xffffffffffffffffffffffffffffffffffffffffffffffffffffffffffffffff\n        /* \"#utility.yul\":14450:14455   */\n      dup3\n        /* \"#utility.yul\":14447:14524   */\n      eq\n        /* \"#utility.yul\":14444:14547   */\n      iszero\n      tag_381\n      jumpi\n        /* \"#utility.yul\":14527:14545   */\n      tag_382\n      tag_225\n      jump\t// in\n    tag_382:\n        /* \"#utility.yul\":14444:14547   */\n    tag_381:\n        /* \"#utility.yul\":14574:14575   */\n      0x01\n        /* \"#utility.yul\":14567:14572   */\n      dup3\n        /* \"#utility.yul\":14563:14576   */\n      add\n        /* \"#utility.yul\":14556:14576   */\n      swap1\n      pop\n        /* \"#utility.yul\":14349:14582   */\n      swap2\n      swap1\n      pop\n      jump\t// out\n        /* \"#utility.yul\":14588:14768   */\n    tag_230:\n        /* \"#utility.yul\":14636:14713   */\n      0x4e487b7100000000000000000000000000000000000000000000000000000000\n        /* \"#utility.yul\":14633:14634   */\n      0x00\n        /* \"#utility.yul\":14626:14714   */\n      mstore\n        /* \"#utility.yul\":14733:14737   */\n      0x22\n        /* \"#utility.yul\":14730:14731   */\n      0x04\n        /* \"#utility.yul\":14723:14738   */\n      mstore\n        /* \"#utility.yul\":14757:14761   */\n      0x24\n        /* \"#utility.yul\":14754:14755   */\n      0x00\n        /* \"#utility.yul\":14747:14762   */\n      revert\n        /* \"#utility.yul\":14774:15094   */\n    tag_150:\n        /* \"#utility.yul\":14818:14824   */\n      0x00\n        /* \"#utility.yul\":14855:14856   */\n      0x02\n        /* \"#utility.yul\":14849:14853   */\n      dup3\n        /* \"#utility.yul\":14845:14857   */\n      div\n        /* \"#utility.yul\":14835:14857   */\n      swap1\n      pop\n        /* \"#utility.yul\":14902:14903   */\n      0x01\n        /* \"#utility.yul\":14896:14900   */\n      dup3\n        /* \"#utility.yul\":14892:14904   */\n      and\n        /* \"#utility.yul\":14923:14941   */\n      dup1\n        /* \"#utility.yul\":14913:14994   */\n      tag_385\n      jumpi\n        /* \"#utility.yul\":14979:14983   */\n      0x7f\n        /* \"#utility.yul\":14971:14977   */\n      dup3\n        /* \"#utility.yul\":14967:14984   */\n      and\n        /* \"#utility.yul\":14957:14984   */\n      swap2\n      pop\n        /* \"#utility.yul\":14913:14994   */\n    tag_385:\n        /* \"#utility.yul\":15041:15043   */\n      0x20\n        /* \"#utility.yul\":15033:15039   */\n      dup3\n        /* \"#utility.yul\":15030:15044   */\n      lt\n        /* \"#utility.yul\":15010:15028   */\n      dup2\n        /* \"#utility.yul\":15007:15045   */\n      eq\n        /* \"#utility.yul\":15004:15088   */\n      iszero\n      tag_386\n      jumpi\n        /* \"#utility.yul\":15060:15078   */\n      tag_387\n      tag_230\n      jump\t// in\n    tag_387:\n        /* \"#utility.yul\":15004:15088   */\n    tag_386:\n        /* \"#utility.yul\":14825:15094   */\n      pop\n        /* \"#utility.yul\":14774:15094   */\n      swap2\n      swap1\n      pop\n      jump\t// out\n        /* \"#utility.yul\":15100:15405   */\n    tag_165:\n        /* \"#utility.yul\":15140:15143   */\n      0x00\n        /* \"#utility.yul\":15159:15179   */\n      tag_389\n        /* \"#utility.yul\":15177:15178   */\n      dup3\n        /* \"#utility.yul\":15159:15179   */\n      tag_193\n      jump\t// in\n    tag_389:\n        /* \"#utility.yul\":15154:15179   */\n      swap2\n      pop\n        /* \"#utility.yul\":15193:15213   */\n      tag_390\n        /* \"#utility.yul\":15211:15212   */\n      dup4\n        /* \"#utility.yul\":15193:15213   */\n      tag_193\n      jump\t// in\n    tag_390:\n        /* \"#utility.yul\":15188:15213   */\n      swap3\n      pop\n        /* \"#utility.yul\":15347:15348   */\n      dup3\n        /* \"#utility.yul\":15279:15345   */\n      0xffffffffffffffffffffffffffffffffffffffffffffffffffffffffffffffff\n        /* \"#utility.yul\":15275:15349   */\n      sub\n        /* \"#utility.yul\":15272:15273   */\n      dup3\n        /* \"#utility.yul\":15269:15350   */\n      gt\n        /* \"#utility.yul\":15266:15373   */\n      iszero\n      tag_391\n      jumpi\n        /* \"#utility.yul\":15353:15371   */\n      tag_392\n      tag_225\n      jump\t// in\n    tag_392:\n        /* \"#utility.yul\":15266:15373   */\n    tag_391:\n        /* \"#utility.yul\":15397:15398   */\n      dup3\n        /* \"#utility.yul\":15394:15395   */\n      dup3\n        /* \"#utility.yul\":15390:15399   */\n      add\n        /* \"#utility.yul\":15383:15399   */\n      swap1\n      pop\n        /* \"#utility.yul\":15100:15405   */\n      swap3\n      swap2\n      pop\n      pop\n      jump\t// out\n        /* \"#utility.yul\":15411:15576   */\n    tag_231:\n        /* \"#utility.yul\":15551:15568   */\n      0x4973206e6f7420617070726f7665720000000000000000000000000000000000\n        /* \"#utility.yul\":15547:15548   */\n      0x00\n        /* \"#utility.yul\":15539:15545   */\n      dup3\n        /* \"#utility.yul\":15535:15549   */\n      add\n        /* \"#utility.yul\":15528:15569   */\n      mstore\n        /* \"#utility.yul\":15411:15576   */\n      pop\n      jump\t// out\n        /* \"#utility.yul\":15582:15948   */\n    tag_232:\n        /* \"#utility.yul\":15724:15727   */\n      0x00\n        /* \"#utility.yul\":15745:15812   */\n      tag_395\n        /* \"#utility.yul\":15809:15811   */\n      0x0f\n        /* \"#utility.yul\":15804:15807   */\n      dup4\n        /* \"#utility.yul\":15745:15812   */\n      tag_205\n      jump\t// in\n    tag_395:\n        /* \"#utility.yul\":15738:15812   */\n      swap2\n      pop\n        /* \"#utility.yul\":15821:15914   */\n      tag_396\n        /* \"#utility.yul\":15910:15913   */\n      dup3\n        /* \"#utility.yul\":15821:15914   */\n      tag_231\n      jump\t// in\n    tag_396:\n        /* \"#utility.yul\":15939:15941   */\n      0x20\n        /* \"#utility.yul\":15934:15937   */\n      dup3\n        /* \"#utility.yul\":15930:15942   */\n      add\n        /* \"#utility.yul\":15923:15942   */\n      swap1\n      pop\n        /* \"#utility.yul\":15582:15948   */\n      swap2\n      swap1\n      pop\n      jump\t// out\n        /* \"#utility.yul\":15954:16373   */\n    tag_175:\n        /* \"#utility.yul\":16120:16124   */\n      0x00\n        /* \"#utility.yul\":16158:16160   */\n      0x20\n        /* \"#utility.yul\":16147:16156   */\n      dup3\n        /* \"#utility.yul\":16143:16161   */\n      add\n        /* \"#utility.yul\":16135:16161   */\n      swap1\n      pop\n        /* \"#utility.yul\":16207:16216   */\n      dup2\n        /* \"#utility.yul\":16201:16205   */\n      dup2\n        /* \"#utility.yul\":16197:16217   */\n      sub\n        /* \"#utility.yul\":16193:16194   */\n      0x00\n        /* \"#utility.yul\":16182:16191   */\n      dup4\n        /* \"#utility.yul\":16178:16195   */\n      add\n        /* \"#utility.yul\":16171:16218   */\n      mstore\n        /* \"#utility.yul\":16235:16366   */\n      tag_398\n        /* \"#utility.yul\":16361:16365   */\n      dup2\n        /* \"#utility.yul\":16235:16366   */\n      tag_232\n      jump\t// in\n    tag_398:\n        /* \"#utility.yul\":16227:16366   */\n      swap1\n      pop\n        /* \"#utility.yul\":15954:16373   */\n      swap2\n      swap1\n      pop\n      jump\t// out\n        /* \"#utility.yul\":16379:16545   */\n    tag_233:\n        /* \"#utility.yul\":16519:16537   */\n      0x43616e277420766f746520747769636500000000000000000000000000000000\n        /* \"#utility.yul\":16515:16516   */\n      0x00\n        /* \"#utility.yul\":16507:16513   */\n      dup3\n        /* \"#utility.yul\":16503:16517   */\n      add\n        /* \"#utility.yul\":16496:16538   */\n      mstore\n        /* \"#utility.yul\":16379:16545   */\n      pop\n      jump\t// out\n        /* \"#utility.yul\":16551:16917   */\n    tag_234:\n        /* \"#utility.yul\":16693:16696   */\n      0x00\n        /* \"#utility.yul\":16714:16781   */\n      tag_401\n        /* \"#utility.yul\":16778:16780   */\n      0x10\n        /* \"#utility.yul\":16773:16776   */\n      dup4\n        /* \"#utility.yul\":16714:16781   */\n      tag_205\n      jump\t// in\n    tag_401:\n        /* \"#utility.yul\":16707:16781   */\n      swap2\n      pop\n        /* \"#utility.yul\":16790:16883   */\n      tag_402\n        /* \"#utility.yul\":16879:16882   */\n      dup3\n        /* \"#utility.yul\":16790:16883   */\n      tag_233\n      jump\t// in\n    tag_402:\n        /* \"#utility.yul\":16908:16910   */\n      0x20\n        /* \"#utility.yul\":16903:16906   */\n      dup3\n        /* \"#utility.yul\":16899:16911   */\n      add\n        /* \"#utility.yul\":16892:16911   */\n      swap1\n      pop\n        /* \"#utility.yul\":16551:16917   */\n      swap2\n      swap1\n      pop\n      jump\t// out\n        /* \"#utility.yul\":16923:17342   */\n    tag_178:\n        /* \"#utility.yul\":17089:17093   */\n      0x00\n        /* \"#utility.yul\":17127:17129   */\n      0x20\n        /* \"#utility.yul\":17116:17125   */\n      dup3\n        /* \"#utility.yul\":17112:17130   */\n      add\n        /* \"#utility.yul\":17104:17130   */\n      swap1\n      pop\n        /* \"#utility.yul\":17176:17185   */\n      dup2\n        /* \"#utility.yul\":17170:17174   */\n      dup2\n        /* \"#utility.yul\":17166:17186   */\n      sub\n        /* \"#utility.yul\":17162:17163   */\n      0x00\n        /* \"#utility.yul\":17151:17160   */\n      dup4\n        /* \"#utility.yul\":17147:17164   */\n      add\n        /* \"#utility.yul\":17140:17187   */\n      mstore\n        /* \"#utility.yul\":17204:17335   */\n      tag_404\n        /* \"#utility.yul\":17330:17334   */\n      dup2\n        /* \"#utility.yul\":17204:17335   */\n      tag_234\n      jump\t// in\n    tag_404:\n        /* \"#utility.yul\":17196:17335   */\n      swap1\n      pop\n        /* \"#utility.yul\":16923:17342   */\n      swap2\n      swap1\n      pop\n      jump\t// out\n\n    auxdata: 0xa264697066735822122081b20f507d42f08e57930e72d1c31862374cd2f49244a7b6c30f6d2d49e300cc64736f6c634300080b0033\n}\n","bytecode":{"linkReferences":{},"object":"60806040523480156200001157600080fd5b5060405162001c5a38038062001c5a8339818101604052810190620000379190620001c2565b816000806101000a81548173ffffffffffffffffffffffffffffffffffffffff021916908373ffffffffffffffffffffffffffffffffffffffff16021790555084600181905550836004819055508260058190555080600a60006101000a81548173ffffffffffffffffffffffffffffffffffffffff021916908373ffffffffffffffffffffffffffffffffffffffff16021790555050505050506200024a565b600080fd5b6000819050919050565b620000f281620000dd565b8114620000fe57600080fd5b50565b6000815190506200011281620000e7565b92915050565b600073ffffffffffffffffffffffffffffffffffffffff82169050919050565b6000620001458262000118565b9050919050565b620001578162000138565b81146200016357600080fd5b50565b60008151905062000177816200014c565b92915050565b60006200018a8262000138565b9050919050565b6200019c816200017d565b8114620001a857600080fd5b50565b600081519050620001bc8162000191565b92915050565b600080600080600060a08688031215620001e157620001e0620000d8565b5b6000620001f18882890162000101565b9550506020620002048882890162000101565b9450506040620002178882890162000101565b93505060606200022a8882890162000166565b92505060806200023d88828901620001ab565b9150509295509295909350565b611a00806200025a6000396000f3fe6080604052600436106101095760003560e01c80638da5cb5b11610095578063cd03423411610064578063cd03423414610350578063d7bb99ba1461037b578063d7d1bbdb14610385578063f3a504f2146103ae578063f89be593146103d957610109565b80638da5cb5b146102a4578063937e09b1146102cf5780639fb42b1f146102fa578063b071cbe61461032557610109565b806356728fb1116100dc57806356728fb1146101bb5780637075b4ab146101f857806381d12c581461020f57806382fde093146102505780638a9cfd551461027b57610109565b8063034410061461010e5780630a14439114610137578063387b8b12146101745780634051ddac1461018b575b600080fd5b34801561011a57600080fd5b5061013560048036038101906101309190611069565b610404565b005b34801561014357600080fd5b5061015e600480360381019061015991906110f4565b6105df565b60405161016b9190611130565b60405180910390f35b34801561018057600080fd5b506101896105f7565b005b34801561019757600080fd5b506101a0610814565b6040516101b29695949392919061115a565b60405180910390f35b3480156101c757600080fd5b506101e260048036038101906101dd91906111bb565b61085f565b6040516101ef9190611216565b60405180910390f35b34801561020457600080fd5b5061020d6108ca565b005b34801561021b57600080fd5b5061023660048036038101906102319190611069565b6109c5565b6040516102479594939291906112eb565b60405180910390f35b34801561025c57600080fd5b50610265610ab0565b6040516102729190611130565b60405180910390f35b34801561028757600080fd5b506102a2600480360381019061029d919061147a565b610ab6565b005b3480156102b057600080fd5b506102b9610c03565b6040516102c691906114e9565b60405180910390f35b3480156102db57600080fd5b506102e4610c27565b6040516102f19190611130565b60405180910390f35b34801561030657600080fd5b5061030f610c2d565b60405161031c9190611130565b60405180910390f35b34801561033157600080fd5b5061033a610c33565b6040516103479190611130565b60405180910390f35b34801561035c57600080fd5b50610365610c39565b6040516103729190611130565b60405180910390f35b610383610c3f565b005b34801561039157600080fd5b506103ac60048036038101906103a79190611069565b610dbd565b005b3480156103ba57600080fd5b506103c3610f70565b6040516103d09190611130565b60405180910390f35b3480156103e557600080fd5b506103ee610f76565b6040516103fb9190611130565b60405180910390f35b60008054906101000a900473ffffffffffffffffffffffffffffffffffffffff1673ffffffffffffffffffffffffffffffffffffffff163373ffffffffffffffffffffffffffffffffffffffff1614610492576040517f08c379a000000000000000000000000000000000000000000000000000000000815260040161048990611576565b60405180910390fd5b60006009600083815260200190815260200160002090508060020160149054906101000a900460ff16156104fb576040517f08c379a00000000000000000000000000000000000000000000000000000000081526004016104f2906115e2565b60405180910390fd5b600280546105099190611660565b8160040154101561054f576040517f08c379a0000000000000000000000000000000000000000000000000000000008152600401610546906116dd565b60405180910390fd5b8060020160009054906101000a900473ffffffffffffffffffffffffffffffffffffffff1673ffffffffffffffffffffffffffffffffffffffff166108fc82600101549081150290604051600060405180830381858888f193505050501580156105bd573d6000803e3d6000fd5b5060018160020160146101000a81548160ff0219169083151502179055505050565b60066020528060005260406000206000915090505481565b600060096000600b54815260200190815260200160002090508060020160149054906101000a900460ff1615610662576040517f08c379a000000000000000000000000000000000000000000000000000000000815260040161065990611749565b60405180910390fd5b600360046002546106739190611660565b61067d9190611769565b816004015410156106c3576040517f08c379a00000000000000000000000000000000000000000000000000000000081526004016106ba906116dd565b60405180910390fd5b60005b600780549050811015610810576000606447606460035460066000600788815481106106f5576106f46117c3565b5b9060005260206000200160009054906101000a900473ffffffffffffffffffffffffffffffffffffffff1673ffffffffffffffffffffffffffffffffffffffff1673ffffffffffffffffffffffffffffffffffffffff168152602001908152602001600020546107659190611660565b61076f9190611769565b6107799190611660565b6107839190611769565b905060078281548110610799576107986117c3565b5b9060005260206000200160009054906101000a900473ffffffffffffffffffffffffffffffffffffffff1673ffffffffffffffffffffffffffffffffffffffff166108fc829081150290604051600060405180830381858888f19350505050158015610809573d6000803e3d6000fd5b50506106c6565b5050565b6000806000806000806001544760025460055460008054906101000a900473ffffffffffffffffffffffffffffffffffffffff16600854955095509550955095509550909192939495565b60006009600083815260200190815260200160002060030160008473ffffffffffffffffffffffffffffffffffffffff1673ffffffffffffffffffffffffffffffffffffffff16815260200190815260200160002060009054906101000a900460ff16905092915050565b600854600b81905550600060096000600860008154809291906108ec906117f2565b91905055815260200190815260200160002090506040518060400160405280600681526020017f526566756e64000000000000000000000000000000000000000000000000000081525081600001908051906020019061094d929190610f7c565b5060008160010181905550338160020160006101000a81548173ffffffffffffffffffffffffffffffffffffffff021916908373ffffffffffffffffffffffffffffffffffffffff16021790555060008160020160146101000a81548160ff0219169083151502179055506000816004018190555050565b60096020528060005260406000206000915090508060000180546109e89061186a565b80601f0160208091040260200160405190810160405280929190818152602001828054610a149061186a565b8015610a615780601f10610a3657610100808354040283529160200191610a61565b820191906000526020600020905b815481529060010190602001808311610a4457829003601f168201915b5050505050908060010154908060020160009054906101000a900473ffffffffffffffffffffffffffffffffffffffff16908060020160149054906101000a900460ff16908060040154905085565b60025481565b60008054906101000a900473ffffffffffffffffffffffffffffffffffffffff1673ffffffffffffffffffffffffffffffffffffffff163373ffffffffffffffffffffffffffffffffffffffff1614610b44576040517f08c379a0000000000000000000000000000000000000000000000000000000008152600401610b3b90611576565b60405180910390fd5b60006009600060086000815480929190610b5d906117f2565b919050558152602001908152602001600020905083816000019080519060200190610b89929190610f7c565b50828160010181905550818160020160006101000a81548173ffffffffffffffffffffffffffffffffffffffff021916908373ffffffffffffffffffffffffffffffffffffffff16021790555060008160020160146101000a81548160ff0219169083151502179055506000816004018190555050505050565b60008054906101000a900473ffffffffffffffffffffffffffffffffffffffff1681565b60015481565b60085481565b60055481565b600b5481565b6001543410610dbb5734600660003373ffffffffffffffffffffffffffffffffffffffff1673ffffffffffffffffffffffffffffffffffffffff1681526020019081526020016000208190555060026000815480929190610c9f906117f2565b91905055503460036000828254610cb6919061189c565b925050819055506007339080600181540180825580915050600190039060005260206000200160009091909190916101000a81548173ffffffffffffffffffffffffffffffffffffffff021916908373ffffffffffffffffffffffffffffffffffffffff1602179055506005544710610dba57600a60009054906101000a900473ffffffffffffffffffffffffffffffffffffffff1673ffffffffffffffffffffffffffffffffffffffff1663d0e30db06103e847610d759190611660565b6040518263ffffffff1660e01b81526004016000604051808303818588803b158015610da057600080fd5b505af1158015610db4573d6000803e3d6000fd5b50505050505b5b565b60006009600083815260200190815260200160002090506000600660003373ffffffffffffffffffffffffffffffffffffffff1673ffffffffffffffffffffffffffffffffffffffff168152602001908152602001600020541415610e57576040517f08c379a0000000000000000000000000000000000000000000000000000000008152600401610e4e9061193e565b60405180910390fd5b8060030160003373ffffffffffffffffffffffffffffffffffffffff1673ffffffffffffffffffffffffffffffffffffffff16815260200190815260200160002060009054906101000a900460ff1615610ee6576040517f08c379a0000000000000000000000000000000000000000000000000000000008152600401610edd906119aa565b60405180910390fd5b60018160030160003373ffffffffffffffffffffffffffffffffffffffff1673ffffffffffffffffffffffffffffffffffffffff16815260200190815260200160002060006101000a81548160ff021916908315150217905550600960008381526020019081526020016000206004016000815480929190610f67906117f2565b91905055505050565b60035481565b60045481565b828054610f889061186a565b90600052602060002090601f016020900481019282610faa5760008555610ff1565b82601f10610fc357805160ff1916838001178555610ff1565b82800160010185558215610ff1579182015b82811115610ff0578251825591602001919060010190610fd5565b5b509050610ffe9190611002565b5090565b5b8082111561101b576000816000905550600101611003565b5090565b6000604051905090565b600080fd5b600080fd5b6000819050919050565b61104681611033565b811461105157600080fd5b50565b6000813590506110638161103d565b92915050565b60006020828403121561107f5761107e611029565b5b600061108d84828501611054565b91505092915050565b600073ffffffffffffffffffffffffffffffffffffffff82169050919050565b60006110c182611096565b9050919050565b6110d1816110b6565b81146110dc57600080fd5b50565b6000813590506110ee816110c8565b92915050565b60006020828403121561110a57611109611029565b5b6000611118848285016110df565b91505092915050565b61112a81611033565b82525050565b60006020820190506111456000830184611121565b92915050565b611154816110b6565b82525050565b600060c08201905061116f6000830189611121565b61117c6020830188611121565b6111896040830187611121565b6111966060830186611121565b6111a3608083018561114b565b6111b060a0830184611121565b979650505050505050565b600080604083850312156111d2576111d1611029565b5b60006111e0858286016110df565b92505060206111f185828601611054565b9150509250929050565b60008115159050919050565b611210816111fb565b82525050565b600060208201905061122b6000830184611207565b92915050565b600081519050919050565b600082825260208201905092915050565b60005b8381101561126b578082015181840152602081019050611250565b8381111561127a576000848401525b50505050565b6000601f19601f8301169050919050565b600061129c82611231565b6112a6818561123c565b93506112b681856020860161124d565b6112bf81611280565b840191505092915050565b60006112d582611096565b9050919050565b6112e5816112ca565b82525050565b600060a08201905081810360008301526113058188611291565b90506113146020830187611121565b61132160408301866112dc565b61132e6060830185611207565b61133b6080830184611121565b9695505050505050565b600080fd5b600080fd5b7f4e487b7100000000000000000000000000000000000000000000000000000000600052604160045260246000fd5b61138782611280565b810181811067ffffffffffffffff821117156113a6576113a561134f565b5b80604052505050565b60006113b961101f565b90506113c5828261137e565b919050565b600067ffffffffffffffff8211156113e5576113e461134f565b5b6113ee82611280565b9050602081019050919050565b82818337600083830152505050565b600061141d611418846113ca565b6113af565b9050828152602081018484840111156114395761143861134a565b5b6114448482856113fb565b509392505050565b600082601f83011261146157611460611345565b5b813561147184826020860161140a565b91505092915050565b60008060006060848603121561149357611492611029565b5b600084013567ffffffffffffffff8111156114b1576114b061102e565b5b6114bd8682870161144c565b93505060206114ce86828701611054565b92505060406114df868287016110df565b9150509250925092565b60006020820190506114fe600083018461114b565b92915050565b7f4f6e6c7920636f6e7472616374206f776e65722063616e2063616c6c2074686960008201527f732066756e6374696f6e00000000000000000000000000000000000000000000602082015250565b6000611560602a8361123c565b915061156b82611504565b604082019050919050565b6000602082019050818103600083015261158f81611553565b9050919050565b7f5265717565737420697320616c726561647920636f6d706c6574656400000000600082015250565b60006115cc601c8361123c565b91506115d782611596565b602082019050919050565b600060208201905081810360008301526115fb816115bf565b9050919050565b7f4e487b7100000000000000000000000000000000000000000000000000000000600052601260045260246000fd5b7f4e487b7100000000000000000000000000000000000000000000000000000000600052601160045260246000fd5b600061166b82611033565b915061167683611033565b92508261168657611685611602565b5b828204905092915050565b7f4e6f7420656e6f75676820617070726f76616c73000000000000000000000000600082015250565b60006116c760148361123c565b91506116d282611691565b602082019050919050565b600060208201905081810360008301526116f6816116ba565b9050919050565b7f526566756e6420697320616c726561647920636f6d706c657465640000000000600082015250565b6000611733601b8361123c565b915061173e826116fd565b602082019050919050565b6000602082019050818103600083015261176281611726565b9050919050565b600061177482611033565b915061177f83611033565b9250817fffffffffffffffffffffffffffffffffffffffffffffffffffffffffffffffff04831182151516156117b8576117b7611631565b5b828202905092915050565b7f4e487b7100000000000000000000000000000000000000000000000000000000600052603260045260246000fd5b60006117fd82611033565b91507fffffffffffffffffffffffffffffffffffffffffffffffffffffffffffffffff8214156118305761182f611631565b5b600182019050919050565b7f4e487b7100000000000000000000000000000000000000000000000000000000600052602260045260246000fd5b6000600282049050600182168061188257607f821691505b602082108114156118965761189561183b565b5b50919050565b60006118a782611033565b91506118b283611033565b9250827fffffffffffffffffffffffffffffffffffffffffffffffffffffffffffffffff038211156118e7576118e6611631565b5b828201905092915050565b7f4973206e6f7420617070726f7665720000000000000000000000000000000000600082015250565b6000611928600f8361123c565b9150611933826118f2565b602082019050919050565b600060208201905081810360008301526119578161191b565b9050919050565b7f43616e277420766f746520747769636500000000000000000000000000000000600082015250565b600061199460108361123c565b915061199f8261195e565b602082019050919050565b600060208201905081810360008301526119c381611987565b905091905056fea264697066735822122081b20f507d42f08e57930e72d1c31862374cd2f49244a7b6c30f6d2d49e300cc64736f6c634300080b0033","opcodes":"PUSH1 0x80 PUSH1 0x40 MSTORE CALLVALUE DUP1 ISZERO PUSH3 0x11 JUMPI PUSH1 0x0 DUP1 REVERT JUMPDEST POP PUSH1 0x40 MLOAD PUSH3 0x1C5A CODESIZE SUB DUP1 PUSH3 0x1C5A DUP4 CODECOPY DUP2 DUP2 ADD PUSH1 0x40 MSTORE DUP2 ADD SWAP1 PUSH3 0x37 SWAP2 SWAP1 PUSH3 0x1C2 JUMP JUMPDEST DUP2 PUSH1 0x0 DUP1 PUSH2 0x100 EXP DUP2 SLOAD DUP2 PUSH20 0xFFFFFFFFFFFFFFFFFFFFFFFFFFFFFFFFFFFFFFFF MUL NOT AND SWAP1 DUP4 PUSH20 0xFFFFFFFFFFFFFFFFFFFFFFFFFFFFFFFFFFFFFFFF AND MUL OR SWAP1 SSTORE POP DUP5 PUSH1 0x1 DUP2 SWAP1 SSTORE POP DUP4 PUSH1 0x4 DUP2 SWAP1 SSTORE POP DUP3 PUSH1 0x5 DUP2 SWAP1 SSTORE POP DUP1 PUSH1 0xA PUSH1 0x0 PUSH2 0x100 EXP DUP2 SLOAD DUP2 PUSH20 0xFFFFFFFFFFFFFFFFFFFFFFFFFFFFFFFFFFFFFFFF MUL NOT AND SWAP1 DUP4 PUSH20 0xFFFFFFFFFFFFFFFFFFFFFFFFFFFFFFFFFFFFFFFF AND MUL OR SWAP1 SSTORE POP POP POP POP POP POP PUSH3 0x24A JUMP JUMPDEST PUSH1 0x0 DUP1 REVERT JUMPDEST PUSH1 0x0 DUP2 SWAP1 POP SWAP2 SWAP1 POP JUMP JUMPDEST PUSH3 0xF2 DUP2 PUSH3 0xDD JUMP JUMPDEST DUP2 EQ PUSH3 0xFE JUMPI PUSH1 0x0 DUP1 REVERT JUMPDEST POP JUMP JUMPDEST PUSH1 0x0 DUP2 MLOAD SWAP1 POP PUSH3 0x112 DUP2 PUSH3 0xE7 JUMP JUMPDEST SWAP3 SWAP2 POP POP JUMP JUMPDEST PUSH1 0x0 PUSH20 0xFFFFFFFFFFFFFFFFFFFFFFFFFFFFFFFFFFFFFFFF DUP3 AND SWAP1 POP SWAP2 SWAP1 POP JUMP JUMPDEST PUSH1 0x0 PUSH3 0x145 DUP3 PUSH3 0x118 JUMP JUMPDEST SWAP1 POP SWAP2 SWAP1 POP JUMP JUMPDEST PUSH3 0x157 DUP2 PUSH3 0x138 JUMP JUMPDEST DUP2 EQ PUSH3 0x163 JUMPI PUSH1 0x0 DUP1 REVERT JUMPDEST POP JUMP JUMPDEST PUSH1 0x0 DUP2 MLOAD SWAP1 POP PUSH3 0x177 DUP2 PUSH3 0x14C JUMP JUMPDEST SWAP3 SWAP2 POP POP JUMP JUMPDEST PUSH1 0x0 PUSH3 0x18A DUP3 PUSH3 0x138 JUMP JUMPDEST SWAP1 POP SWAP2 SWAP1 POP JUMP JUMPDEST PUSH3 0x19C DUP2 PUSH3 0x17D JUMP JUMPDEST DUP2 EQ PUSH3 0x1A8 JUMPI PUSH1 0x0 DUP1 REVERT JUMPDEST POP JUMP JUMPDEST PUSH1 0x0 DUP2 MLOAD SWAP1 POP PUSH3 0x1BC DUP2 PUSH3 0x191 JUMP JUMPDEST SWAP3 SWAP2 POP POP JUMP JUMPDEST PUSH1 0x0 DUP1 PUSH1 0x0 DUP1 PUSH1 0x0 PUSH1 0xA0 DUP7 DUP9 SUB SLT ISZERO PUSH3 0x1E1 JUMPI PUSH3 0x1E0 PUSH3 0xD8 JUMP JUMPDEST JUMPDEST PUSH1 0x0 PUSH3 0x1F1 DUP9 DUP3 DUP10 ADD PUSH3 0x101 JUMP JUMPDEST SWAP6 POP POP PUSH1 0x20 PUSH3 0x204 DUP9 DUP3 DUP10 ADD PUSH3 0x101 JUMP JUMPDEST SWAP5 POP POP PUSH1 0x40 PUSH3 0x217 DUP9 DUP3 DUP10 ADD PUSH3 0x101 JUMP JUMPDEST SWAP4 POP POP PUSH1 0x60 PUSH3 0x22A DUP9 DUP3 DUP10 ADD PUSH3 0x166 JUMP JUMPDEST SWAP3 POP POP PUSH1 0x80 PUSH3 0x23D DUP9 DUP3 DUP10 ADD PUSH3 0x1AB JUMP JUMPDEST SWAP2 POP POP SWAP3 SWAP6 POP SWAP3 SWAP6 SWAP1 SWAP4 POP JUMP JUMPDEST PUSH2 0x1A00 DUP1 PUSH3 0x25A PUSH1 0x0 CODECOPY PUSH1 0x0 RETURN INVALID PUSH1 0x80 PUSH1 0x40 MSTORE PUSH1 0x4 CALLDATASIZE LT PUSH2 0x109 JUMPI PUSH1 0x0 CALLDATALOAD PUSH1 0xE0 SHR DUP1 PUSH4 0x8DA5CB5B GT PUSH2 0x95 JUMPI DUP1 PUSH4 0xCD034234 GT PUSH2 0x64 JUMPI DUP1 PUSH4 0xCD034234 EQ PUSH2 0x350 JUMPI DUP1 PUSH4 0xD7BB99BA EQ PUSH2 0x37B JUMPI DUP1 PUSH4 0xD7D1BBDB EQ PUSH2 0x385 JUMPI DUP1 PUSH4 0xF3A504F2 EQ PUSH2 0x3AE JUMPI DUP1 PUSH4 0xF89BE593 EQ PUSH2 0x3D9 JUMPI PUSH2 0x109 JUMP JUMPDEST DUP1 PUSH4 0x8DA5CB5B EQ PUSH2 0x2A4 JUMPI DUP1 PUSH4 0x937E09B1 EQ PUSH2 0x2CF JUMPI DUP1 PUSH4 0x9FB42B1F EQ PUSH2 0x2FA JUMPI DUP1 PUSH4 0xB071CBE6 EQ PUSH2 0x325 JUMPI PUSH2 0x109 JUMP JUMPDEST DUP1 PUSH4 0x56728FB1 GT PUSH2 0xDC JUMPI DUP1 PUSH4 0x56728FB1 EQ PUSH2 0x1BB JUMPI DUP1 PUSH4 0x7075B4AB EQ PUSH2 0x1F8 JUMPI DUP1 PUSH4 0x81D12C58 EQ PUSH2 0x20F JUMPI DUP1 PUSH4 0x82FDE093 EQ PUSH2 0x250 JUMPI DUP1 PUSH4 0x8A9CFD55 EQ PUSH2 0x27B JUMPI PUSH2 0x109 JUMP JUMPDEST DUP1 PUSH4 0x3441006 EQ PUSH2 0x10E JUMPI DUP1 PUSH4 0xA144391 EQ PUSH2 0x137 JUMPI DUP1 PUSH4 0x387B8B12 EQ PUSH2 0x174 JUMPI DUP1 PUSH4 0x4051DDAC EQ PUSH2 0x18B JUMPI JUMPDEST PUSH1 0x0 DUP1 REVERT JUMPDEST CALLVALUE DUP1 ISZERO PUSH2 0x11A JUMPI PUSH1 0x0 DUP1 REVERT JUMPDEST POP PUSH2 0x135 PUSH1 0x4 DUP1 CALLDATASIZE SUB DUP2 ADD SWAP1 PUSH2 0x130 SWAP2 SWAP1 PUSH2 0x1069 JUMP JUMPDEST PUSH2 0x404 JUMP JUMPDEST STOP JUMPDEST CALLVALUE DUP1 ISZERO PUSH2 0x143 JUMPI PUSH1 0x0 DUP1 REVERT JUMPDEST POP PUSH2 0x15E PUSH1 0x4 DUP1 CALLDATASIZE SUB DUP2 ADD SWAP1 PUSH2 0x159 SWAP2 SWAP1 PUSH2 0x10F4 JUMP JUMPDEST PUSH2 0x5DF JUMP JUMPDEST PUSH1 0x40 MLOAD PUSH2 0x16B SWAP2 SWAP1 PUSH2 0x1130 JUMP JUMPDEST PUSH1 0x40 MLOAD DUP1 SWAP2 SUB SWAP1 RETURN JUMPDEST CALLVALUE DUP1 ISZERO PUSH2 0x180 JUMPI PUSH1 0x0 DUP1 REVERT JUMPDEST POP PUSH2 0x189 PUSH2 0x5F7 JUMP JUMPDEST STOP JUMPDEST CALLVALUE DUP1 ISZERO PUSH2 0x197 JUMPI PUSH1 0x0 DUP1 REVERT JUMPDEST POP PUSH2 0x1A0 PUSH2 0x814 JUMP JUMPDEST PUSH1 0x40 MLOAD PUSH2 0x1B2 SWAP7 SWAP6 SWAP5 SWAP4 SWAP3 SWAP2 SWAP1 PUSH2 0x115A JUMP JUMPDEST PUSH1 0x40 MLOAD DUP1 SWAP2 SUB SWAP1 RETURN JUMPDEST CALLVALUE DUP1 ISZERO PUSH2 0x1C7 JUMPI PUSH1 0x0 DUP1 REVERT JUMPDEST POP PUSH2 0x1E2 PUSH1 0x4 DUP1 CALLDATASIZE SUB DUP2 ADD SWAP1 PUSH2 0x1DD SWAP2 SWAP1 PUSH2 0x11BB JUMP JUMPDEST PUSH2 0x85F JUMP JUMPDEST PUSH1 0x40 MLOAD PUSH2 0x1EF SWAP2 SWAP1 PUSH2 0x1216 JUMP JUMPDEST PUSH1 0x40 MLOAD DUP1 SWAP2 SUB SWAP1 RETURN JUMPDEST CALLVALUE DUP1 ISZERO PUSH2 0x204 JUMPI PUSH1 0x0 DUP1 REVERT JUMPDEST POP PUSH2 0x20D PUSH2 0x8CA JUMP JUMPDEST STOP JUMPDEST CALLVALUE DUP1 ISZERO PUSH2 0x21B JUMPI PUSH1 0x0 DUP1 REVERT JUMPDEST POP PUSH2 0x236 PUSH1 0x4 DUP1 CALLDATASIZE SUB DUP2 ADD SWAP1 PUSH2 0x231 SWAP2 SWAP1 PUSH2 0x1069 JUMP JUMPDEST PUSH2 0x9C5 JUMP JUMPDEST PUSH1 0x40 MLOAD PUSH2 0x247 SWAP6 SWAP5 SWAP4 SWAP3 SWAP2 SWAP1 PUSH2 0x12EB JUMP JUMPDEST PUSH1 0x40 MLOAD DUP1 SWAP2 SUB SWAP1 RETURN JUMPDEST CALLVALUE DUP1 ISZERO PUSH2 0x25C JUMPI PUSH1 0x0 DUP1 REVERT JUMPDEST POP PUSH2 0x265 PUSH2 0xAB0 JUMP JUMPDEST PUSH1 0x40 MLOAD PUSH2 0x272 SWAP2 SWAP1 PUSH2 0x1130 JUMP JUMPDEST PUSH1 0x40 MLOAD DUP1 SWAP2 SUB SWAP1 RETURN JUMPDEST CALLVALUE DUP1 ISZERO PUSH2 0x287 JUMPI PUSH1 0x0 DUP1 REVERT JUMPDEST POP PUSH2 0x2A2 PUSH1 0x4 DUP1 CALLDATASIZE SUB DUP2 ADD SWAP1 PUSH2 0x29D SWAP2 SWAP1 PUSH2 0x147A JUMP JUMPDEST PUSH2 0xAB6 JUMP JUMPDEST STOP JUMPDEST CALLVALUE DUP1 ISZERO PUSH2 0x2B0 JUMPI PUSH1 0x0 DUP1 REVERT JUMPDEST POP PUSH2 0x2B9 PUSH2 0xC03 JUMP JUMPDEST PUSH1 0x40 MLOAD PUSH2 0x2C6 SWAP2 SWAP1 PUSH2 0x14E9 JUMP JUMPDEST PUSH1 0x40 MLOAD DUP1 SWAP2 SUB SWAP1 RETURN JUMPDEST CALLVALUE DUP1 ISZERO PUSH2 0x2DB JUMPI PUSH1 0x0 DUP1 REVERT JUMPDEST POP PUSH2 0x2E4 PUSH2 0xC27 JUMP JUMPDEST PUSH1 0x40 MLOAD PUSH2 0x2F1 SWAP2 SWAP1 PUSH2 0x1130 JUMP JUMPDEST PUSH1 0x40 MLOAD DUP1 SWAP2 SUB SWAP1 RETURN JUMPDEST CALLVALUE DUP1 ISZERO PUSH2 0x306 JUMPI PUSH1 0x0 DUP1 REVERT JUMPDEST POP PUSH2 0x30F PUSH2 0xC2D JUMP JUMPDEST PUSH1 0x40 MLOAD PUSH2 0x31C SWAP2 SWAP1 PUSH2 0x1130 JUMP JUMPDEST PUSH1 0x40 MLOAD DUP1 SWAP2 SUB SWAP1 RETURN JUMPDEST CALLVALUE DUP1 ISZERO PUSH2 0x331 JUMPI PUSH1 0x0 DUP1 REVERT JUMPDEST POP PUSH2 0x33A PUSH2 0xC33 JUMP JUMPDEST PUSH1 0x40 MLOAD PUSH2 0x347 SWAP2 SWAP1 PUSH2 0x1130 JUMP JUMPDEST PUSH1 0x40 MLOAD DUP1 SWAP2 SUB SWAP1 RETURN JUMPDEST CALLVALUE DUP1 ISZERO PUSH2 0x35C JUMPI PUSH1 0x0 DUP1 REVERT JUMPDEST POP PUSH2 0x365 PUSH2 0xC39 JUMP JUMPDEST PUSH1 0x40 MLOAD PUSH2 0x372 SWAP2 SWAP1 PUSH2 0x1130 JUMP JUMPDEST PUSH1 0x40 MLOAD DUP1 SWAP2 SUB SWAP1 RETURN JUMPDEST PUSH2 0x383 PUSH2 0xC3F JUMP JUMPDEST STOP JUMPDEST CALLVALUE DUP1 ISZERO PUSH2 0x391 JUMPI PUSH1 0x0 DUP1 REVERT JUMPDEST POP PUSH2 0x3AC PUSH1 0x4 DUP1 CALLDATASIZE SUB DUP2 ADD SWAP1 PUSH2 0x3A7 SWAP2 SWAP1 PUSH2 0x1069 JUMP JUMPDEST PUSH2 0xDBD JUMP JUMPDEST STOP JUMPDEST CALLVALUE DUP1 ISZERO PUSH2 0x3BA JUMPI PUSH1 0x0 DUP1 REVERT JUMPDEST POP PUSH2 0x3C3 PUSH2 0xF70 JUMP JUMPDEST PUSH1 0x40 MLOAD PUSH2 0x3D0 SWAP2 SWAP1 PUSH2 0x1130 JUMP JUMPDEST PUSH1 0x40 MLOAD DUP1 SWAP2 SUB SWAP1 RETURN JUMPDEST CALLVALUE DUP1 ISZERO PUSH2 0x3E5 JUMPI PUSH1 0x0 DUP1 REVERT JUMPDEST POP PUSH2 0x3EE PUSH2 0xF76 JUMP JUMPDEST PUSH1 0x40 MLOAD PUSH2 0x3FB SWAP2 SWAP1 PUSH2 0x1130 JUMP JUMPDEST PUSH1 0x40 MLOAD DUP1 SWAP2 SUB SWAP1 RETURN JUMPDEST PUSH1 0x0 DUP1 SLOAD SWAP1 PUSH2 0x100 EXP SWAP1 DIV PUSH20 0xFFFFFFFFFFFFFFFFFFFFFFFFFFFFFFFFFFFFFFFF AND PUSH20 0xFFFFFFFFFFFFFFFFFFFFFFFFFFFFFFFFFFFFFFFF AND CALLER PUSH20 0xFFFFFFFFFFFFFFFFFFFFFFFFFFFFFFFFFFFFFFFF AND EQ PUSH2 0x492 JUMPI PUSH1 0x40 MLOAD PUSH32 0x8C379A000000000000000000000000000000000000000000000000000000000 DUP2 MSTORE PUSH1 0x4 ADD PUSH2 0x489 SWAP1 PUSH2 0x1576 JUMP JUMPDEST PUSH1 0x40 MLOAD DUP1 SWAP2 SUB SWAP1 REVERT JUMPDEST PUSH1 0x0 PUSH1 0x9 PUSH1 0x0 DUP4 DUP2 MSTORE PUSH1 0x20 ADD SWAP1 DUP2 MSTORE PUSH1 0x20 ADD PUSH1 0x0 KECCAK256 SWAP1 POP DUP1 PUSH1 0x2 ADD PUSH1 0x14 SWAP1 SLOAD SWAP1 PUSH2 0x100 EXP SWAP1 DIV PUSH1 0xFF AND ISZERO PUSH2 0x4FB JUMPI PUSH1 0x40 MLOAD PUSH32 0x8C379A000000000000000000000000000000000000000000000000000000000 DUP2 MSTORE PUSH1 0x4 ADD PUSH2 0x4F2 SWAP1 PUSH2 0x15E2 JUMP JUMPDEST PUSH1 0x40 MLOAD DUP1 SWAP2 SUB SWAP1 REVERT JUMPDEST PUSH1 0x2 DUP1 SLOAD PUSH2 0x509 SWAP2 SWAP1 PUSH2 0x1660 JUMP JUMPDEST DUP2 PUSH1 0x4 ADD SLOAD LT ISZERO PUSH2 0x54F JUMPI PUSH1 0x40 MLOAD PUSH32 0x8C379A000000000000000000000000000000000000000000000000000000000 DUP2 MSTORE PUSH1 0x4 ADD PUSH2 0x546 SWAP1 PUSH2 0x16DD JUMP JUMPDEST PUSH1 0x40 MLOAD DUP1 SWAP2 SUB SWAP1 REVERT JUMPDEST DUP1 PUSH1 0x2 ADD PUSH1 0x0 SWAP1 SLOAD SWAP1 PUSH2 0x100 EXP SWAP1 DIV PUSH20 0xFFFFFFFFFFFFFFFFFFFFFFFFFFFFFFFFFFFFFFFF AND PUSH20 0xFFFFFFFFFFFFFFFFFFFFFFFFFFFFFFFFFFFFFFFF AND PUSH2 0x8FC DUP3 PUSH1 0x1 ADD SLOAD SWAP1 DUP2 ISZERO MUL SWAP1 PUSH1 0x40 MLOAD PUSH1 0x0 PUSH1 0x40 MLOAD DUP1 DUP4 SUB DUP2 DUP6 DUP9 DUP9 CALL SWAP4 POP POP POP POP ISZERO DUP1 ISZERO PUSH2 0x5BD JUMPI RETURNDATASIZE PUSH1 0x0 DUP1 RETURNDATACOPY RETURNDATASIZE PUSH1 0x0 REVERT JUMPDEST POP PUSH1 0x1 DUP2 PUSH1 0x2 ADD PUSH1 0x14 PUSH2 0x100 EXP DUP2 SLOAD DUP2 PUSH1 0xFF MUL NOT AND SWAP1 DUP4 ISZERO ISZERO MUL OR SWAP1 SSTORE POP POP POP JUMP JUMPDEST PUSH1 0x6 PUSH1 0x20 MSTORE DUP1 PUSH1 0x0 MSTORE PUSH1 0x40 PUSH1 0x0 KECCAK256 PUSH1 0x0 SWAP2 POP SWAP1 POP SLOAD DUP2 JUMP JUMPDEST PUSH1 0x0 PUSH1 0x9 PUSH1 0x0 PUSH1 0xB SLOAD DUP2 MSTORE PUSH1 0x20 ADD SWAP1 DUP2 MSTORE PUSH1 0x20 ADD PUSH1 0x0 KECCAK256 SWAP1 POP DUP1 PUSH1 0x2 ADD PUSH1 0x14 SWAP1 SLOAD SWAP1 PUSH2 0x100 EXP SWAP1 DIV PUSH1 0xFF AND ISZERO PUSH2 0x662 JUMPI PUSH1 0x40 MLOAD PUSH32 0x8C379A000000000000000000000000000000000000000000000000000000000 DUP2 MSTORE PUSH1 0x4 ADD PUSH2 0x659 SWAP1 PUSH2 0x1749 JUMP JUMPDEST PUSH1 0x40 MLOAD DUP1 SWAP2 SUB SWAP1 REVERT JUMPDEST PUSH1 0x3 PUSH1 0x4 PUSH1 0x2 SLOAD PUSH2 0x673 SWAP2 SWAP1 PUSH2 0x1660 JUMP JUMPDEST PUSH2 0x67D SWAP2 SWAP1 PUSH2 0x1769 JUMP JUMPDEST DUP2 PUSH1 0x4 ADD SLOAD LT ISZERO PUSH2 0x6C3 JUMPI PUSH1 0x40 MLOAD PUSH32 0x8C379A000000000000000000000000000000000000000000000000000000000 DUP2 MSTORE PUSH1 0x4 ADD PUSH2 0x6BA SWAP1 PUSH2 0x16DD JUMP JUMPDEST PUSH1 0x40 MLOAD DUP1 SWAP2 SUB SWAP1 REVERT JUMPDEST PUSH1 0x0 JUMPDEST PUSH1 0x7 DUP1 SLOAD SWAP1 POP DUP2 LT ISZERO PUSH2 0x810 JUMPI PUSH1 0x0 PUSH1 0x64 SELFBALANCE PUSH1 0x64 PUSH1 0x3 SLOAD PUSH1 0x6 PUSH1 0x0 PUSH1 0x7 DUP9 DUP2 SLOAD DUP2 LT PUSH2 0x6F5 JUMPI PUSH2 0x6F4 PUSH2 0x17C3 JUMP JUMPDEST JUMPDEST SWAP1 PUSH1 0x0 MSTORE PUSH1 0x20 PUSH1 0x0 KECCAK256 ADD PUSH1 0x0 SWAP1 SLOAD SWAP1 PUSH2 0x100 EXP SWAP1 DIV PUSH20 0xFFFFFFFFFFFFFFFFFFFFFFFFFFFFFFFFFFFFFFFF AND PUSH20 0xFFFFFFFFFFFFFFFFFFFFFFFFFFFFFFFFFFFFFFFF AND PUSH20 0xFFFFFFFFFFFFFFFFFFFFFFFFFFFFFFFFFFFFFFFF AND DUP2 MSTORE PUSH1 0x20 ADD SWAP1 DUP2 MSTORE PUSH1 0x20 ADD PUSH1 0x0 KECCAK256 SLOAD PUSH2 0x765 SWAP2 SWAP1 PUSH2 0x1660 JUMP JUMPDEST PUSH2 0x76F SWAP2 SWAP1 PUSH2 0x1769 JUMP JUMPDEST PUSH2 0x779 SWAP2 SWAP1 PUSH2 0x1660 JUMP JUMPDEST PUSH2 0x783 SWAP2 SWAP1 PUSH2 0x1769 JUMP JUMPDEST SWAP1 POP PUSH1 0x7 DUP3 DUP2 SLOAD DUP2 LT PUSH2 0x799 JUMPI PUSH2 0x798 PUSH2 0x17C3 JUMP JUMPDEST JUMPDEST SWAP1 PUSH1 0x0 MSTORE PUSH1 0x20 PUSH1 0x0 KECCAK256 ADD PUSH1 0x0 SWAP1 SLOAD SWAP1 PUSH2 0x100 EXP SWAP1 DIV PUSH20 0xFFFFFFFFFFFFFFFFFFFFFFFFFFFFFFFFFFFFFFFF AND PUSH20 0xFFFFFFFFFFFFFFFFFFFFFFFFFFFFFFFFFFFFFFFF AND PUSH2 0x8FC DUP3 SWAP1 DUP2 ISZERO MUL SWAP1 PUSH1 0x40 MLOAD PUSH1 0x0 PUSH1 0x40 MLOAD DUP1 DUP4 SUB DUP2 DUP6 DUP9 DUP9 CALL SWAP4 POP POP POP POP ISZERO DUP1 ISZERO PUSH2 0x809 JUMPI RETURNDATASIZE PUSH1 0x0 DUP1 RETURNDATACOPY RETURNDATASIZE PUSH1 0x0 REVERT JUMPDEST POP POP PUSH2 0x6C6 JUMP JUMPDEST POP POP JUMP JUMPDEST PUSH1 0x0 DUP1 PUSH1 0x0 DUP1 PUSH1 0x0 DUP1 PUSH1 0x1 SLOAD SELFBALANCE PUSH1 0x2 SLOAD PUSH1 0x5 SLOAD PUSH1 0x0 DUP1 SLOAD SWAP1 PUSH2 0x100 EXP SWAP1 DIV PUSH20 0xFFFFFFFFFFFFFFFFFFFFFFFFFFFFFFFFFFFFFFFF AND PUSH1 0x8 SLOAD SWAP6 POP SWAP6 POP SWAP6 POP SWAP6 POP SWAP6 POP SWAP6 POP SWAP1 SWAP2 SWAP3 SWAP4 SWAP5 SWAP6 JUMP JUMPDEST PUSH1 0x0 PUSH1 0x9 PUSH1 0x0 DUP4 DUP2 MSTORE PUSH1 0x20 ADD SWAP1 DUP2 MSTORE PUSH1 0x20 ADD PUSH1 0x0 KECCAK256 PUSH1 0x3 ADD PUSH1 0x0 DUP5 PUSH20 0xFFFFFFFFFFFFFFFFFFFFFFFFFFFFFFFFFFFFFFFF AND PUSH20 0xFFFFFFFFFFFFFFFFFFFFFFFFFFFFFFFFFFFFFFFF AND DUP2 MSTORE PUSH1 0x20 ADD SWAP1 DUP2 MSTORE PUSH1 0x20 ADD PUSH1 0x0 KECCAK256 PUSH1 0x0 SWAP1 SLOAD SWAP1 PUSH2 0x100 EXP SWAP1 DIV PUSH1 0xFF AND SWAP1 POP SWAP3 SWAP2 POP POP JUMP JUMPDEST PUSH1 0x8 SLOAD PUSH1 0xB DUP2 SWAP1 SSTORE POP PUSH1 0x0 PUSH1 0x9 PUSH1 0x0 PUSH1 0x8 PUSH1 0x0 DUP2 SLOAD DUP1 SWAP3 SWAP2 SWAP1 PUSH2 0x8EC SWAP1 PUSH2 0x17F2 JUMP JUMPDEST SWAP2 SWAP1 POP SSTORE DUP2 MSTORE PUSH1 0x20 ADD SWAP1 DUP2 MSTORE PUSH1 0x20 ADD PUSH1 0x0 KECCAK256 SWAP1 POP PUSH1 0x40 MLOAD DUP1 PUSH1 0x40 ADD PUSH1 0x40 MSTORE DUP1 PUSH1 0x6 DUP2 MSTORE PUSH1 0x20 ADD PUSH32 0x526566756E640000000000000000000000000000000000000000000000000000 DUP2 MSTORE POP DUP2 PUSH1 0x0 ADD SWAP1 DUP1 MLOAD SWAP1 PUSH1 0x20 ADD SWAP1 PUSH2 0x94D SWAP3 SWAP2 SWAP1 PUSH2 0xF7C JUMP JUMPDEST POP PUSH1 0x0 DUP2 PUSH1 0x1 ADD DUP2 SWAP1 SSTORE POP CALLER DUP2 PUSH1 0x2 ADD PUSH1 0x0 PUSH2 0x100 EXP DUP2 SLOAD DUP2 PUSH20 0xFFFFFFFFFFFFFFFFFFFFFFFFFFFFFFFFFFFFFFFF MUL NOT AND SWAP1 DUP4 PUSH20 0xFFFFFFFFFFFFFFFFFFFFFFFFFFFFFFFFFFFFFFFF AND MUL OR SWAP1 SSTORE POP PUSH1 0x0 DUP2 PUSH1 0x2 ADD PUSH1 0x14 PUSH2 0x100 EXP DUP2 SLOAD DUP2 PUSH1 0xFF MUL NOT AND SWAP1 DUP4 ISZERO ISZERO MUL OR SWAP1 SSTORE POP PUSH1 0x0 DUP2 PUSH1 0x4 ADD DUP2 SWAP1 SSTORE POP POP JUMP JUMPDEST PUSH1 0x9 PUSH1 0x20 MSTORE DUP1 PUSH1 0x0 MSTORE PUSH1 0x40 PUSH1 0x0 KECCAK256 PUSH1 0x0 SWAP2 POP SWAP1 POP DUP1 PUSH1 0x0 ADD DUP1 SLOAD PUSH2 0x9E8 SWAP1 PUSH2 0x186A JUMP JUMPDEST DUP1 PUSH1 0x1F ADD PUSH1 0x20 DUP1 SWAP2 DIV MUL PUSH1 0x20 ADD PUSH1 0x40 MLOAD SWAP1 DUP2 ADD PUSH1 0x40 MSTORE DUP1 SWAP3 SWAP2 SWAP1 DUP2 DUP2 MSTORE PUSH1 0x20 ADD DUP3 DUP1 SLOAD PUSH2 0xA14 SWAP1 PUSH2 0x186A JUMP JUMPDEST DUP1 ISZERO PUSH2 0xA61 JUMPI DUP1 PUSH1 0x1F LT PUSH2 0xA36 JUMPI PUSH2 0x100 DUP1 DUP4 SLOAD DIV MUL DUP4 MSTORE SWAP2 PUSH1 0x20 ADD SWAP2 PUSH2 0xA61 JUMP JUMPDEST DUP3 ADD SWAP2 SWAP1 PUSH1 0x0 MSTORE PUSH1 0x20 PUSH1 0x0 KECCAK256 SWAP1 JUMPDEST DUP2 SLOAD DUP2 MSTORE SWAP1 PUSH1 0x1 ADD SWAP1 PUSH1 0x20 ADD DUP1 DUP4 GT PUSH2 0xA44 JUMPI DUP3 SWAP1 SUB PUSH1 0x1F AND DUP3 ADD SWAP2 JUMPDEST POP POP POP POP POP SWAP1 DUP1 PUSH1 0x1 ADD SLOAD SWAP1 DUP1 PUSH1 0x2 ADD PUSH1 0x0 SWAP1 SLOAD SWAP1 PUSH2 0x100 EXP SWAP1 DIV PUSH20 0xFFFFFFFFFFFFFFFFFFFFFFFFFFFFFFFFFFFFFFFF AND SWAP1 DUP1 PUSH1 0x2 ADD PUSH1 0x14 SWAP1 SLOAD SWAP1 PUSH2 0x100 EXP SWAP1 DIV PUSH1 0xFF AND SWAP1 DUP1 PUSH1 0x4 ADD SLOAD SWAP1 POP DUP6 JUMP JUMPDEST PUSH1 0x2 SLOAD DUP2 JUMP JUMPDEST PUSH1 0x0 DUP1 SLOAD SWAP1 PUSH2 0x100 EXP SWAP1 DIV PUSH20 0xFFFFFFFFFFFFFFFFFFFFFFFFFFFFFFFFFFFFFFFF AND PUSH20 0xFFFFFFFFFFFFFFFFFFFFFFFFFFFFFFFFFFFFFFFF AND CALLER PUSH20 0xFFFFFFFFFFFFFFFFFFFFFFFFFFFFFFFFFFFFFFFF AND EQ PUSH2 0xB44 JUMPI PUSH1 0x40 MLOAD PUSH32 0x8C379A000000000000000000000000000000000000000000000000000000000 DUP2 MSTORE PUSH1 0x4 ADD PUSH2 0xB3B SWAP1 PUSH2 0x1576 JUMP JUMPDEST PUSH1 0x40 MLOAD DUP1 SWAP2 SUB SWAP1 REVERT JUMPDEST PUSH1 0x0 PUSH1 0x9 PUSH1 0x0 PUSH1 0x8 PUSH1 0x0 DUP2 SLOAD DUP1 SWAP3 SWAP2 SWAP1 PUSH2 0xB5D SWAP1 PUSH2 0x17F2 JUMP JUMPDEST SWAP2 SWAP1 POP SSTORE DUP2 MSTORE PUSH1 0x20 ADD SWAP1 DUP2 MSTORE PUSH1 0x20 ADD PUSH1 0x0 KECCAK256 SWAP1 POP DUP4 DUP2 PUSH1 0x0 ADD SWAP1 DUP1 MLOAD SWAP1 PUSH1 0x20 ADD SWAP1 PUSH2 0xB89 SWAP3 SWAP2 SWAP1 PUSH2 0xF7C JUMP JUMPDEST POP DUP3 DUP2 PUSH1 0x1 ADD DUP2 SWAP1 SSTORE POP DUP2 DUP2 PUSH1 0x2 ADD PUSH1 0x0 PUSH2 0x100 EXP DUP2 SLOAD DUP2 PUSH20 0xFFFFFFFFFFFFFFFFFFFFFFFFFFFFFFFFFFFFFFFF MUL NOT AND SWAP1 DUP4 PUSH20 0xFFFFFFFFFFFFFFFFFFFFFFFFFFFFFFFFFFFFFFFF AND MUL OR SWAP1 SSTORE POP PUSH1 0x0 DUP2 PUSH1 0x2 ADD PUSH1 0x14 PUSH2 0x100 EXP DUP2 SLOAD DUP2 PUSH1 0xFF MUL NOT AND SWAP1 DUP4 ISZERO ISZERO MUL OR SWAP1 SSTORE POP PUSH1 0x0 DUP2 PUSH1 0x4 ADD DUP2 SWAP1 SSTORE POP POP POP POP POP JUMP JUMPDEST PUSH1 0x0 DUP1 SLOAD SWAP1 PUSH2 0x100 EXP SWAP1 DIV PUSH20 0xFFFFFFFFFFFFFFFFFFFFFFFFFFFFFFFFFFFFFFFF AND DUP2 JUMP JUMPDEST PUSH1 0x1 SLOAD DUP2 JUMP JUMPDEST PUSH1 0x8 SLOAD DUP2 JUMP JUMPDEST PUSH1 0x5 SLOAD DUP2 JUMP JUMPDEST PUSH1 0xB SLOAD DUP2 JUMP JUMPDEST PUSH1 0x1 SLOAD CALLVALUE LT PUSH2 0xDBB JUMPI CALLVALUE PUSH1 0x6 PUSH1 0x0 CALLER PUSH20 0xFFFFFFFFFFFFFFFFFFFFFFFFFFFFFFFFFFFFFFFF AND PUSH20 0xFFFFFFFFFFFFFFFFFFFFFFFFFFFFFFFFFFFFFFFF AND DUP2 MSTORE PUSH1 0x20 ADD SWAP1 DUP2 MSTORE PUSH1 0x20 ADD PUSH1 0x0 KECCAK256 DUP2 SWAP1 SSTORE POP PUSH1 0x2 PUSH1 0x0 DUP2 SLOAD DUP1 SWAP3 SWAP2 SWAP1 PUSH2 0xC9F SWAP1 PUSH2 0x17F2 JUMP JUMPDEST SWAP2 SWAP1 POP SSTORE POP CALLVALUE PUSH1 0x3 PUSH1 0x0 DUP3 DUP3 SLOAD PUSH2 0xCB6 SWAP2 SWAP1 PUSH2 0x189C JUMP JUMPDEST SWAP3 POP POP DUP2 SWAP1 SSTORE POP PUSH1 0x7 CALLER SWAP1 DUP1 PUSH1 0x1 DUP2 SLOAD ADD DUP1 DUP3 SSTORE DUP1 SWAP2 POP POP PUSH1 0x1 SWAP1 SUB SWAP1 PUSH1 0x0 MSTORE PUSH1 0x20 PUSH1 0x0 KECCAK256 ADD PUSH1 0x0 SWAP1 SWAP2 SWAP1 SWAP2 SWAP1 SWAP2 PUSH2 0x100 EXP DUP2 SLOAD DUP2 PUSH20 0xFFFFFFFFFFFFFFFFFFFFFFFFFFFFFFFFFFFFFFFF MUL NOT AND SWAP1 DUP4 PUSH20 0xFFFFFFFFFFFFFFFFFFFFFFFFFFFFFFFFFFFFFFFF AND MUL OR SWAP1 SSTORE POP PUSH1 0x5 SLOAD SELFBALANCE LT PUSH2 0xDBA JUMPI PUSH1 0xA PUSH1 0x0 SWAP1 SLOAD SWAP1 PUSH2 0x100 EXP SWAP1 DIV PUSH20 0xFFFFFFFFFFFFFFFFFFFFFFFFFFFFFFFFFFFFFFFF AND PUSH20 0xFFFFFFFFFFFFFFFFFFFFFFFFFFFFFFFFFFFFFFFF AND PUSH4 0xD0E30DB0 PUSH2 0x3E8 SELFBALANCE PUSH2 0xD75 SWAP2 SWAP1 PUSH2 0x1660 JUMP JUMPDEST PUSH1 0x40 MLOAD DUP3 PUSH4 0xFFFFFFFF AND PUSH1 0xE0 SHL DUP2 MSTORE PUSH1 0x4 ADD PUSH1 0x0 PUSH1 0x40 MLOAD DUP1 DUP4 SUB DUP2 DUP6 DUP9 DUP1 EXTCODESIZE ISZERO DUP1 ISZERO PUSH2 0xDA0 JUMPI PUSH1 0x0 DUP1 REVERT JUMPDEST POP GAS CALL ISZERO DUP1 ISZERO PUSH2 0xDB4 JUMPI RETURNDATASIZE PUSH1 0x0 DUP1 RETURNDATACOPY RETURNDATASIZE PUSH1 0x0 REVERT JUMPDEST POP POP POP POP POP JUMPDEST JUMPDEST JUMP JUMPDEST PUSH1 0x0 PUSH1 0x9 PUSH1 0x0 DUP4 DUP2 MSTORE PUSH1 0x20 ADD SWAP1 DUP2 MSTORE PUSH1 0x20 ADD PUSH1 0x0 KECCAK256 SWAP1 POP PUSH1 0x0 PUSH1 0x6 PUSH1 0x0 CALLER PUSH20 0xFFFFFFFFFFFFFFFFFFFFFFFFFFFFFFFFFFFFFFFF AND PUSH20 0xFFFFFFFFFFFFFFFFFFFFFFFFFFFFFFFFFFFFFFFF AND DUP2 MSTORE PUSH1 0x20 ADD SWAP1 DUP2 MSTORE PUSH1 0x20 ADD PUSH1 0x0 KECCAK256 SLOAD EQ ISZERO PUSH2 0xE57 JUMPI PUSH1 0x40 MLOAD PUSH32 0x8C379A000000000000000000000000000000000000000000000000000000000 DUP2 MSTORE PUSH1 0x4 ADD PUSH2 0xE4E SWAP1 PUSH2 0x193E JUMP JUMPDEST PUSH1 0x40 MLOAD DUP1 SWAP2 SUB SWAP1 REVERT JUMPDEST DUP1 PUSH1 0x3 ADD PUSH1 0x0 CALLER PUSH20 0xFFFFFFFFFFFFFFFFFFFFFFFFFFFFFFFFFFFFFFFF AND PUSH20 0xFFFFFFFFFFFFFFFFFFFFFFFFFFFFFFFFFFFFFFFF AND DUP2 MSTORE PUSH1 0x20 ADD SWAP1 DUP2 MSTORE PUSH1 0x20 ADD PUSH1 0x0 KECCAK256 PUSH1 0x0 SWAP1 SLOAD SWAP1 PUSH2 0x100 EXP SWAP1 DIV PUSH1 0xFF AND ISZERO PUSH2 0xEE6 JUMPI PUSH1 0x40 MLOAD PUSH32 0x8C379A000000000000000000000000000000000000000000000000000000000 DUP2 MSTORE PUSH1 0x4 ADD PUSH2 0xEDD SWAP1 PUSH2 0x19AA JUMP JUMPDEST PUSH1 0x40 MLOAD DUP1 SWAP2 SUB SWAP1 REVERT JUMPDEST PUSH1 0x1 DUP2 PUSH1 0x3 ADD PUSH1 0x0 CALLER PUSH20 0xFFFFFFFFFFFFFFFFFFFFFFFFFFFFFFFFFFFFFFFF AND PUSH20 0xFFFFFFFFFFFFFFFFFFFFFFFFFFFFFFFFFFFFFFFF AND DUP2 MSTORE PUSH1 0x20 ADD SWAP1 DUP2 MSTORE PUSH1 0x20 ADD PUSH1 0x0 KECCAK256 PUSH1 0x0 PUSH2 0x100 EXP DUP2 SLOAD DUP2 PUSH1 0xFF MUL NOT AND SWAP1 DUP4 ISZERO ISZERO MUL OR SWAP1 SSTORE POP PUSH1 0x9 PUSH1 0x0 DUP4 DUP2 MSTORE PUSH1 0x20 ADD SWAP1 DUP2 MSTORE PUSH1 0x20 ADD PUSH1 0x0 KECCAK256 PUSH1 0x4 ADD PUSH1 0x0 DUP2 SLOAD DUP1 SWAP3 SWAP2 SWAP1 PUSH2 0xF67 SWAP1 PUSH2 0x17F2 JUMP JUMPDEST SWAP2 SWAP1 POP SSTORE POP POP POP JUMP JUMPDEST PUSH1 0x3 SLOAD DUP2 JUMP JUMPDEST PUSH1 0x4 SLOAD DUP2 JUMP JUMPDEST DUP3 DUP1 SLOAD PUSH2 0xF88 SWAP1 PUSH2 0x186A JUMP JUMPDEST SWAP1 PUSH1 0x0 MSTORE PUSH1 0x20 PUSH1 0x0 KECCAK256 SWAP1 PUSH1 0x1F ADD PUSH1 0x20 SWAP1 DIV DUP2 ADD SWAP3 DUP3 PUSH2 0xFAA JUMPI PUSH1 0x0 DUP6 SSTORE PUSH2 0xFF1 JUMP JUMPDEST DUP3 PUSH1 0x1F LT PUSH2 0xFC3 JUMPI DUP1 MLOAD PUSH1 0xFF NOT AND DUP4 DUP1 ADD OR DUP6 SSTORE PUSH2 0xFF1 JUMP JUMPDEST DUP3 DUP1 ADD PUSH1 0x1 ADD DUP6 SSTORE DUP3 ISZERO PUSH2 0xFF1 JUMPI SWAP2 DUP3 ADD JUMPDEST DUP3 DUP2 GT ISZERO PUSH2 0xFF0 JUMPI DUP3 MLOAD DUP3 SSTORE SWAP2 PUSH1 0x20 ADD SWAP2 SWAP1 PUSH1 0x1 ADD SWAP1 PUSH2 0xFD5 JUMP JUMPDEST JUMPDEST POP SWAP1 POP PUSH2 0xFFE SWAP2 SWAP1 PUSH2 0x1002 JUMP JUMPDEST POP SWAP1 JUMP JUMPDEST JUMPDEST DUP1 DUP3 GT ISZERO PUSH2 0x101B JUMPI PUSH1 0x0 DUP2 PUSH1 0x0 SWAP1 SSTORE POP PUSH1 0x1 ADD PUSH2 0x1003 JUMP JUMPDEST POP SWAP1 JUMP JUMPDEST PUSH1 0x0 PUSH1 0x40 MLOAD SWAP1 POP SWAP1 JUMP JUMPDEST PUSH1 0x0 DUP1 REVERT JUMPDEST PUSH1 0x0 DUP1 REVERT JUMPDEST PUSH1 0x0 DUP2 SWAP1 POP SWAP2 SWAP1 POP JUMP JUMPDEST PUSH2 0x1046 DUP2 PUSH2 0x1033 JUMP JUMPDEST DUP2 EQ PUSH2 0x1051 JUMPI PUSH1 0x0 DUP1 REVERT JUMPDEST POP JUMP JUMPDEST PUSH1 0x0 DUP2 CALLDATALOAD SWAP1 POP PUSH2 0x1063 DUP2 PUSH2 0x103D JUMP JUMPDEST SWAP3 SWAP2 POP POP JUMP JUMPDEST PUSH1 0x0 PUSH1 0x20 DUP3 DUP5 SUB SLT ISZERO PUSH2 0x107F JUMPI PUSH2 0x107E PUSH2 0x1029 JUMP JUMPDEST JUMPDEST PUSH1 0x0 PUSH2 0x108D DUP5 DUP3 DUP6 ADD PUSH2 0x1054 JUMP JUMPDEST SWAP2 POP POP SWAP3 SWAP2 POP POP JUMP JUMPDEST PUSH1 0x0 PUSH20 0xFFFFFFFFFFFFFFFFFFFFFFFFFFFFFFFFFFFFFFFF DUP3 AND SWAP1 POP SWAP2 SWAP1 POP JUMP JUMPDEST PUSH1 0x0 PUSH2 0x10C1 DUP3 PUSH2 0x1096 JUMP JUMPDEST SWAP1 POP SWAP2 SWAP1 POP JUMP JUMPDEST PUSH2 0x10D1 DUP2 PUSH2 0x10B6 JUMP JUMPDEST DUP2 EQ PUSH2 0x10DC JUMPI PUSH1 0x0 DUP1 REVERT JUMPDEST POP JUMP JUMPDEST PUSH1 0x0 DUP2 CALLDATALOAD SWAP1 POP PUSH2 0x10EE DUP2 PUSH2 0x10C8 JUMP JUMPDEST SWAP3 SWAP2 POP POP JUMP JUMPDEST PUSH1 0x0 PUSH1 0x20 DUP3 DUP5 SUB SLT ISZERO PUSH2 0x110A JUMPI PUSH2 0x1109 PUSH2 0x1029 JUMP JUMPDEST JUMPDEST PUSH1 0x0 PUSH2 0x1118 DUP5 DUP3 DUP6 ADD PUSH2 0x10DF JUMP JUMPDEST SWAP2 POP POP SWAP3 SWAP2 POP POP JUMP JUMPDEST PUSH2 0x112A DUP2 PUSH2 0x1033 JUMP JUMPDEST DUP3 MSTORE POP POP JUMP JUMPDEST PUSH1 0x0 PUSH1 0x20 DUP3 ADD SWAP1 POP PUSH2 0x1145 PUSH1 0x0 DUP4 ADD DUP5 PUSH2 0x1121 JUMP JUMPDEST SWAP3 SWAP2 POP POP JUMP JUMPDEST PUSH2 0x1154 DUP2 PUSH2 0x10B6 JUMP JUMPDEST DUP3 MSTORE POP POP JUMP JUMPDEST PUSH1 0x0 PUSH1 0xC0 DUP3 ADD SWAP1 POP PUSH2 0x116F PUSH1 0x0 DUP4 ADD DUP10 PUSH2 0x1121 JUMP JUMPDEST PUSH2 0x117C PUSH1 0x20 DUP4 ADD DUP9 PUSH2 0x1121 JUMP JUMPDEST PUSH2 0x1189 PUSH1 0x40 DUP4 ADD DUP8 PUSH2 0x1121 JUMP JUMPDEST PUSH2 0x1196 PUSH1 0x60 DUP4 ADD DUP7 PUSH2 0x1121 JUMP JUMPDEST PUSH2 0x11A3 PUSH1 0x80 DUP4 ADD DUP6 PUSH2 0x114B JUMP JUMPDEST PUSH2 0x11B0 PUSH1 0xA0 DUP4 ADD DUP5 PUSH2 0x1121 JUMP JUMPDEST SWAP8 SWAP7 POP POP POP POP POP POP POP JUMP JUMPDEST PUSH1 0x0 DUP1 PUSH1 0x40 DUP4 DUP6 SUB SLT ISZERO PUSH2 0x11D2 JUMPI PUSH2 0x11D1 PUSH2 0x1029 JUMP JUMPDEST JUMPDEST PUSH1 0x0 PUSH2 0x11E0 DUP6 DUP3 DUP7 ADD PUSH2 0x10DF JUMP JUMPDEST SWAP3 POP POP PUSH1 0x20 PUSH2 0x11F1 DUP6 DUP3 DUP7 ADD PUSH2 0x1054 JUMP JUMPDEST SWAP2 POP POP SWAP3 POP SWAP3 SWAP1 POP JUMP JUMPDEST PUSH1 0x0 DUP2 ISZERO ISZERO SWAP1 POP SWAP2 SWAP1 POP JUMP JUMPDEST PUSH2 0x1210 DUP2 PUSH2 0x11FB JUMP JUMPDEST DUP3 MSTORE POP POP JUMP JUMPDEST PUSH1 0x0 PUSH1 0x20 DUP3 ADD SWAP1 POP PUSH2 0x122B PUSH1 0x0 DUP4 ADD DUP5 PUSH2 0x1207 JUMP JUMPDEST SWAP3 SWAP2 POP POP JUMP JUMPDEST PUSH1 0x0 DUP2 MLOAD SWAP1 POP SWAP2 SWAP1 POP JUMP JUMPDEST PUSH1 0x0 DUP3 DUP3 MSTORE PUSH1 0x20 DUP3 ADD SWAP1 POP SWAP3 SWAP2 POP POP JUMP JUMPDEST PUSH1 0x0 JUMPDEST DUP4 DUP2 LT ISZERO PUSH2 0x126B JUMPI DUP1 DUP3 ADD MLOAD DUP2 DUP5 ADD MSTORE PUSH1 0x20 DUP2 ADD SWAP1 POP PUSH2 0x1250 JUMP JUMPDEST DUP4 DUP2 GT ISZERO PUSH2 0x127A JUMPI PUSH1 0x0 DUP5 DUP5 ADD MSTORE JUMPDEST POP POP POP POP JUMP JUMPDEST PUSH1 0x0 PUSH1 0x1F NOT PUSH1 0x1F DUP4 ADD AND SWAP1 POP SWAP2 SWAP1 POP JUMP JUMPDEST PUSH1 0x0 PUSH2 0x129C DUP3 PUSH2 0x1231 JUMP JUMPDEST PUSH2 0x12A6 DUP2 DUP6 PUSH2 0x123C JUMP JUMPDEST SWAP4 POP PUSH2 0x12B6 DUP2 DUP6 PUSH1 0x20 DUP7 ADD PUSH2 0x124D JUMP JUMPDEST PUSH2 0x12BF DUP2 PUSH2 0x1280 JUMP JUMPDEST DUP5 ADD SWAP2 POP POP SWAP3 SWAP2 POP POP JUMP JUMPDEST PUSH1 0x0 PUSH2 0x12D5 DUP3 PUSH2 0x1096 JUMP JUMPDEST SWAP1 POP SWAP2 SWAP1 POP JUMP JUMPDEST PUSH2 0x12E5 DUP2 PUSH2 0x12CA JUMP JUMPDEST DUP3 MSTORE POP POP JUMP JUMPDEST PUSH1 0x0 PUSH1 0xA0 DUP3 ADD SWAP1 POP DUP2 DUP2 SUB PUSH1 0x0 DUP4 ADD MSTORE PUSH2 0x1305 DUP2 DUP9 PUSH2 0x1291 JUMP JUMPDEST SWAP1 POP PUSH2 0x1314 PUSH1 0x20 DUP4 ADD DUP8 PUSH2 0x1121 JUMP JUMPDEST PUSH2 0x1321 PUSH1 0x40 DUP4 ADD DUP7 PUSH2 0x12DC JUMP JUMPDEST PUSH2 0x132E PUSH1 0x60 DUP4 ADD DUP6 PUSH2 0x1207 JUMP JUMPDEST PUSH2 0x133B PUSH1 0x80 DUP4 ADD DUP5 PUSH2 0x1121 JUMP JUMPDEST SWAP7 SWAP6 POP POP POP POP POP POP JUMP JUMPDEST PUSH1 0x0 DUP1 REVERT JUMPDEST PUSH1 0x0 DUP1 REVERT JUMPDEST PUSH32 0x4E487B7100000000000000000000000000000000000000000000000000000000 PUSH1 0x0 MSTORE PUSH1 0x41 PUSH1 0x4 MSTORE PUSH1 0x24 PUSH1 0x0 REVERT JUMPDEST PUSH2 0x1387 DUP3 PUSH2 0x1280 JUMP JUMPDEST DUP2 ADD DUP2 DUP2 LT PUSH8 0xFFFFFFFFFFFFFFFF DUP3 GT OR ISZERO PUSH2 0x13A6 JUMPI PUSH2 0x13A5 PUSH2 0x134F JUMP JUMPDEST JUMPDEST DUP1 PUSH1 0x40 MSTORE POP POP POP JUMP JUMPDEST PUSH1 0x0 PUSH2 0x13B9 PUSH2 0x101F JUMP JUMPDEST SWAP1 POP PUSH2 0x13C5 DUP3 DUP3 PUSH2 0x137E JUMP JUMPDEST SWAP2 SWAP1 POP JUMP JUMPDEST PUSH1 0x0 PUSH8 0xFFFFFFFFFFFFFFFF DUP3 GT ISZERO PUSH2 0x13E5 JUMPI PUSH2 0x13E4 PUSH2 0x134F JUMP JUMPDEST JUMPDEST PUSH2 0x13EE DUP3 PUSH2 0x1280 JUMP JUMPDEST SWAP1 POP PUSH1 0x20 DUP2 ADD SWAP1 POP SWAP2 SWAP1 POP JUMP JUMPDEST DUP3 DUP2 DUP4 CALLDATACOPY PUSH1 0x0 DUP4 DUP4 ADD MSTORE POP POP POP JUMP JUMPDEST PUSH1 0x0 PUSH2 0x141D PUSH2 0x1418 DUP5 PUSH2 0x13CA JUMP JUMPDEST PUSH2 0x13AF JUMP JUMPDEST SWAP1 POP DUP3 DUP2 MSTORE PUSH1 0x20 DUP2 ADD DUP5 DUP5 DUP5 ADD GT ISZERO PUSH2 0x1439 JUMPI PUSH2 0x1438 PUSH2 0x134A JUMP JUMPDEST JUMPDEST PUSH2 0x1444 DUP5 DUP3 DUP6 PUSH2 0x13FB JUMP JUMPDEST POP SWAP4 SWAP3 POP POP POP JUMP JUMPDEST PUSH1 0x0 DUP3 PUSH1 0x1F DUP4 ADD SLT PUSH2 0x1461 JUMPI PUSH2 0x1460 PUSH2 0x1345 JUMP JUMPDEST JUMPDEST DUP2 CALLDATALOAD PUSH2 0x1471 DUP5 DUP3 PUSH1 0x20 DUP7 ADD PUSH2 0x140A JUMP JUMPDEST SWAP2 POP POP SWAP3 SWAP2 POP POP JUMP JUMPDEST PUSH1 0x0 DUP1 PUSH1 0x0 PUSH1 0x60 DUP5 DUP7 SUB SLT ISZERO PUSH2 0x1493 JUMPI PUSH2 0x1492 PUSH2 0x1029 JUMP JUMPDEST JUMPDEST PUSH1 0x0 DUP5 ADD CALLDATALOAD PUSH8 0xFFFFFFFFFFFFFFFF DUP2 GT ISZERO PUSH2 0x14B1 JUMPI PUSH2 0x14B0 PUSH2 0x102E JUMP JUMPDEST JUMPDEST PUSH2 0x14BD DUP7 DUP3 DUP8 ADD PUSH2 0x144C JUMP JUMPDEST SWAP4 POP POP PUSH1 0x20 PUSH2 0x14CE DUP7 DUP3 DUP8 ADD PUSH2 0x1054 JUMP JUMPDEST SWAP3 POP POP PUSH1 0x40 PUSH2 0x14DF DUP7 DUP3 DUP8 ADD PUSH2 0x10DF JUMP JUMPDEST SWAP2 POP POP SWAP3 POP SWAP3 POP SWAP3 JUMP JUMPDEST PUSH1 0x0 PUSH1 0x20 DUP3 ADD SWAP1 POP PUSH2 0x14FE PUSH1 0x0 DUP4 ADD DUP5 PUSH2 0x114B JUMP JUMPDEST SWAP3 SWAP2 POP POP JUMP JUMPDEST PUSH32 0x4F6E6C7920636F6E7472616374206F776E65722063616E2063616C6C20746869 PUSH1 0x0 DUP3 ADD MSTORE PUSH32 0x732066756E6374696F6E00000000000000000000000000000000000000000000 PUSH1 0x20 DUP3 ADD MSTORE POP JUMP JUMPDEST PUSH1 0x0 PUSH2 0x1560 PUSH1 0x2A DUP4 PUSH2 0x123C JUMP JUMPDEST SWAP2 POP PUSH2 0x156B DUP3 PUSH2 0x1504 JUMP JUMPDEST PUSH1 0x40 DUP3 ADD SWAP1 POP SWAP2 SWAP1 POP JUMP JUMPDEST PUSH1 0x0 PUSH1 0x20 DUP3 ADD SWAP1 POP DUP2 DUP2 SUB PUSH1 0x0 DUP4 ADD MSTORE PUSH2 0x158F DUP2 PUSH2 0x1553 JUMP JUMPDEST SWAP1 POP SWAP2 SWAP1 POP JUMP JUMPDEST PUSH32 0x5265717565737420697320616C726561647920636F6D706C6574656400000000 PUSH1 0x0 DUP3 ADD MSTORE POP JUMP JUMPDEST PUSH1 0x0 PUSH2 0x15CC PUSH1 0x1C DUP4 PUSH2 0x123C JUMP JUMPDEST SWAP2 POP PUSH2 0x15D7 DUP3 PUSH2 0x1596 JUMP JUMPDEST PUSH1 0x20 DUP3 ADD SWAP1 POP SWAP2 SWAP1 POP JUMP JUMPDEST PUSH1 0x0 PUSH1 0x20 DUP3 ADD SWAP1 POP DUP2 DUP2 SUB PUSH1 0x0 DUP4 ADD MSTORE PUSH2 0x15FB DUP2 PUSH2 0x15BF JUMP JUMPDEST SWAP1 POP SWAP2 SWAP1 POP JUMP JUMPDEST PUSH32 0x4E487B7100000000000000000000000000000000000000000000000000000000 PUSH1 0x0 MSTORE PUSH1 0x12 PUSH1 0x4 MSTORE PUSH1 0x24 PUSH1 0x0 REVERT JUMPDEST PUSH32 0x4E487B7100000000000000000000000000000000000000000000000000000000 PUSH1 0x0 MSTORE PUSH1 0x11 PUSH1 0x4 MSTORE PUSH1 0x24 PUSH1 0x0 REVERT JUMPDEST PUSH1 0x0 PUSH2 0x166B DUP3 PUSH2 0x1033 JUMP JUMPDEST SWAP2 POP PUSH2 0x1676 DUP4 PUSH2 0x1033 JUMP JUMPDEST SWAP3 POP DUP3 PUSH2 0x1686 JUMPI PUSH2 0x1685 PUSH2 0x1602 JUMP JUMPDEST JUMPDEST DUP3 DUP3 DIV SWAP1 POP SWAP3 SWAP2 POP POP JUMP JUMPDEST PUSH32 0x4E6F7420656E6F75676820617070726F76616C73000000000000000000000000 PUSH1 0x0 DUP3 ADD MSTORE POP JUMP JUMPDEST PUSH1 0x0 PUSH2 0x16C7 PUSH1 0x14 DUP4 PUSH2 0x123C JUMP JUMPDEST SWAP2 POP PUSH2 0x16D2 DUP3 PUSH2 0x1691 JUMP JUMPDEST PUSH1 0x20 DUP3 ADD SWAP1 POP SWAP2 SWAP1 POP JUMP JUMPDEST PUSH1 0x0 PUSH1 0x20 DUP3 ADD SWAP1 POP DUP2 DUP2 SUB PUSH1 0x0 DUP4 ADD MSTORE PUSH2 0x16F6 DUP2 PUSH2 0x16BA JUMP JUMPDEST SWAP1 POP SWAP2 SWAP1 POP JUMP JUMPDEST PUSH32 0x526566756E6420697320616C726561647920636F6D706C657465640000000000 PUSH1 0x0 DUP3 ADD MSTORE POP JUMP JUMPDEST PUSH1 0x0 PUSH2 0x1733 PUSH1 0x1B DUP4 PUSH2 0x123C JUMP JUMPDEST SWAP2 POP PUSH2 0x173E DUP3 PUSH2 0x16FD JUMP JUMPDEST PUSH1 0x20 DUP3 ADD SWAP1 POP SWAP2 SWAP1 POP JUMP JUMPDEST PUSH1 0x0 PUSH1 0x20 DUP3 ADD SWAP1 POP DUP2 DUP2 SUB PUSH1 0x0 DUP4 ADD MSTORE PUSH2 0x1762 DUP2 PUSH2 0x1726 JUMP JUMPDEST SWAP1 POP SWAP2 SWAP1 POP JUMP JUMPDEST PUSH1 0x0 PUSH2 0x1774 DUP3 PUSH2 0x1033 JUMP JUMPDEST SWAP2 POP PUSH2 0x177F DUP4 PUSH2 0x1033 JUMP JUMPDEST SWAP3 POP DUP2 PUSH32 0xFFFFFFFFFFFFFFFFFFFFFFFFFFFFFFFFFFFFFFFFFFFFFFFFFFFFFFFFFFFFFFFF DIV DUP4 GT DUP3 ISZERO ISZERO AND ISZERO PUSH2 0x17B8 JUMPI PUSH2 0x17B7 PUSH2 0x1631 JUMP JUMPDEST JUMPDEST DUP3 DUP3 MUL SWAP1 POP SWAP3 SWAP2 POP POP JUMP JUMPDEST PUSH32 0x4E487B7100000000000000000000000000000000000000000000000000000000 PUSH1 0x0 MSTORE PUSH1 0x32 PUSH1 0x4 MSTORE PUSH1 0x24 PUSH1 0x0 REVERT JUMPDEST PUSH1 0x0 PUSH2 0x17FD DUP3 PUSH2 0x1033 JUMP JUMPDEST SWAP2 POP PUSH32 0xFFFFFFFFFFFFFFFFFFFFFFFFFFFFFFFFFFFFFFFFFFFFFFFFFFFFFFFFFFFFFFFF DUP3 EQ ISZERO PUSH2 0x1830 JUMPI PUSH2 0x182F PUSH2 0x1631 JUMP JUMPDEST JUMPDEST PUSH1 0x1 DUP3 ADD SWAP1 POP SWAP2 SWAP1 POP JUMP JUMPDEST PUSH32 0x4E487B7100000000000000000000000000000000000000000000000000000000 PUSH1 0x0 MSTORE PUSH1 0x22 PUSH1 0x4 MSTORE PUSH1 0x24 PUSH1 0x0 REVERT JUMPDEST PUSH1 0x0 PUSH1 0x2 DUP3 DIV SWAP1 POP PUSH1 0x1 DUP3 AND DUP1 PUSH2 0x1882 JUMPI PUSH1 0x7F DUP3 AND SWAP2 POP JUMPDEST PUSH1 0x20 DUP3 LT DUP2 EQ ISZERO PUSH2 0x1896 JUMPI PUSH2 0x1895 PUSH2 0x183B JUMP JUMPDEST JUMPDEST POP SWAP2 SWAP1 POP JUMP JUMPDEST PUSH1 0x0 PUSH2 0x18A7 DUP3 PUSH2 0x1033 JUMP JUMPDEST SWAP2 POP PUSH2 0x18B2 DUP4 PUSH2 0x1033 JUMP JUMPDEST SWAP3 POP DUP3 PUSH32 0xFFFFFFFFFFFFFFFFFFFFFFFFFFFFFFFFFFFFFFFFFFFFFFFFFFFFFFFFFFFFFFFF SUB DUP3 GT ISZERO PUSH2 0x18E7 JUMPI PUSH2 0x18E6 PUSH2 0x1631 JUMP JUMPDEST JUMPDEST DUP3 DUP3 ADD SWAP1 POP SWAP3 SWAP2 POP POP JUMP JUMPDEST PUSH32 0x4973206E6F7420617070726F7665720000000000000000000000000000000000 PUSH1 0x0 DUP3 ADD MSTORE POP JUMP JUMPDEST PUSH1 0x0 PUSH2 0x1928 PUSH1 0xF DUP4 PUSH2 0x123C JUMP JUMPDEST SWAP2 POP PUSH2 0x1933 DUP3 PUSH2 0x18F2 JUMP JUMPDEST PUSH1 0x20 DUP3 ADD SWAP1 POP SWAP2 SWAP1 POP JUMP JUMPDEST PUSH1 0x0 PUSH1 0x20 DUP3 ADD SWAP1 POP DUP2 DUP2 SUB PUSH1 0x0 DUP4 ADD MSTORE PUSH2 0x1957 DUP2 PUSH2 0x191B JUMP JUMPDEST SWAP1 POP SWAP2 SWAP1 POP JUMP JUMPDEST PUSH32 0x43616E277420766F746520747769636500000000000000000000000000000000 PUSH1 0x0 DUP3 ADD MSTORE POP JUMP JUMPDEST PUSH1 0x0 PUSH2 0x1994 PUSH1 0x10 DUP4 PUSH2 0x123C JUMP JUMPDEST SWAP2 POP PUSH2 0x199F DUP3 PUSH2 0x195E JUMP JUMPDEST PUSH1 0x20 DUP3 ADD SWAP1 POP SWAP2 SWAP1 POP JUMP JUMPDEST PUSH1 0x0 PUSH1 0x20 DUP3 ADD SWAP1 POP DUP2 DUP2 SUB PUSH1 0x0 DUP4 ADD MSTORE PUSH2 0x19C3 DUP2 PUSH2 0x1987 JUMP JUMPDEST SWAP1 POP SWAP2 SWAP1 POP JUMP INVALID LOG2 PUSH5 0x6970667358 0x22 SLT KECCAK256 DUP2 0xB2 0xF POP PUSH30 0x42F08E57930E72D1C31862374CD2F49244A7B6C30F6D2D49E300CC64736F PUSH13 0x634300080B0033000000000000 "},"gasEstimates":{"creation":{"codeDepositCost":"1331200","executionCost":"infinite","totalCost":"infinite"},"external":{"approveRequest(uint256)":"infinite","approvers(address)":"2860","approversCount()":"2518","contribute()":"infinite","createRequest(string,uint256,address)":"infinite","finalizeRefund()":"infinite","finalizeRequest(uint256)":"infinite","funded()":"2517","getApprovalRequest(address,uint256)":"3163","getSummary()":"infinite","hardcap()":"2518","minimumContribution()":"2474","numRequests()":"2496","owner()":"2534","refundRequest()":"2451","requests(uint256)":"infinite","requstRefund()":"infinite","softcap()":"2539"}},"methodIdentifiers":{"approveRequest(uint256)":"d7d1bbdb","approvers(address)":"0a144391","approversCount()":"82fde093","contribute()":"d7bb99ba","createRequest(string,uint256,address)":"8a9cfd55","finalizeRefund()":"387b8b12","finalizeRequest(uint256)":"03441006","funded()":"f3a504f2","getApprovalRequest(address,uint256)":"56728fb1","getSummary()":"4051ddac","hardcap()":"b071cbe6","minimumContribution()":"937e09b1","numRequests()":"9fb42b1f","owner()":"8da5cb5b","refundRequest()":"cd034234","requests(uint256)":"81d12c58","requstRefund()":"7075b4ab","softcap()":"f89be593"}},"storageLayout":{"storage":[{"astId":859,"contract":"Campaign.sol:Campaign","label":"owner","offset":0,"slot":"0","type":"t_address"},{"astId":861,"contract":"Campaign.sol:Campaign","label":"minimumContribution","offset":0,"slot":"1","type":"t_uint256"},{"astId":863,"contract":"Campaign.sol:Campaign","label":"approversCount","offset":0,"slot":"2","type":"t_uint256"},{"astId":865,"contract":"Campaign.sol:Campaign","label":"funded","offset":0,"slot":"3","type":"t_uint256"},{"astId":867,"contract":"Campaign.sol:Campaign","label":"softcap","offset":0,"slot":"4","type":"t_uint256"},{"astId":869,"contract":"Campaign.sol:Campaign","label":"hardcap","offset":0,"slot":"5","type":"t_uint256"},{"astId":873,"contract":"Campaign.sol:Campaign","label":"approvers","offset":0,"slot":"6","type":"t_mapping(t_address,t_uint256)"},{"astId":876,"contract":"Campaign.sol:Campaign","label":"keys","offset":0,"slot":"7","type":"t_array(t_address_payable)dyn_storage"},{"astId":878,"contract":"Campaign.sol:Campaign","label":"numRequests","offset":0,"slot":"8","type":"t_uint256"},{"astId":883,"contract":"Campaign.sol:Campaign","label":"requests","offset":0,"slot":"9","type":"t_mapping(t_uint256,t_struct(Request)857_storage)"},{"astId":886,"contract":"Campaign.sol:Campaign","label":"token","offset":0,"slot":"10","type":"t_contract(Token)842"},{"astId":888,"contract":"Campaign.sol:Campaign","label":"refundRequest","offset":0,"slot":"11","type":"t_uint256"}],"types":{"t_address":{"encoding":"inplace","label":"address","numberOfBytes":"20"},"t_address_payable":{"encoding":"inplace","label":"address payable","numberOfBytes":"20"},"t_array(t_address_payable)dyn_storage":{"base":"t_address_payable","encoding":"dynamic_array","label":"address payable[]","numberOfBytes":"32"},"t_bool":{"encoding":"inplace","label":"bool","numberOfBytes":"1"},"t_contract(Token)842":{"encoding":"inplace","label":"contract Token","numberOfBytes":"20"},"t_mapping(t_address,t_bool)":{"encoding":"mapping","key":"t_address","label":"mapping(address => bool)","numberOfBytes":"32","value":"t_bool"},"t_mapping(t_address,t_uint256)":{"encoding":"mapping","key":"t_address","label":"mapping(address => uint256)","numberOfBytes":"32","value":"t_uint256"},"t_mapping(t_uint256,t_struct(Request)857_storage)":{"encoding":"mapping","key":"t_uint256","label":"mapping(uint256 => struct Campaign.Request)","numberOfBytes":"32","value":"t_struct(Request)857_storage"},"t_string_storage":{"encoding":"bytes","label":"string","numberOfBytes":"32"},"t_struct(Request)857_storage":{"encoding":"inplace","label":"struct Campaign.Request","members":[{"astId":844,"contract":"Campaign.sol:Campaign","label":"description","offset":0,"slot":"0","type":"t_string_storage"},{"astId":846,"contract":"Campaign.sol:Campaign","label":"value","offset":0,"slot":"1","type":"t_uint256"},{"astId":848,"contract":"Campaign.sol:Campaign","label":"recipient","offset":0,"slot":"2","type":"t_address_payable"},{"astId":850,"contract":"Campaign.sol:Campaign","label":"complete","offset":20,"slot":"2","type":"t_bool"},{"astId":854,"contract":"Campaign.sol:Campaign","label":"approvals","offset":0,"slot":"3","type":"t_mapping(t_address,t_bool)"},{"astId":856,"contract":"Campaign.sol:Campaign","label":"approvalCount","offset":0,"slot":"4","type":"t_uint256"}],"numberOfBytes":"160"},"t_uint256":{"encoding":"inplace","label":"uint256","numberOfBytes":"32"}}},"userdoc":{"kind":"user","methods":{},"version":1}}