{"abi":[{"inputs":[{"internalType":"address","name":"_owner","type":"address"}],"stateMutability":"nonpayable","type":"constructor"},{"anonymous":false,"inputs":[{"indexed":false,"internalType":"address","name":"from","type":"address"},{"indexed":false,"internalType":"address","name":"to","type":"address"},{"indexed":false,"internalType":"uint256","name":"amount","type":"uint256"}],"name":"Sent","type":"event"},{"inputs":[],"name":"balance","outputs":[{"internalType":"uint256","name":"","type":"uint256"}],"stateMutability":"view","type":"function"},{"inputs":[{"internalType":"string","name":"title","type":"string"},{"internalType":"string","name":"description","type":"string"}],"name":"createProposal","outputs":[],"stateMutability":"nonpayable","type":"function"},{"inputs":[],"name":"deposit","outputs":[],"stateMutability":"payable","type":"function"},{"inputs":[],"name":"getAmountOfPools","outputs":[{"internalType":"uint256","name":"","type":"uint256"}],"stateMutability":"view","type":"function"},{"inputs":[{"internalType":"uint256","name":"pool","type":"uint256"}],"name":"getReward","outputs":[{"internalType":"uint256","name":"","type":"uint256"}],"stateMutability":"view","type":"function"},{"inputs":[{"internalType":"address","name":"","type":"address"}],"name":"holders","outputs":[{"internalType":"uint256","name":"","type":"uint256"}],"stateMutability":"view","type":"function"},{"inputs":[],"name":"name","outputs":[{"internalType":"string","name":"","type":"string"}],"stateMutability":"view","type":"function"},{"inputs":[],"name":"numProposals","outputs":[{"internalType":"uint256","name":"","type":"uint256"}],"stateMutability":"view","type":"function"},{"inputs":[{"internalType":"address","name":"","type":"address"}],"name":"overallStaked","outputs":[{"internalType":"uint256","name":"","type":"uint256"}],"stateMutability":"view","type":"function"},{"inputs":[],"name":"owner","outputs":[{"internalType":"address","name":"","type":"address"}],"stateMutability":"view","type":"function"},{"inputs":[{"internalType":"uint256","name":"","type":"uint256"}],"name":"proposals","outputs":[{"internalType":"uint256","name":"number","type":"uint256"},{"internalType":"string","name":"title","type":"string"},{"internalType":"string","name":"description","type":"string"},{"internalType":"address","name":"delegate","type":"address"},{"internalType":"uint256","name":"yayCount","type":"uint256"},{"internalType":"uint256","name":"nayCount","type":"uint256"},{"internalType":"uint256","name":"required","type":"uint256"},{"internalType":"bool","name":"complete","type":"bool"},{"internalType":"bool","name":"yayBoolean","type":"bool"}],"stateMutability":"view","type":"function"},{"inputs":[{"internalType":"address","name":"","type":"address"}],"name":"registered","outputs":[{"internalType":"bool","name":"","type":"bool"}],"stateMutability":"view","type":"function"},{"inputs":[{"internalType":"address","name":"","type":"address"},{"internalType":"uint256","name":"","type":"uint256"}],"name":"rewards","outputs":[{"internalType":"uint256","name":"","type":"uint256"}],"stateMutability":"view","type":"function"},{"inputs":[{"internalType":"address","name":"receiver","type":"address"},{"internalType":"uint256","name":"amount","type":"uint256"}],"name":"send","outputs":[],"stateMutability":"nonpayable","type":"function"},{"inputs":[{"internalType":"uint256","name":"amount","type":"uint256"}],"name":"stake","outputs":[],"stateMutability":"nonpayable","type":"function"},{"inputs":[{"internalType":"address","name":"","type":"address"},{"internalType":"uint256","name":"","type":"uint256"}],"name":"staked","outputs":[{"internalType":"uint256","name":"","type":"uint256"}],"stateMutability":"view","type":"function"},{"inputs":[],"name":"stakedSupply","outputs":[{"internalType":"uint256","name":"","type":"uint256"}],"stateMutability":"view","type":"function"},{"inputs":[{"internalType":"address","name":"","type":"address"},{"internalType":"uint256","name":"","type":"uint256"}],"name":"stakedTime","outputs":[{"internalType":"uint256","name":"","type":"uint256"}],"stateMutability":"view","type":"function"},{"inputs":[{"internalType":"uint256","name":"","type":"uint256"}],"name":"stakers","outputs":[{"internalType":"address","name":"","type":"address"}],"stateMutability":"view","type":"function"},{"inputs":[],"name":"supply","outputs":[{"internalType":"uint256","name":"","type":"uint256"}],"stateMutability":"view","type":"function"},{"inputs":[{"internalType":"uint256","name":"index","type":"uint256"}],"name":"voteNay","outputs":[],"stateMutability":"nonpayable","type":"function"},{"inputs":[{"internalType":"uint256","name":"index","type":"uint256"}],"name":"voteYay","outputs":[],"stateMutability":"nonpayable","type":"function"},{"inputs":[{"internalType":"uint256","name":"pool","type":"uint256"}],"name":"withdrawStake","outputs":[],"stateMutability":"payable","type":"function"}],"devdoc":{"kind":"dev","methods":{},"version":1},"evm":{"assembly":"    /* \"Campaign.sol\":733:6216  contract Token {... */\n  mstore(0x40, 0x80)\n    /* \"Campaign.sol\":850:883  string public name = \"CrowdShare\" */\n  mload(0x40)\n  dup1\n  0x40\n  add\n  0x40\n  mstore\n  dup1\n  0x0a\n  dup2\n  mstore\n  0x20\n  add\n  0x43726f7764536861726500000000000000000000000000000000000000000000\n  dup2\n  mstore\n  pop\n  0x03\n  swap1\n  dup1\n  mload\n  swap1\n  0x20\n  add\n  swap1\n  tag_1\n  swap3\n  swap2\n  swap1\n  tag_2\n  jump\t// in\ntag_1:\n  pop\n    /* \"Campaign.sol\":1771:1892  constructor(address _owner) {... */\n  callvalue\n  dup1\n  iszero\n  tag_3\n  jumpi\n  0x00\n  dup1\n  revert\ntag_3:\n  pop\n  mload(0x40)\n  sub(codesize, bytecodeSize)\n  dup1\n  bytecodeSize\n  dup4\n  codecopy\n  dup2\n  dup2\n  add\n  0x40\n  mstore\n  dup2\n  add\n  swap1\n  tag_4\n  swap2\n  swap1\n  tag_5\n  jump\t// in\ntag_4:\n    /* \"Campaign.sol\":1818:1824  _owner */\n  dup1\n    /* \"Campaign.sol\":1810:1815  owner */\n  0x00\n  dup1\n    /* \"Campaign.sol\":1810:1824  owner = _owner */\n  0x0100\n  exp\n  dup2\n  sload\n  dup2\n  0xffffffffffffffffffffffffffffffffffffffff\n  mul\n  not\n  and\n  swap1\n  dup4\n  0xffffffffffffffffffffffffffffffffffffffff\n  and\n  mul\n  or\n  swap1\n  sstore\n  pop\n    /* \"Campaign.sol\":1844:1850  100000 */\n  0x0186a0\n    /* \"Campaign.sol\":1835:1841  supply */\n  0x01\n    /* \"Campaign.sol\":1835:1850  supply = 100000 */\n  dup2\n  swap1\n  sstore\n  pop\n    /* \"Campaign.sol\":1878:1884  supply */\n  sload(0x01)\n    /* \"Campaign.sol\":1861:1868  holders */\n  0x04\n    /* \"Campaign.sol\":1861:1875  holders[owner] */\n  0x00\n    /* \"Campaign.sol\":1869:1874  owner */\n  dup1\n  0x00\n  swap1\n  sload\n  swap1\n  0x0100\n  exp\n  swap1\n  div\n  0xffffffffffffffffffffffffffffffffffffffff\n  and\n    /* \"Campaign.sol\":1861:1875  holders[owner] */\n  0xffffffffffffffffffffffffffffffffffffffff\n  and\n  0xffffffffffffffffffffffffffffffffffffffff\n  and\n  dup2\n  mstore\n  0x20\n  add\n  swap1\n  dup2\n  mstore\n  0x20\n  add\n  0x00\n  keccak256\n    /* \"Campaign.sol\":1861:1884  holders[owner] = supply */\n  dup2\n  swap1\n  sstore\n  pop\n    /* \"Campaign.sol\":1771:1892  constructor(address _owner) {... */\n  pop\n    /* \"Campaign.sol\":733:6216  contract Token {... */\n  jump(tag_8)\ntag_2:\n  dup3\n  dup1\n  sload\n  tag_9\n  swap1\n  tag_10\n  jump\t// in\ntag_9:\n  swap1\n  0x00\n  mstore\n  keccak256(0x00, 0x20)\n  swap1\n  0x1f\n  add\n  0x20\n  swap1\n  div\n  dup2\n  add\n  swap3\n  dup3\n  tag_12\n  jumpi\n  0x00\n  dup6\n  sstore\n  jump(tag_11)\ntag_12:\n  dup3\n  0x1f\n  lt\n  tag_13\n  jumpi\n  dup1\n  mload\n  not(0xff)\n  and\n  dup4\n  dup1\n  add\n  or\n  dup6\n  sstore\n  jump(tag_11)\ntag_13:\n  dup3\n  dup1\n  add\n  0x01\n  add\n  dup6\n  sstore\n  dup3\n  iszero\n  tag_11\n  jumpi\n  swap2\n  dup3\n  add\ntag_14:\n  dup3\n  dup2\n  gt\n  iszero\n  tag_15\n  jumpi\n  dup3\n  mload\n  dup3\n  sstore\n  swap2\n  0x20\n  add\n  swap2\n  swap1\n  0x01\n  add\n  swap1\n  jump(tag_14)\ntag_15:\ntag_11:\n  pop\n  swap1\n  pop\n  tag_16\n  swap2\n  swap1\n  tag_17\n  jump\t// in\ntag_16:\n  pop\n  swap1\n  jump\t// out\ntag_17:\ntag_18:\n  dup1\n  dup3\n  gt\n  iszero\n  tag_19\n  jumpi\n  0x00\n  dup2\n  0x00\n  swap1\n  sstore\n  pop\n  0x01\n  add\n  jump(tag_18)\ntag_19:\n  pop\n  swap1\n  jump\t// out\n    /* \"#utility.yul\":88:205   */\ntag_21:\n    /* \"#utility.yul\":197:198   */\n  0x00\n    /* \"#utility.yul\":194:195   */\n  dup1\n    /* \"#utility.yul\":187:199   */\n  revert\n    /* \"#utility.yul\":334:460   */\ntag_23:\n    /* \"#utility.yul\":371:378   */\n  0x00\n    /* \"#utility.yul\":411:453   */\n  0xffffffffffffffffffffffffffffffffffffffff\n    /* \"#utility.yul\":404:409   */\n  dup3\n    /* \"#utility.yul\":400:454   */\n  and\n    /* \"#utility.yul\":389:454   */\n  swap1\n  pop\n    /* \"#utility.yul\":334:460   */\n  swap2\n  swap1\n  pop\n  jump\t// out\n    /* \"#utility.yul\":466:562   */\ntag_24:\n    /* \"#utility.yul\":503:510   */\n  0x00\n    /* \"#utility.yul\":532:556   */\n  tag_34\n    /* \"#utility.yul\":550:555   */\n  dup3\n    /* \"#utility.yul\":532:556   */\n  tag_23\n  jump\t// in\ntag_34:\n    /* \"#utility.yul\":521:556   */\n  swap1\n  pop\n    /* \"#utility.yul\":466:562   */\n  swap2\n  swap1\n  pop\n  jump\t// out\n    /* \"#utility.yul\":568:690   */\ntag_25:\n    /* \"#utility.yul\":641:665   */\n  tag_36\n    /* \"#utility.yul\":659:664   */\n  dup2\n    /* \"#utility.yul\":641:665   */\n  tag_24\n  jump\t// in\ntag_36:\n    /* \"#utility.yul\":634:639   */\n  dup2\n    /* \"#utility.yul\":631:666   */\n  eq\n    /* \"#utility.yul\":621:684   */\n  tag_37\n  jumpi\n    /* \"#utility.yul\":680:681   */\n  0x00\n    /* \"#utility.yul\":677:678   */\n  dup1\n    /* \"#utility.yul\":670:682   */\n  revert\n    /* \"#utility.yul\":621:684   */\ntag_37:\n    /* \"#utility.yul\":568:690   */\n  pop\n  jump\t// out\n    /* \"#utility.yul\":696:839   */\ntag_26:\n    /* \"#utility.yul\":753:758   */\n  0x00\n    /* \"#utility.yul\":784:790   */\n  dup2\n    /* \"#utility.yul\":778:791   */\n  mload\n    /* \"#utility.yul\":769:791   */\n  swap1\n  pop\n    /* \"#utility.yul\":800:833   */\n  tag_39\n    /* \"#utility.yul\":827:832   */\n  dup2\n    /* \"#utility.yul\":800:833   */\n  tag_25\n  jump\t// in\ntag_39:\n    /* \"#utility.yul\":696:839   */\n  swap3\n  swap2\n  pop\n  pop\n  jump\t// out\n    /* \"#utility.yul\":845:1196   */\ntag_5:\n    /* \"#utility.yul\":915:921   */\n  0x00\n    /* \"#utility.yul\":964:966   */\n  0x20\n    /* \"#utility.yul\":952:961   */\n  dup3\n    /* \"#utility.yul\":943:950   */\n  dup5\n    /* \"#utility.yul\":939:962   */\n  sub\n    /* \"#utility.yul\":935:967   */\n  slt\n    /* \"#utility.yul\":932:1051   */\n  iszero\n  tag_41\n  jumpi\n    /* \"#utility.yul\":970:1049   */\n  tag_42\n  tag_21\n  jump\t// in\ntag_42:\n    /* \"#utility.yul\":932:1051   */\ntag_41:\n    /* \"#utility.yul\":1090:1091   */\n  0x00\n    /* \"#utility.yul\":1115:1179   */\n  tag_43\n    /* \"#utility.yul\":1171:1178   */\n  dup5\n    /* \"#utility.yul\":1162:1168   */\n  dup3\n    /* \"#utility.yul\":1151:1160   */\n  dup6\n    /* \"#utility.yul\":1147:1169   */\n  add\n    /* \"#utility.yul\":1115:1179   */\n  tag_26\n  jump\t// in\ntag_43:\n    /* \"#utility.yul\":1105:1179   */\n  swap2\n  pop\n    /* \"#utility.yul\":1061:1189   */\n  pop\n    /* \"#utility.yul\":845:1196   */\n  swap3\n  swap2\n  pop\n  pop\n  jump\t// out\n    /* \"#utility.yul\":1202:1382   */\ntag_27:\n    /* \"#utility.yul\":1250:1327   */\n  0x4e487b7100000000000000000000000000000000000000000000000000000000\n    /* \"#utility.yul\":1247:1248   */\n  0x00\n    /* \"#utility.yul\":1240:1328   */\n  mstore\n    /* \"#utility.yul\":1347:1351   */\n  0x22\n    /* \"#utility.yul\":1344:1345   */\n  0x04\n    /* \"#utility.yul\":1337:1352   */\n  mstore\n    /* \"#utility.yul\":1371:1375   */\n  0x24\n    /* \"#utility.yul\":1368:1369   */\n  0x00\n    /* \"#utility.yul\":1361:1376   */\n  revert\n    /* \"#utility.yul\":1388:1708   */\ntag_10:\n    /* \"#utility.yul\":1432:1438   */\n  0x00\n    /* \"#utility.yul\":1469:1470   */\n  0x02\n    /* \"#utility.yul\":1463:1467   */\n  dup3\n    /* \"#utility.yul\":1459:1471   */\n  div\n    /* \"#utility.yul\":1449:1471   */\n  swap1\n  pop\n    /* \"#utility.yul\":1516:1517   */\n  0x01\n    /* \"#utility.yul\":1510:1514   */\n  dup3\n    /* \"#utility.yul\":1506:1518   */\n  and\n    /* \"#utility.yul\":1537:1555   */\n  dup1\n    /* \"#utility.yul\":1527:1608   */\n  tag_46\n  jumpi\n    /* \"#utility.yul\":1593:1597   */\n  0x7f\n    /* \"#utility.yul\":1585:1591   */\n  dup3\n    /* \"#utility.yul\":1581:1598   */\n  and\n    /* \"#utility.yul\":1571:1598   */\n  swap2\n  pop\n    /* \"#utility.yul\":1527:1608   */\ntag_46:\n    /* \"#utility.yul\":1655:1657   */\n  0x20\n    /* \"#utility.yul\":1647:1653   */\n  dup3\n    /* \"#utility.yul\":1644:1658   */\n  lt\n    /* \"#utility.yul\":1624:1642   */\n  dup2\n    /* \"#utility.yul\":1621:1659   */\n  eq\n    /* \"#utility.yul\":1618:1702   */\n  iszero\n  tag_47\n  jumpi\n    /* \"#utility.yul\":1674:1692   */\n  tag_48\n  tag_27\n  jump\t// in\ntag_48:\n    /* \"#utility.yul\":1618:1702   */\ntag_47:\n    /* \"#utility.yul\":1439:1708   */\n  pop\n    /* \"#utility.yul\":1388:1708   */\n  swap2\n  swap1\n  pop\n  jump\t// out\n    /* \"Campaign.sol\":733:6216  contract Token {... */\ntag_8:\n  dataSize(sub_0)\n  dup1\n  dataOffset(sub_0)\n  0x00\n  codecopy\n  0x00\n  return\nstop\n\nsub_0: assembly {\n        /* \"Campaign.sol\":733:6216  contract Token {... */\n      mstore(0x40, 0x80)\n      jumpi(tag_1, lt(calldatasize, 0x04))\n      shr(0xe0, calldataload(0x00))\n      dup1\n      0x8da5cb5b\n      gt\n      tag_25\n      jumpi\n      dup1\n      0xb933ceac\n      gt\n      tag_26\n      jumpi\n      dup1\n      0xb933ceac\n      eq\n      tag_19\n      jumpi\n      dup1\n      0xbe813d71\n      eq\n      tag_20\n      jumpi\n      dup1\n      0xd0679d34\n      eq\n      tag_21\n      jumpi\n      dup1\n      0xd0e30db0\n      eq\n      tag_22\n      jumpi\n      dup1\n      0xd41ce4b1\n      eq\n      tag_23\n      jumpi\n      dup1\n      0xfd5e6dd1\n      eq\n      tag_24\n      jumpi\n      jump(tag_1)\n    tag_26:\n      dup1\n      0x8da5cb5b\n      eq\n      tag_13\n      jumpi\n      dup1\n      0x8f169816\n      eq\n      tag_14\n      jumpi\n      dup1\n      0x8f328d7a\n      eq\n      tag_15\n      jumpi\n      dup1\n      0xa694fc3a\n      eq\n      tag_16\n      jumpi\n      dup1\n      0xb2dd5c07\n      eq\n      tag_17\n      jumpi\n      dup1\n      0xb69ef8a8\n      eq\n      tag_18\n      jumpi\n      jump(tag_1)\n    tag_25:\n      dup1\n      0x18a5bbdc\n      gt\n      tag_27\n      jumpi\n      dup1\n      0x18a5bbdc\n      eq\n      tag_7\n      jumpi\n      dup1\n      0x1c4b774b\n      eq\n      tag_8\n      jumpi\n      dup1\n      0x25d5971f\n      eq\n      tag_9\n      jumpi\n      dup1\n      0x400e3949\n      eq\n      tag_10\n      jumpi\n      dup1\n      0x4aec48c9\n      eq\n      tag_11\n      jumpi\n      dup1\n      0x65e481e2\n      eq\n      tag_12\n      jumpi\n      jump(tag_1)\n    tag_27:\n      dup1\n      0x013cf08b\n      eq\n      tag_2\n      jumpi\n      dup1\n      0x014396f2\n      eq\n      tag_3\n      jumpi\n      dup1\n      0x04421fc7\n      eq\n      tag_4\n      jumpi\n      dup1\n      0x047fc9aa\n      eq\n      tag_5\n      jumpi\n      dup1\n      0x06fdde03\n      eq\n      tag_6\n      jumpi\n    tag_1:\n      0x00\n      dup1\n      revert\n        /* \"Campaign.sol\":1625:1670  mapping(uint256 => Proposal) public proposals */\n    tag_2:\n      callvalue\n      dup1\n      iszero\n      tag_28\n      jumpi\n      0x00\n      dup1\n      revert\n    tag_28:\n      pop\n      tag_29\n      0x04\n      dup1\n      calldatasize\n      sub\n      dup2\n      add\n      swap1\n      tag_30\n      swap2\n      swap1\n      tag_31\n      jump\t// in\n    tag_30:\n      tag_32\n      jump\t// in\n    tag_29:\n      mload(0x40)\n      tag_33\n      swap10\n      swap9\n      swap8\n      swap7\n      swap6\n      swap5\n      swap4\n      swap3\n      swap2\n      swap1\n      tag_34\n      jump\t// in\n    tag_33:\n      mload(0x40)\n      dup1\n      swap2\n      sub\n      swap1\n      return\n        /* \"Campaign.sol\":5820:6211  function voteNay(uint256 index) public restrictedVoting(index) {... */\n    tag_3:\n      callvalue\n      dup1\n      iszero\n      tag_35\n      jumpi\n      0x00\n      dup1\n      revert\n    tag_35:\n      pop\n      tag_36\n      0x04\n      dup1\n      calldatasize\n      sub\n      dup2\n      add\n      swap1\n      tag_37\n      swap2\n      swap1\n      tag_31\n      jump\t// in\n    tag_37:\n      tag_38\n      jump\t// in\n    tag_36:\n      stop\n        /* \"Campaign.sol\":990:1039  mapping (address => uint256) public overallStaked */\n    tag_4:\n      callvalue\n      dup1\n      iszero\n      tag_39\n      jumpi\n      0x00\n      dup1\n      revert\n    tag_39:\n      pop\n      tag_40\n      0x04\n      dup1\n      calldatasize\n      sub\n      dup2\n      add\n      swap1\n      tag_41\n      swap2\n      swap1\n      tag_42\n      jump\t// in\n    tag_41:\n      tag_43\n      jump\t// in\n    tag_40:\n      mload(0x40)\n      tag_44\n      swap2\n      swap1\n      tag_45\n      jump\t// in\n    tag_44:\n      mload(0x40)\n      dup1\n      swap2\n      sub\n      swap1\n      return\n        /* \"Campaign.sol\":786:807  uint256 public supply */\n    tag_5:\n      callvalue\n      dup1\n      iszero\n      tag_46\n      jumpi\n      0x00\n      dup1\n      revert\n    tag_46:\n      pop\n      tag_47\n      tag_48\n      jump\t// in\n    tag_47:\n      mload(0x40)\n      tag_49\n      swap2\n      swap1\n      tag_45\n      jump\t// in\n    tag_49:\n      mload(0x40)\n      dup1\n      swap2\n      sub\n      swap1\n      return\n        /* \"Campaign.sol\":850:883  string public name = \"CrowdShare\" */\n    tag_6:\n      callvalue\n      dup1\n      iszero\n      tag_50\n      jumpi\n      0x00\n      dup1\n      revert\n    tag_50:\n      pop\n      tag_51\n      tag_52\n      jump\t// in\n    tag_51:\n      mload(0x40)\n      tag_53\n      swap2\n      swap1\n      tag_54\n      jump\t// in\n    tag_53:\n      mload(0x40)\n      dup1\n      swap2\n      sub\n      swap1\n      return\n        /* \"Campaign.sol\":892:932  mapping (address => uint) public holders */\n    tag_7:\n      callvalue\n      dup1\n      iszero\n      tag_55\n      jumpi\n      0x00\n      dup1\n      revert\n    tag_55:\n      pop\n      tag_56\n      0x04\n      dup1\n      calldatasize\n      sub\n      dup2\n      add\n      swap1\n      tag_57\n      swap2\n      swap1\n      tag_42\n      jump\t// in\n    tag_57:\n      tag_58\n      jump\t// in\n    tag_56:\n      mload(0x40)\n      tag_59\n      swap2\n      swap1\n      tag_45\n      jump\t// in\n    tag_59:\n      mload(0x40)\n      dup1\n      swap2\n      sub\n      swap1\n      return\n        /* \"Campaign.sol\":3886:3997  function getReward(uint256 pool) public view returns (uint) {... */\n    tag_8:\n      callvalue\n      dup1\n      iszero\n      tag_60\n      jumpi\n      0x00\n      dup1\n      revert\n    tag_60:\n      pop\n      tag_61\n      0x04\n      dup1\n      calldatasize\n      sub\n      dup2\n      add\n      swap1\n      tag_62\n      swap2\n      swap1\n      tag_31\n      jump\t// in\n    tag_62:\n      tag_63\n      jump\t// in\n    tag_61:\n      mload(0x40)\n      tag_64\n      swap2\n      swap1\n      tag_45\n      jump\t// in\n    tag_64:\n      mload(0x40)\n      dup1\n      swap2\n      sub\n      swap1\n      return\n        /* \"Campaign.sol\":2752:3522  function withdrawStake(uint pool) public payable{... */\n    tag_9:\n      tag_65\n      0x04\n      dup1\n      calldatasize\n      sub\n      dup2\n      add\n      swap1\n      tag_66\n      swap2\n      swap1\n      tag_31\n      jump\t// in\n    tag_66:\n      tag_67\n      jump\t// in\n    tag_65:\n      stop\n        /* \"Campaign.sol\":1677:1704  uint256 public numProposals */\n    tag_10:\n      callvalue\n      dup1\n      iszero\n      tag_68\n      jumpi\n      0x00\n      dup1\n      revert\n    tag_68:\n      pop\n      tag_69\n      tag_70\n      jump\t// in\n    tag_69:\n      mload(0x40)\n      tag_71\n      swap2\n      swap1\n      tag_45\n      jump\t// in\n    tag_71:\n      mload(0x40)\n      dup1\n      swap2\n      sub\n      swap1\n      return\n        /* \"Campaign.sol\":1046:1092  mapping (address => uint []) public stakedTime */\n    tag_11:\n      callvalue\n      dup1\n      iszero\n      tag_72\n      jumpi\n      0x00\n      dup1\n      revert\n    tag_72:\n      pop\n      tag_73\n      0x04\n      dup1\n      calldatasize\n      sub\n      dup2\n      add\n      swap1\n      tag_74\n      swap2\n      swap1\n      tag_75\n      jump\t// in\n    tag_74:\n      tag_76\n      jump\t// in\n    tag_73:\n      mload(0x40)\n      tag_77\n      swap2\n      swap1\n      tag_45\n      jump\t// in\n    tag_77:\n      mload(0x40)\n      dup1\n      swap2\n      sub\n      swap1\n      return\n        /* \"Campaign.sol\":4220:5038  function createProposal(string memory title, string memory description) public {... */\n    tag_12:\n      callvalue\n      dup1\n      iszero\n      tag_78\n      jumpi\n      0x00\n      dup1\n      revert\n    tag_78:\n      pop\n      tag_79\n      0x04\n      dup1\n      calldatasize\n      sub\n      dup2\n      add\n      swap1\n      tag_80\n      swap2\n      swap1\n      tag_81\n      jump\t// in\n    tag_80:\n      tag_82\n      jump\t// in\n    tag_79:\n      stop\n        /* \"Campaign.sol\":757:777  address public owner */\n    tag_13:\n      callvalue\n      dup1\n      iszero\n      tag_83\n      jumpi\n      0x00\n      dup1\n      revert\n    tag_83:\n      pop\n      tag_84\n      tag_85\n      jump\t// in\n    tag_84:\n      mload(0x40)\n      tag_86\n      swap2\n      swap1\n      tag_87\n      jump\t// in\n    tag_86:\n      mload(0x40)\n      dup1\n      swap2\n      sub\n      swap1\n      return\n        /* \"Campaign.sol\":941:983  mapping (address => uint []) public staked */\n    tag_14:\n      callvalue\n      dup1\n      iszero\n      tag_88\n      jumpi\n      0x00\n      dup1\n      revert\n    tag_88:\n      pop\n      tag_89\n      0x04\n      dup1\n      calldatasize\n      sub\n      dup2\n      add\n      swap1\n      tag_90\n      swap2\n      swap1\n      tag_75\n      jump\t// in\n    tag_90:\n      tag_91\n      jump\t// in\n    tag_89:\n      mload(0x40)\n      tag_92\n      swap2\n      swap1\n      tag_45\n      jump\t// in\n    tag_92:\n      mload(0x40)\n      dup1\n      swap2\n      sub\n      swap1\n      return\n        /* \"Campaign.sol\":5435:5812  function voteYay(uint256 index) public restrictedVoting(index) {... */\n    tag_15:\n      callvalue\n      dup1\n      iszero\n      tag_93\n      jumpi\n      0x00\n      dup1\n      revert\n    tag_93:\n      pop\n      tag_94\n      0x04\n      dup1\n      calldatasize\n      sub\n      dup2\n      add\n      swap1\n      tag_95\n      swap2\n      swap1\n      tag_31\n      jump\t// in\n    tag_95:\n      tag_96\n      jump\t// in\n    tag_94:\n      stop\n        /* \"Campaign.sol\":2172:2744  function stake(uint256 amount) public {... */\n    tag_16:\n      callvalue\n      dup1\n      iszero\n      tag_97\n      jumpi\n      0x00\n      dup1\n      revert\n    tag_97:\n      pop\n      tag_98\n      0x04\n      dup1\n      calldatasize\n      sub\n      dup2\n      add\n      swap1\n      tag_99\n      swap2\n      swap1\n      tag_31\n      jump\t// in\n    tag_99:\n      tag_100\n      jump\t// in\n    tag_98:\n      stop\n        /* \"Campaign.sol\":1149:1192  mapping (address => bool) public registered */\n    tag_17:\n      callvalue\n      dup1\n      iszero\n      tag_101\n      jumpi\n      0x00\n      dup1\n      revert\n    tag_101:\n      pop\n      tag_102\n      0x04\n      dup1\n      calldatasize\n      sub\n      dup2\n      add\n      swap1\n      tag_103\n      swap2\n      swap1\n      tag_42\n      jump\t// in\n    tag_103:\n      tag_104\n      jump\t// in\n    tag_102:\n      mload(0x40)\n      tag_105\n      swap2\n      swap1\n      tag_106\n      jump\t// in\n    tag_105:\n      mload(0x40)\n      dup1\n      swap2\n      sub\n      swap1\n      return\n        /* \"Campaign.sol\":4119:4212  function balance() public view returns (uint) {... */\n    tag_18:\n      callvalue\n      dup1\n      iszero\n      tag_107\n      jumpi\n      0x00\n      dup1\n      revert\n    tag_107:\n      pop\n      tag_108\n      tag_109\n      jump\t// in\n    tag_108:\n      mload(0x40)\n      tag_110\n      swap2\n      swap1\n      tag_45\n      jump\t// in\n    tag_110:\n      mload(0x40)\n      dup1\n      swap2\n      sub\n      swap1\n      return\n        /* \"Campaign.sol\":1099:1142  mapping (address => uint []) public rewards */\n    tag_19:\n      callvalue\n      dup1\n      iszero\n      tag_111\n      jumpi\n      0x00\n      dup1\n      revert\n    tag_111:\n      pop\n      tag_112\n      0x04\n      dup1\n      calldatasize\n      sub\n      dup2\n      add\n      swap1\n      tag_113\n      swap2\n      swap1\n      tag_75\n      jump\t// in\n    tag_113:\n      tag_114\n      jump\t// in\n    tag_112:\n      mload(0x40)\n      tag_115\n      swap2\n      swap1\n      tag_45\n      jump\t// in\n    tag_115:\n      mload(0x40)\n      dup1\n      swap2\n      sub\n      swap1\n      return\n        /* \"Campaign.sol\":4005:4111  function getAmountOfPools() public view returns (uint) {... */\n    tag_20:\n      callvalue\n      dup1\n      iszero\n      tag_116\n      jumpi\n      0x00\n      dup1\n      revert\n    tag_116:\n      pop\n      tag_117\n      tag_118\n      jump\t// in\n    tag_117:\n      mload(0x40)\n      tag_119\n      swap2\n      swap1\n      tag_45\n      jump\t// in\n    tag_119:\n      mload(0x40)\n      dup1\n      swap2\n      sub\n      swap1\n      return\n        /* \"Campaign.sol\":1900:2164  function send(address receiver, uint256 amount) public {... */\n    tag_21:\n      callvalue\n      dup1\n      iszero\n      tag_120\n      jumpi\n      0x00\n      dup1\n      revert\n    tag_120:\n      pop\n      tag_121\n      0x04\n      dup1\n      calldatasize\n      sub\n      dup2\n      add\n      swap1\n      tag_122\n      swap2\n      swap1\n      tag_75\n      jump\t// in\n    tag_122:\n      tag_123\n      jump\t// in\n    tag_121:\n      stop\n        /* \"Campaign.sol\":3530:3878  function deposit() public payable {... */\n    tag_22:\n      tag_124\n      tag_125\n      jump\t// in\n    tag_124:\n      stop\n        /* \"Campaign.sol\":814:841  uint256 public stakedSupply */\n    tag_23:\n      callvalue\n      dup1\n      iszero\n      tag_126\n      jumpi\n      0x00\n      dup1\n      revert\n    tag_126:\n      pop\n      tag_127\n      tag_128\n      jump\t// in\n    tag_127:\n      mload(0x40)\n      tag_129\n      swap2\n      swap1\n      tag_45\n      jump\t// in\n    tag_129:\n      mload(0x40)\n      dup1\n      swap2\n      sub\n      swap1\n      return\n        /* \"Campaign.sol\":1199:1224  address [] public stakers */\n    tag_24:\n      callvalue\n      dup1\n      iszero\n      tag_130\n      jumpi\n      0x00\n      dup1\n      revert\n    tag_130:\n      pop\n      tag_131\n      0x04\n      dup1\n      calldatasize\n      sub\n      dup2\n      add\n      swap1\n      tag_132\n      swap2\n      swap1\n      tag_31\n      jump\t// in\n    tag_132:\n      tag_133\n      jump\t// in\n    tag_131:\n      mload(0x40)\n      tag_134\n      swap2\n      swap1\n      tag_87\n      jump\t// in\n    tag_134:\n      mload(0x40)\n      dup1\n      swap2\n      sub\n      swap1\n      return\n        /* \"Campaign.sol\":1625:1670  mapping(uint256 => Proposal) public proposals */\n    tag_32:\n      mstore(0x20, 0x0b)\n      dup1\n      0x00\n      mstore\n      keccak256(0x00, 0x40)\n      0x00\n      swap2\n      pop\n      swap1\n      pop\n      dup1\n      0x00\n      add\n      sload\n      swap1\n      dup1\n      0x01\n      add\n      dup1\n      sload\n      tag_135\n      swap1\n      tag_136\n      jump\t// in\n    tag_135:\n      dup1\n      0x1f\n      add\n      0x20\n      dup1\n      swap2\n      div\n      mul\n      0x20\n      add\n      mload(0x40)\n      swap1\n      dup2\n      add\n      0x40\n      mstore\n      dup1\n      swap3\n      swap2\n      swap1\n      dup2\n      dup2\n      mstore\n      0x20\n      add\n      dup3\n      dup1\n      sload\n      tag_137\n      swap1\n      tag_136\n      jump\t// in\n    tag_137:\n      dup1\n      iszero\n      tag_138\n      jumpi\n      dup1\n      0x1f\n      lt\n      tag_139\n      jumpi\n      0x0100\n      dup1\n      dup4\n      sload\n      div\n      mul\n      dup4\n      mstore\n      swap2\n      0x20\n      add\n      swap2\n      jump(tag_138)\n    tag_139:\n      dup3\n      add\n      swap2\n      swap1\n      0x00\n      mstore\n      keccak256(0x00, 0x20)\n      swap1\n    tag_140:\n      dup2\n      sload\n      dup2\n      mstore\n      swap1\n      0x01\n      add\n      swap1\n      0x20\n      add\n      dup1\n      dup4\n      gt\n      tag_140\n      jumpi\n      dup3\n      swap1\n      sub\n      0x1f\n      and\n      dup3\n      add\n      swap2\n    tag_138:\n      pop\n      pop\n      pop\n      pop\n      pop\n      swap1\n      dup1\n      0x02\n      add\n      dup1\n      sload\n      tag_141\n      swap1\n      tag_136\n      jump\t// in\n    tag_141:\n      dup1\n      0x1f\n      add\n      0x20\n      dup1\n      swap2\n      div\n      mul\n      0x20\n      add\n      mload(0x40)\n      swap1\n      dup2\n      add\n      0x40\n      mstore\n      dup1\n      swap3\n      swap2\n      swap1\n      dup2\n      dup2\n      mstore\n      0x20\n      add\n      dup3\n      dup1\n      sload\n      tag_142\n      swap1\n      tag_136\n      jump\t// in\n    tag_142:\n      dup1\n      iszero\n      tag_143\n      jumpi\n      dup1\n      0x1f\n      lt\n      tag_144\n      jumpi\n      0x0100\n      dup1\n      dup4\n      sload\n      div\n      mul\n      dup4\n      mstore\n      swap2\n      0x20\n      add\n      swap2\n      jump(tag_143)\n    tag_144:\n      dup3\n      add\n      swap2\n      swap1\n      0x00\n      mstore\n      keccak256(0x00, 0x20)\n      swap1\n    tag_145:\n      dup2\n      sload\n      dup2\n      mstore\n      swap1\n      0x01\n      add\n      swap1\n      0x20\n      add\n      dup1\n      dup4\n      gt\n      tag_145\n      jumpi\n      dup3\n      swap1\n      sub\n      0x1f\n      and\n      dup3\n      add\n      swap2\n    tag_143:\n      pop\n      pop\n      pop\n      pop\n      pop\n      swap1\n      dup1\n      0x03\n      add\n      0x00\n      swap1\n      sload\n      swap1\n      0x0100\n      exp\n      swap1\n      div\n      0xffffffffffffffffffffffffffffffffffffffff\n      and\n      swap1\n      dup1\n      0x07\n      add\n      sload\n      swap1\n      dup1\n      0x08\n      add\n      sload\n      swap1\n      dup1\n      0x09\n      add\n      sload\n      swap1\n      dup1\n      0x0a\n      add\n      0x00\n      swap1\n      sload\n      swap1\n      0x0100\n      exp\n      swap1\n      div\n      0xff\n      and\n      swap1\n      dup1\n      0x0a\n      add\n      0x01\n      swap1\n      sload\n      swap1\n      0x0100\n      exp\n      swap1\n      div\n      0xff\n      and\n      swap1\n      pop\n      dup10\n      jump\t// out\n        /* \"Campaign.sol\":5820:6211  function voteNay(uint256 index) public restrictedVoting(index) {... */\n    tag_38:\n        /* \"Campaign.sol\":5876:5881  index */\n      dup1\n        /* \"Campaign.sol\":5146:5147  0 */\n      0x00\n        /* \"Campaign.sol\":5106:5115  proposals */\n      0x0b\n        /* \"Campaign.sol\":5106:5122  proposals[index] */\n      0x00\n        /* \"Campaign.sol\":5116:5121  index */\n      dup4\n        /* \"Campaign.sol\":5106:5122  proposals[index] */\n      dup2\n      mstore\n      0x20\n      add\n      swap1\n      dup2\n      mstore\n      0x20\n      add\n      0x00\n      keccak256\n        /* \"Campaign.sol\":5106:5131  proposals[index].snapshot */\n      0x04\n      add\n        /* \"Campaign.sol\":5106:5143  proposals[index].snapshot[msg.sender] */\n      0x00\n        /* \"Campaign.sol\":5132:5142  msg.sender */\n      caller\n        /* \"Campaign.sol\":5106:5143  proposals[index].snapshot[msg.sender] */\n      0xffffffffffffffffffffffffffffffffffffffff\n      and\n      0xffffffffffffffffffffffffffffffffffffffff\n      and\n      dup2\n      mstore\n      0x20\n      add\n      swap1\n      dup2\n      mstore\n      0x20\n      add\n      0x00\n      keccak256\n      sload\n        /* \"Campaign.sol\":5106:5147  proposals[index].snapshot[msg.sender] > 0 */\n      gt\n        /* \"Campaign.sol\":5098:5185  require(proposals[index].snapshot[msg.sender] > 0, \"You don't have permission to vote\") */\n      tag_147\n      jumpi\n      mload(0x40)\n      0x08c379a000000000000000000000000000000000000000000000000000000000\n      dup2\n      mstore\n      0x04\n      add\n      tag_148\n      swap1\n      tag_149\n      jump\t// in\n    tag_148:\n      mload(0x40)\n      dup1\n      swap2\n      sub\n      swap1\n      revert\n    tag_147:\n        /* \"Campaign.sol\":5205:5214  proposals */\n      0x0b\n        /* \"Campaign.sol\":5205:5221  proposals[index] */\n      0x00\n        /* \"Campaign.sol\":5215:5220  index */\n      dup3\n        /* \"Campaign.sol\":5205:5221  proposals[index] */\n      dup2\n      mstore\n      0x20\n      add\n      swap1\n      dup2\n      mstore\n      0x20\n      add\n      0x00\n      keccak256\n        /* \"Campaign.sol\":5205:5225  proposals[index].yay */\n      0x05\n      add\n        /* \"Campaign.sol\":5205:5237  proposals[index].yay[msg.sender] */\n      0x00\n        /* \"Campaign.sol\":5226:5236  msg.sender */\n      caller\n        /* \"Campaign.sol\":5205:5237  proposals[index].yay[msg.sender] */\n      0xffffffffffffffffffffffffffffffffffffffff\n      and\n      0xffffffffffffffffffffffffffffffffffffffff\n      and\n      dup2\n      mstore\n      0x20\n      add\n      swap1\n      dup2\n      mstore\n      0x20\n      add\n      0x00\n      keccak256\n      0x00\n      swap1\n      sload\n      swap1\n      0x0100\n      exp\n      swap1\n      div\n      0xff\n      and\n        /* \"Campaign.sol\":5204:5237  !proposals[index].yay[msg.sender] */\n      iszero\n        /* \"Campaign.sol\":5196:5259  require(!proposals[index].yay[msg.sender], \"You already voted\") */\n      tag_150\n      jumpi\n      mload(0x40)\n      0x08c379a000000000000000000000000000000000000000000000000000000000\n      dup2\n      mstore\n      0x04\n      add\n      tag_151\n      swap1\n      tag_152\n      jump\t// in\n    tag_151:\n      mload(0x40)\n      dup1\n      swap2\n      sub\n      swap1\n      revert\n    tag_150:\n        /* \"Campaign.sol\":5279:5288  proposals */\n      0x0b\n        /* \"Campaign.sol\":5279:5295  proposals[index] */\n      0x00\n        /* \"Campaign.sol\":5289:5294  index */\n      dup3\n        /* \"Campaign.sol\":5279:5295  proposals[index] */\n      dup2\n      mstore\n      0x20\n      add\n      swap1\n      dup2\n      mstore\n      0x20\n      add\n      0x00\n      keccak256\n        /* \"Campaign.sol\":5279:5299  proposals[index].nay */\n      0x06\n      add\n        /* \"Campaign.sol\":5279:5311  proposals[index].nay[msg.sender] */\n      0x00\n        /* \"Campaign.sol\":5300:5310  msg.sender */\n      caller\n        /* \"Campaign.sol\":5279:5311  proposals[index].nay[msg.sender] */\n      0xffffffffffffffffffffffffffffffffffffffff\n      and\n      0xffffffffffffffffffffffffffffffffffffffff\n      and\n      dup2\n      mstore\n      0x20\n      add\n      swap1\n      dup2\n      mstore\n      0x20\n      add\n      0x00\n      keccak256\n      0x00\n      swap1\n      sload\n      swap1\n      0x0100\n      exp\n      swap1\n      div\n      0xff\n      and\n        /* \"Campaign.sol\":5278:5311  !proposals[index].nay[msg.sender] */\n      iszero\n        /* \"Campaign.sol\":5270:5333  require(!proposals[index].nay[msg.sender], \"You already voted\") */\n      tag_153\n      jumpi\n      mload(0x40)\n      0x08c379a000000000000000000000000000000000000000000000000000000000\n      dup2\n      mstore\n      0x04\n      add\n      tag_154\n      swap1\n      tag_152\n      jump\t// in\n    tag_154:\n      mload(0x40)\n      dup1\n      swap2\n      sub\n      swap1\n      revert\n    tag_153:\n        /* \"Campaign.sol\":5353:5362  proposals */\n      0x0b\n        /* \"Campaign.sol\":5353:5369  proposals[index] */\n      0x00\n        /* \"Campaign.sol\":5363:5368  index */\n      dup3\n        /* \"Campaign.sol\":5353:5369  proposals[index] */\n      dup2\n      mstore\n      0x20\n      add\n      swap1\n      dup2\n      mstore\n      0x20\n      add\n      0x00\n      keccak256\n        /* \"Campaign.sol\":5353:5378  proposals[index].complete */\n      0x0a\n      add\n      0x00\n      swap1\n      sload\n      swap1\n      0x0100\n      exp\n      swap1\n      div\n      0xff\n      and\n        /* \"Campaign.sol\":5352:5378  !proposals[index].complete */\n      iszero\n        /* \"Campaign.sol\":5344:5407  require(!proposals[index].complete, \"The proposal is complete\") */\n      tag_155\n      jumpi\n      mload(0x40)\n      0x08c379a000000000000000000000000000000000000000000000000000000000\n      dup2\n      mstore\n      0x04\n      add\n      tag_156\n      swap1\n      tag_157\n      jump\t// in\n    tag_156:\n      mload(0x40)\n      dup1\n      swap2\n      sub\n      swap1\n      revert\n    tag_155:\n        /* \"Campaign.sol\":5929:5933  true */\n      0x01\n        /* \"Campaign.sol\":5894:5903  proposals */\n      0x0b\n        /* \"Campaign.sol\":5894:5910  proposals[index] */\n      0x00\n        /* \"Campaign.sol\":5904:5909  index */\n      dup5\n        /* \"Campaign.sol\":5894:5910  proposals[index] */\n      dup2\n      mstore\n      0x20\n      add\n      swap1\n      dup2\n      mstore\n      0x20\n      add\n      0x00\n      keccak256\n        /* \"Campaign.sol\":5894:5914  proposals[index].nay */\n      0x06\n      add\n        /* \"Campaign.sol\":5894:5926  proposals[index].nay[msg.sender] */\n      0x00\n        /* \"Campaign.sol\":5915:5925  msg.sender */\n      caller\n        /* \"Campaign.sol\":5894:5926  proposals[index].nay[msg.sender] */\n      0xffffffffffffffffffffffffffffffffffffffff\n      and\n      0xffffffffffffffffffffffffffffffffffffffff\n      and\n      dup2\n      mstore\n      0x20\n      add\n      swap1\n      dup2\n      mstore\n      0x20\n      add\n      0x00\n      keccak256\n      0x00\n        /* \"Campaign.sol\":5894:5933  proposals[index].nay[msg.sender] = true */\n      0x0100\n      exp\n      dup2\n      sload\n      dup2\n      0xff\n      mul\n      not\n      and\n      swap1\n      dup4\n      iszero\n      iszero\n      mul\n      or\n      swap1\n      sstore\n      pop\n        /* \"Campaign.sol\":5973:5982  proposals */\n      0x0b\n        /* \"Campaign.sol\":5973:5989  proposals[index] */\n      0x00\n        /* \"Campaign.sol\":5983:5988  index */\n      dup4\n        /* \"Campaign.sol\":5973:5989  proposals[index] */\n      dup2\n      mstore\n      0x20\n      add\n      swap1\n      dup2\n      mstore\n      0x20\n      add\n      0x00\n      keccak256\n        /* \"Campaign.sol\":5973:5998  proposals[index].snapshot */\n      0x04\n      add\n        /* \"Campaign.sol\":5973:6010  proposals[index].snapshot[msg.sender] */\n      0x00\n        /* \"Campaign.sol\":5999:6009  msg.sender */\n      caller\n        /* \"Campaign.sol\":5973:6010  proposals[index].snapshot[msg.sender] */\n      0xffffffffffffffffffffffffffffffffffffffff\n      and\n      0xffffffffffffffffffffffffffffffffffffffff\n      and\n      dup2\n      mstore\n      0x20\n      add\n      swap1\n      dup2\n      mstore\n      0x20\n      add\n      0x00\n      keccak256\n      sload\n        /* \"Campaign.sol\":5944:5953  proposals */\n      0x0b\n        /* \"Campaign.sol\":5944:5960  proposals[index] */\n      0x00\n        /* \"Campaign.sol\":5954:5959  index */\n      dup5\n        /* \"Campaign.sol\":5944:5960  proposals[index] */\n      dup2\n      mstore\n      0x20\n      add\n      swap1\n      dup2\n      mstore\n      0x20\n      add\n      0x00\n      keccak256\n        /* \"Campaign.sol\":5944:5969  proposals[index].nayCount */\n      0x08\n      add\n      0x00\n        /* \"Campaign.sol\":5944:6010  proposals[index].nayCount += proposals[index].snapshot[msg.sender] */\n      dup3\n      dup3\n      sload\n      tag_159\n      swap2\n      swap1\n      tag_160\n      jump\t// in\n    tag_159:\n      swap3\n      pop\n      pop\n      dup2\n      swap1\n      sstore\n      pop\n        /* \"Campaign.sol\":6082:6083  2 */\n      0x02\n        /* \"Campaign.sol\":6054:6063  proposals */\n      0x0b\n        /* \"Campaign.sol\":6054:6070  proposals[index] */\n      0x00\n        /* \"Campaign.sol\":6064:6069  index */\n      dup5\n        /* \"Campaign.sol\":6054:6070  proposals[index] */\n      dup2\n      mstore\n      0x20\n      add\n      swap1\n      dup2\n      mstore\n      0x20\n      add\n      0x00\n      keccak256\n        /* \"Campaign.sol\":6054:6079  proposals[index].required */\n      0x09\n      add\n      sload\n        /* \"Campaign.sol\":6054:6083  proposals[index].required / 2 */\n      tag_161\n      swap2\n      swap1\n      tag_162\n      jump\t// in\n    tag_161:\n        /* \"Campaign.sol\":6024:6033  proposals */\n      0x0b\n        /* \"Campaign.sol\":6024:6040  proposals[index] */\n      0x00\n        /* \"Campaign.sol\":6034:6039  index */\n      dup5\n        /* \"Campaign.sol\":6024:6040  proposals[index] */\n      dup2\n      mstore\n      0x20\n      add\n      swap1\n      dup2\n      mstore\n      0x20\n      add\n      0x00\n      keccak256\n        /* \"Campaign.sol\":6024:6049  proposals[index].nayCount */\n      0x08\n      add\n      sload\n        /* \"Campaign.sol\":6024:6084  proposals[index].nayCount >= (proposals[index].required / 2) */\n      lt\n        /* \"Campaign.sol\":6021:6204  if(proposals[index].nayCount >= (proposals[index].required / 2))... */\n      tag_163\n      jumpi\n        /* \"Campaign.sol\":6138:6142  true */\n      0x01\n        /* \"Campaign.sol\":6110:6119  proposals */\n      0x0b\n        /* \"Campaign.sol\":6110:6126  proposals[index] */\n      0x00\n        /* \"Campaign.sol\":6120:6125  index */\n      dup5\n        /* \"Campaign.sol\":6110:6126  proposals[index] */\n      dup2\n      mstore\n      0x20\n      add\n      swap1\n      dup2\n      mstore\n      0x20\n      add\n      0x00\n      keccak256\n        /* \"Campaign.sol\":6110:6135  proposals[index].complete */\n      0x0a\n      add\n      0x00\n        /* \"Campaign.sol\":6110:6142  proposals[index].complete = true */\n      0x0100\n      exp\n      dup2\n      sload\n      dup2\n      0xff\n      mul\n      not\n      and\n      swap1\n      dup4\n      iszero\n      iszero\n      mul\n      or\n      swap1\n      sstore\n      pop\n        /* \"Campaign.sol\":6187:6192  false */\n      0x00\n        /* \"Campaign.sol\":6157:6166  proposals */\n      0x0b\n        /* \"Campaign.sol\":6157:6173  proposals[index] */\n      0x00\n        /* \"Campaign.sol\":6167:6172  index */\n      dup5\n        /* \"Campaign.sol\":6157:6173  proposals[index] */\n      dup2\n      mstore\n      0x20\n      add\n      swap1\n      dup2\n      mstore\n      0x20\n      add\n      0x00\n      keccak256\n        /* \"Campaign.sol\":6157:6184  proposals[index].yayBoolean */\n      0x0a\n      add\n      0x01\n        /* \"Campaign.sol\":6157:6192  proposals[index].yayBoolean = false */\n      0x0100\n      exp\n      dup2\n      sload\n      dup2\n      0xff\n      mul\n      not\n      and\n      swap1\n      dup4\n      iszero\n      iszero\n      mul\n      or\n      swap1\n      sstore\n      pop\n        /* \"Campaign.sol\":6021:6204  if(proposals[index].nayCount >= (proposals[index].required / 2))... */\n    tag_163:\n        /* \"Campaign.sol\":5820:6211  function voteNay(uint256 index) public restrictedVoting(index) {... */\n      pop\n      pop\n      jump\t// out\n        /* \"Campaign.sol\":990:1039  mapping (address => uint256) public overallStaked */\n    tag_43:\n      mstore(0x20, 0x06)\n      dup1\n      0x00\n      mstore\n      keccak256(0x00, 0x40)\n      0x00\n      swap2\n      pop\n      swap1\n      pop\n      sload\n      dup2\n      jump\t// out\n        /* \"Campaign.sol\":786:807  uint256 public supply */\n    tag_48:\n      sload(0x01)\n      dup2\n      jump\t// out\n        /* \"Campaign.sol\":850:883  string public name = \"CrowdShare\" */\n    tag_52:\n      0x03\n      dup1\n      sload\n      tag_164\n      swap1\n      tag_136\n      jump\t// in\n    tag_164:\n      dup1\n      0x1f\n      add\n      0x20\n      dup1\n      swap2\n      div\n      mul\n      0x20\n      add\n      mload(0x40)\n      swap1\n      dup2\n      add\n      0x40\n      mstore\n      dup1\n      swap3\n      swap2\n      swap1\n      dup2\n      dup2\n      mstore\n      0x20\n      add\n      dup3\n      dup1\n      sload\n      tag_165\n      swap1\n      tag_136\n      jump\t// in\n    tag_165:\n      dup1\n      iszero\n      tag_166\n      jumpi\n      dup1\n      0x1f\n      lt\n      tag_167\n      jumpi\n      0x0100\n      dup1\n      dup4\n      sload\n      div\n      mul\n      dup4\n      mstore\n      swap2\n      0x20\n      add\n      swap2\n      jump(tag_166)\n    tag_167:\n      dup3\n      add\n      swap2\n      swap1\n      0x00\n      mstore\n      keccak256(0x00, 0x20)\n      swap1\n    tag_168:\n      dup2\n      sload\n      dup2\n      mstore\n      swap1\n      0x01\n      add\n      swap1\n      0x20\n      add\n      dup1\n      dup4\n      gt\n      tag_168\n      jumpi\n      dup3\n      swap1\n      sub\n      0x1f\n      and\n      dup3\n      add\n      swap2\n    tag_166:\n      pop\n      pop\n      pop\n      pop\n      pop\n      dup2\n      jump\t// out\n        /* \"Campaign.sol\":892:932  mapping (address => uint) public holders */\n    tag_58:\n      mstore(0x20, 0x04)\n      dup1\n      0x00\n      mstore\n      keccak256(0x00, 0x40)\n      0x00\n      swap2\n      pop\n      swap1\n      pop\n      sload\n      dup2\n      jump\t// out\n        /* \"Campaign.sol\":3886:3997  function getReward(uint256 pool) public view returns (uint) {... */\n    tag_63:\n        /* \"Campaign.sol\":3940:3944  uint */\n      0x00\n        /* \"Campaign.sol\":3964:3971  rewards */\n      0x08\n        /* \"Campaign.sol\":3964:3983  rewards[msg.sender] */\n      0x00\n        /* \"Campaign.sol\":3972:3982  msg.sender */\n      caller\n        /* \"Campaign.sol\":3964:3983  rewards[msg.sender] */\n      0xffffffffffffffffffffffffffffffffffffffff\n      and\n      0xffffffffffffffffffffffffffffffffffffffff\n      and\n      dup2\n      mstore\n      0x20\n      add\n      swap1\n      dup2\n      mstore\n      0x20\n      add\n      0x00\n      keccak256\n        /* \"Campaign.sol\":3984:3988  pool */\n      dup3\n        /* \"Campaign.sol\":3964:3989  rewards[msg.sender][pool] */\n      dup2\n      sload\n      dup2\n      lt\n      tag_170\n      jumpi\n      tag_171\n      tag_172\n      jump\t// in\n    tag_171:\n    tag_170:\n      swap1\n      0x00\n      mstore\n      keccak256(0x00, 0x20)\n      add\n      sload\n        /* \"Campaign.sol\":3957:3989  return rewards[msg.sender][pool] */\n      swap1\n      pop\n        /* \"Campaign.sol\":3886:3997  function getReward(uint256 pool) public view returns (uint) {... */\n      swap2\n      swap1\n      pop\n      jump\t// out\n        /* \"Campaign.sol\":2752:3522  function withdrawStake(uint pool) public payable{... */\n    tag_67:\n        /* \"Campaign.sol\":2850:2865  block.timestamp */\n      timestamp\n        /* \"Campaign.sol\":2819:2829  stakedTime */\n      0x07\n        /* \"Campaign.sol\":2819:2841  stakedTime[msg.sender] */\n      0x00\n        /* \"Campaign.sol\":2830:2840  msg.sender */\n      caller\n        /* \"Campaign.sol\":2819:2841  stakedTime[msg.sender] */\n      0xffffffffffffffffffffffffffffffffffffffff\n      and\n      0xffffffffffffffffffffffffffffffffffffffff\n      and\n      dup2\n      mstore\n      0x20\n      add\n      swap1\n      dup2\n      mstore\n      0x20\n      add\n      0x00\n      keccak256\n        /* \"Campaign.sol\":2842:2846  pool */\n      dup3\n        /* \"Campaign.sol\":2819:2847  stakedTime[msg.sender][pool] */\n      dup2\n      sload\n      dup2\n      lt\n      tag_175\n      jumpi\n      tag_176\n      tag_172\n      jump\t// in\n    tag_176:\n    tag_175:\n      swap1\n      0x00\n      mstore\n      keccak256(0x00, 0x20)\n      add\n      sload\n        /* \"Campaign.sol\":2819:2865  stakedTime[msg.sender][pool] < block.timestamp */\n      lt\n        /* \"Campaign.sol\":2811:2877  require(stakedTime[msg.sender][pool] < block.timestamp, \"Not yet\") */\n      tag_178\n      jumpi\n      mload(0x40)\n      0x08c379a000000000000000000000000000000000000000000000000000000000\n      dup2\n      mstore\n      0x04\n      add\n      tag_179\n      swap1\n      tag_180\n      jump\t// in\n    tag_179:\n      mload(0x40)\n      dup1\n      swap2\n      sub\n      swap1\n      revert\n    tag_178:\n        /* \"Campaign.sol\":2896:2906  msg.sender */\n      caller\n        /* \"Campaign.sol\":2888:2916  payable(msg.sender).transfer */\n      0xffffffffffffffffffffffffffffffffffffffff\n      and\n        /* \"Campaign.sol\":2888:2943  payable(msg.sender).transfer(rewards[msg.sender][pool]) */\n      0x08fc\n        /* \"Campaign.sol\":2917:2924  rewards */\n      0x08\n        /* \"Campaign.sol\":2917:2936  rewards[msg.sender] */\n      0x00\n        /* \"Campaign.sol\":2925:2935  msg.sender */\n      caller\n        /* \"Campaign.sol\":2917:2936  rewards[msg.sender] */\n      0xffffffffffffffffffffffffffffffffffffffff\n      and\n      0xffffffffffffffffffffffffffffffffffffffff\n      and\n      dup2\n      mstore\n      0x20\n      add\n      swap1\n      dup2\n      mstore\n      0x20\n      add\n      0x00\n      keccak256\n        /* \"Campaign.sol\":2937:2941  pool */\n      dup4\n        /* \"Campaign.sol\":2917:2942  rewards[msg.sender][pool] */\n      dup2\n      sload\n      dup2\n      lt\n      tag_181\n      jumpi\n      tag_182\n      tag_172\n      jump\t// in\n    tag_182:\n    tag_181:\n      swap1\n      0x00\n      mstore\n      keccak256(0x00, 0x20)\n      add\n      sload\n        /* \"Campaign.sol\":2888:2943  payable(msg.sender).transfer(rewards[msg.sender][pool]) */\n      swap1\n      dup2\n      iszero\n      mul\n      swap1\n      mload(0x40)\n      0x00\n      mload(0x40)\n      dup1\n      dup4\n      sub\n      dup2\n      dup6\n      dup9\n      dup9\n      call\n      swap4\n      pop\n      pop\n      pop\n      pop\n      iszero\n      dup1\n      iszero\n      tag_185\n      jumpi\n      returndatasize\n      0x00\n      dup1\n      returndatacopy\n      revert(0x00, returndatasize)\n    tag_185:\n      pop\n        /* \"Campaign.sol\":2970:2976  staked */\n      0x05\n        /* \"Campaign.sol\":2970:2988  staked[msg.sender] */\n      0x00\n        /* \"Campaign.sol\":2977:2987  msg.sender */\n      caller\n        /* \"Campaign.sol\":2970:2988  staked[msg.sender] */\n      0xffffffffffffffffffffffffffffffffffffffff\n      and\n      0xffffffffffffffffffffffffffffffffffffffff\n      and\n      dup2\n      mstore\n      0x20\n      add\n      swap1\n      dup2\n      mstore\n      0x20\n      add\n      0x00\n      keccak256\n        /* \"Campaign.sol\":2989:2993  pool */\n      dup2\n        /* \"Campaign.sol\":2970:2994  staked[msg.sender][pool] */\n      dup2\n      sload\n      dup2\n      lt\n      tag_186\n      jumpi\n      tag_187\n      tag_172\n      jump\t// in\n    tag_187:\n    tag_186:\n      swap1\n      0x00\n      mstore\n      keccak256(0x00, 0x20)\n      add\n      sload\n        /* \"Campaign.sol\":2954:2966  stakedSupply */\n      0x02\n      0x00\n        /* \"Campaign.sol\":2954:2994  stakedSupply -= staked[msg.sender][pool] */\n      dup3\n      dup3\n      sload\n      tag_189\n      swap2\n      swap1\n      tag_190\n      jump\t// in\n    tag_189:\n      swap3\n      pop\n      pop\n      dup2\n      swap1\n      sstore\n      pop\n        /* \"Campaign.sol\":3034:3040  staked */\n      0x05\n        /* \"Campaign.sol\":3034:3052  staked[msg.sender] */\n      0x00\n        /* \"Campaign.sol\":3041:3051  msg.sender */\n      caller\n        /* \"Campaign.sol\":3034:3052  staked[msg.sender] */\n      0xffffffffffffffffffffffffffffffffffffffff\n      and\n      0xffffffffffffffffffffffffffffffffffffffff\n      and\n      dup2\n      mstore\n      0x20\n      add\n      swap1\n      dup2\n      mstore\n      0x20\n      add\n      0x00\n      keccak256\n        /* \"Campaign.sol\":3053:3057  pool */\n      dup2\n        /* \"Campaign.sol\":3034:3058  staked[msg.sender][pool] */\n      dup2\n      sload\n      dup2\n      lt\n      tag_191\n      jumpi\n      tag_192\n      tag_172\n      jump\t// in\n    tag_192:\n    tag_191:\n      swap1\n      0x00\n      mstore\n      keccak256(0x00, 0x20)\n      add\n      sload\n        /* \"Campaign.sol\":3005:3018  overallStaked */\n      0x06\n        /* \"Campaign.sol\":3005:3030  overallStaked[msg.sender] */\n      0x00\n        /* \"Campaign.sol\":3019:3029  msg.sender */\n      caller\n        /* \"Campaign.sol\":3005:3030  overallStaked[msg.sender] */\n      0xffffffffffffffffffffffffffffffffffffffff\n      and\n      0xffffffffffffffffffffffffffffffffffffffff\n      and\n      dup2\n      mstore\n      0x20\n      add\n      swap1\n      dup2\n      mstore\n      0x20\n      add\n      0x00\n      keccak256\n      0x00\n        /* \"Campaign.sol\":3005:3058  overallStaked[msg.sender] -= staked[msg.sender][pool] */\n      dup3\n      dup3\n      sload\n      tag_194\n      swap2\n      swap1\n      tag_190\n      jump\t// in\n    tag_194:\n      swap3\n      pop\n      pop\n      dup2\n      swap1\n      sstore\n      pop\n        /* \"Campaign.sol\":3092:3098  staked */\n      0x05\n        /* \"Campaign.sol\":3092:3110  staked[msg.sender] */\n      0x00\n        /* \"Campaign.sol\":3099:3109  msg.sender */\n      caller\n        /* \"Campaign.sol\":3092:3110  staked[msg.sender] */\n      0xffffffffffffffffffffffffffffffffffffffff\n      and\n      0xffffffffffffffffffffffffffffffffffffffff\n      and\n      dup2\n      mstore\n      0x20\n      add\n      swap1\n      dup2\n      mstore\n      0x20\n      add\n      0x00\n      keccak256\n        /* \"Campaign.sol\":3111:3115  pool */\n      dup2\n        /* \"Campaign.sol\":3092:3116  staked[msg.sender][pool] */\n      dup2\n      sload\n      dup2\n      lt\n      tag_195\n      jumpi\n      tag_196\n      tag_172\n      jump\t// in\n    tag_196:\n    tag_195:\n      swap1\n      0x00\n      mstore\n      keccak256(0x00, 0x20)\n      add\n      sload\n        /* \"Campaign.sol\":3069:3076  holders */\n      0x04\n        /* \"Campaign.sol\":3069:3088  holders[msg.sender] */\n      0x00\n        /* \"Campaign.sol\":3077:3087  msg.sender */\n      caller\n        /* \"Campaign.sol\":3069:3088  holders[msg.sender] */\n      0xffffffffffffffffffffffffffffffffffffffff\n      and\n      0xffffffffffffffffffffffffffffffffffffffff\n      and\n      dup2\n      mstore\n      0x20\n      add\n      swap1\n      dup2\n      mstore\n      0x20\n      add\n      0x00\n      keccak256\n      0x00\n        /* \"Campaign.sol\":3069:3116  holders[msg.sender] += staked[msg.sender][pool] */\n      dup3\n      dup3\n      sload\n      tag_198\n      swap2\n      swap1\n      tag_160\n      jump\t// in\n    tag_198:\n      swap3\n      pop\n      pop\n      dup2\n      swap1\n      sstore\n      pop\n        /* \"Campaign.sol\":3129:3147  uint lastElemIndex */\n      0x00\n        /* \"Campaign.sol\":3178:3179  1 */\n      0x01\n        /* \"Campaign.sol\":3150:3156  staked */\n      0x05\n        /* \"Campaign.sol\":3150:3168  staked[msg.sender] */\n      0x00\n        /* \"Campaign.sol\":3157:3167  msg.sender */\n      caller\n        /* \"Campaign.sol\":3150:3168  staked[msg.sender] */\n      0xffffffffffffffffffffffffffffffffffffffff\n      and\n      0xffffffffffffffffffffffffffffffffffffffff\n      and\n      dup2\n      mstore\n      0x20\n      add\n      swap1\n      dup2\n      mstore\n      0x20\n      add\n      0x00\n      keccak256\n        /* \"Campaign.sol\":3150:3175  staked[msg.sender].length */\n      dup1\n      sload\n      swap1\n      pop\n        /* \"Campaign.sol\":3150:3179  staked[msg.sender].length - 1 */\n      tag_199\n      swap2\n      swap1\n      tag_190\n      jump\t// in\n    tag_199:\n        /* \"Campaign.sol\":3129:3179  uint lastElemIndex = staked[msg.sender].length - 1 */\n      swap1\n      pop\n        /* \"Campaign.sol\":3217:3223  staked */\n      0x05\n        /* \"Campaign.sol\":3217:3235  staked[msg.sender] */\n      0x00\n        /* \"Campaign.sol\":3224:3234  msg.sender */\n      caller\n        /* \"Campaign.sol\":3217:3235  staked[msg.sender] */\n      0xffffffffffffffffffffffffffffffffffffffff\n      and\n      0xffffffffffffffffffffffffffffffffffffffff\n      and\n      dup2\n      mstore\n      0x20\n      add\n      swap1\n      dup2\n      mstore\n      0x20\n      add\n      0x00\n      keccak256\n        /* \"Campaign.sol\":3236:3249  lastElemIndex */\n      dup2\n        /* \"Campaign.sol\":3217:3250  staked[msg.sender][lastElemIndex] */\n      dup2\n      sload\n      dup2\n      lt\n      tag_200\n      jumpi\n      tag_201\n      tag_172\n      jump\t// in\n    tag_201:\n    tag_200:\n      swap1\n      0x00\n      mstore\n      keccak256(0x00, 0x20)\n      add\n      sload\n        /* \"Campaign.sol\":3190:3196  staked */\n      0x05\n        /* \"Campaign.sol\":3190:3208  staked[msg.sender] */\n      0x00\n        /* \"Campaign.sol\":3197:3207  msg.sender */\n      caller\n        /* \"Campaign.sol\":3190:3208  staked[msg.sender] */\n      0xffffffffffffffffffffffffffffffffffffffff\n      and\n      0xffffffffffffffffffffffffffffffffffffffff\n      and\n      dup2\n      mstore\n      0x20\n      add\n      swap1\n      dup2\n      mstore\n      0x20\n      add\n      0x00\n      keccak256\n        /* \"Campaign.sol\":3209:3213  pool */\n      dup4\n        /* \"Campaign.sol\":3190:3214  staked[msg.sender][pool] */\n      dup2\n      sload\n      dup2\n      lt\n      tag_203\n      jumpi\n      tag_204\n      tag_172\n      jump\t// in\n    tag_204:\n    tag_203:\n      swap1\n      0x00\n      mstore\n      keccak256(0x00, 0x20)\n      add\n        /* \"Campaign.sol\":3190:3250  staked[msg.sender][pool] = staked[msg.sender][lastElemIndex] */\n      dup2\n      swap1\n      sstore\n      pop\n        /* \"Campaign.sol\":3292:3302  stakedTime */\n      0x07\n        /* \"Campaign.sol\":3292:3314  stakedTime[msg.sender] */\n      0x00\n        /* \"Campaign.sol\":3303:3313  msg.sender */\n      caller\n        /* \"Campaign.sol\":3292:3314  stakedTime[msg.sender] */\n      0xffffffffffffffffffffffffffffffffffffffff\n      and\n      0xffffffffffffffffffffffffffffffffffffffff\n      and\n      dup2\n      mstore\n      0x20\n      add\n      swap1\n      dup2\n      mstore\n      0x20\n      add\n      0x00\n      keccak256\n        /* \"Campaign.sol\":3315:3328  lastElemIndex */\n      dup2\n        /* \"Campaign.sol\":3292:3329  stakedTime[msg.sender][lastElemIndex] */\n      dup2\n      sload\n      dup2\n      lt\n      tag_206\n      jumpi\n      tag_207\n      tag_172\n      jump\t// in\n    tag_207:\n    tag_206:\n      swap1\n      0x00\n      mstore\n      keccak256(0x00, 0x20)\n      add\n      sload\n        /* \"Campaign.sol\":3261:3271  stakedTime */\n      0x07\n        /* \"Campaign.sol\":3261:3283  stakedTime[msg.sender] */\n      0x00\n        /* \"Campaign.sol\":3272:3282  msg.sender */\n      caller\n        /* \"Campaign.sol\":3261:3283  stakedTime[msg.sender] */\n      0xffffffffffffffffffffffffffffffffffffffff\n      and\n      0xffffffffffffffffffffffffffffffffffffffff\n      and\n      dup2\n      mstore\n      0x20\n      add\n      swap1\n      dup2\n      mstore\n      0x20\n      add\n      0x00\n      keccak256\n        /* \"Campaign.sol\":3284:3288  pool */\n      dup4\n        /* \"Campaign.sol\":3261:3289  stakedTime[msg.sender][pool] */\n      dup2\n      sload\n      dup2\n      lt\n      tag_209\n      jumpi\n      tag_210\n      tag_172\n      jump\t// in\n    tag_210:\n    tag_209:\n      swap1\n      0x00\n      mstore\n      keccak256(0x00, 0x20)\n      add\n        /* \"Campaign.sol\":3261:3329  stakedTime[msg.sender][pool] = stakedTime[msg.sender][lastElemIndex] */\n      dup2\n      swap1\n      sstore\n      pop\n        /* \"Campaign.sol\":3368:3375  rewards */\n      0x08\n        /* \"Campaign.sol\":3368:3387  rewards[msg.sender] */\n      0x00\n        /* \"Campaign.sol\":3376:3386  msg.sender */\n      caller\n        /* \"Campaign.sol\":3368:3387  rewards[msg.sender] */\n      0xffffffffffffffffffffffffffffffffffffffff\n      and\n      0xffffffffffffffffffffffffffffffffffffffff\n      and\n      dup2\n      mstore\n      0x20\n      add\n      swap1\n      dup2\n      mstore\n      0x20\n      add\n      0x00\n      keccak256\n        /* \"Campaign.sol\":3388:3401  lastElemIndex */\n      dup2\n        /* \"Campaign.sol\":3368:3402  rewards[msg.sender][lastElemIndex] */\n      dup2\n      sload\n      dup2\n      lt\n      tag_212\n      jumpi\n      tag_213\n      tag_172\n      jump\t// in\n    tag_213:\n    tag_212:\n      swap1\n      0x00\n      mstore\n      keccak256(0x00, 0x20)\n      add\n      sload\n        /* \"Campaign.sol\":3340:3347  rewards */\n      0x08\n        /* \"Campaign.sol\":3340:3359  rewards[msg.sender] */\n      0x00\n        /* \"Campaign.sol\":3348:3358  msg.sender */\n      caller\n        /* \"Campaign.sol\":3340:3359  rewards[msg.sender] */\n      0xffffffffffffffffffffffffffffffffffffffff\n      and\n      0xffffffffffffffffffffffffffffffffffffffff\n      and\n      dup2\n      mstore\n      0x20\n      add\n      swap1\n      dup2\n      mstore\n      0x20\n      add\n      0x00\n      keccak256\n        /* \"Campaign.sol\":3360:3364  pool */\n      dup4\n        /* \"Campaign.sol\":3340:3365  rewards[msg.sender][pool] */\n      dup2\n      sload\n      dup2\n      lt\n      tag_215\n      jumpi\n      tag_216\n      tag_172\n      jump\t// in\n    tag_216:\n    tag_215:\n      swap1\n      0x00\n      mstore\n      keccak256(0x00, 0x20)\n      add\n        /* \"Campaign.sol\":3340:3402  rewards[msg.sender][pool] = rewards[msg.sender][lastElemIndex] */\n      dup2\n      swap1\n      sstore\n      pop\n        /* \"Campaign.sol\":3415:3421  staked */\n      0x05\n        /* \"Campaign.sol\":3415:3433  staked[msg.sender] */\n      0x00\n        /* \"Campaign.sol\":3422:3432  msg.sender */\n      caller\n        /* \"Campaign.sol\":3415:3433  staked[msg.sender] */\n      0xffffffffffffffffffffffffffffffffffffffff\n      and\n      0xffffffffffffffffffffffffffffffffffffffff\n      and\n      dup2\n      mstore\n      0x20\n      add\n      swap1\n      dup2\n      mstore\n      0x20\n      add\n      0x00\n      keccak256\n        /* \"Campaign.sol\":3415:3439  staked[msg.sender].pop() */\n      dup1\n      sload\n      dup1\n      tag_218\n      jumpi\n      tag_219\n      tag_220\n      jump\t// in\n    tag_219:\n    tag_218:\n      0x01\n      swap1\n      sub\n      dup2\n      dup2\n      swap1\n      0x00\n      mstore\n      keccak256(0x00, 0x20)\n      add\n      0x00\n      swap1\n      sstore\n      swap1\n      sstore\n        /* \"Campaign.sol\":3450:3460  stakedTime */\n      0x07\n        /* \"Campaign.sol\":3450:3472  stakedTime[msg.sender] */\n      0x00\n        /* \"Campaign.sol\":3461:3471  msg.sender */\n      caller\n        /* \"Campaign.sol\":3450:3472  stakedTime[msg.sender] */\n      0xffffffffffffffffffffffffffffffffffffffff\n      and\n      0xffffffffffffffffffffffffffffffffffffffff\n      and\n      dup2\n      mstore\n      0x20\n      add\n      swap1\n      dup2\n      mstore\n      0x20\n      add\n      0x00\n      keccak256\n        /* \"Campaign.sol\":3450:3478  stakedTime[msg.sender].pop() */\n      dup1\n      sload\n      dup1\n      tag_222\n      jumpi\n      tag_223\n      tag_220\n      jump\t// in\n    tag_223:\n    tag_222:\n      0x01\n      swap1\n      sub\n      dup2\n      dup2\n      swap1\n      0x00\n      mstore\n      keccak256(0x00, 0x20)\n      add\n      0x00\n      swap1\n      sstore\n      swap1\n      sstore\n        /* \"Campaign.sol\":3489:3496  rewards */\n      0x08\n        /* \"Campaign.sol\":3489:3508  rewards[msg.sender] */\n      0x00\n        /* \"Campaign.sol\":3497:3507  msg.sender */\n      caller\n        /* \"Campaign.sol\":3489:3508  rewards[msg.sender] */\n      0xffffffffffffffffffffffffffffffffffffffff\n      and\n      0xffffffffffffffffffffffffffffffffffffffff\n      and\n      dup2\n      mstore\n      0x20\n      add\n      swap1\n      dup2\n      mstore\n      0x20\n      add\n      0x00\n      keccak256\n        /* \"Campaign.sol\":3489:3514  rewards[msg.sender].pop() */\n      dup1\n      sload\n      dup1\n      tag_225\n      jumpi\n      tag_226\n      tag_220\n      jump\t// in\n    tag_226:\n    tag_225:\n      0x01\n      swap1\n      sub\n      dup2\n      dup2\n      swap1\n      0x00\n      mstore\n      keccak256(0x00, 0x20)\n      add\n      0x00\n      swap1\n      sstore\n      swap1\n      sstore\n        /* \"Campaign.sol\":2800:3522  {... */\n      pop\n        /* \"Campaign.sol\":2752:3522  function withdrawStake(uint pool) public payable{... */\n      pop\n      jump\t// out\n        /* \"Campaign.sol\":1677:1704  uint256 public numProposals */\n    tag_70:\n      sload(0x0c)\n      dup2\n      jump\t// out\n        /* \"Campaign.sol\":1046:1092  mapping (address => uint []) public stakedTime */\n    tag_76:\n      mstore(0x20, 0x07)\n      dup2\n      0x00\n      mstore\n      keccak256(0x00, 0x40)\n      dup2\n      dup2\n      sload\n      dup2\n      lt\n      tag_228\n      jumpi\n      0x00\n      dup1\n      revert\n    tag_228:\n      swap1\n      0x00\n      mstore\n      keccak256(0x00, 0x20)\n      add\n      0x00\n      swap2\n      pop\n      swap2\n      pop\n      pop\n      sload\n      dup2\n      jump\t// out\n        /* \"Campaign.sol\":4220:5038  function createProposal(string memory title, string memory description) public {... */\n    tag_82:\n        /* \"Campaign.sol\":4347:4351  5000 */\n      0x1388\n        /* \"Campaign.sol\":4318:4331  overallStaked */\n      0x06\n        /* \"Campaign.sol\":4318:4343  overallStaked[msg.sender] */\n      0x00\n        /* \"Campaign.sol\":4332:4342  msg.sender */\n      caller\n        /* \"Campaign.sol\":4318:4343  overallStaked[msg.sender] */\n      0xffffffffffffffffffffffffffffffffffffffff\n      and\n      0xffffffffffffffffffffffffffffffffffffffff\n      and\n      dup2\n      mstore\n      0x20\n      add\n      swap1\n      dup2\n      mstore\n      0x20\n      add\n      0x00\n      keccak256\n      sload\n        /* \"Campaign.sol\":4318:4351  overallStaked[msg.sender] >= 5000 */\n      lt\n      iszero\n        /* \"Campaign.sol\":4310:4407  require(overallStaked[msg.sender] >= 5000, \"You don't have enough tokens to qualify as delegate\") */\n      tag_231\n      jumpi\n      mload(0x40)\n      0x08c379a000000000000000000000000000000000000000000000000000000000\n      dup2\n      mstore\n      0x04\n      add\n      tag_232\n      swap1\n      tag_233\n      jump\t// in\n    tag_232:\n      mload(0x40)\n      dup1\n      swap2\n      sub\n      swap1\n      revert\n    tag_231:\n        /* \"Campaign.sol\":4418:4443  Proposal storage proposal */\n      0x00\n        /* \"Campaign.sol\":4446:4455  proposals */\n      0x0b\n        /* \"Campaign.sol\":4446:4471  proposals[numProposals++] */\n      0x00\n        /* \"Campaign.sol\":4456:4468  numProposals */\n      0x0c\n      0x00\n        /* \"Campaign.sol\":4456:4470  numProposals++ */\n      dup2\n      sload\n      dup1\n      swap3\n      swap2\n      swap1\n      tag_234\n      swap1\n      tag_235\n      jump\t// in\n    tag_234:\n      swap2\n      swap1\n      pop\n      sstore\n        /* \"Campaign.sol\":4446:4471  proposals[numProposals++] */\n      dup2\n      mstore\n      0x20\n      add\n      swap1\n      dup2\n      mstore\n      0x20\n      add\n      0x00\n      keccak256\n        /* \"Campaign.sol\":4418:4471  Proposal storage proposal = proposals[numProposals++] */\n      swap1\n      pop\n        /* \"Campaign.sol\":4515:4516  1 */\n      0x01\n        /* \"Campaign.sol\":4500:4512  numProposals */\n      sload(0x0c)\n        /* \"Campaign.sol\":4500:4516  numProposals - 1 */\n      tag_236\n      swap2\n      swap1\n      tag_190\n      jump\t// in\n    tag_236:\n        /* \"Campaign.sol\":4482:4490  proposal */\n      dup2\n        /* \"Campaign.sol\":4482:4497  proposal.number */\n      0x00\n      add\n        /* \"Campaign.sol\":4482:4516  proposal.number = numProposals - 1 */\n      dup2\n      swap1\n      sstore\n      pop\n        /* \"Campaign.sol\":4544:4549  title */\n      dup3\n        /* \"Campaign.sol\":4527:4535  proposal */\n      dup2\n        /* \"Campaign.sol\":4527:4541  proposal.title */\n      0x01\n      add\n        /* \"Campaign.sol\":4527:4549  proposal.title = title */\n      swap1\n      dup1\n      mload\n      swap1\n      0x20\n      add\n      swap1\n      tag_237\n      swap3\n      swap2\n      swap1\n      tag_238\n      jump\t// in\n    tag_237:\n      pop\n        /* \"Campaign.sol\":4583:4594  description */\n      dup2\n        /* \"Campaign.sol\":4560:4568  proposal */\n      dup2\n        /* \"Campaign.sol\":4560:4580  proposal.description */\n      0x02\n      add\n        /* \"Campaign.sol\":4560:4594  proposal.description = description */\n      swap1\n      dup1\n      mload\n      swap1\n      0x20\n      add\n      swap1\n      tag_239\n      swap3\n      swap2\n      swap1\n      tag_238\n      jump\t// in\n    tag_239:\n      pop\n        /* \"Campaign.sol\":4625:4635  msg.sender */\n      caller\n        /* \"Campaign.sol\":4605:4613  proposal */\n      dup2\n        /* \"Campaign.sol\":4605:4622  proposal.delegate */\n      0x03\n      add\n      0x00\n        /* \"Campaign.sol\":4605:4635  proposal.delegate = msg.sender */\n      0x0100\n      exp\n      dup2\n      sload\n      dup2\n      0xffffffffffffffffffffffffffffffffffffffff\n      mul\n      not\n      and\n      swap1\n      dup4\n      0xffffffffffffffffffffffffffffffffffffffff\n      and\n      mul\n      or\n      swap1\n      sstore\n      pop\n        /* \"Campaign.sol\":4666:4667  0 */\n      0x00\n        /* \"Campaign.sol\":4646:4654  proposal */\n      dup2\n        /* \"Campaign.sol\":4646:4663  proposal.yayCount */\n      0x07\n      add\n        /* \"Campaign.sol\":4646:4667  proposal.yayCount = 0 */\n      dup2\n      swap1\n      sstore\n      pop\n        /* \"Campaign.sol\":4698:4699  0 */\n      0x00\n        /* \"Campaign.sol\":4678:4686  proposal */\n      dup2\n        /* \"Campaign.sol\":4678:4695  proposal.nayCount */\n      0x08\n      add\n        /* \"Campaign.sol\":4678:4699  proposal.nayCount = 0 */\n      dup2\n      swap1\n      sstore\n      pop\n        /* \"Campaign.sol\":4730:4735  false */\n      0x00\n        /* \"Campaign.sol\":4710:4718  proposal */\n      dup2\n        /* \"Campaign.sol\":4710:4727  proposal.complete */\n      0x0a\n      add\n      0x00\n        /* \"Campaign.sol\":4710:4735  proposal.complete = false */\n      0x0100\n      exp\n      dup2\n      sload\n      dup2\n      0xff\n      mul\n      not\n      and\n      swap1\n      dup4\n      iszero\n      iszero\n      mul\n      or\n      swap1\n      sstore\n      pop\n        /* \"Campaign.sol\":4768:4773  false */\n      0x00\n        /* \"Campaign.sol\":4746:4754  proposal */\n      dup2\n        /* \"Campaign.sol\":4746:4765  proposal.yayBoolean */\n      0x0a\n      add\n      0x01\n        /* \"Campaign.sol\":4746:4773  proposal.yayBoolean = false */\n      0x0100\n      exp\n      dup2\n      sload\n      dup2\n      0xff\n      mul\n      not\n      and\n      swap1\n      dup4\n      iszero\n      iszero\n      mul\n      or\n      swap1\n      sstore\n      pop\n        /* \"Campaign.sol\":4784:4797  uint required */\n      0x00\n        /* \"Campaign.sol\":4816:4822  uint i */\n      dup1\n        /* \"Campaign.sol\":4812:4988  for(uint i = 0; i < stakers.length; i++) {... */\n    tag_240:\n        /* \"Campaign.sol\":4832:4839  stakers */\n      0x0a\n        /* \"Campaign.sol\":4832:4846  stakers.length */\n      dup1\n      sload\n      swap1\n      pop\n        /* \"Campaign.sol\":4828:4829  i */\n      dup2\n        /* \"Campaign.sol\":4828:4846  i < stakers.length */\n      lt\n        /* \"Campaign.sol\":4812:4988  for(uint i = 0; i < stakers.length; i++) {... */\n      iszero\n      tag_241\n      jumpi\n        /* \"Campaign.sol\":4879:4892  overallStaked */\n      0x06\n        /* \"Campaign.sol\":4879:4904  overallStaked[stakers[i]] */\n      0x00\n        /* \"Campaign.sol\":4893:4900  stakers */\n      0x0a\n        /* \"Campaign.sol\":4901:4902  i */\n      dup4\n        /* \"Campaign.sol\":4893:4903  stakers[i] */\n      dup2\n      sload\n      dup2\n      lt\n      tag_243\n      jumpi\n      tag_244\n      tag_172\n      jump\t// in\n    tag_244:\n    tag_243:\n      swap1\n      0x00\n      mstore\n      keccak256(0x00, 0x20)\n      add\n      0x00\n      swap1\n      sload\n      swap1\n      0x0100\n      exp\n      swap1\n      div\n      0xffffffffffffffffffffffffffffffffffffffff\n      and\n        /* \"Campaign.sol\":4879:4904  overallStaked[stakers[i]] */\n      0xffffffffffffffffffffffffffffffffffffffff\n      and\n      0xffffffffffffffffffffffffffffffffffffffff\n      and\n      dup2\n      mstore\n      0x20\n      add\n      swap1\n      dup2\n      mstore\n      0x20\n      add\n      0x00\n      keccak256\n      sload\n        /* \"Campaign.sol\":4868:4904  required +=overallStaked[stakers[i]] */\n      dup3\n      tag_246\n      swap2\n      swap1\n      tag_160\n      jump\t// in\n    tag_246:\n      swap2\n      pop\n        /* \"Campaign.sol\":4951:4964  overallStaked */\n      0x06\n        /* \"Campaign.sol\":4951:4976  overallStaked[stakers[i]] */\n      0x00\n        /* \"Campaign.sol\":4965:4972  stakers */\n      0x0a\n        /* \"Campaign.sol\":4973:4974  i */\n      dup4\n        /* \"Campaign.sol\":4965:4975  stakers[i] */\n      dup2\n      sload\n      dup2\n      lt\n      tag_247\n      jumpi\n      tag_248\n      tag_172\n      jump\t// in\n    tag_248:\n    tag_247:\n      swap1\n      0x00\n      mstore\n      keccak256(0x00, 0x20)\n      add\n      0x00\n      swap1\n      sload\n      swap1\n      0x0100\n      exp\n      swap1\n      div\n      0xffffffffffffffffffffffffffffffffffffffff\n      and\n        /* \"Campaign.sol\":4951:4976  overallStaked[stakers[i]] */\n      0xffffffffffffffffffffffffffffffffffffffff\n      and\n      0xffffffffffffffffffffffffffffffffffffffff\n      and\n      dup2\n      mstore\n      0x20\n      add\n      swap1\n      dup2\n      mstore\n      0x20\n      add\n      0x00\n      keccak256\n      sload\n        /* \"Campaign.sol\":4919:4927  proposal */\n      dup4\n        /* \"Campaign.sol\":4919:4936  proposal.snapshot */\n      0x04\n      add\n        /* \"Campaign.sol\":4919:4948  proposal.snapshot[stakers[i]] */\n      0x00\n        /* \"Campaign.sol\":4937:4944  stakers */\n      0x0a\n        /* \"Campaign.sol\":4945:4946  i */\n      dup5\n        /* \"Campaign.sol\":4937:4947  stakers[i] */\n      dup2\n      sload\n      dup2\n      lt\n      tag_250\n      jumpi\n      tag_251\n      tag_172\n      jump\t// in\n    tag_251:\n    tag_250:\n      swap1\n      0x00\n      mstore\n      keccak256(0x00, 0x20)\n      add\n      0x00\n      swap1\n      sload\n      swap1\n      0x0100\n      exp\n      swap1\n      div\n      0xffffffffffffffffffffffffffffffffffffffff\n      and\n        /* \"Campaign.sol\":4919:4948  proposal.snapshot[stakers[i]] */\n      0xffffffffffffffffffffffffffffffffffffffff\n      and\n      0xffffffffffffffffffffffffffffffffffffffff\n      and\n      dup2\n      mstore\n      0x20\n      add\n      swap1\n      dup2\n      mstore\n      0x20\n      add\n      0x00\n      keccak256\n        /* \"Campaign.sol\":4919:4976  proposal.snapshot[stakers[i]] = overallStaked[stakers[i]] */\n      dup2\n      swap1\n      sstore\n      pop\n        /* \"Campaign.sol\":4848:4851  i++ */\n      dup1\n      dup1\n      tag_253\n      swap1\n      tag_235\n      jump\t// in\n    tag_253:\n      swap2\n      pop\n      pop\n        /* \"Campaign.sol\":4812:4988  for(uint i = 0; i < stakers.length; i++) {... */\n      jump(tag_240)\n    tag_241:\n      pop\n        /* \"Campaign.sol\":5029:5030  2 */\n      0x02\n        /* \"Campaign.sol\":5018:5026  required */\n      dup2\n        /* \"Campaign.sol\":5018:5030  required / 2 */\n      tag_254\n      swap2\n      swap1\n      tag_162\n      jump\t// in\n    tag_254:\n        /* \"Campaign.sol\":4998:5006  proposal */\n      dup3\n        /* \"Campaign.sol\":4998:5015  proposal.required */\n      0x09\n      add\n        /* \"Campaign.sol\":4998:5030  proposal.required = required / 2 */\n      dup2\n      swap1\n      sstore\n      pop\n        /* \"Campaign.sol\":4299:5038  {... */\n      pop\n      pop\n        /* \"Campaign.sol\":4220:5038  function createProposal(string memory title, string memory description) public {... */\n      pop\n      pop\n      jump\t// out\n        /* \"Campaign.sol\":757:777  address public owner */\n    tag_85:\n      0x00\n      dup1\n      sload\n      swap1\n      0x0100\n      exp\n      swap1\n      div\n      0xffffffffffffffffffffffffffffffffffffffff\n      and\n      dup2\n      jump\t// out\n        /* \"Campaign.sol\":941:983  mapping (address => uint []) public staked */\n    tag_91:\n      mstore(0x20, 0x05)\n      dup2\n      0x00\n      mstore\n      keccak256(0x00, 0x40)\n      dup2\n      dup2\n      sload\n      dup2\n      lt\n      tag_255\n      jumpi\n      0x00\n      dup1\n      revert\n    tag_255:\n      swap1\n      0x00\n      mstore\n      keccak256(0x00, 0x20)\n      add\n      0x00\n      swap2\n      pop\n      swap2\n      pop\n      pop\n      sload\n      dup2\n      jump\t// out\n        /* \"Campaign.sol\":5435:5812  function voteYay(uint256 index) public restrictedVoting(index) {... */\n    tag_96:\n        /* \"Campaign.sol\":5491:5496  index */\n      dup1\n        /* \"Campaign.sol\":5146:5147  0 */\n      0x00\n        /* \"Campaign.sol\":5106:5115  proposals */\n      0x0b\n        /* \"Campaign.sol\":5106:5122  proposals[index] */\n      0x00\n        /* \"Campaign.sol\":5116:5121  index */\n      dup4\n        /* \"Campaign.sol\":5106:5122  proposals[index] */\n      dup2\n      mstore\n      0x20\n      add\n      swap1\n      dup2\n      mstore\n      0x20\n      add\n      0x00\n      keccak256\n        /* \"Campaign.sol\":5106:5131  proposals[index].snapshot */\n      0x04\n      add\n        /* \"Campaign.sol\":5106:5143  proposals[index].snapshot[msg.sender] */\n      0x00\n        /* \"Campaign.sol\":5132:5142  msg.sender */\n      caller\n        /* \"Campaign.sol\":5106:5143  proposals[index].snapshot[msg.sender] */\n      0xffffffffffffffffffffffffffffffffffffffff\n      and\n      0xffffffffffffffffffffffffffffffffffffffff\n      and\n      dup2\n      mstore\n      0x20\n      add\n      swap1\n      dup2\n      mstore\n      0x20\n      add\n      0x00\n      keccak256\n      sload\n        /* \"Campaign.sol\":5106:5147  proposals[index].snapshot[msg.sender] > 0 */\n      gt\n        /* \"Campaign.sol\":5098:5185  require(proposals[index].snapshot[msg.sender] > 0, \"You don't have permission to vote\") */\n      tag_258\n      jumpi\n      mload(0x40)\n      0x08c379a000000000000000000000000000000000000000000000000000000000\n      dup2\n      mstore\n      0x04\n      add\n      tag_259\n      swap1\n      tag_149\n      jump\t// in\n    tag_259:\n      mload(0x40)\n      dup1\n      swap2\n      sub\n      swap1\n      revert\n    tag_258:\n        /* \"Campaign.sol\":5205:5214  proposals */\n      0x0b\n        /* \"Campaign.sol\":5205:5221  proposals[index] */\n      0x00\n        /* \"Campaign.sol\":5215:5220  index */\n      dup3\n        /* \"Campaign.sol\":5205:5221  proposals[index] */\n      dup2\n      mstore\n      0x20\n      add\n      swap1\n      dup2\n      mstore\n      0x20\n      add\n      0x00\n      keccak256\n        /* \"Campaign.sol\":5205:5225  proposals[index].yay */\n      0x05\n      add\n        /* \"Campaign.sol\":5205:5237  proposals[index].yay[msg.sender] */\n      0x00\n        /* \"Campaign.sol\":5226:5236  msg.sender */\n      caller\n        /* \"Campaign.sol\":5205:5237  proposals[index].yay[msg.sender] */\n      0xffffffffffffffffffffffffffffffffffffffff\n      and\n      0xffffffffffffffffffffffffffffffffffffffff\n      and\n      dup2\n      mstore\n      0x20\n      add\n      swap1\n      dup2\n      mstore\n      0x20\n      add\n      0x00\n      keccak256\n      0x00\n      swap1\n      sload\n      swap1\n      0x0100\n      exp\n      swap1\n      div\n      0xff\n      and\n        /* \"Campaign.sol\":5204:5237  !proposals[index].yay[msg.sender] */\n      iszero\n        /* \"Campaign.sol\":5196:5259  require(!proposals[index].yay[msg.sender], \"You already voted\") */\n      tag_260\n      jumpi\n      mload(0x40)\n      0x08c379a000000000000000000000000000000000000000000000000000000000\n      dup2\n      mstore\n      0x04\n      add\n      tag_261\n      swap1\n      tag_152\n      jump\t// in\n    tag_261:\n      mload(0x40)\n      dup1\n      swap2\n      sub\n      swap1\n      revert\n    tag_260:\n        /* \"Campaign.sol\":5279:5288  proposals */\n      0x0b\n        /* \"Campaign.sol\":5279:5295  proposals[index] */\n      0x00\n        /* \"Campaign.sol\":5289:5294  index */\n      dup3\n        /* \"Campaign.sol\":5279:5295  proposals[index] */\n      dup2\n      mstore\n      0x20\n      add\n      swap1\n      dup2\n      mstore\n      0x20\n      add\n      0x00\n      keccak256\n        /* \"Campaign.sol\":5279:5299  proposals[index].nay */\n      0x06\n      add\n        /* \"Campaign.sol\":5279:5311  proposals[index].nay[msg.sender] */\n      0x00\n        /* \"Campaign.sol\":5300:5310  msg.sender */\n      caller\n        /* \"Campaign.sol\":5279:5311  proposals[index].nay[msg.sender] */\n      0xffffffffffffffffffffffffffffffffffffffff\n      and\n      0xffffffffffffffffffffffffffffffffffffffff\n      and\n      dup2\n      mstore\n      0x20\n      add\n      swap1\n      dup2\n      mstore\n      0x20\n      add\n      0x00\n      keccak256\n      0x00\n      swap1\n      sload\n      swap1\n      0x0100\n      exp\n      swap1\n      div\n      0xff\n      and\n        /* \"Campaign.sol\":5278:5311  !proposals[index].nay[msg.sender] */\n      iszero\n        /* \"Campaign.sol\":5270:5333  require(!proposals[index].nay[msg.sender], \"You already voted\") */\n      tag_262\n      jumpi\n      mload(0x40)\n      0x08c379a000000000000000000000000000000000000000000000000000000000\n      dup2\n      mstore\n      0x04\n      add\n      tag_263\n      swap1\n      tag_152\n      jump\t// in\n    tag_263:\n      mload(0x40)\n      dup1\n      swap2\n      sub\n      swap1\n      revert\n    tag_262:\n        /* \"Campaign.sol\":5353:5362  proposals */\n      0x0b\n        /* \"Campaign.sol\":5353:5369  proposals[index] */\n      0x00\n        /* \"Campaign.sol\":5363:5368  index */\n      dup3\n        /* \"Campaign.sol\":5353:5369  proposals[index] */\n      dup2\n      mstore\n      0x20\n      add\n      swap1\n      dup2\n      mstore\n      0x20\n      add\n      0x00\n      keccak256\n        /* \"Campaign.sol\":5353:5378  proposals[index].complete */\n      0x0a\n      add\n      0x00\n      swap1\n      sload\n      swap1\n      0x0100\n      exp\n      swap1\n      div\n      0xff\n      and\n        /* \"Campaign.sol\":5352:5378  !proposals[index].complete */\n      iszero\n        /* \"Campaign.sol\":5344:5407  require(!proposals[index].complete, \"The proposal is complete\") */\n      tag_264\n      jumpi\n      mload(0x40)\n      0x08c379a000000000000000000000000000000000000000000000000000000000\n      dup2\n      mstore\n      0x04\n      add\n      tag_265\n      swap1\n      tag_157\n      jump\t// in\n    tag_265:\n      mload(0x40)\n      dup1\n      swap2\n      sub\n      swap1\n      revert\n    tag_264:\n        /* \"Campaign.sol\":5543:5547  true */\n      0x01\n        /* \"Campaign.sol\":5508:5517  proposals */\n      0x0b\n        /* \"Campaign.sol\":5508:5524  proposals[index] */\n      0x00\n        /* \"Campaign.sol\":5518:5523  index */\n      dup5\n        /* \"Campaign.sol\":5508:5524  proposals[index] */\n      dup2\n      mstore\n      0x20\n      add\n      swap1\n      dup2\n      mstore\n      0x20\n      add\n      0x00\n      keccak256\n        /* \"Campaign.sol\":5508:5528  proposals[index].yay */\n      0x05\n      add\n        /* \"Campaign.sol\":5508:5540  proposals[index].yay[msg.sender] */\n      0x00\n        /* \"Campaign.sol\":5529:5539  msg.sender */\n      caller\n        /* \"Campaign.sol\":5508:5540  proposals[index].yay[msg.sender] */\n      0xffffffffffffffffffffffffffffffffffffffff\n      and\n      0xffffffffffffffffffffffffffffffffffffffff\n      and\n      dup2\n      mstore\n      0x20\n      add\n      swap1\n      dup2\n      mstore\n      0x20\n      add\n      0x00\n      keccak256\n      0x00\n        /* \"Campaign.sol\":5508:5547  proposals[index].yay[msg.sender] = true */\n      0x0100\n      exp\n      dup2\n      sload\n      dup2\n      0xff\n      mul\n      not\n      and\n      swap1\n      dup4\n      iszero\n      iszero\n      mul\n      or\n      swap1\n      sstore\n      pop\n        /* \"Campaign.sol\":5586:5595  proposals */\n      0x0b\n        /* \"Campaign.sol\":5586:5602  proposals[index] */\n      0x00\n        /* \"Campaign.sol\":5596:5601  index */\n      dup4\n        /* \"Campaign.sol\":5586:5602  proposals[index] */\n      dup2\n      mstore\n      0x20\n      add\n      swap1\n      dup2\n      mstore\n      0x20\n      add\n      0x00\n      keccak256\n        /* \"Campaign.sol\":5586:5611  proposals[index].snapshot */\n      0x04\n      add\n        /* \"Campaign.sol\":5586:5623  proposals[index].snapshot[msg.sender] */\n      0x00\n        /* \"Campaign.sol\":5612:5622  msg.sender */\n      caller\n        /* \"Campaign.sol\":5586:5623  proposals[index].snapshot[msg.sender] */\n      0xffffffffffffffffffffffffffffffffffffffff\n      and\n      0xffffffffffffffffffffffffffffffffffffffff\n      and\n      dup2\n      mstore\n      0x20\n      add\n      swap1\n      dup2\n      mstore\n      0x20\n      add\n      0x00\n      keccak256\n      sload\n        /* \"Campaign.sol\":5557:5566  proposals */\n      0x0b\n        /* \"Campaign.sol\":5557:5573  proposals[index] */\n      0x00\n        /* \"Campaign.sol\":5567:5572  index */\n      dup5\n        /* \"Campaign.sol\":5557:5573  proposals[index] */\n      dup2\n      mstore\n      0x20\n      add\n      swap1\n      dup2\n      mstore\n      0x20\n      add\n      0x00\n      keccak256\n        /* \"Campaign.sol\":5557:5582  proposals[index].yayCount */\n      0x07\n      add\n      0x00\n        /* \"Campaign.sol\":5557:5623  proposals[index].yayCount += proposals[index].snapshot[msg.sender] */\n      dup3\n      dup3\n      sload\n      tag_267\n      swap2\n      swap1\n      tag_160\n      jump\t// in\n    tag_267:\n      swap3\n      pop\n      pop\n      dup2\n      swap1\n      sstore\n      pop\n        /* \"Campaign.sol\":5665:5674  proposals */\n      0x0b\n        /* \"Campaign.sol\":5665:5681  proposals[index] */\n      0x00\n        /* \"Campaign.sol\":5675:5680  index */\n      dup4\n        /* \"Campaign.sol\":5665:5681  proposals[index] */\n      dup2\n      mstore\n      0x20\n      add\n      swap1\n      dup2\n      mstore\n      0x20\n      add\n      0x00\n      keccak256\n        /* \"Campaign.sol\":5665:5690  proposals[index].required */\n      0x09\n      add\n      sload\n        /* \"Campaign.sol\":5636:5645  proposals */\n      0x0b\n        /* \"Campaign.sol\":5636:5652  proposals[index] */\n      0x00\n        /* \"Campaign.sol\":5646:5651  index */\n      dup5\n        /* \"Campaign.sol\":5636:5652  proposals[index] */\n      dup2\n      mstore\n      0x20\n      add\n      swap1\n      dup2\n      mstore\n      0x20\n      add\n      0x00\n      keccak256\n        /* \"Campaign.sol\":5636:5661  proposals[index].yayCount */\n      0x07\n      add\n      sload\n        /* \"Campaign.sol\":5636:5690  proposals[index].yayCount >= proposals[index].required */\n      lt\n        /* \"Campaign.sol\":5633:5805  if(proposals[index].yayCount >= proposals[index].required)... */\n      tag_268\n      jumpi\n        /* \"Campaign.sol\":5742:5746  true */\n      0x01\n        /* \"Campaign.sol\":5714:5723  proposals */\n      0x0b\n        /* \"Campaign.sol\":5714:5730  proposals[index] */\n      0x00\n        /* \"Campaign.sol\":5724:5729  index */\n      dup5\n        /* \"Campaign.sol\":5714:5730  proposals[index] */\n      dup2\n      mstore\n      0x20\n      add\n      swap1\n      dup2\n      mstore\n      0x20\n      add\n      0x00\n      keccak256\n        /* \"Campaign.sol\":5714:5739  proposals[index].complete */\n      0x0a\n      add\n      0x00\n        /* \"Campaign.sol\":5714:5746  proposals[index].complete = true */\n      0x0100\n      exp\n      dup2\n      sload\n      dup2\n      0xff\n      mul\n      not\n      and\n      swap1\n      dup4\n      iszero\n      iszero\n      mul\n      or\n      swap1\n      sstore\n      pop\n        /* \"Campaign.sol\":5790:5794  true */\n      0x01\n        /* \"Campaign.sol\":5760:5769  proposals */\n      0x0b\n        /* \"Campaign.sol\":5760:5776  proposals[index] */\n      0x00\n        /* \"Campaign.sol\":5770:5775  index */\n      dup5\n        /* \"Campaign.sol\":5760:5776  proposals[index] */\n      dup2\n      mstore\n      0x20\n      add\n      swap1\n      dup2\n      mstore\n      0x20\n      add\n      0x00\n      keccak256\n        /* \"Campaign.sol\":5760:5787  proposals[index].yayBoolean */\n      0x0a\n      add\n      0x01\n        /* \"Campaign.sol\":5760:5794  proposals[index].yayBoolean = true */\n      0x0100\n      exp\n      dup2\n      sload\n      dup2\n      0xff\n      mul\n      not\n      and\n      swap1\n      dup4\n      iszero\n      iszero\n      mul\n      or\n      swap1\n      sstore\n      pop\n        /* \"Campaign.sol\":5633:5805  if(proposals[index].yayCount >= proposals[index].required)... */\n    tag_268:\n        /* \"Campaign.sol\":5435:5812  function voteYay(uint256 index) public restrictedVoting(index) {... */\n      pop\n      pop\n      jump\t// out\n        /* \"Campaign.sol\":2172:2744  function stake(uint256 amount) public {... */\n    tag_100:\n        /* \"Campaign.sol\":2239:2246  holders */\n      0x04\n        /* \"Campaign.sol\":2239:2258  holders[msg.sender] */\n      0x00\n        /* \"Campaign.sol\":2247:2257  msg.sender */\n      caller\n        /* \"Campaign.sol\":2239:2258  holders[msg.sender] */\n      0xffffffffffffffffffffffffffffffffffffffff\n      and\n      0xffffffffffffffffffffffffffffffffffffffff\n      and\n      dup2\n      mstore\n      0x20\n      add\n      swap1\n      dup2\n      mstore\n      0x20\n      add\n      0x00\n      keccak256\n      sload\n        /* \"Campaign.sol\":2229:2235  amount */\n      dup2\n        /* \"Campaign.sol\":2229:2258  amount <= holders[msg.sender] */\n      gt\n      iszero\n        /* \"Campaign.sol\":2221:2283  require(amount <= holders[msg.sender], \"Insufficient balance\") */\n      tag_270\n      jumpi\n      mload(0x40)\n      0x08c379a000000000000000000000000000000000000000000000000000000000\n      dup2\n      mstore\n      0x04\n      add\n      tag_271\n      swap1\n      tag_272\n      jump\t// in\n    tag_271:\n      mload(0x40)\n      dup1\n      swap2\n      sub\n      swap1\n      revert\n    tag_270:\n        /* \"Campaign.sol\":2312:2313  0 */\n      0x00\n        /* \"Campaign.sol\":2302:2308  amount */\n      dup2\n        /* \"Campaign.sol\":2302:2313  amount != 0 */\n      eq\n      iszero\n        /* \"Campaign.sol\":2294:2338  require(amount != 0, \"Can't stake 0 tokens\") */\n      tag_273\n      jumpi\n      mload(0x40)\n      0x08c379a000000000000000000000000000000000000000000000000000000000\n      dup2\n      mstore\n      0x04\n      add\n      tag_274\n      swap1\n      tag_275\n      jump\t// in\n    tag_274:\n      mload(0x40)\n      dup1\n      swap2\n      sub\n      swap1\n      revert\n    tag_273:\n        /* \"Campaign.sol\":2353:2363  registered */\n      0x09\n        /* \"Campaign.sol\":2353:2375  registered[msg.sender] */\n      0x00\n        /* \"Campaign.sol\":2364:2374  msg.sender */\n      caller\n        /* \"Campaign.sol\":2353:2375  registered[msg.sender] */\n      0xffffffffffffffffffffffffffffffffffffffff\n      and\n      0xffffffffffffffffffffffffffffffffffffffff\n      and\n      dup2\n      mstore\n      0x20\n      add\n      swap1\n      dup2\n      mstore\n      0x20\n      add\n      0x00\n      keccak256\n      0x00\n      swap1\n      sload\n      swap1\n      0x0100\n      exp\n      swap1\n      div\n      0xff\n      and\n        /* \"Campaign.sol\":2349:2428  if(!registered[msg.sender]) {... */\n      tag_276\n      jumpi\n        /* \"Campaign.sol\":2392:2399  stakers */\n      0x0a\n        /* \"Campaign.sol\":2405:2415  msg.sender */\n      caller\n        /* \"Campaign.sol\":2392:2416  stakers.push(msg.sender) */\n      swap1\n      dup1\n      0x01\n      dup2\n      sload\n      add\n      dup1\n      dup3\n      sstore\n      dup1\n      swap2\n      pop\n      pop\n      0x01\n      swap1\n      sub\n      swap1\n      0x00\n      mstore\n      keccak256(0x00, 0x20)\n      add\n      0x00\n      swap1\n      swap2\n      swap1\n      swap2\n      swap1\n      swap2\n      0x0100\n      exp\n      dup2\n      sload\n      dup2\n      0xffffffffffffffffffffffffffffffffffffffff\n      mul\n      not\n      and\n      swap1\n      dup4\n      0xffffffffffffffffffffffffffffffffffffffff\n      and\n      mul\n      or\n      swap1\n      sstore\n      pop\n        /* \"Campaign.sol\":2349:2428  if(!registered[msg.sender]) {... */\n    tag_276:\n        /* \"Campaign.sol\":2455:2461  amount */\n      dup1\n        /* \"Campaign.sol\":2438:2450  stakedSupply */\n      0x02\n      0x00\n        /* \"Campaign.sol\":2438:2461  stakedSupply  += amount */\n      dup3\n      dup3\n      sload\n      tag_278\n      swap2\n      swap1\n      tag_160\n      jump\t// in\n    tag_278:\n      swap3\n      pop\n      pop\n      dup2\n      swap1\n      sstore\n      pop\n        /* \"Campaign.sol\":2501:2507  amount */\n      dup1\n        /* \"Campaign.sol\":2472:2485  overallStaked */\n      0x06\n        /* \"Campaign.sol\":2472:2497  overallStaked[msg.sender] */\n      0x00\n        /* \"Campaign.sol\":2486:2496  msg.sender */\n      caller\n        /* \"Campaign.sol\":2472:2497  overallStaked[msg.sender] */\n      0xffffffffffffffffffffffffffffffffffffffff\n      and\n      0xffffffffffffffffffffffffffffffffffffffff\n      and\n      dup2\n      mstore\n      0x20\n      add\n      swap1\n      dup2\n      mstore\n      0x20\n      add\n      0x00\n      keccak256\n      0x00\n        /* \"Campaign.sol\":2472:2507  overallStaked[msg.sender] += amount */\n      dup3\n      dup3\n      sload\n      tag_279\n      swap2\n      swap1\n      tag_160\n      jump\t// in\n    tag_279:\n      swap3\n      pop\n      pop\n      dup2\n      swap1\n      sstore\n      pop\n        /* \"Campaign.sol\":2518:2524  staked */\n      0x05\n        /* \"Campaign.sol\":2518:2536  staked[msg.sender] */\n      0x00\n        /* \"Campaign.sol\":2525:2535  msg.sender */\n      caller\n        /* \"Campaign.sol\":2518:2536  staked[msg.sender] */\n      0xffffffffffffffffffffffffffffffffffffffff\n      and\n      0xffffffffffffffffffffffffffffffffffffffff\n      and\n      dup2\n      mstore\n      0x20\n      add\n      swap1\n      dup2\n      mstore\n      0x20\n      add\n      0x00\n      keccak256\n        /* \"Campaign.sol\":2542:2548  amount */\n      dup2\n        /* \"Campaign.sol\":2518:2549  staked[msg.sender].push(amount) */\n      swap1\n      dup1\n      0x01\n      dup2\n      sload\n      add\n      dup1\n      dup3\n      sstore\n      dup1\n      swap2\n      pop\n      pop\n      0x01\n      swap1\n      sub\n      swap1\n      0x00\n      mstore\n      keccak256(0x00, 0x20)\n      add\n      0x00\n      swap1\n      swap2\n      swap1\n      swap2\n      swap1\n      swap2\n      pop\n      sstore\n        /* \"Campaign.sol\":2583:2589  amount */\n      dup1\n        /* \"Campaign.sol\":2560:2567  holders */\n      0x04\n        /* \"Campaign.sol\":2560:2579  holders[msg.sender] */\n      0x00\n        /* \"Campaign.sol\":2568:2578  msg.sender */\n      caller\n        /* \"Campaign.sol\":2560:2579  holders[msg.sender] */\n      0xffffffffffffffffffffffffffffffffffffffff\n      and\n      0xffffffffffffffffffffffffffffffffffffffff\n      and\n      dup2\n      mstore\n      0x20\n      add\n      swap1\n      dup2\n      mstore\n      0x20\n      add\n      0x00\n      keccak256\n      0x00\n        /* \"Campaign.sol\":2560:2589  holders[msg.sender] -= amount */\n      dup3\n      dup3\n      sload\n      tag_281\n      swap2\n      swap1\n      tag_190\n      jump\t// in\n    tag_281:\n      swap3\n      pop\n      pop\n      dup2\n      swap1\n      sstore\n      pop\n        /* \"Campaign.sol\":2600:2607  rewards */\n      0x08\n        /* \"Campaign.sol\":2600:2619  rewards[msg.sender] */\n      0x00\n        /* \"Campaign.sol\":2608:2618  msg.sender */\n      caller\n        /* \"Campaign.sol\":2600:2619  rewards[msg.sender] */\n      0xffffffffffffffffffffffffffffffffffffffff\n      and\n      0xffffffffffffffffffffffffffffffffffffffff\n      and\n      dup2\n      mstore\n      0x20\n      add\n      swap1\n      dup2\n      mstore\n      0x20\n      add\n      0x00\n      keccak256\n        /* \"Campaign.sol\":2625:2626  0 */\n      0x00\n        /* \"Campaign.sol\":2600:2627  rewards[msg.sender].push(0) */\n      swap1\n      dup1\n      0x01\n      dup2\n      sload\n      add\n      dup1\n      dup3\n      sstore\n      dup1\n      swap2\n      pop\n      pop\n      0x01\n      swap1\n      sub\n      swap1\n      0x00\n      mstore\n      keccak256(0x00, 0x20)\n      add\n      0x00\n      swap1\n      swap2\n      swap1\n      swap2\n      swap1\n      swap2\n      pop\n      sstore\n        /* \"Campaign.sol\":2638:2648  stakedTime */\n      0x07\n        /* \"Campaign.sol\":2638:2660  stakedTime[msg.sender] */\n      0x00\n        /* \"Campaign.sol\":2649:2659  msg.sender */\n      caller\n        /* \"Campaign.sol\":2638:2660  stakedTime[msg.sender] */\n      0xffffffffffffffffffffffffffffffffffffffff\n      and\n      0xffffffffffffffffffffffffffffffffffffffff\n      and\n      dup2\n      mstore\n      0x20\n      add\n      swap1\n      dup2\n      mstore\n      0x20\n      add\n      0x00\n      keccak256\n        /* \"Campaign.sol\":2685:2695  15 seconds */\n      0x0f\n        /* \"Campaign.sol\":2667:2682  block.timestamp */\n      timestamp\n        /* \"Campaign.sol\":2667:2695  block.timestamp + 15 seconds */\n      tag_283\n      swap2\n      swap1\n      tag_160\n      jump\t// in\n    tag_283:\n        /* \"Campaign.sol\":2638:2696  stakedTime[msg.sender].push( block.timestamp + 15 seconds) */\n      swap1\n      dup1\n      0x01\n      dup2\n      sload\n      add\n      dup1\n      dup3\n      sstore\n      dup1\n      swap2\n      pop\n      pop\n      0x01\n      swap1\n      sub\n      swap1\n      0x00\n      mstore\n      keccak256(0x00, 0x20)\n      add\n      0x00\n      swap1\n      swap2\n      swap1\n      swap2\n      swap1\n      swap2\n      pop\n      sstore\n        /* \"Campaign.sol\":2732:2736  true */\n      0x01\n        /* \"Campaign.sol\":2707:2717  registered */\n      0x09\n        /* \"Campaign.sol\":2707:2729  registered[msg.sender] */\n      0x00\n        /* \"Campaign.sol\":2718:2728  msg.sender */\n      caller\n        /* \"Campaign.sol\":2707:2729  registered[msg.sender] */\n      0xffffffffffffffffffffffffffffffffffffffff\n      and\n      0xffffffffffffffffffffffffffffffffffffffff\n      and\n      dup2\n      mstore\n      0x20\n      add\n      swap1\n      dup2\n      mstore\n      0x20\n      add\n      0x00\n      keccak256\n      0x00\n        /* \"Campaign.sol\":2707:2736  registered[msg.sender] = true */\n      0x0100\n      exp\n      dup2\n      sload\n      dup2\n      0xff\n      mul\n      not\n      and\n      swap1\n      dup4\n      iszero\n      iszero\n      mul\n      or\n      swap1\n      sstore\n      pop\n        /* \"Campaign.sol\":2172:2744  function stake(uint256 amount) public {... */\n      pop\n      jump\t// out\n        /* \"Campaign.sol\":1149:1192  mapping (address => bool) public registered */\n    tag_104:\n      mstore(0x20, 0x09)\n      dup1\n      0x00\n      mstore\n      keccak256(0x00, 0x40)\n      0x00\n      swap2\n      pop\n      sload\n      swap1\n      0x0100\n      exp\n      swap1\n      div\n      0xff\n      and\n      dup2\n      jump\t// out\n        /* \"Campaign.sol\":4119:4212  function balance() public view returns (uint) {... */\n    tag_109:\n        /* \"Campaign.sol\":4159:4163  uint */\n      0x00\n        /* \"Campaign.sol\":4183:4204  address(this).balance */\n      selfbalance\n        /* \"Campaign.sol\":4176:4204  return address(this).balance */\n      swap1\n      pop\n        /* \"Campaign.sol\":4119:4212  function balance() public view returns (uint) {... */\n      swap1\n      jump\t// out\n        /* \"Campaign.sol\":1099:1142  mapping (address => uint []) public rewards */\n    tag_114:\n      mstore(0x20, 0x08)\n      dup2\n      0x00\n      mstore\n      keccak256(0x00, 0x40)\n      dup2\n      dup2\n      sload\n      dup2\n      lt\n      tag_286\n      jumpi\n      0x00\n      dup1\n      revert\n    tag_286:\n      swap1\n      0x00\n      mstore\n      keccak256(0x00, 0x20)\n      add\n      0x00\n      swap2\n      pop\n      swap2\n      pop\n      pop\n      sload\n      dup2\n      jump\t// out\n        /* \"Campaign.sol\":4005:4111  function getAmountOfPools() public view returns (uint) {... */\n    tag_118:\n        /* \"Campaign.sol\":4054:4058  uint */\n      0x00\n        /* \"Campaign.sol\":4078:4084  staked */\n      0x05\n        /* \"Campaign.sol\":4078:4096  staked[msg.sender] */\n      0x00\n        /* \"Campaign.sol\":4085:4095  msg.sender */\n      caller\n        /* \"Campaign.sol\":4078:4096  staked[msg.sender] */\n      0xffffffffffffffffffffffffffffffffffffffff\n      and\n      0xffffffffffffffffffffffffffffffffffffffff\n      and\n      dup2\n      mstore\n      0x20\n      add\n      swap1\n      dup2\n      mstore\n      0x20\n      add\n      0x00\n      keccak256\n        /* \"Campaign.sol\":4078:4103  staked[msg.sender].length */\n      dup1\n      sload\n      swap1\n      pop\n        /* \"Campaign.sol\":4071:4103  return staked[msg.sender].length */\n      swap1\n      pop\n        /* \"Campaign.sol\":4005:4111  function getAmountOfPools() public view returns (uint) {... */\n      swap1\n      jump\t// out\n        /* \"Campaign.sol\":1900:2164  function send(address receiver, uint256 amount) public {... */\n    tag_123:\n        /* \"Campaign.sol\":1984:1991  holders */\n      0x04\n        /* \"Campaign.sol\":1984:2003  holders[msg.sender] */\n      0x00\n        /* \"Campaign.sol\":1992:2002  msg.sender */\n      caller\n        /* \"Campaign.sol\":1984:2003  holders[msg.sender] */\n      0xffffffffffffffffffffffffffffffffffffffff\n      and\n      0xffffffffffffffffffffffffffffffffffffffff\n      and\n      dup2\n      mstore\n      0x20\n      add\n      swap1\n      dup2\n      mstore\n      0x20\n      add\n      0x00\n      keccak256\n      sload\n        /* \"Campaign.sol\":1974:1980  amount */\n      dup2\n        /* \"Campaign.sol\":1974:2003  amount <= holders[msg.sender] */\n      gt\n      iszero\n        /* \"Campaign.sol\":1966:2028  require(amount <= holders[msg.sender], \"Insufficient balance\") */\n      tag_290\n      jumpi\n      mload(0x40)\n      0x08c379a000000000000000000000000000000000000000000000000000000000\n      dup2\n      mstore\n      0x04\n      add\n      tag_291\n      swap1\n      tag_272\n      jump\t// in\n    tag_291:\n      mload(0x40)\n      dup1\n      swap2\n      sub\n      swap1\n      revert\n    tag_290:\n        /* \"Campaign.sol\":2062:2068  amount */\n      dup1\n        /* \"Campaign.sol\":2039:2046  holders */\n      0x04\n        /* \"Campaign.sol\":2039:2058  holders[msg.sender] */\n      0x00\n        /* \"Campaign.sol\":2047:2057  msg.sender */\n      caller\n        /* \"Campaign.sol\":2039:2058  holders[msg.sender] */\n      0xffffffffffffffffffffffffffffffffffffffff\n      and\n      0xffffffffffffffffffffffffffffffffffffffff\n      and\n      dup2\n      mstore\n      0x20\n      add\n      swap1\n      dup2\n      mstore\n      0x20\n      add\n      0x00\n      keccak256\n      0x00\n        /* \"Campaign.sol\":2039:2068  holders[msg.sender] -= amount */\n      dup3\n      dup3\n      sload\n      tag_292\n      swap2\n      swap1\n      tag_190\n      jump\t// in\n    tag_292:\n      swap3\n      pop\n      pop\n      dup2\n      swap1\n      sstore\n      pop\n        /* \"Campaign.sol\":2100:2106  amount */\n      dup1\n        /* \"Campaign.sol\":2079:2086  holders */\n      0x04\n        /* \"Campaign.sol\":2079:2096  holders[receiver] */\n      0x00\n        /* \"Campaign.sol\":2087:2095  receiver */\n      dup5\n        /* \"Campaign.sol\":2079:2096  holders[receiver] */\n      0xffffffffffffffffffffffffffffffffffffffff\n      and\n      0xffffffffffffffffffffffffffffffffffffffff\n      and\n      dup2\n      mstore\n      0x20\n      add\n      swap1\n      dup2\n      mstore\n      0x20\n      add\n      0x00\n      keccak256\n      0x00\n        /* \"Campaign.sol\":2079:2106  holders[receiver] += amount */\n      dup3\n      dup3\n      sload\n      tag_293\n      swap2\n      swap1\n      tag_160\n      jump\t// in\n    tag_293:\n      swap3\n      pop\n      pop\n      dup2\n      swap1\n      sstore\n      pop\n        /* \"Campaign.sol\":2122:2156  Sent(msg.sender, receiver, amount) */\n      0x3990db2d31862302a685e8086b5755072a6e2b5b780af1ee81ece35ee3cd3345\n        /* \"Campaign.sol\":2127:2137  msg.sender */\n      caller\n        /* \"Campaign.sol\":2139:2147  receiver */\n      dup4\n        /* \"Campaign.sol\":2149:2155  amount */\n      dup4\n        /* \"Campaign.sol\":2122:2156  Sent(msg.sender, receiver, amount) */\n      mload(0x40)\n      tag_294\n      swap4\n      swap3\n      swap2\n      swap1\n      tag_295\n      jump\t// in\n    tag_294:\n      mload(0x40)\n      dup1\n      swap2\n      sub\n      swap1\n      log1\n        /* \"Campaign.sol\":1900:2164  function send(address receiver, uint256 amount) public {... */\n      pop\n      pop\n      jump\t// out\n        /* \"Campaign.sol\":3530:3878  function deposit() public payable {... */\n    tag_125:\n        /* \"Campaign.sol\":3580:3586  uint i */\n      0x00\n        /* \"Campaign.sol\":3575:3871  for (uint i = 0; i < stakers.length; i++) {... */\n    tag_297:\n        /* \"Campaign.sol\":3596:3603  stakers */\n      0x0a\n        /* \"Campaign.sol\":3596:3610  stakers.length */\n      dup1\n      sload\n      swap1\n      pop\n        /* \"Campaign.sol\":3592:3593  i */\n      dup2\n        /* \"Campaign.sol\":3592:3610  i < stakers.length */\n      lt\n        /* \"Campaign.sol\":3575:3871  for (uint i = 0; i < stakers.length; i++) {... */\n      iszero\n      tag_298\n      jumpi\n        /* \"Campaign.sol\":3632:3643  address adr */\n      0x00\n        /* \"Campaign.sol\":3646:3653  stakers */\n      0x0a\n        /* \"Campaign.sol\":3654:3655  i */\n      dup3\n        /* \"Campaign.sol\":3646:3656  stakers[i] */\n      dup2\n      sload\n      dup2\n      lt\n      tag_300\n      jumpi\n      tag_301\n      tag_172\n      jump\t// in\n    tag_301:\n    tag_300:\n      swap1\n      0x00\n      mstore\n      keccak256(0x00, 0x20)\n      add\n      0x00\n      swap1\n      sload\n      swap1\n      0x0100\n      exp\n      swap1\n      div\n      0xffffffffffffffffffffffffffffffffffffffff\n      and\n        /* \"Campaign.sol\":3632:3656  address adr = stakers[i] */\n      swap1\n      pop\n        /* \"Campaign.sol\":3676:3682  uint j */\n      0x00\n        /* \"Campaign.sol\":3671:3860  for (uint j = 0; j < staked[adr].length; j++) {... */\n    tag_303:\n        /* \"Campaign.sol\":3692:3698  staked */\n      0x05\n        /* \"Campaign.sol\":3692:3703  staked[adr] */\n      0x00\n        /* \"Campaign.sol\":3699:3702  adr */\n      dup4\n        /* \"Campaign.sol\":3692:3703  staked[adr] */\n      0xffffffffffffffffffffffffffffffffffffffff\n      and\n      0xffffffffffffffffffffffffffffffffffffffff\n      and\n      dup2\n      mstore\n      0x20\n      add\n      swap1\n      dup2\n      mstore\n      0x20\n      add\n      0x00\n      keccak256\n        /* \"Campaign.sol\":3692:3710  staked[adr].length */\n      dup1\n      sload\n      swap1\n      pop\n        /* \"Campaign.sol\":3688:3689  j */\n      dup2\n        /* \"Campaign.sol\":3688:3710  j < staked[adr].length */\n      lt\n        /* \"Campaign.sol\":3671:3860  for (uint j = 0; j < staked[adr].length; j++) {... */\n      iszero\n      tag_304\n      jumpi\n        /* \"Campaign.sol\":3736:3753  uint256 rewardNum */\n      0x00\n        /* \"Campaign.sol\":3785:3797  stakedSupply */\n      sload(0x02)\n        /* \"Campaign.sol\":3773:3782  msg.value */\n      callvalue\n        /* \"Campaign.sol\":3756:3762  staked */\n      0x05\n        /* \"Campaign.sol\":3756:3767  staked[adr] */\n      0x00\n        /* \"Campaign.sol\":3763:3766  adr */\n      dup7\n        /* \"Campaign.sol\":3756:3767  staked[adr] */\n      0xffffffffffffffffffffffffffffffffffffffff\n      and\n      0xffffffffffffffffffffffffffffffffffffffff\n      and\n      dup2\n      mstore\n      0x20\n      add\n      swap1\n      dup2\n      mstore\n      0x20\n      add\n      0x00\n      keccak256\n        /* \"Campaign.sol\":3768:3769  j */\n      dup5\n        /* \"Campaign.sol\":3756:3770  staked[adr][j] */\n      dup2\n      sload\n      dup2\n      lt\n      tag_306\n      jumpi\n      tag_307\n      tag_172\n      jump\t// in\n    tag_307:\n    tag_306:\n      swap1\n      0x00\n      mstore\n      keccak256(0x00, 0x20)\n      add\n      sload\n        /* \"Campaign.sol\":3756:3782  staked[adr][j] * msg.value */\n      tag_309\n      swap2\n      swap1\n      tag_310\n      jump\t// in\n    tag_309:\n        /* \"Campaign.sol\":3756:3797  staked[adr][j] * msg.value / stakedSupply */\n      tag_311\n      swap2\n      swap1\n      tag_162\n      jump\t// in\n    tag_311:\n        /* \"Campaign.sol\":3736:3797  uint256 rewardNum = staked[adr][j] * msg.value / stakedSupply */\n      swap1\n      pop\n        /* \"Campaign.sol\":3835:3844  rewardNum */\n      dup1\n        /* \"Campaign.sol\":3816:3823  rewards */\n      0x08\n        /* \"Campaign.sol\":3816:3828  rewards[adr] */\n      0x00\n        /* \"Campaign.sol\":3824:3827  adr */\n      dup6\n        /* \"Campaign.sol\":3816:3828  rewards[adr] */\n      0xffffffffffffffffffffffffffffffffffffffff\n      and\n      0xffffffffffffffffffffffffffffffffffffffff\n      and\n      dup2\n      mstore\n      0x20\n      add\n      swap1\n      dup2\n      mstore\n      0x20\n      add\n      0x00\n      keccak256\n        /* \"Campaign.sol\":3829:3830  j */\n      dup4\n        /* \"Campaign.sol\":3816:3831  rewards[adr][j] */\n      dup2\n      sload\n      dup2\n      lt\n      tag_312\n      jumpi\n      tag_313\n      tag_172\n      jump\t// in\n    tag_313:\n    tag_312:\n      swap1\n      0x00\n      mstore\n      keccak256(0x00, 0x20)\n      add\n      0x00\n        /* \"Campaign.sol\":3816:3844  rewards[adr][j] += rewardNum */\n      dup3\n      dup3\n      sload\n      tag_315\n      swap2\n      swap1\n      tag_160\n      jump\t// in\n    tag_315:\n      swap3\n      pop\n      pop\n      dup2\n      swap1\n      sstore\n      pop\n        /* \"Campaign.sol\":3717:3860  {... */\n      pop\n        /* \"Campaign.sol\":3712:3715  j++ */\n      dup1\n      dup1\n      tag_316\n      swap1\n      tag_235\n      jump\t// in\n    tag_316:\n      swap2\n      pop\n      pop\n        /* \"Campaign.sol\":3671:3860  for (uint j = 0; j < staked[adr].length; j++) {... */\n      jump(tag_303)\n    tag_304:\n      pop\n        /* \"Campaign.sol\":3617:3871  {... */\n      pop\n        /* \"Campaign.sol\":3612:3615  i++ */\n      dup1\n      dup1\n      tag_317\n      swap1\n      tag_235\n      jump\t// in\n    tag_317:\n      swap2\n      pop\n      pop\n        /* \"Campaign.sol\":3575:3871  for (uint i = 0; i < stakers.length; i++) {... */\n      jump(tag_297)\n    tag_298:\n      pop\n        /* \"Campaign.sol\":3530:3878  function deposit() public payable {... */\n      jump\t// out\n        /* \"Campaign.sol\":814:841  uint256 public stakedSupply */\n    tag_128:\n      sload(0x02)\n      dup2\n      jump\t// out\n        /* \"Campaign.sol\":1199:1224  address [] public stakers */\n    tag_133:\n      0x0a\n      dup2\n      dup2\n      sload\n      dup2\n      lt\n      tag_318\n      jumpi\n      0x00\n      dup1\n      revert\n    tag_318:\n      swap1\n      0x00\n      mstore\n      keccak256(0x00, 0x20)\n      add\n      0x00\n      swap2\n      pop\n      sload\n      swap1\n      0x0100\n      exp\n      swap1\n      div\n      0xffffffffffffffffffffffffffffffffffffffff\n      and\n      dup2\n      jump\t// out\n    tag_238:\n      dup3\n      dup1\n      sload\n      tag_320\n      swap1\n      tag_136\n      jump\t// in\n    tag_320:\n      swap1\n      0x00\n      mstore\n      keccak256(0x00, 0x20)\n      swap1\n      0x1f\n      add\n      0x20\n      swap1\n      div\n      dup2\n      add\n      swap3\n      dup3\n      tag_322\n      jumpi\n      0x00\n      dup6\n      sstore\n      jump(tag_321)\n    tag_322:\n      dup3\n      0x1f\n      lt\n      tag_323\n      jumpi\n      dup1\n      mload\n      not(0xff)\n      and\n      dup4\n      dup1\n      add\n      or\n      dup6\n      sstore\n      jump(tag_321)\n    tag_323:\n      dup3\n      dup1\n      add\n      0x01\n      add\n      dup6\n      sstore\n      dup3\n      iszero\n      tag_321\n      jumpi\n      swap2\n      dup3\n      add\n    tag_324:\n      dup3\n      dup2\n      gt\n      iszero\n      tag_325\n      jumpi\n      dup3\n      mload\n      dup3\n      sstore\n      swap2\n      0x20\n      add\n      swap2\n      swap1\n      0x01\n      add\n      swap1\n      jump(tag_324)\n    tag_325:\n    tag_321:\n      pop\n      swap1\n      pop\n      tag_326\n      swap2\n      swap1\n      tag_327\n      jump\t// in\n    tag_326:\n      pop\n      swap1\n      jump\t// out\n    tag_327:\n    tag_328:\n      dup1\n      dup3\n      gt\n      iszero\n      tag_329\n      jumpi\n      0x00\n      dup2\n      0x00\n      swap1\n      sstore\n      pop\n      0x01\n      add\n      jump(tag_328)\n    tag_329:\n      pop\n      swap1\n      jump\t// out\n        /* \"#utility.yul\":7:82   */\n    tag_330:\n        /* \"#utility.yul\":40:46   */\n      0x00\n        /* \"#utility.yul\":73:75   */\n      0x40\n        /* \"#utility.yul\":67:76   */\n      mload\n        /* \"#utility.yul\":57:76   */\n      swap1\n      pop\n        /* \"#utility.yul\":7:82   */\n      swap1\n      jump\t// out\n        /* \"#utility.yul\":88:205   */\n    tag_331:\n        /* \"#utility.yul\":197:198   */\n      0x00\n        /* \"#utility.yul\":194:195   */\n      dup1\n        /* \"#utility.yul\":187:199   */\n      revert\n        /* \"#utility.yul\":211:328   */\n    tag_332:\n        /* \"#utility.yul\":320:321   */\n      0x00\n        /* \"#utility.yul\":317:318   */\n      dup1\n        /* \"#utility.yul\":310:322   */\n      revert\n        /* \"#utility.yul\":334:411   */\n    tag_333:\n        /* \"#utility.yul\":371:378   */\n      0x00\n        /* \"#utility.yul\":400:405   */\n      dup2\n        /* \"#utility.yul\":389:405   */\n      swap1\n      pop\n        /* \"#utility.yul\":334:411   */\n      swap2\n      swap1\n      pop\n      jump\t// out\n        /* \"#utility.yul\":417:539   */\n    tag_334:\n        /* \"#utility.yul\":490:514   */\n      tag_381\n        /* \"#utility.yul\":508:513   */\n      dup2\n        /* \"#utility.yul\":490:514   */\n      tag_333\n      jump\t// in\n    tag_381:\n        /* \"#utility.yul\":483:488   */\n      dup2\n        /* \"#utility.yul\":480:515   */\n      eq\n        /* \"#utility.yul\":470:533   */\n      tag_382\n      jumpi\n        /* \"#utility.yul\":529:530   */\n      0x00\n        /* \"#utility.yul\":526:527   */\n      dup1\n        /* \"#utility.yul\":519:531   */\n      revert\n        /* \"#utility.yul\":470:533   */\n    tag_382:\n        /* \"#utility.yul\":417:539   */\n      pop\n      jump\t// out\n        /* \"#utility.yul\":545:684   */\n    tag_335:\n        /* \"#utility.yul\":591:596   */\n      0x00\n        /* \"#utility.yul\":629:635   */\n      dup2\n        /* \"#utility.yul\":616:636   */\n      calldataload\n        /* \"#utility.yul\":607:636   */\n      swap1\n      pop\n        /* \"#utility.yul\":645:678   */\n      tag_384\n        /* \"#utility.yul\":672:677   */\n      dup2\n        /* \"#utility.yul\":645:678   */\n      tag_334\n      jump\t// in\n    tag_384:\n        /* \"#utility.yul\":545:684   */\n      swap3\n      swap2\n      pop\n      pop\n      jump\t// out\n        /* \"#utility.yul\":690:1019   */\n    tag_31:\n        /* \"#utility.yul\":749:755   */\n      0x00\n        /* \"#utility.yul\":798:800   */\n      0x20\n        /* \"#utility.yul\":786:795   */\n      dup3\n        /* \"#utility.yul\":777:784   */\n      dup5\n        /* \"#utility.yul\":773:796   */\n      sub\n        /* \"#utility.yul\":769:801   */\n      slt\n        /* \"#utility.yul\":766:885   */\n      iszero\n      tag_386\n      jumpi\n        /* \"#utility.yul\":804:883   */\n      tag_387\n      tag_331\n      jump\t// in\n    tag_387:\n        /* \"#utility.yul\":766:885   */\n    tag_386:\n        /* \"#utility.yul\":924:925   */\n      0x00\n        /* \"#utility.yul\":949:1002   */\n      tag_388\n        /* \"#utility.yul\":994:1001   */\n      dup5\n        /* \"#utility.yul\":985:991   */\n      dup3\n        /* \"#utility.yul\":974:983   */\n      dup6\n        /* \"#utility.yul\":970:992   */\n      add\n        /* \"#utility.yul\":949:1002   */\n      tag_335\n      jump\t// in\n    tag_388:\n        /* \"#utility.yul\":939:1002   */\n      swap2\n      pop\n        /* \"#utility.yul\":895:1012   */\n      pop\n        /* \"#utility.yul\":690:1019   */\n      swap3\n      swap2\n      pop\n      pop\n      jump\t// out\n        /* \"#utility.yul\":1025:1143   */\n    tag_336:\n        /* \"#utility.yul\":1112:1136   */\n      tag_390\n        /* \"#utility.yul\":1130:1135   */\n      dup2\n        /* \"#utility.yul\":1112:1136   */\n      tag_333\n      jump\t// in\n    tag_390:\n        /* \"#utility.yul\":1107:1110   */\n      dup3\n        /* \"#utility.yul\":1100:1137   */\n      mstore\n        /* \"#utility.yul\":1025:1143   */\n      pop\n      pop\n      jump\t// out\n        /* \"#utility.yul\":1149:1248   */\n    tag_337:\n        /* \"#utility.yul\":1201:1207   */\n      0x00\n        /* \"#utility.yul\":1235:1240   */\n      dup2\n        /* \"#utility.yul\":1229:1241   */\n      mload\n        /* \"#utility.yul\":1219:1241   */\n      swap1\n      pop\n        /* \"#utility.yul\":1149:1248   */\n      swap2\n      swap1\n      pop\n      jump\t// out\n        /* \"#utility.yul\":1254:1423   */\n    tag_338:\n        /* \"#utility.yul\":1338:1349   */\n      0x00\n        /* \"#utility.yul\":1372:1378   */\n      dup3\n        /* \"#utility.yul\":1367:1370   */\n      dup3\n        /* \"#utility.yul\":1360:1379   */\n      mstore\n        /* \"#utility.yul\":1412:1416   */\n      0x20\n        /* \"#utility.yul\":1407:1410   */\n      dup3\n        /* \"#utility.yul\":1403:1417   */\n      add\n        /* \"#utility.yul\":1388:1417   */\n      swap1\n      pop\n        /* \"#utility.yul\":1254:1423   */\n      swap3\n      swap2\n      pop\n      pop\n      jump\t// out\n        /* \"#utility.yul\":1429:1736   */\n    tag_339:\n        /* \"#utility.yul\":1497:1498   */\n      0x00\n        /* \"#utility.yul\":1507:1620   */\n    tag_394:\n        /* \"#utility.yul\":1521:1527   */\n      dup4\n        /* \"#utility.yul\":1518:1519   */\n      dup2\n        /* \"#utility.yul\":1515:1528   */\n      lt\n        /* \"#utility.yul\":1507:1620   */\n      iszero\n      tag_396\n      jumpi\n        /* \"#utility.yul\":1606:1607   */\n      dup1\n        /* \"#utility.yul\":1601:1604   */\n      dup3\n        /* \"#utility.yul\":1597:1608   */\n      add\n        /* \"#utility.yul\":1591:1609   */\n      mload\n        /* \"#utility.yul\":1587:1588   */\n      dup2\n        /* \"#utility.yul\":1582:1585   */\n      dup5\n        /* \"#utility.yul\":1578:1589   */\n      add\n        /* \"#utility.yul\":1571:1610   */\n      mstore\n        /* \"#utility.yul\":1543:1545   */\n      0x20\n        /* \"#utility.yul\":1540:1541   */\n      dup2\n        /* \"#utility.yul\":1536:1546   */\n      add\n        /* \"#utility.yul\":1531:1546   */\n      swap1\n      pop\n        /* \"#utility.yul\":1507:1620   */\n      jump(tag_394)\n    tag_396:\n        /* \"#utility.yul\":1638:1644   */\n      dup4\n        /* \"#utility.yul\":1635:1636   */\n      dup2\n        /* \"#utility.yul\":1632:1645   */\n      gt\n        /* \"#utility.yul\":1629:1730   */\n      iszero\n      tag_397\n      jumpi\n        /* \"#utility.yul\":1718:1719   */\n      0x00\n        /* \"#utility.yul\":1709:1715   */\n      dup5\n        /* \"#utility.yul\":1704:1707   */\n      dup5\n        /* \"#utility.yul\":1700:1716   */\n      add\n        /* \"#utility.yul\":1693:1720   */\n      mstore\n        /* \"#utility.yul\":1629:1730   */\n    tag_397:\n        /* \"#utility.yul\":1478:1736   */\n      pop\n        /* \"#utility.yul\":1429:1736   */\n      pop\n      pop\n      pop\n      jump\t// out\n        /* \"#utility.yul\":1742:1844   */\n    tag_340:\n        /* \"#utility.yul\":1783:1789   */\n      0x00\n        /* \"#utility.yul\":1834:1836   */\n      0x1f\n        /* \"#utility.yul\":1830:1837   */\n      not\n        /* \"#utility.yul\":1825:1827   */\n      0x1f\n        /* \"#utility.yul\":1818:1823   */\n      dup4\n        /* \"#utility.yul\":1814:1828   */\n      add\n        /* \"#utility.yul\":1810:1838   */\n      and\n        /* \"#utility.yul\":1800:1838   */\n      swap1\n      pop\n        /* \"#utility.yul\":1742:1844   */\n      swap2\n      swap1\n      pop\n      jump\t// out\n        /* \"#utility.yul\":1850:2214   */\n    tag_341:\n        /* \"#utility.yul\":1938:1941   */\n      0x00\n        /* \"#utility.yul\":1966:2005   */\n      tag_400\n        /* \"#utility.yul\":1999:2004   */\n      dup3\n        /* \"#utility.yul\":1966:2005   */\n      tag_337\n      jump\t// in\n    tag_400:\n        /* \"#utility.yul\":2021:2092   */\n      tag_401\n        /* \"#utility.yul\":2085:2091   */\n      dup2\n        /* \"#utility.yul\":2080:2083   */\n      dup6\n        /* \"#utility.yul\":2021:2092   */\n      tag_338\n      jump\t// in\n    tag_401:\n        /* \"#utility.yul\":2014:2092   */\n      swap4\n      pop\n        /* \"#utility.yul\":2101:2153   */\n      tag_402\n        /* \"#utility.yul\":2146:2152   */\n      dup2\n        /* \"#utility.yul\":2141:2144   */\n      dup6\n        /* \"#utility.yul\":2134:2138   */\n      0x20\n        /* \"#utility.yul\":2127:2132   */\n      dup7\n        /* \"#utility.yul\":2123:2139   */\n      add\n        /* \"#utility.yul\":2101:2153   */\n      tag_339\n      jump\t// in\n    tag_402:\n        /* \"#utility.yul\":2178:2207   */\n      tag_403\n        /* \"#utility.yul\":2200:2206   */\n      dup2\n        /* \"#utility.yul\":2178:2207   */\n      tag_340\n      jump\t// in\n    tag_403:\n        /* \"#utility.yul\":2173:2176   */\n      dup5\n        /* \"#utility.yul\":2169:2208   */\n      add\n        /* \"#utility.yul\":2162:2208   */\n      swap2\n      pop\n        /* \"#utility.yul\":1942:2214   */\n      pop\n        /* \"#utility.yul\":1850:2214   */\n      swap3\n      swap2\n      pop\n      pop\n      jump\t// out\n        /* \"#utility.yul\":2220:2346   */\n    tag_342:\n        /* \"#utility.yul\":2257:2264   */\n      0x00\n        /* \"#utility.yul\":2297:2339   */\n      0xffffffffffffffffffffffffffffffffffffffff\n        /* \"#utility.yul\":2290:2295   */\n      dup3\n        /* \"#utility.yul\":2286:2340   */\n      and\n        /* \"#utility.yul\":2275:2340   */\n      swap1\n      pop\n        /* \"#utility.yul\":2220:2346   */\n      swap2\n      swap1\n      pop\n      jump\t// out\n        /* \"#utility.yul\":2352:2448   */\n    tag_343:\n        /* \"#utility.yul\":2389:2396   */\n      0x00\n        /* \"#utility.yul\":2418:2442   */\n      tag_406\n        /* \"#utility.yul\":2436:2441   */\n      dup3\n        /* \"#utility.yul\":2418:2442   */\n      tag_342\n      jump\t// in\n    tag_406:\n        /* \"#utility.yul\":2407:2442   */\n      swap1\n      pop\n        /* \"#utility.yul\":2352:2448   */\n      swap2\n      swap1\n      pop\n      jump\t// out\n        /* \"#utility.yul\":2454:2572   */\n    tag_344:\n        /* \"#utility.yul\":2541:2565   */\n      tag_408\n        /* \"#utility.yul\":2559:2564   */\n      dup2\n        /* \"#utility.yul\":2541:2565   */\n      tag_343\n      jump\t// in\n    tag_408:\n        /* \"#utility.yul\":2536:2539   */\n      dup3\n        /* \"#utility.yul\":2529:2566   */\n      mstore\n        /* \"#utility.yul\":2454:2572   */\n      pop\n      pop\n      jump\t// out\n        /* \"#utility.yul\":2578:2668   */\n    tag_345:\n        /* \"#utility.yul\":2612:2619   */\n      0x00\n        /* \"#utility.yul\":2655:2660   */\n      dup2\n        /* \"#utility.yul\":2648:2661   */\n      iszero\n        /* \"#utility.yul\":2641:2662   */\n      iszero\n        /* \"#utility.yul\":2630:2662   */\n      swap1\n      pop\n        /* \"#utility.yul\":2578:2668   */\n      swap2\n      swap1\n      pop\n      jump\t// out\n        /* \"#utility.yul\":2674:2783   */\n    tag_346:\n        /* \"#utility.yul\":2755:2776   */\n      tag_411\n        /* \"#utility.yul\":2770:2775   */\n      dup2\n        /* \"#utility.yul\":2755:2776   */\n      tag_345\n      jump\t// in\n    tag_411:\n        /* \"#utility.yul\":2750:2753   */\n      dup3\n        /* \"#utility.yul\":2743:2777   */\n      mstore\n        /* \"#utility.yul\":2674:2783   */\n      pop\n      pop\n      jump\t// out\n        /* \"#utility.yul\":2789:4055   */\n    tag_34:\n        /* \"#utility.yul\":3134:3138   */\n      0x00\n        /* \"#utility.yul\":3172:3175   */\n      0x0120\n        /* \"#utility.yul\":3161:3170   */\n      dup3\n        /* \"#utility.yul\":3157:3176   */\n      add\n        /* \"#utility.yul\":3149:3176   */\n      swap1\n      pop\n        /* \"#utility.yul\":3186:3257   */\n      tag_413\n        /* \"#utility.yul\":3254:3255   */\n      0x00\n        /* \"#utility.yul\":3243:3252   */\n      dup4\n        /* \"#utility.yul\":3239:3256   */\n      add\n        /* \"#utility.yul\":3230:3236   */\n      dup13\n        /* \"#utility.yul\":3186:3257   */\n      tag_336\n      jump\t// in\n    tag_413:\n        /* \"#utility.yul\":3304:3313   */\n      dup2\n        /* \"#utility.yul\":3298:3302   */\n      dup2\n        /* \"#utility.yul\":3294:3314   */\n      sub\n        /* \"#utility.yul\":3289:3291   */\n      0x20\n        /* \"#utility.yul\":3278:3287   */\n      dup4\n        /* \"#utility.yul\":3274:3292   */\n      add\n        /* \"#utility.yul\":3267:3315   */\n      mstore\n        /* \"#utility.yul\":3332:3410   */\n      tag_414\n        /* \"#utility.yul\":3405:3409   */\n      dup2\n        /* \"#utility.yul\":3396:3402   */\n      dup12\n        /* \"#utility.yul\":3332:3410   */\n      tag_341\n      jump\t// in\n    tag_414:\n        /* \"#utility.yul\":3324:3410   */\n      swap1\n      pop\n        /* \"#utility.yul\":3457:3466   */\n      dup2\n        /* \"#utility.yul\":3451:3455   */\n      dup2\n        /* \"#utility.yul\":3447:3467   */\n      sub\n        /* \"#utility.yul\":3442:3444   */\n      0x40\n        /* \"#utility.yul\":3431:3440   */\n      dup4\n        /* \"#utility.yul\":3427:3445   */\n      add\n        /* \"#utility.yul\":3420:3468   */\n      mstore\n        /* \"#utility.yul\":3485:3563   */\n      tag_415\n        /* \"#utility.yul\":3558:3562   */\n      dup2\n        /* \"#utility.yul\":3549:3555   */\n      dup11\n        /* \"#utility.yul\":3485:3563   */\n      tag_341\n      jump\t// in\n    tag_415:\n        /* \"#utility.yul\":3477:3563   */\n      swap1\n      pop\n        /* \"#utility.yul\":3573:3645   */\n      tag_416\n        /* \"#utility.yul\":3641:3643   */\n      0x60\n        /* \"#utility.yul\":3630:3639   */\n      dup4\n        /* \"#utility.yul\":3626:3644   */\n      add\n        /* \"#utility.yul\":3617:3623   */\n      dup10\n        /* \"#utility.yul\":3573:3645   */\n      tag_344\n      jump\t// in\n    tag_416:\n        /* \"#utility.yul\":3655:3728   */\n      tag_417\n        /* \"#utility.yul\":3723:3726   */\n      0x80\n        /* \"#utility.yul\":3712:3721   */\n      dup4\n        /* \"#utility.yul\":3708:3727   */\n      add\n        /* \"#utility.yul\":3699:3705   */\n      dup9\n        /* \"#utility.yul\":3655:3728   */\n      tag_336\n      jump\t// in\n    tag_417:\n        /* \"#utility.yul\":3738:3811   */\n      tag_418\n        /* \"#utility.yul\":3806:3809   */\n      0xa0\n        /* \"#utility.yul\":3795:3804   */\n      dup4\n        /* \"#utility.yul\":3791:3810   */\n      add\n        /* \"#utility.yul\":3782:3788   */\n      dup8\n        /* \"#utility.yul\":3738:3811   */\n      tag_336\n      jump\t// in\n    tag_418:\n        /* \"#utility.yul\":3821:3894   */\n      tag_419\n        /* \"#utility.yul\":3889:3892   */\n      0xc0\n        /* \"#utility.yul\":3878:3887   */\n      dup4\n        /* \"#utility.yul\":3874:3893   */\n      add\n        /* \"#utility.yul\":3865:3871   */\n      dup7\n        /* \"#utility.yul\":3821:3894   */\n      tag_336\n      jump\t// in\n    tag_419:\n        /* \"#utility.yul\":3904:3971   */\n      tag_420\n        /* \"#utility.yul\":3966:3969   */\n      0xe0\n        /* \"#utility.yul\":3955:3964   */\n      dup4\n        /* \"#utility.yul\":3951:3970   */\n      add\n        /* \"#utility.yul\":3942:3948   */\n      dup6\n        /* \"#utility.yul\":3904:3971   */\n      tag_346\n      jump\t// in\n    tag_420:\n        /* \"#utility.yul\":3981:4048   */\n      tag_421\n        /* \"#utility.yul\":4043:4046   */\n      0x0100\n        /* \"#utility.yul\":4032:4041   */\n      dup4\n        /* \"#utility.yul\":4028:4047   */\n      add\n        /* \"#utility.yul\":4019:4025   */\n      dup5\n        /* \"#utility.yul\":3981:4048   */\n      tag_346\n      jump\t// in\n    tag_421:\n        /* \"#utility.yul\":2789:4055   */\n      swap11\n      swap10\n      pop\n      pop\n      pop\n      pop\n      pop\n      pop\n      pop\n      pop\n      pop\n      pop\n      jump\t// out\n        /* \"#utility.yul\":4061:4183   */\n    tag_347:\n        /* \"#utility.yul\":4134:4158   */\n      tag_423\n        /* \"#utility.yul\":4152:4157   */\n      dup2\n        /* \"#utility.yul\":4134:4158   */\n      tag_343\n      jump\t// in\n    tag_423:\n        /* \"#utility.yul\":4127:4132   */\n      dup2\n        /* \"#utility.yul\":4124:4159   */\n      eq\n        /* \"#utility.yul\":4114:4177   */\n      tag_424\n      jumpi\n        /* \"#utility.yul\":4173:4174   */\n      0x00\n        /* \"#utility.yul\":4170:4171   */\n      dup1\n        /* \"#utility.yul\":4163:4175   */\n      revert\n        /* \"#utility.yul\":4114:4177   */\n    tag_424:\n        /* \"#utility.yul\":4061:4183   */\n      pop\n      jump\t// out\n        /* \"#utility.yul\":4189:4328   */\n    tag_348:\n        /* \"#utility.yul\":4235:4240   */\n      0x00\n        /* \"#utility.yul\":4273:4279   */\n      dup2\n        /* \"#utility.yul\":4260:4280   */\n      calldataload\n        /* \"#utility.yul\":4251:4280   */\n      swap1\n      pop\n        /* \"#utility.yul\":4289:4322   */\n      tag_426\n        /* \"#utility.yul\":4316:4321   */\n      dup2\n        /* \"#utility.yul\":4289:4322   */\n      tag_347\n      jump\t// in\n    tag_426:\n        /* \"#utility.yul\":4189:4328   */\n      swap3\n      swap2\n      pop\n      pop\n      jump\t// out\n        /* \"#utility.yul\":4334:4663   */\n    tag_42:\n        /* \"#utility.yul\":4393:4399   */\n      0x00\n        /* \"#utility.yul\":4442:4444   */\n      0x20\n        /* \"#utility.yul\":4430:4439   */\n      dup3\n        /* \"#utility.yul\":4421:4428   */\n      dup5\n        /* \"#utility.yul\":4417:4440   */\n      sub\n        /* \"#utility.yul\":4413:4445   */\n      slt\n        /* \"#utility.yul\":4410:4529   */\n      iszero\n      tag_428\n      jumpi\n        /* \"#utility.yul\":4448:4527   */\n      tag_429\n      tag_331\n      jump\t// in\n    tag_429:\n        /* \"#utility.yul\":4410:4529   */\n    tag_428:\n        /* \"#utility.yul\":4568:4569   */\n      0x00\n        /* \"#utility.yul\":4593:4646   */\n      tag_430\n        /* \"#utility.yul\":4638:4645   */\n      dup5\n        /* \"#utility.yul\":4629:4635   */\n      dup3\n        /* \"#utility.yul\":4618:4627   */\n      dup6\n        /* \"#utility.yul\":4614:4636   */\n      add\n        /* \"#utility.yul\":4593:4646   */\n      tag_348\n      jump\t// in\n    tag_430:\n        /* \"#utility.yul\":4583:4646   */\n      swap2\n      pop\n        /* \"#utility.yul\":4539:4656   */\n      pop\n        /* \"#utility.yul\":4334:4663   */\n      swap3\n      swap2\n      pop\n      pop\n      jump\t// out\n        /* \"#utility.yul\":4669:4891   */\n    tag_45:\n        /* \"#utility.yul\":4762:4766   */\n      0x00\n        /* \"#utility.yul\":4800:4802   */\n      0x20\n        /* \"#utility.yul\":4789:4798   */\n      dup3\n        /* \"#utility.yul\":4785:4803   */\n      add\n        /* \"#utility.yul\":4777:4803   */\n      swap1\n      pop\n        /* \"#utility.yul\":4813:4884   */\n      tag_432\n        /* \"#utility.yul\":4881:4882   */\n      0x00\n        /* \"#utility.yul\":4870:4879   */\n      dup4\n        /* \"#utility.yul\":4866:4883   */\n      add\n        /* \"#utility.yul\":4857:4863   */\n      dup5\n        /* \"#utility.yul\":4813:4884   */\n      tag_336\n      jump\t// in\n    tag_432:\n        /* \"#utility.yul\":4669:4891   */\n      swap3\n      swap2\n      pop\n      pop\n      jump\t// out\n        /* \"#utility.yul\":4897:5210   */\n    tag_54:\n        /* \"#utility.yul\":5010:5014   */\n      0x00\n        /* \"#utility.yul\":5048:5050   */\n      0x20\n        /* \"#utility.yul\":5037:5046   */\n      dup3\n        /* \"#utility.yul\":5033:5051   */\n      add\n        /* \"#utility.yul\":5025:5051   */\n      swap1\n      pop\n        /* \"#utility.yul\":5097:5106   */\n      dup2\n        /* \"#utility.yul\":5091:5095   */\n      dup2\n        /* \"#utility.yul\":5087:5107   */\n      sub\n        /* \"#utility.yul\":5083:5084   */\n      0x00\n        /* \"#utility.yul\":5072:5081   */\n      dup4\n        /* \"#utility.yul\":5068:5085   */\n      add\n        /* \"#utility.yul\":5061:5108   */\n      mstore\n        /* \"#utility.yul\":5125:5203   */\n      tag_434\n        /* \"#utility.yul\":5198:5202   */\n      dup2\n        /* \"#utility.yul\":5189:5195   */\n      dup5\n        /* \"#utility.yul\":5125:5203   */\n      tag_341\n      jump\t// in\n    tag_434:\n        /* \"#utility.yul\":5117:5203   */\n      swap1\n      pop\n        /* \"#utility.yul\":4897:5210   */\n      swap3\n      swap2\n      pop\n      pop\n      jump\t// out\n        /* \"#utility.yul\":5216:5690   */\n    tag_75:\n        /* \"#utility.yul\":5284:5290   */\n      0x00\n        /* \"#utility.yul\":5292:5298   */\n      dup1\n        /* \"#utility.yul\":5341:5343   */\n      0x40\n        /* \"#utility.yul\":5329:5338   */\n      dup4\n        /* \"#utility.yul\":5320:5327   */\n      dup6\n        /* \"#utility.yul\":5316:5339   */\n      sub\n        /* \"#utility.yul\":5312:5344   */\n      slt\n        /* \"#utility.yul\":5309:5428   */\n      iszero\n      tag_436\n      jumpi\n        /* \"#utility.yul\":5347:5426   */\n      tag_437\n      tag_331\n      jump\t// in\n    tag_437:\n        /* \"#utility.yul\":5309:5428   */\n    tag_436:\n        /* \"#utility.yul\":5467:5468   */\n      0x00\n        /* \"#utility.yul\":5492:5545   */\n      tag_438\n        /* \"#utility.yul\":5537:5544   */\n      dup6\n        /* \"#utility.yul\":5528:5534   */\n      dup3\n        /* \"#utility.yul\":5517:5526   */\n      dup7\n        /* \"#utility.yul\":5513:5535   */\n      add\n        /* \"#utility.yul\":5492:5545   */\n      tag_348\n      jump\t// in\n    tag_438:\n        /* \"#utility.yul\":5482:5545   */\n      swap3\n      pop\n        /* \"#utility.yul\":5438:5555   */\n      pop\n        /* \"#utility.yul\":5594:5596   */\n      0x20\n        /* \"#utility.yul\":5620:5673   */\n      tag_439\n        /* \"#utility.yul\":5665:5672   */\n      dup6\n        /* \"#utility.yul\":5656:5662   */\n      dup3\n        /* \"#utility.yul\":5645:5654   */\n      dup7\n        /* \"#utility.yul\":5641:5663   */\n      add\n        /* \"#utility.yul\":5620:5673   */\n      tag_335\n      jump\t// in\n    tag_439:\n        /* \"#utility.yul\":5610:5673   */\n      swap2\n      pop\n        /* \"#utility.yul\":5565:5683   */\n      pop\n        /* \"#utility.yul\":5216:5690   */\n      swap3\n      pop\n      swap3\n      swap1\n      pop\n      jump\t// out\n        /* \"#utility.yul\":5696:5813   */\n    tag_349:\n        /* \"#utility.yul\":5805:5806   */\n      0x00\n        /* \"#utility.yul\":5802:5803   */\n      dup1\n        /* \"#utility.yul\":5795:5807   */\n      revert\n        /* \"#utility.yul\":5819:5936   */\n    tag_350:\n        /* \"#utility.yul\":5928:5929   */\n      0x00\n        /* \"#utility.yul\":5925:5926   */\n      dup1\n        /* \"#utility.yul\":5918:5930   */\n      revert\n        /* \"#utility.yul\":5942:6122   */\n    tag_351:\n        /* \"#utility.yul\":5990:6067   */\n      0x4e487b7100000000000000000000000000000000000000000000000000000000\n        /* \"#utility.yul\":5987:5988   */\n      0x00\n        /* \"#utility.yul\":5980:6068   */\n      mstore\n        /* \"#utility.yul\":6087:6091   */\n      0x41\n        /* \"#utility.yul\":6084:6085   */\n      0x04\n        /* \"#utility.yul\":6077:6092   */\n      mstore\n        /* \"#utility.yul\":6111:6115   */\n      0x24\n        /* \"#utility.yul\":6108:6109   */\n      0x00\n        /* \"#utility.yul\":6101:6116   */\n      revert\n        /* \"#utility.yul\":6128:6409   */\n    tag_352:\n        /* \"#utility.yul\":6211:6238   */\n      tag_444\n        /* \"#utility.yul\":6233:6237   */\n      dup3\n        /* \"#utility.yul\":6211:6238   */\n      tag_340\n      jump\t// in\n    tag_444:\n        /* \"#utility.yul\":6203:6209   */\n      dup2\n        /* \"#utility.yul\":6199:6239   */\n      add\n        /* \"#utility.yul\":6341:6347   */\n      dup2\n        /* \"#utility.yul\":6329:6339   */\n      dup2\n        /* \"#utility.yul\":6326:6348   */\n      lt\n        /* \"#utility.yul\":6305:6323   */\n      0xffffffffffffffff\n        /* \"#utility.yul\":6293:6303   */\n      dup3\n        /* \"#utility.yul\":6290:6324   */\n      gt\n        /* \"#utility.yul\":6287:6349   */\n      or\n        /* \"#utility.yul\":6284:6372   */\n      iszero\n      tag_445\n      jumpi\n        /* \"#utility.yul\":6352:6370   */\n      tag_446\n      tag_351\n      jump\t// in\n    tag_446:\n        /* \"#utility.yul\":6284:6372   */\n    tag_445:\n        /* \"#utility.yul\":6392:6402   */\n      dup1\n        /* \"#utility.yul\":6388:6390   */\n      0x40\n        /* \"#utility.yul\":6381:6403   */\n      mstore\n        /* \"#utility.yul\":6171:6409   */\n      pop\n        /* \"#utility.yul\":6128:6409   */\n      pop\n      pop\n      jump\t// out\n        /* \"#utility.yul\":6415:6544   */\n    tag_353:\n        /* \"#utility.yul\":6449:6455   */\n      0x00\n        /* \"#utility.yul\":6476:6496   */\n      tag_448\n      tag_330\n      jump\t// in\n    tag_448:\n        /* \"#utility.yul\":6466:6496   */\n      swap1\n      pop\n        /* \"#utility.yul\":6505:6538   */\n      tag_449\n        /* \"#utility.yul\":6533:6537   */\n      dup3\n        /* \"#utility.yul\":6525:6531   */\n      dup3\n        /* \"#utility.yul\":6505:6538   */\n      tag_352\n      jump\t// in\n    tag_449:\n        /* \"#utility.yul\":6415:6544   */\n      swap2\n      swap1\n      pop\n      jump\t// out\n        /* \"#utility.yul\":6550:6858   */\n    tag_354:\n        /* \"#utility.yul\":6612:6616   */\n      0x00\n        /* \"#utility.yul\":6702:6720   */\n      0xffffffffffffffff\n        /* \"#utility.yul\":6694:6700   */\n      dup3\n        /* \"#utility.yul\":6691:6721   */\n      gt\n        /* \"#utility.yul\":6688:6744   */\n      iszero\n      tag_451\n      jumpi\n        /* \"#utility.yul\":6724:6742   */\n      tag_452\n      tag_351\n      jump\t// in\n    tag_452:\n        /* \"#utility.yul\":6688:6744   */\n    tag_451:\n        /* \"#utility.yul\":6762:6791   */\n      tag_453\n        /* \"#utility.yul\":6784:6790   */\n      dup3\n        /* \"#utility.yul\":6762:6791   */\n      tag_340\n      jump\t// in\n    tag_453:\n        /* \"#utility.yul\":6754:6791   */\n      swap1\n      pop\n        /* \"#utility.yul\":6846:6850   */\n      0x20\n        /* \"#utility.yul\":6840:6844   */\n      dup2\n        /* \"#utility.yul\":6836:6851   */\n      add\n        /* \"#utility.yul\":6828:6851   */\n      swap1\n      pop\n        /* \"#utility.yul\":6550:6858   */\n      swap2\n      swap1\n      pop\n      jump\t// out\n        /* \"#utility.yul\":6864:7018   */\n    tag_355:\n        /* \"#utility.yul\":6948:6954   */\n      dup3\n        /* \"#utility.yul\":6943:6946   */\n      dup2\n        /* \"#utility.yul\":6938:6941   */\n      dup4\n        /* \"#utility.yul\":6925:6955   */\n      calldatacopy\n        /* \"#utility.yul\":7010:7011   */\n      0x00\n        /* \"#utility.yul\":7001:7007   */\n      dup4\n        /* \"#utility.yul\":6996:6999   */\n      dup4\n        /* \"#utility.yul\":6992:7008   */\n      add\n        /* \"#utility.yul\":6985:7012   */\n      mstore\n        /* \"#utility.yul\":6864:7018   */\n      pop\n      pop\n      pop\n      jump\t// out\n        /* \"#utility.yul\":7024:7436   */\n    tag_356:\n        /* \"#utility.yul\":7102:7107   */\n      0x00\n        /* \"#utility.yul\":7127:7193   */\n      tag_456\n        /* \"#utility.yul\":7143:7192   */\n      tag_457\n        /* \"#utility.yul\":7185:7191   */\n      dup5\n        /* \"#utility.yul\":7143:7192   */\n      tag_354\n      jump\t// in\n    tag_457:\n        /* \"#utility.yul\":7127:7193   */\n      tag_353\n      jump\t// in\n    tag_456:\n        /* \"#utility.yul\":7118:7193   */\n      swap1\n      pop\n        /* \"#utility.yul\":7216:7222   */\n      dup3\n        /* \"#utility.yul\":7209:7214   */\n      dup2\n        /* \"#utility.yul\":7202:7223   */\n      mstore\n        /* \"#utility.yul\":7254:7258   */\n      0x20\n        /* \"#utility.yul\":7247:7252   */\n      dup2\n        /* \"#utility.yul\":7243:7259   */\n      add\n        /* \"#utility.yul\":7292:7295   */\n      dup5\n        /* \"#utility.yul\":7283:7289   */\n      dup5\n        /* \"#utility.yul\":7278:7281   */\n      dup5\n        /* \"#utility.yul\":7274:7290   */\n      add\n        /* \"#utility.yul\":7271:7296   */\n      gt\n        /* \"#utility.yul\":7268:7380   */\n      iszero\n      tag_458\n      jumpi\n        /* \"#utility.yul\":7299:7378   */\n      tag_459\n      tag_350\n      jump\t// in\n    tag_459:\n        /* \"#utility.yul\":7268:7380   */\n    tag_458:\n        /* \"#utility.yul\":7389:7430   */\n      tag_460\n        /* \"#utility.yul\":7423:7429   */\n      dup5\n        /* \"#utility.yul\":7418:7421   */\n      dup3\n        /* \"#utility.yul\":7413:7416   */\n      dup6\n        /* \"#utility.yul\":7389:7430   */\n      tag_355\n      jump\t// in\n    tag_460:\n        /* \"#utility.yul\":7108:7436   */\n      pop\n        /* \"#utility.yul\":7024:7436   */\n      swap4\n      swap3\n      pop\n      pop\n      pop\n      jump\t// out\n        /* \"#utility.yul\":7456:7796   */\n    tag_357:\n        /* \"#utility.yul\":7512:7517   */\n      0x00\n        /* \"#utility.yul\":7561:7564   */\n      dup3\n        /* \"#utility.yul\":7554:7558   */\n      0x1f\n        /* \"#utility.yul\":7546:7552   */\n      dup4\n        /* \"#utility.yul\":7542:7559   */\n      add\n        /* \"#utility.yul\":7538:7565   */\n      slt\n        /* \"#utility.yul\":7528:7650   */\n      tag_462\n      jumpi\n        /* \"#utility.yul\":7569:7648   */\n      tag_463\n      tag_349\n      jump\t// in\n    tag_463:\n        /* \"#utility.yul\":7528:7650   */\n    tag_462:\n        /* \"#utility.yul\":7686:7692   */\n      dup2\n        /* \"#utility.yul\":7673:7693   */\n      calldataload\n        /* \"#utility.yul\":7711:7790   */\n      tag_464\n        /* \"#utility.yul\":7786:7789   */\n      dup5\n        /* \"#utility.yul\":7778:7784   */\n      dup3\n        /* \"#utility.yul\":7771:7775   */\n      0x20\n        /* \"#utility.yul\":7763:7769   */\n      dup7\n        /* \"#utility.yul\":7759:7776   */\n      add\n        /* \"#utility.yul\":7711:7790   */\n      tag_356\n      jump\t// in\n    tag_464:\n        /* \"#utility.yul\":7702:7790   */\n      swap2\n      pop\n        /* \"#utility.yul\":7518:7796   */\n      pop\n        /* \"#utility.yul\":7456:7796   */\n      swap3\n      swap2\n      pop\n      pop\n      jump\t// out\n        /* \"#utility.yul\":7802:8636   */\n    tag_81:\n        /* \"#utility.yul\":7890:7896   */\n      0x00\n        /* \"#utility.yul\":7898:7904   */\n      dup1\n        /* \"#utility.yul\":7947:7949   */\n      0x40\n        /* \"#utility.yul\":7935:7944   */\n      dup4\n        /* \"#utility.yul\":7926:7933   */\n      dup6\n        /* \"#utility.yul\":7922:7945   */\n      sub\n        /* \"#utility.yul\":7918:7950   */\n      slt\n        /* \"#utility.yul\":7915:8034   */\n      iszero\n      tag_466\n      jumpi\n        /* \"#utility.yul\":7953:8032   */\n      tag_467\n      tag_331\n      jump\t// in\n    tag_467:\n        /* \"#utility.yul\":7915:8034   */\n    tag_466:\n        /* \"#utility.yul\":8101:8102   */\n      0x00\n        /* \"#utility.yul\":8090:8099   */\n      dup4\n        /* \"#utility.yul\":8086:8103   */\n      add\n        /* \"#utility.yul\":8073:8104   */\n      calldataload\n        /* \"#utility.yul\":8131:8149   */\n      0xffffffffffffffff\n        /* \"#utility.yul\":8123:8129   */\n      dup2\n        /* \"#utility.yul\":8120:8150   */\n      gt\n        /* \"#utility.yul\":8117:8234   */\n      iszero\n      tag_468\n      jumpi\n        /* \"#utility.yul\":8153:8232   */\n      tag_469\n      tag_332\n      jump\t// in\n    tag_469:\n        /* \"#utility.yul\":8117:8234   */\n    tag_468:\n        /* \"#utility.yul\":8258:8321   */\n      tag_470\n        /* \"#utility.yul\":8313:8320   */\n      dup6\n        /* \"#utility.yul\":8304:8310   */\n      dup3\n        /* \"#utility.yul\":8293:8302   */\n      dup7\n        /* \"#utility.yul\":8289:8311   */\n      add\n        /* \"#utility.yul\":8258:8321   */\n      tag_357\n      jump\t// in\n    tag_470:\n        /* \"#utility.yul\":8248:8321   */\n      swap3\n      pop\n        /* \"#utility.yul\":8044:8331   */\n      pop\n        /* \"#utility.yul\":8398:8400   */\n      0x20\n        /* \"#utility.yul\":8387:8396   */\n      dup4\n        /* \"#utility.yul\":8383:8401   */\n      add\n        /* \"#utility.yul\":8370:8402   */\n      calldataload\n        /* \"#utility.yul\":8429:8447   */\n      0xffffffffffffffff\n        /* \"#utility.yul\":8421:8427   */\n      dup2\n        /* \"#utility.yul\":8418:8448   */\n      gt\n        /* \"#utility.yul\":8415:8532   */\n      iszero\n      tag_471\n      jumpi\n        /* \"#utility.yul\":8451:8530   */\n      tag_472\n      tag_332\n      jump\t// in\n    tag_472:\n        /* \"#utility.yul\":8415:8532   */\n    tag_471:\n        /* \"#utility.yul\":8556:8619   */\n      tag_473\n        /* \"#utility.yul\":8611:8618   */\n      dup6\n        /* \"#utility.yul\":8602:8608   */\n      dup3\n        /* \"#utility.yul\":8591:8600   */\n      dup7\n        /* \"#utility.yul\":8587:8609   */\n      add\n        /* \"#utility.yul\":8556:8619   */\n      tag_357\n      jump\t// in\n    tag_473:\n        /* \"#utility.yul\":8546:8619   */\n      swap2\n      pop\n        /* \"#utility.yul\":8341:8629   */\n      pop\n        /* \"#utility.yul\":7802:8636   */\n      swap3\n      pop\n      swap3\n      swap1\n      pop\n      jump\t// out\n        /* \"#utility.yul\":8642:8864   */\n    tag_87:\n        /* \"#utility.yul\":8735:8739   */\n      0x00\n        /* \"#utility.yul\":8773:8775   */\n      0x20\n        /* \"#utility.yul\":8762:8771   */\n      dup3\n        /* \"#utility.yul\":8758:8776   */\n      add\n        /* \"#utility.yul\":8750:8776   */\n      swap1\n      pop\n        /* \"#utility.yul\":8786:8857   */\n      tag_475\n        /* \"#utility.yul\":8854:8855   */\n      0x00\n        /* \"#utility.yul\":8843:8852   */\n      dup4\n        /* \"#utility.yul\":8839:8856   */\n      add\n        /* \"#utility.yul\":8830:8836   */\n      dup5\n        /* \"#utility.yul\":8786:8857   */\n      tag_344\n      jump\t// in\n    tag_475:\n        /* \"#utility.yul\":8642:8864   */\n      swap3\n      swap2\n      pop\n      pop\n      jump\t// out\n        /* \"#utility.yul\":8870:9080   */\n    tag_106:\n        /* \"#utility.yul\":8957:8961   */\n      0x00\n        /* \"#utility.yul\":8995:8997   */\n      0x20\n        /* \"#utility.yul\":8984:8993   */\n      dup3\n        /* \"#utility.yul\":8980:8998   */\n      add\n        /* \"#utility.yul\":8972:8998   */\n      swap1\n      pop\n        /* \"#utility.yul\":9008:9073   */\n      tag_477\n        /* \"#utility.yul\":9070:9071   */\n      0x00\n        /* \"#utility.yul\":9059:9068   */\n      dup4\n        /* \"#utility.yul\":9055:9072   */\n      add\n        /* \"#utility.yul\":9046:9052   */\n      dup5\n        /* \"#utility.yul\":9008:9073   */\n      tag_346\n      jump\t// in\n    tag_477:\n        /* \"#utility.yul\":8870:9080   */\n      swap3\n      swap2\n      pop\n      pop\n      jump\t// out\n        /* \"#utility.yul\":9086:9266   */\n    tag_358:\n        /* \"#utility.yul\":9134:9211   */\n      0x4e487b7100000000000000000000000000000000000000000000000000000000\n        /* \"#utility.yul\":9131:9132   */\n      0x00\n        /* \"#utility.yul\":9124:9212   */\n      mstore\n        /* \"#utility.yul\":9231:9235   */\n      0x22\n        /* \"#utility.yul\":9228:9229   */\n      0x04\n        /* \"#utility.yul\":9221:9236   */\n      mstore\n        /* \"#utility.yul\":9255:9259   */\n      0x24\n        /* \"#utility.yul\":9252:9253   */\n      0x00\n        /* \"#utility.yul\":9245:9260   */\n      revert\n        /* \"#utility.yul\":9272:9592   */\n    tag_136:\n        /* \"#utility.yul\":9316:9322   */\n      0x00\n        /* \"#utility.yul\":9353:9354   */\n      0x02\n        /* \"#utility.yul\":9347:9351   */\n      dup3\n        /* \"#utility.yul\":9343:9355   */\n      div\n        /* \"#utility.yul\":9333:9355   */\n      swap1\n      pop\n        /* \"#utility.yul\":9400:9401   */\n      0x01\n        /* \"#utility.yul\":9394:9398   */\n      dup3\n        /* \"#utility.yul\":9390:9402   */\n      and\n        /* \"#utility.yul\":9421:9439   */\n      dup1\n        /* \"#utility.yul\":9411:9492   */\n      tag_480\n      jumpi\n        /* \"#utility.yul\":9477:9481   */\n      0x7f\n        /* \"#utility.yul\":9469:9475   */\n      dup3\n        /* \"#utility.yul\":9465:9482   */\n      and\n        /* \"#utility.yul\":9455:9482   */\n      swap2\n      pop\n        /* \"#utility.yul\":9411:9492   */\n    tag_480:\n        /* \"#utility.yul\":9539:9541   */\n      0x20\n        /* \"#utility.yul\":9531:9537   */\n      dup3\n        /* \"#utility.yul\":9528:9542   */\n      lt\n        /* \"#utility.yul\":9508:9526   */\n      dup2\n        /* \"#utility.yul\":9505:9543   */\n      eq\n        /* \"#utility.yul\":9502:9586   */\n      iszero\n      tag_481\n      jumpi\n        /* \"#utility.yul\":9558:9576   */\n      tag_482\n      tag_358\n      jump\t// in\n    tag_482:\n        /* \"#utility.yul\":9502:9586   */\n    tag_481:\n        /* \"#utility.yul\":9323:9592   */\n      pop\n        /* \"#utility.yul\":9272:9592   */\n      swap2\n      swap1\n      pop\n      jump\t// out\n        /* \"#utility.yul\":9598:9818   */\n    tag_359:\n        /* \"#utility.yul\":9738:9772   */\n      0x596f7520646f6e27742068617665207065726d697373696f6e20746f20766f74\n        /* \"#utility.yul\":9734:9735   */\n      0x00\n        /* \"#utility.yul\":9726:9732   */\n      dup3\n        /* \"#utility.yul\":9722:9736   */\n      add\n        /* \"#utility.yul\":9715:9773   */\n      mstore\n        /* \"#utility.yul\":9807:9810   */\n      0x6500000000000000000000000000000000000000000000000000000000000000\n        /* \"#utility.yul\":9802:9804   */\n      0x20\n        /* \"#utility.yul\":9794:9800   */\n      dup3\n        /* \"#utility.yul\":9790:9805   */\n      add\n        /* \"#utility.yul\":9783:9811   */\n      mstore\n        /* \"#utility.yul\":9598:9818   */\n      pop\n      jump\t// out\n        /* \"#utility.yul\":9824:10190   */\n    tag_360:\n        /* \"#utility.yul\":9966:9969   */\n      0x00\n        /* \"#utility.yul\":9987:10054   */\n      tag_485\n        /* \"#utility.yul\":10051:10053   */\n      0x21\n        /* \"#utility.yul\":10046:10049   */\n      dup4\n        /* \"#utility.yul\":9987:10054   */\n      tag_338\n      jump\t// in\n    tag_485:\n        /* \"#utility.yul\":9980:10054   */\n      swap2\n      pop\n        /* \"#utility.yul\":10063:10156   */\n      tag_486\n        /* \"#utility.yul\":10152:10155   */\n      dup3\n        /* \"#utility.yul\":10063:10156   */\n      tag_359\n      jump\t// in\n    tag_486:\n        /* \"#utility.yul\":10181:10183   */\n      0x40\n        /* \"#utility.yul\":10176:10179   */\n      dup3\n        /* \"#utility.yul\":10172:10184   */\n      add\n        /* \"#utility.yul\":10165:10184   */\n      swap1\n      pop\n        /* \"#utility.yul\":9824:10190   */\n      swap2\n      swap1\n      pop\n      jump\t// out\n        /* \"#utility.yul\":10196:10615   */\n    tag_149:\n        /* \"#utility.yul\":10362:10366   */\n      0x00\n        /* \"#utility.yul\":10400:10402   */\n      0x20\n        /* \"#utility.yul\":10389:10398   */\n      dup3\n        /* \"#utility.yul\":10385:10403   */\n      add\n        /* \"#utility.yul\":10377:10403   */\n      swap1\n      pop\n        /* \"#utility.yul\":10449:10458   */\n      dup2\n        /* \"#utility.yul\":10443:10447   */\n      dup2\n        /* \"#utility.yul\":10439:10459   */\n      sub\n        /* \"#utility.yul\":10435:10436   */\n      0x00\n        /* \"#utility.yul\":10424:10433   */\n      dup4\n        /* \"#utility.yul\":10420:10437   */\n      add\n        /* \"#utility.yul\":10413:10460   */\n      mstore\n        /* \"#utility.yul\":10477:10608   */\n      tag_488\n        /* \"#utility.yul\":10603:10607   */\n      dup2\n        /* \"#utility.yul\":10477:10608   */\n      tag_360\n      jump\t// in\n    tag_488:\n        /* \"#utility.yul\":10469:10608   */\n      swap1\n      pop\n        /* \"#utility.yul\":10196:10615   */\n      swap2\n      swap1\n      pop\n      jump\t// out\n        /* \"#utility.yul\":10621:10788   */\n    tag_361:\n        /* \"#utility.yul\":10761:10780   */\n      0x596f7520616c726561647920766f746564000000000000000000000000000000\n        /* \"#utility.yul\":10757:10758   */\n      0x00\n        /* \"#utility.yul\":10749:10755   */\n      dup3\n        /* \"#utility.yul\":10745:10759   */\n      add\n        /* \"#utility.yul\":10738:10781   */\n      mstore\n        /* \"#utility.yul\":10621:10788   */\n      pop\n      jump\t// out\n        /* \"#utility.yul\":10794:11160   */\n    tag_362:\n        /* \"#utility.yul\":10936:10939   */\n      0x00\n        /* \"#utility.yul\":10957:11024   */\n      tag_491\n        /* \"#utility.yul\":11021:11023   */\n      0x11\n        /* \"#utility.yul\":11016:11019   */\n      dup4\n        /* \"#utility.yul\":10957:11024   */\n      tag_338\n      jump\t// in\n    tag_491:\n        /* \"#utility.yul\":10950:11024   */\n      swap2\n      pop\n        /* \"#utility.yul\":11033:11126   */\n      tag_492\n        /* \"#utility.yul\":11122:11125   */\n      dup3\n        /* \"#utility.yul\":11033:11126   */\n      tag_361\n      jump\t// in\n    tag_492:\n        /* \"#utility.yul\":11151:11153   */\n      0x20\n        /* \"#utility.yul\":11146:11149   */\n      dup3\n        /* \"#utility.yul\":11142:11154   */\n      add\n        /* \"#utility.yul\":11135:11154   */\n      swap1\n      pop\n        /* \"#utility.yul\":10794:11160   */\n      swap2\n      swap1\n      pop\n      jump\t// out\n        /* \"#utility.yul\":11166:11585   */\n    tag_152:\n        /* \"#utility.yul\":11332:11336   */\n      0x00\n        /* \"#utility.yul\":11370:11372   */\n      0x20\n        /* \"#utility.yul\":11359:11368   */\n      dup3\n        /* \"#utility.yul\":11355:11373   */\n      add\n        /* \"#utility.yul\":11347:11373   */\n      swap1\n      pop\n        /* \"#utility.yul\":11419:11428   */\n      dup2\n        /* \"#utility.yul\":11413:11417   */\n      dup2\n        /* \"#utility.yul\":11409:11429   */\n      sub\n        /* \"#utility.yul\":11405:11406   */\n      0x00\n        /* \"#utility.yul\":11394:11403   */\n      dup4\n        /* \"#utility.yul\":11390:11407   */\n      add\n        /* \"#utility.yul\":11383:11430   */\n      mstore\n        /* \"#utility.yul\":11447:11578   */\n      tag_494\n        /* \"#utility.yul\":11573:11577   */\n      dup2\n        /* \"#utility.yul\":11447:11578   */\n      tag_362\n      jump\t// in\n    tag_494:\n        /* \"#utility.yul\":11439:11578   */\n      swap1\n      pop\n        /* \"#utility.yul\":11166:11585   */\n      swap2\n      swap1\n      pop\n      jump\t// out\n        /* \"#utility.yul\":11591:11765   */\n    tag_363:\n        /* \"#utility.yul\":11731:11757   */\n      0x5468652070726f706f73616c20697320636f6d706c6574650000000000000000\n        /* \"#utility.yul\":11727:11728   */\n      0x00\n        /* \"#utility.yul\":11719:11725   */\n      dup3\n        /* \"#utility.yul\":11715:11729   */\n      add\n        /* \"#utility.yul\":11708:11758   */\n      mstore\n        /* \"#utility.yul\":11591:11765   */\n      pop\n      jump\t// out\n        /* \"#utility.yul\":11771:12137   */\n    tag_364:\n        /* \"#utility.yul\":11913:11916   */\n      0x00\n        /* \"#utility.yul\":11934:12001   */\n      tag_497\n        /* \"#utility.yul\":11998:12000   */\n      0x18\n        /* \"#utility.yul\":11993:11996   */\n      dup4\n        /* \"#utility.yul\":11934:12001   */\n      tag_338\n      jump\t// in\n    tag_497:\n        /* \"#utility.yul\":11927:12001   */\n      swap2\n      pop\n        /* \"#utility.yul\":12010:12103   */\n      tag_498\n        /* \"#utility.yul\":12099:12102   */\n      dup3\n        /* \"#utility.yul\":12010:12103   */\n      tag_363\n      jump\t// in\n    tag_498:\n        /* \"#utility.yul\":12128:12130   */\n      0x20\n        /* \"#utility.yul\":12123:12126   */\n      dup3\n        /* \"#utility.yul\":12119:12131   */\n      add\n        /* \"#utility.yul\":12112:12131   */\n      swap1\n      pop\n        /* \"#utility.yul\":11771:12137   */\n      swap2\n      swap1\n      pop\n      jump\t// out\n        /* \"#utility.yul\":12143:12562   */\n    tag_157:\n        /* \"#utility.yul\":12309:12313   */\n      0x00\n        /* \"#utility.yul\":12347:12349   */\n      0x20\n        /* \"#utility.yul\":12336:12345   */\n      dup3\n        /* \"#utility.yul\":12332:12350   */\n      add\n        /* \"#utility.yul\":12324:12350   */\n      swap1\n      pop\n        /* \"#utility.yul\":12396:12405   */\n      dup2\n        /* \"#utility.yul\":12390:12394   */\n      dup2\n        /* \"#utility.yul\":12386:12406   */\n      sub\n        /* \"#utility.yul\":12382:12383   */\n      0x00\n        /* \"#utility.yul\":12371:12380   */\n      dup4\n        /* \"#utility.yul\":12367:12384   */\n      add\n        /* \"#utility.yul\":12360:12407   */\n      mstore\n        /* \"#utility.yul\":12424:12555   */\n      tag_500\n        /* \"#utility.yul\":12550:12554   */\n      dup2\n        /* \"#utility.yul\":12424:12555   */\n      tag_364\n      jump\t// in\n    tag_500:\n        /* \"#utility.yul\":12416:12555   */\n      swap1\n      pop\n        /* \"#utility.yul\":12143:12562   */\n      swap2\n      swap1\n      pop\n      jump\t// out\n        /* \"#utility.yul\":12568:12748   */\n    tag_365:\n        /* \"#utility.yul\":12616:12693   */\n      0x4e487b7100000000000000000000000000000000000000000000000000000000\n        /* \"#utility.yul\":12613:12614   */\n      0x00\n        /* \"#utility.yul\":12606:12694   */\n      mstore\n        /* \"#utility.yul\":12713:12717   */\n      0x11\n        /* \"#utility.yul\":12710:12711   */\n      0x04\n        /* \"#utility.yul\":12703:12718   */\n      mstore\n        /* \"#utility.yul\":12737:12741   */\n      0x24\n        /* \"#utility.yul\":12734:12735   */\n      0x00\n        /* \"#utility.yul\":12727:12742   */\n      revert\n        /* \"#utility.yul\":12754:13059   */\n    tag_160:\n        /* \"#utility.yul\":12794:12797   */\n      0x00\n        /* \"#utility.yul\":12813:12833   */\n      tag_503\n        /* \"#utility.yul\":12831:12832   */\n      dup3\n        /* \"#utility.yul\":12813:12833   */\n      tag_333\n      jump\t// in\n    tag_503:\n        /* \"#utility.yul\":12808:12833   */\n      swap2\n      pop\n        /* \"#utility.yul\":12847:12867   */\n      tag_504\n        /* \"#utility.yul\":12865:12866   */\n      dup4\n        /* \"#utility.yul\":12847:12867   */\n      tag_333\n      jump\t// in\n    tag_504:\n        /* \"#utility.yul\":12842:12867   */\n      swap3\n      pop\n        /* \"#utility.yul\":13001:13002   */\n      dup3\n        /* \"#utility.yul\":12933:12999   */\n      0xffffffffffffffffffffffffffffffffffffffffffffffffffffffffffffffff\n        /* \"#utility.yul\":12929:13003   */\n      sub\n        /* \"#utility.yul\":12926:12927   */\n      dup3\n        /* \"#utility.yul\":12923:13004   */\n      gt\n        /* \"#utility.yul\":12920:13027   */\n      iszero\n      tag_505\n      jumpi\n        /* \"#utility.yul\":13007:13025   */\n      tag_506\n      tag_365\n      jump\t// in\n    tag_506:\n        /* \"#utility.yul\":12920:13027   */\n    tag_505:\n        /* \"#utility.yul\":13051:13052   */\n      dup3\n        /* \"#utility.yul\":13048:13049   */\n      dup3\n        /* \"#utility.yul\":13044:13053   */\n      add\n        /* \"#utility.yul\":13037:13053   */\n      swap1\n      pop\n        /* \"#utility.yul\":12754:13059   */\n      swap3\n      swap2\n      pop\n      pop\n      jump\t// out\n        /* \"#utility.yul\":13065:13245   */\n    tag_366:\n        /* \"#utility.yul\":13113:13190   */\n      0x4e487b7100000000000000000000000000000000000000000000000000000000\n        /* \"#utility.yul\":13110:13111   */\n      0x00\n        /* \"#utility.yul\":13103:13191   */\n      mstore\n        /* \"#utility.yul\":13210:13214   */\n      0x12\n        /* \"#utility.yul\":13207:13208   */\n      0x04\n        /* \"#utility.yul\":13200:13215   */\n      mstore\n        /* \"#utility.yul\":13234:13238   */\n      0x24\n        /* \"#utility.yul\":13231:13232   */\n      0x00\n        /* \"#utility.yul\":13224:13239   */\n      revert\n        /* \"#utility.yul\":13251:13436   */\n    tag_162:\n        /* \"#utility.yul\":13291:13292   */\n      0x00\n        /* \"#utility.yul\":13308:13328   */\n      tag_509\n        /* \"#utility.yul\":13326:13327   */\n      dup3\n        /* \"#utility.yul\":13308:13328   */\n      tag_333\n      jump\t// in\n    tag_509:\n        /* \"#utility.yul\":13303:13328   */\n      swap2\n      pop\n        /* \"#utility.yul\":13342:13362   */\n      tag_510\n        /* \"#utility.yul\":13360:13361   */\n      dup4\n        /* \"#utility.yul\":13342:13362   */\n      tag_333\n      jump\t// in\n    tag_510:\n        /* \"#utility.yul\":13337:13362   */\n      swap3\n      pop\n        /* \"#utility.yul\":13381:13382   */\n      dup3\n        /* \"#utility.yul\":13371:13406   */\n      tag_511\n      jumpi\n        /* \"#utility.yul\":13386:13404   */\n      tag_512\n      tag_366\n      jump\t// in\n    tag_512:\n        /* \"#utility.yul\":13371:13406   */\n    tag_511:\n        /* \"#utility.yul\":13428:13429   */\n      dup3\n        /* \"#utility.yul\":13425:13426   */\n      dup3\n        /* \"#utility.yul\":13421:13430   */\n      div\n        /* \"#utility.yul\":13416:13430   */\n      swap1\n      pop\n        /* \"#utility.yul\":13251:13436   */\n      swap3\n      swap2\n      pop\n      pop\n      jump\t// out\n        /* \"#utility.yul\":13442:13622   */\n    tag_172:\n        /* \"#utility.yul\":13490:13567   */\n      0x4e487b7100000000000000000000000000000000000000000000000000000000\n        /* \"#utility.yul\":13487:13488   */\n      0x00\n        /* \"#utility.yul\":13480:13568   */\n      mstore\n        /* \"#utility.yul\":13587:13591   */\n      0x32\n        /* \"#utility.yul\":13584:13585   */\n      0x04\n        /* \"#utility.yul\":13577:13592   */\n      mstore\n        /* \"#utility.yul\":13611:13615   */\n      0x24\n        /* \"#utility.yul\":13608:13609   */\n      0x00\n        /* \"#utility.yul\":13601:13616   */\n      revert\n        /* \"#utility.yul\":13628:13785   */\n    tag_367:\n        /* \"#utility.yul\":13768:13777   */\n      0x4e6f742079657400000000000000000000000000000000000000000000000000\n        /* \"#utility.yul\":13764:13765   */\n      0x00\n        /* \"#utility.yul\":13756:13762   */\n      dup3\n        /* \"#utility.yul\":13752:13766   */\n      add\n        /* \"#utility.yul\":13745:13778   */\n      mstore\n        /* \"#utility.yul\":13628:13785   */\n      pop\n      jump\t// out\n        /* \"#utility.yul\":13791:14156   */\n    tag_368:\n        /* \"#utility.yul\":13933:13936   */\n      0x00\n        /* \"#utility.yul\":13954:14020   */\n      tag_516\n        /* \"#utility.yul\":14018:14019   */\n      0x07\n        /* \"#utility.yul\":14013:14016   */\n      dup4\n        /* \"#utility.yul\":13954:14020   */\n      tag_338\n      jump\t// in\n    tag_516:\n        /* \"#utility.yul\":13947:14020   */\n      swap2\n      pop\n        /* \"#utility.yul\":14029:14122   */\n      tag_517\n        /* \"#utility.yul\":14118:14121   */\n      dup3\n        /* \"#utility.yul\":14029:14122   */\n      tag_367\n      jump\t// in\n    tag_517:\n        /* \"#utility.yul\":14147:14149   */\n      0x20\n        /* \"#utility.yul\":14142:14145   */\n      dup3\n        /* \"#utility.yul\":14138:14150   */\n      add\n        /* \"#utility.yul\":14131:14150   */\n      swap1\n      pop\n        /* \"#utility.yul\":13791:14156   */\n      swap2\n      swap1\n      pop\n      jump\t// out\n        /* \"#utility.yul\":14162:14581   */\n    tag_180:\n        /* \"#utility.yul\":14328:14332   */\n      0x00\n        /* \"#utility.yul\":14366:14368   */\n      0x20\n        /* \"#utility.yul\":14355:14364   */\n      dup3\n        /* \"#utility.yul\":14351:14369   */\n      add\n        /* \"#utility.yul\":14343:14369   */\n      swap1\n      pop\n        /* \"#utility.yul\":14415:14424   */\n      dup2\n        /* \"#utility.yul\":14409:14413   */\n      dup2\n        /* \"#utility.yul\":14405:14425   */\n      sub\n        /* \"#utility.yul\":14401:14402   */\n      0x00\n        /* \"#utility.yul\":14390:14399   */\n      dup4\n        /* \"#utility.yul\":14386:14403   */\n      add\n        /* \"#utility.yul\":14379:14426   */\n      mstore\n        /* \"#utility.yul\":14443:14574   */\n      tag_519\n        /* \"#utility.yul\":14569:14573   */\n      dup2\n        /* \"#utility.yul\":14443:14574   */\n      tag_368\n      jump\t// in\n    tag_519:\n        /* \"#utility.yul\":14435:14574   */\n      swap1\n      pop\n        /* \"#utility.yul\":14162:14581   */\n      swap2\n      swap1\n      pop\n      jump\t// out\n        /* \"#utility.yul\":14587:14778   */\n    tag_190:\n        /* \"#utility.yul\":14627:14631   */\n      0x00\n        /* \"#utility.yul\":14647:14667   */\n      tag_521\n        /* \"#utility.yul\":14665:14666   */\n      dup3\n        /* \"#utility.yul\":14647:14667   */\n      tag_333\n      jump\t// in\n    tag_521:\n        /* \"#utility.yul\":14642:14667   */\n      swap2\n      pop\n        /* \"#utility.yul\":14681:14701   */\n      tag_522\n        /* \"#utility.yul\":14699:14700   */\n      dup4\n        /* \"#utility.yul\":14681:14701   */\n      tag_333\n      jump\t// in\n    tag_522:\n        /* \"#utility.yul\":14676:14701   */\n      swap3\n      pop\n        /* \"#utility.yul\":14720:14721   */\n      dup3\n        /* \"#utility.yul\":14717:14718   */\n      dup3\n        /* \"#utility.yul\":14714:14722   */\n      lt\n        /* \"#utility.yul\":14711:14745   */\n      iszero\n      tag_523\n      jumpi\n        /* \"#utility.yul\":14725:14743   */\n      tag_524\n      tag_365\n      jump\t// in\n    tag_524:\n        /* \"#utility.yul\":14711:14745   */\n    tag_523:\n        /* \"#utility.yul\":14770:14771   */\n      dup3\n        /* \"#utility.yul\":14767:14768   */\n      dup3\n        /* \"#utility.yul\":14763:14772   */\n      sub\n        /* \"#utility.yul\":14755:14772   */\n      swap1\n      pop\n        /* \"#utility.yul\":14587:14778   */\n      swap3\n      swap2\n      pop\n      pop\n      jump\t// out\n        /* \"#utility.yul\":14784:14964   */\n    tag_220:\n        /* \"#utility.yul\":14832:14909   */\n      0x4e487b7100000000000000000000000000000000000000000000000000000000\n        /* \"#utility.yul\":14829:14830   */\n      0x00\n        /* \"#utility.yul\":14822:14910   */\n      mstore\n        /* \"#utility.yul\":14929:14933   */\n      0x31\n        /* \"#utility.yul\":14926:14927   */\n      0x04\n        /* \"#utility.yul\":14919:14934   */\n      mstore\n        /* \"#utility.yul\":14953:14957   */\n      0x24\n        /* \"#utility.yul\":14950:14951   */\n      0x00\n        /* \"#utility.yul\":14943:14958   */\n      revert\n        /* \"#utility.yul\":14970:15208   */\n    tag_369:\n        /* \"#utility.yul\":15110:15144   */\n      0x596f7520646f6e2774206861766520656e6f75676820746f6b656e7320746f20\n        /* \"#utility.yul\":15106:15107   */\n      0x00\n        /* \"#utility.yul\":15098:15104   */\n      dup3\n        /* \"#utility.yul\":15094:15108   */\n      add\n        /* \"#utility.yul\":15087:15145   */\n      mstore\n        /* \"#utility.yul\":15179:15200   */\n      0x7175616c6966792061732064656c656761746500000000000000000000000000\n        /* \"#utility.yul\":15174:15176   */\n      0x20\n        /* \"#utility.yul\":15166:15172   */\n      dup3\n        /* \"#utility.yul\":15162:15177   */\n      add\n        /* \"#utility.yul\":15155:15201   */\n      mstore\n        /* \"#utility.yul\":14970:15208   */\n      pop\n      jump\t// out\n        /* \"#utility.yul\":15214:15580   */\n    tag_370:\n        /* \"#utility.yul\":15356:15359   */\n      0x00\n        /* \"#utility.yul\":15377:15444   */\n      tag_528\n        /* \"#utility.yul\":15441:15443   */\n      0x33\n        /* \"#utility.yul\":15436:15439   */\n      dup4\n        /* \"#utility.yul\":15377:15444   */\n      tag_338\n      jump\t// in\n    tag_528:\n        /* \"#utility.yul\":15370:15444   */\n      swap2\n      pop\n        /* \"#utility.yul\":15453:15546   */\n      tag_529\n        /* \"#utility.yul\":15542:15545   */\n      dup3\n        /* \"#utility.yul\":15453:15546   */\n      tag_369\n      jump\t// in\n    tag_529:\n        /* \"#utility.yul\":15571:15573   */\n      0x40\n        /* \"#utility.yul\":15566:15569   */\n      dup3\n        /* \"#utility.yul\":15562:15574   */\n      add\n        /* \"#utility.yul\":15555:15574   */\n      swap1\n      pop\n        /* \"#utility.yul\":15214:15580   */\n      swap2\n      swap1\n      pop\n      jump\t// out\n        /* \"#utility.yul\":15586:16005   */\n    tag_233:\n        /* \"#utility.yul\":15752:15756   */\n      0x00\n        /* \"#utility.yul\":15790:15792   */\n      0x20\n        /* \"#utility.yul\":15779:15788   */\n      dup3\n        /* \"#utility.yul\":15775:15793   */\n      add\n        /* \"#utility.yul\":15767:15793   */\n      swap1\n      pop\n        /* \"#utility.yul\":15839:15848   */\n      dup2\n        /* \"#utility.yul\":15833:15837   */\n      dup2\n        /* \"#utility.yul\":15829:15849   */\n      sub\n        /* \"#utility.yul\":15825:15826   */\n      0x00\n        /* \"#utility.yul\":15814:15823   */\n      dup4\n        /* \"#utility.yul\":15810:15827   */\n      add\n        /* \"#utility.yul\":15803:15850   */\n      mstore\n        /* \"#utility.yul\":15867:15998   */\n      tag_531\n        /* \"#utility.yul\":15993:15997   */\n      dup2\n        /* \"#utility.yul\":15867:15998   */\n      tag_370\n      jump\t// in\n    tag_531:\n        /* \"#utility.yul\":15859:15998   */\n      swap1\n      pop\n        /* \"#utility.yul\":15586:16005   */\n      swap2\n      swap1\n      pop\n      jump\t// out\n        /* \"#utility.yul\":16011:16244   */\n    tag_235:\n        /* \"#utility.yul\":16050:16053   */\n      0x00\n        /* \"#utility.yul\":16073:16097   */\n      tag_533\n        /* \"#utility.yul\":16091:16096   */\n      dup3\n        /* \"#utility.yul\":16073:16097   */\n      tag_333\n      jump\t// in\n    tag_533:\n        /* \"#utility.yul\":16064:16097   */\n      swap2\n      pop\n        /* \"#utility.yul\":16119:16185   */\n      0xffffffffffffffffffffffffffffffffffffffffffffffffffffffffffffffff\n        /* \"#utility.yul\":16112:16117   */\n      dup3\n        /* \"#utility.yul\":16109:16186   */\n      eq\n        /* \"#utility.yul\":16106:16209   */\n      iszero\n      tag_534\n      jumpi\n        /* \"#utility.yul\":16189:16207   */\n      tag_535\n      tag_365\n      jump\t// in\n    tag_535:\n        /* \"#utility.yul\":16106:16209   */\n    tag_534:\n        /* \"#utility.yul\":16236:16237   */\n      0x01\n        /* \"#utility.yul\":16229:16234   */\n      dup3\n        /* \"#utility.yul\":16225:16238   */\n      add\n        /* \"#utility.yul\":16218:16238   */\n      swap1\n      pop\n        /* \"#utility.yul\":16011:16244   */\n      swap2\n      swap1\n      pop\n      jump\t// out\n        /* \"#utility.yul\":16250:16420   */\n    tag_371:\n        /* \"#utility.yul\":16390:16412   */\n      0x496e73756666696369656e742062616c616e6365000000000000000000000000\n        /* \"#utility.yul\":16386:16387   */\n      0x00\n        /* \"#utility.yul\":16378:16384   */\n      dup3\n        /* \"#utility.yul\":16374:16388   */\n      add\n        /* \"#utility.yul\":16367:16413   */\n      mstore\n        /* \"#utility.yul\":16250:16420   */\n      pop\n      jump\t// out\n        /* \"#utility.yul\":16426:16792   */\n    tag_372:\n        /* \"#utility.yul\":16568:16571   */\n      0x00\n        /* \"#utility.yul\":16589:16656   */\n      tag_538\n        /* \"#utility.yul\":16653:16655   */\n      0x14\n        /* \"#utility.yul\":16648:16651   */\n      dup4\n        /* \"#utility.yul\":16589:16656   */\n      tag_338\n      jump\t// in\n    tag_538:\n        /* \"#utility.yul\":16582:16656   */\n      swap2\n      pop\n        /* \"#utility.yul\":16665:16758   */\n      tag_539\n        /* \"#utility.yul\":16754:16757   */\n      dup3\n        /* \"#utility.yul\":16665:16758   */\n      tag_371\n      jump\t// in\n    tag_539:\n        /* \"#utility.yul\":16783:16785   */\n      0x20\n        /* \"#utility.yul\":16778:16781   */\n      dup3\n        /* \"#utility.yul\":16774:16786   */\n      add\n        /* \"#utility.yul\":16767:16786   */\n      swap1\n      pop\n        /* \"#utility.yul\":16426:16792   */\n      swap2\n      swap1\n      pop\n      jump\t// out\n        /* \"#utility.yul\":16798:17217   */\n    tag_272:\n        /* \"#utility.yul\":16964:16968   */\n      0x00\n        /* \"#utility.yul\":17002:17004   */\n      0x20\n        /* \"#utility.yul\":16991:17000   */\n      dup3\n        /* \"#utility.yul\":16987:17005   */\n      add\n        /* \"#utility.yul\":16979:17005   */\n      swap1\n      pop\n        /* \"#utility.yul\":17051:17060   */\n      dup2\n        /* \"#utility.yul\":17045:17049   */\n      dup2\n        /* \"#utility.yul\":17041:17061   */\n      sub\n        /* \"#utility.yul\":17037:17038   */\n      0x00\n        /* \"#utility.yul\":17026:17035   */\n      dup4\n        /* \"#utility.yul\":17022:17039   */\n      add\n        /* \"#utility.yul\":17015:17062   */\n      mstore\n        /* \"#utility.yul\":17079:17210   */\n      tag_541\n        /* \"#utility.yul\":17205:17209   */\n      dup2\n        /* \"#utility.yul\":17079:17210   */\n      tag_372\n      jump\t// in\n    tag_541:\n        /* \"#utility.yul\":17071:17210   */\n      swap1\n      pop\n        /* \"#utility.yul\":16798:17217   */\n      swap2\n      swap1\n      pop\n      jump\t// out\n        /* \"#utility.yul\":17223:17393   */\n    tag_373:\n        /* \"#utility.yul\":17363:17385   */\n      0x43616e2774207374616b65203020746f6b656e73000000000000000000000000\n        /* \"#utility.yul\":17359:17360   */\n      0x00\n        /* \"#utility.yul\":17351:17357   */\n      dup3\n        /* \"#utility.yul\":17347:17361   */\n      add\n        /* \"#utility.yul\":17340:17386   */\n      mstore\n        /* \"#utility.yul\":17223:17393   */\n      pop\n      jump\t// out\n        /* \"#utility.yul\":17399:17765   */\n    tag_374:\n        /* \"#utility.yul\":17541:17544   */\n      0x00\n        /* \"#utility.yul\":17562:17629   */\n      tag_544\n        /* \"#utility.yul\":17626:17628   */\n      0x14\n        /* \"#utility.yul\":17621:17624   */\n      dup4\n        /* \"#utility.yul\":17562:17629   */\n      tag_338\n      jump\t// in\n    tag_544:\n        /* \"#utility.yul\":17555:17629   */\n      swap2\n      pop\n        /* \"#utility.yul\":17638:17731   */\n      tag_545\n        /* \"#utility.yul\":17727:17730   */\n      dup3\n        /* \"#utility.yul\":17638:17731   */\n      tag_373\n      jump\t// in\n    tag_545:\n        /* \"#utility.yul\":17756:17758   */\n      0x20\n        /* \"#utility.yul\":17751:17754   */\n      dup3\n        /* \"#utility.yul\":17747:17759   */\n      add\n        /* \"#utility.yul\":17740:17759   */\n      swap1\n      pop\n        /* \"#utility.yul\":17399:17765   */\n      swap2\n      swap1\n      pop\n      jump\t// out\n        /* \"#utility.yul\":17771:18190   */\n    tag_275:\n        /* \"#utility.yul\":17937:17941   */\n      0x00\n        /* \"#utility.yul\":17975:17977   */\n      0x20\n        /* \"#utility.yul\":17964:17973   */\n      dup3\n        /* \"#utility.yul\":17960:17978   */\n      add\n        /* \"#utility.yul\":17952:17978   */\n      swap1\n      pop\n        /* \"#utility.yul\":18024:18033   */\n      dup2\n        /* \"#utility.yul\":18018:18022   */\n      dup2\n        /* \"#utility.yul\":18014:18034   */\n      sub\n        /* \"#utility.yul\":18010:18011   */\n      0x00\n        /* \"#utility.yul\":17999:18008   */\n      dup4\n        /* \"#utility.yul\":17995:18012   */\n      add\n        /* \"#utility.yul\":17988:18035   */\n      mstore\n        /* \"#utility.yul\":18052:18183   */\n      tag_547\n        /* \"#utility.yul\":18178:18182   */\n      dup2\n        /* \"#utility.yul\":18052:18183   */\n      tag_374\n      jump\t// in\n    tag_547:\n        /* \"#utility.yul\":18044:18183   */\n      swap1\n      pop\n        /* \"#utility.yul\":17771:18190   */\n      swap2\n      swap1\n      pop\n      jump\t// out\n        /* \"#utility.yul\":18196:18638   */\n    tag_295:\n        /* \"#utility.yul\":18345:18349   */\n      0x00\n        /* \"#utility.yul\":18383:18385   */\n      0x60\n        /* \"#utility.yul\":18372:18381   */\n      dup3\n        /* \"#utility.yul\":18368:18386   */\n      add\n        /* \"#utility.yul\":18360:18386   */\n      swap1\n      pop\n        /* \"#utility.yul\":18396:18467   */\n      tag_549\n        /* \"#utility.yul\":18464:18465   */\n      0x00\n        /* \"#utility.yul\":18453:18462   */\n      dup4\n        /* \"#utility.yul\":18449:18466   */\n      add\n        /* \"#utility.yul\":18440:18446   */\n      dup7\n        /* \"#utility.yul\":18396:18467   */\n      tag_344\n      jump\t// in\n    tag_549:\n        /* \"#utility.yul\":18477:18549   */\n      tag_550\n        /* \"#utility.yul\":18545:18547   */\n      0x20\n        /* \"#utility.yul\":18534:18543   */\n      dup4\n        /* \"#utility.yul\":18530:18548   */\n      add\n        /* \"#utility.yul\":18521:18527   */\n      dup6\n        /* \"#utility.yul\":18477:18549   */\n      tag_344\n      jump\t// in\n    tag_550:\n        /* \"#utility.yul\":18559:18631   */\n      tag_551\n        /* \"#utility.yul\":18627:18629   */\n      0x40\n        /* \"#utility.yul\":18616:18625   */\n      dup4\n        /* \"#utility.yul\":18612:18630   */\n      add\n        /* \"#utility.yul\":18603:18609   */\n      dup5\n        /* \"#utility.yul\":18559:18631   */\n      tag_336\n      jump\t// in\n    tag_551:\n        /* \"#utility.yul\":18196:18638   */\n      swap5\n      swap4\n      pop\n      pop\n      pop\n      pop\n      jump\t// out\n        /* \"#utility.yul\":18644:18992   */\n    tag_310:\n        /* \"#utility.yul\":18684:18691   */\n      0x00\n        /* \"#utility.yul\":18707:18727   */\n      tag_553\n        /* \"#utility.yul\":18725:18726   */\n      dup3\n        /* \"#utility.yul\":18707:18727   */\n      tag_333\n      jump\t// in\n    tag_553:\n        /* \"#utility.yul\":18702:18727   */\n      swap2\n      pop\n        /* \"#utility.yul\":18741:18761   */\n      tag_554\n        /* \"#utility.yul\":18759:18760   */\n      dup4\n        /* \"#utility.yul\":18741:18761   */\n      tag_333\n      jump\t// in\n    tag_554:\n        /* \"#utility.yul\":18736:18761   */\n      swap3\n      pop\n        /* \"#utility.yul\":18929:18930   */\n      dup2\n        /* \"#utility.yul\":18861:18927   */\n      0xffffffffffffffffffffffffffffffffffffffffffffffffffffffffffffffff\n        /* \"#utility.yul\":18857:18931   */\n      div\n        /* \"#utility.yul\":18854:18855   */\n      dup4\n        /* \"#utility.yul\":18851:18932   */\n      gt\n        /* \"#utility.yul\":18846:18847   */\n      dup3\n        /* \"#utility.yul\":18839:18848   */\n      iszero\n        /* \"#utility.yul\":18832:18849   */\n      iszero\n        /* \"#utility.yul\":18828:18933   */\n      and\n        /* \"#utility.yul\":18825:18956   */\n      iszero\n      tag_555\n      jumpi\n        /* \"#utility.yul\":18936:18954   */\n      tag_556\n      tag_365\n      jump\t// in\n    tag_556:\n        /* \"#utility.yul\":18825:18956   */\n    tag_555:\n        /* \"#utility.yul\":18984:18985   */\n      dup3\n        /* \"#utility.yul\":18981:18982   */\n      dup3\n        /* \"#utility.yul\":18977:18986   */\n      mul\n        /* \"#utility.yul\":18966:18986   */\n      swap1\n      pop\n        /* \"#utility.yul\":18644:18992   */\n      swap3\n      swap2\n      pop\n      pop\n      jump\t// out\n\n    auxdata: 0xa26469706673582212209c1eba573ac94e1247aa1f114d8c2b00dfdcb0fa499b60e88d0a484df95b522a64736f6c634300080b0033\n}\n","bytecode":{"linkReferences":{},"object":"60806040526040518060400160405280600a81526020017f43726f776453686172650000000000000000000000000000000000000000000081525060039080519060200190620000519291906200013d565b503480156200005f57600080fd5b506040516200310938038062003109833981810160405281019062000085919062000257565b806000806101000a81548173ffffffffffffffffffffffffffffffffffffffff021916908373ffffffffffffffffffffffffffffffffffffffff160217905550620186a0600181905550600154600460008060009054906101000a900473ffffffffffffffffffffffffffffffffffffffff1673ffffffffffffffffffffffffffffffffffffffff1673ffffffffffffffffffffffffffffffffffffffff1681526020019081526020016000208190555050620002ee565b8280546200014b90620002b8565b90600052602060002090601f0160209004810192826200016f5760008555620001bb565b82601f106200018a57805160ff1916838001178555620001bb565b82800160010185558215620001bb579182015b82811115620001ba5782518255916020019190600101906200019d565b5b509050620001ca9190620001ce565b5090565b5b80821115620001e9576000816000905550600101620001cf565b5090565b600080fd5b600073ffffffffffffffffffffffffffffffffffffffff82169050919050565b60006200021f82620001f2565b9050919050565b620002318162000212565b81146200023d57600080fd5b50565b600081519050620002518162000226565b92915050565b60006020828403121562000270576200026f620001ed565b5b6000620002808482850162000240565b91505092915050565b7f4e487b7100000000000000000000000000000000000000000000000000000000600052602260045260246000fd5b60006002820490506001821680620002d157607f821691505b60208210811415620002e857620002e762000289565b5b50919050565b612e0b80620002fe6000396000f3fe6080604052600436106101405760003560e01c80638da5cb5b116100b6578063b933ceac1161006f578063b933ceac1461048f578063be813d71146104cc578063d0679d34146104f7578063d0e30db014610520578063d41ce4b11461052a578063fd5e6dd11461055557610140565b80638da5cb5b1461036d5780638f169816146103985780638f328d7a146103d5578063a694fc3a146103fe578063b2dd5c0714610427578063b69ef8a81461046457610140565b806318a5bbdc1161010857806318a5bbdc146102465780631c4b774b1461028357806325d5971f146102c0578063400e3949146102dc5780634aec48c91461030757806365e481e21461034457610140565b8063013cf08b14610145578063014396f21461018a57806304421fc7146101b3578063047fc9aa146101f057806306fdde031461021b575b600080fd5b34801561015157600080fd5b5061016c6004803603810190610167919061235e565b610592565b6040516101819998979695949392919061248f565b60405180910390f35b34801561019657600080fd5b506101b160048036038101906101ac919061235e565b61072a565b005b3480156101bf57600080fd5b506101da60048036038101906101d59190612556565b610af5565b6040516101e79190612583565b60405180910390f35b3480156101fc57600080fd5b50610205610b0d565b6040516102129190612583565b60405180910390f35b34801561022757600080fd5b50610230610b13565b60405161023d919061259e565b60405180910390f35b34801561025257600080fd5b5061026d60048036038101906102689190612556565b610ba1565b60405161027a9190612583565b60405180910390f35b34801561028f57600080fd5b506102aa60048036038101906102a5919061235e565b610bb9565b6040516102b79190612583565b60405180910390f35b6102da60048036038101906102d5919061235e565b610c1e565b005b3480156102e857600080fd5b506102f16112ea565b6040516102fe9190612583565b60405180910390f35b34801561031357600080fd5b5061032e600480360381019061032991906125c0565b6112f0565b60405161033b9190612583565b60405180910390f35b34801561035057600080fd5b5061036b60048036038101906103669190612735565b611321565b005b34801561037957600080fd5b50610382611678565b60405161038f91906127ad565b60405180910390f35b3480156103a457600080fd5b506103bf60048036038101906103ba91906125c0565b61169c565b6040516103cc9190612583565b60405180910390f35b3480156103e157600080fd5b506103fc60048036038101906103f7919061235e565b6116cd565b005b34801561040a57600080fd5b506104256004803603810190610420919061235e565b611a8c565b005b34801561043357600080fd5b5061044e60048036038101906104499190612556565b611e66565b60405161045b91906127c8565b60405180910390f35b34801561047057600080fd5b50610479611e86565b6040516104869190612583565b60405180910390f35b34801561049b57600080fd5b506104b660048036038101906104b191906125c0565b611e8e565b6040516104c39190612583565b60405180910390f35b3480156104d857600080fd5b506104e1611ebf565b6040516104ee9190612583565b60405180910390f35b34801561050357600080fd5b5061051e600480360381019061051991906125c0565b611f09565b005b610528612076565b005b34801561053657600080fd5b5061053f61222c565b60405161054c9190612583565b60405180910390f35b34801561056157600080fd5b5061057c6004803603810190610577919061235e565b612232565b60405161058991906127ad565b60405180910390f35b600b6020528060005260406000206000915090508060000154908060010180546105bb90612812565b80601f01602080910402602001604051908101604052809291908181526020018280546105e790612812565b80156106345780601f1061060957610100808354040283529160200191610634565b820191906000526020600020905b81548152906001019060200180831161061757829003601f168201915b50505050509080600201805461064990612812565b80601f016020809104026020016040519081016040528092919081815260200182805461067590612812565b80156106c25780601f10610697576101008083540402835291602001916106c2565b820191906000526020600020905b8154815290600101906020018083116106a557829003601f168201915b5050505050908060030160009054906101000a900473ffffffffffffffffffffffffffffffffffffffff169080600701549080600801549080600901549080600a0160009054906101000a900460ff169080600a0160019054906101000a900460ff16905089565b806000600b600083815260200190815260200160002060040160003373ffffffffffffffffffffffffffffffffffffffff1673ffffffffffffffffffffffffffffffffffffffff16815260200190815260200160002054116107c1576040517f08c379a00000000000000000000000000000000000000000000000000000000081526004016107b8906128b6565b60405180910390fd5b600b600082815260200190815260200160002060050160003373ffffffffffffffffffffffffffffffffffffffff1673ffffffffffffffffffffffffffffffffffffffff16815260200190815260200160002060009054906101000a900460ff1615610862576040517f08c379a000000000000000000000000000000000000000000000000000000000815260040161085990612922565b60405180910390fd5b600b600082815260200190815260200160002060060160003373ffffffffffffffffffffffffffffffffffffffff1673ffffffffffffffffffffffffffffffffffffffff16815260200190815260200160002060009054906101000a900460ff1615610903576040517f08c379a00000000000000000000000000000000000000000000000000000000081526004016108fa90612922565b60405180910390fd5b600b6000828152602001908152602001600020600a0160009054906101000a900460ff1615610967576040517f08c379a000000000000000000000000000000000000000000000000000000000815260040161095e9061298e565b60405180910390fd5b6001600b600084815260200190815260200160002060060160003373ffffffffffffffffffffffffffffffffffffffff1673ffffffffffffffffffffffffffffffffffffffff16815260200190815260200160002060006101000a81548160ff021916908315150217905550600b600083815260200190815260200160002060040160003373ffffffffffffffffffffffffffffffffffffffff1673ffffffffffffffffffffffffffffffffffffffff16815260200190815260200160002054600b60008481526020019081526020016000206008016000828254610a4c91906129dd565b925050819055506002600b600084815260200190815260200160002060090154610a769190612a62565b600b60008481526020019081526020016000206008015410610af1576001600b6000848152602001908152602001600020600a0160006101000a81548160ff0219169083151502179055506000600b6000848152602001908152602001600020600a0160016101000a81548160ff0219169083151502179055505b5050565b60066020528060005260406000206000915090505481565b60015481565b60038054610b2090612812565b80601f0160208091040260200160405190810160405280929190818152602001828054610b4c90612812565b8015610b995780601f10610b6e57610100808354040283529160200191610b99565b820191906000526020600020905b815481529060010190602001808311610b7c57829003601f168201915b505050505081565b60046020528060005260406000206000915090505481565b6000600860003373ffffffffffffffffffffffffffffffffffffffff1673ffffffffffffffffffffffffffffffffffffffff1681526020019081526020016000208281548110610c0c57610c0b612a93565b5b90600052602060002001549050919050565b42600760003373ffffffffffffffffffffffffffffffffffffffff1673ffffffffffffffffffffffffffffffffffffffff1681526020019081526020016000208281548110610c7057610c6f612a93565b5b906000526020600020015410610cbb576040517f08c379a0000000000000000000000000000000000000000000000000000000008152600401610cb290612b0e565b60405180910390fd5b3373ffffffffffffffffffffffffffffffffffffffff166108fc600860003373ffffffffffffffffffffffffffffffffffffffff1673ffffffffffffffffffffffffffffffffffffffff1681526020019081526020016000208381548110610d2657610d25612a93565b5b90600052602060002001549081150290604051600060405180830381858888f19350505050158015610d5c573d6000803e3d6000fd5b50600560003373ffffffffffffffffffffffffffffffffffffffff1673ffffffffffffffffffffffffffffffffffffffff1681526020019081526020016000208181548110610dae57610dad612a93565b5b906000526020600020015460026000828254610dca9190612b2e565b92505081905550600560003373ffffffffffffffffffffffffffffffffffffffff1673ffffffffffffffffffffffffffffffffffffffff1681526020019081526020016000208181548110610e2257610e21612a93565b5b9060005260206000200154600660003373ffffffffffffffffffffffffffffffffffffffff1673ffffffffffffffffffffffffffffffffffffffff1681526020019081526020016000206000828254610e7b9190612b2e565b92505081905550600560003373ffffffffffffffffffffffffffffffffffffffff1673ffffffffffffffffffffffffffffffffffffffff1681526020019081526020016000208181548110610ed357610ed2612a93565b5b9060005260206000200154600460003373ffffffffffffffffffffffffffffffffffffffff1673ffffffffffffffffffffffffffffffffffffffff1681526020019081526020016000206000828254610f2c91906129dd565b9250508190555060006001600560003373ffffffffffffffffffffffffffffffffffffffff1673ffffffffffffffffffffffffffffffffffffffff16815260200190815260200160002080549050610f849190612b2e565b9050600560003373ffffffffffffffffffffffffffffffffffffffff1673ffffffffffffffffffffffffffffffffffffffff1681526020019081526020016000208181548110610fd757610fd6612a93565b5b9060005260206000200154600560003373ffffffffffffffffffffffffffffffffffffffff1673ffffffffffffffffffffffffffffffffffffffff168152602001908152602001600020838154811061103357611032612a93565b5b9060005260206000200181905550600760003373ffffffffffffffffffffffffffffffffffffffff1673ffffffffffffffffffffffffffffffffffffffff168152602001908152602001600020818154811061109257611091612a93565b5b9060005260206000200154600760003373ffffffffffffffffffffffffffffffffffffffff1673ffffffffffffffffffffffffffffffffffffffff16815260200190815260200160002083815481106110ee576110ed612a93565b5b9060005260206000200181905550600860003373ffffffffffffffffffffffffffffffffffffffff1673ffffffffffffffffffffffffffffffffffffffff168152602001908152602001600020818154811061114d5761114c612a93565b5b9060005260206000200154600860003373ffffffffffffffffffffffffffffffffffffffff1673ffffffffffffffffffffffffffffffffffffffff16815260200190815260200160002083815481106111a9576111a8612a93565b5b9060005260206000200181905550600560003373ffffffffffffffffffffffffffffffffffffffff1673ffffffffffffffffffffffffffffffffffffffff16815260200190815260200160002080548061120657611205612b62565b5b60019003818190600052602060002001600090559055600760003373ffffffffffffffffffffffffffffffffffffffff1673ffffffffffffffffffffffffffffffffffffffff16815260200190815260200160002080548061126b5761126a612b62565b5b60019003818190600052602060002001600090559055600860003373ffffffffffffffffffffffffffffffffffffffff1673ffffffffffffffffffffffffffffffffffffffff1681526020019081526020016000208054806112d0576112cf612b62565b5b600190038181906000526020600020016000905590555050565b600c5481565b6007602052816000526040600020818154811061130c57600080fd5b90600052602060002001600091509150505481565b611388600660003373ffffffffffffffffffffffffffffffffffffffff1673ffffffffffffffffffffffffffffffffffffffff1681526020019081526020016000205410156113a5576040517f08c379a000000000000000000000000000000000000000000000000000000000815260040161139c90612c03565b60405180910390fd5b6000600b6000600c60008154809291906113be90612c23565b91905055815260200190815260200160002090506001600c546113e19190612b2e565b816000018190555082816001019080519060200190611401929190612271565b508181600201908051906020019061141a929190612271565b50338160030160006101000a81548173ffffffffffffffffffffffffffffffffffffffff021916908373ffffffffffffffffffffffffffffffffffffffff1602179055506000816007018190555060008160080181905550600081600a0160006101000a81548160ff021916908315150217905550600081600a0160016101000a81548160ff0219169083151502179055506000805b600a8054905081101561165c5760066000600a83815481106114d5576114d4612a93565b5b9060005260206000200160009054906101000a900473ffffffffffffffffffffffffffffffffffffffff1673ffffffffffffffffffffffffffffffffffffffff1673ffffffffffffffffffffffffffffffffffffffff168152602001908152602001600020548261154691906129dd565b915060066000600a83815481106115605761155f612a93565b5b9060005260206000200160009054906101000a900473ffffffffffffffffffffffffffffffffffffffff1673ffffffffffffffffffffffffffffffffffffffff1673ffffffffffffffffffffffffffffffffffffffff16815260200190815260200160002054836004016000600a84815481106115e0576115df612a93565b5b9060005260206000200160009054906101000a900473ffffffffffffffffffffffffffffffffffffffff1673ffffffffffffffffffffffffffffffffffffffff1673ffffffffffffffffffffffffffffffffffffffff16815260200190815260200160002081905550808061165490612c23565b9150506114b0565b5060028161166a9190612a62565b826009018190555050505050565b60008054906101000a900473ffffffffffffffffffffffffffffffffffffffff1681565b600560205281600052604060002081815481106116b857600080fd5b90600052602060002001600091509150505481565b806000600b600083815260200190815260200160002060040160003373ffffffffffffffffffffffffffffffffffffffff1673ffffffffffffffffffffffffffffffffffffffff1681526020019081526020016000205411611764576040517f08c379a000000000000000000000000000000000000000000000000000000000815260040161175b906128b6565b60405180910390fd5b600b600082815260200190815260200160002060050160003373ffffffffffffffffffffffffffffffffffffffff1673ffffffffffffffffffffffffffffffffffffffff16815260200190815260200160002060009054906101000a900460ff1615611805576040517f08c379a00000000000000000000000000000000000000000000000000000000081526004016117fc90612922565b60405180910390fd5b600b600082815260200190815260200160002060060160003373ffffffffffffffffffffffffffffffffffffffff1673ffffffffffffffffffffffffffffffffffffffff16815260200190815260200160002060009054906101000a900460ff16156118a6576040517f08c379a000000000000000000000000000000000000000000000000000000000815260040161189d90612922565b60405180910390fd5b600b6000828152602001908152602001600020600a0160009054906101000a900460ff161561190a576040517f08c379a00000000000000000000000000000000000000000000000000000000081526004016119019061298e565b60405180910390fd5b6001600b600084815260200190815260200160002060050160003373ffffffffffffffffffffffffffffffffffffffff1673ffffffffffffffffffffffffffffffffffffffff16815260200190815260200160002060006101000a81548160ff021916908315150217905550600b600083815260200190815260200160002060040160003373ffffffffffffffffffffffffffffffffffffffff1673ffffffffffffffffffffffffffffffffffffffff16815260200190815260200160002054600b600084815260200190815260200160002060070160008282546119ef91906129dd565b92505081905550600b600083815260200190815260200160002060090154600b60008481526020019081526020016000206007015410611a88576001600b6000848152602001908152602001600020600a0160006101000a81548160ff0219169083151502179055506001600b6000848152602001908152602001600020600a0160016101000a81548160ff0219169083151502179055505b5050565b600460003373ffffffffffffffffffffffffffffffffffffffff1673ffffffffffffffffffffffffffffffffffffffff16815260200190815260200160002054811115611b0e576040517f08c379a0000000000000000000000000000000000000000000000000000000008152600401611b0590612cb8565b60405180910390fd5b6000811415611b52576040517f08c379a0000000000000000000000000000000000000000000000000000000008152600401611b4990612d24565b60405180910390fd5b600960003373ffffffffffffffffffffffffffffffffffffffff1673ffffffffffffffffffffffffffffffffffffffff16815260200190815260200160002060009054906101000a900460ff16611c0757600a339080600181540180825580915050600190039060005260206000200160009091909190916101000a81548173ffffffffffffffffffffffffffffffffffffffff021916908373ffffffffffffffffffffffffffffffffffffffff1602179055505b8060026000828254611c1991906129dd565b9250508190555080600660003373ffffffffffffffffffffffffffffffffffffffff1673ffffffffffffffffffffffffffffffffffffffff1681526020019081526020016000206000828254611c6f91906129dd565b92505081905550600560003373ffffffffffffffffffffffffffffffffffffffff1673ffffffffffffffffffffffffffffffffffffffff16815260200190815260200160002081908060018154018082558091505060019003906000526020600020016000909190919091505580600460003373ffffffffffffffffffffffffffffffffffffffff1673ffffffffffffffffffffffffffffffffffffffff1681526020019081526020016000206000828254611d2b9190612b2e565b92505081905550600860003373ffffffffffffffffffffffffffffffffffffffff1673ffffffffffffffffffffffffffffffffffffffff16815260200190815260200160002060009080600181540180825580915050600190039060005260206000200160009091909190915055600760003373ffffffffffffffffffffffffffffffffffffffff1673ffffffffffffffffffffffffffffffffffffffff168152602001908152602001600020600f42611de591906129dd565b90806001815401808255809150506001900390600052602060002001600090919091909150556001600960003373ffffffffffffffffffffffffffffffffffffffff1673ffffffffffffffffffffffffffffffffffffffff16815260200190815260200160002060006101000a81548160ff02191690831515021790555050565b60096020528060005260406000206000915054906101000a900460ff1681565b600047905090565b60086020528160005260406000208181548110611eaa57600080fd5b90600052602060002001600091509150505481565b6000600560003373ffffffffffffffffffffffffffffffffffffffff1673ffffffffffffffffffffffffffffffffffffffff16815260200190815260200160002080549050905090565b600460003373ffffffffffffffffffffffffffffffffffffffff1673ffffffffffffffffffffffffffffffffffffffff16815260200190815260200160002054811115611f8b576040517f08c379a0000000000000000000000000000000000000000000000000000000008152600401611f8290612cb8565b60405180910390fd5b80600460003373ffffffffffffffffffffffffffffffffffffffff1673ffffffffffffffffffffffffffffffffffffffff1681526020019081526020016000206000828254611fda9190612b2e565b9250508190555080600460008473ffffffffffffffffffffffffffffffffffffffff1673ffffffffffffffffffffffffffffffffffffffff168152602001908152602001600020600082825461203091906129dd565b925050819055507f3990db2d31862302a685e8086b5755072a6e2b5b780af1ee81ece35ee3cd334533838360405161206a93929190612d44565b60405180910390a15050565b60005b600a80549050811015612229576000600a828154811061209c5761209b612a93565b5b9060005260206000200160009054906101000a900473ffffffffffffffffffffffffffffffffffffffff16905060005b600560008373ffffffffffffffffffffffffffffffffffffffff1673ffffffffffffffffffffffffffffffffffffffff1681526020019081526020016000208054905081101561221457600060025434600560008673ffffffffffffffffffffffffffffffffffffffff1673ffffffffffffffffffffffffffffffffffffffff168152602001908152602001600020848154811061216d5761216c612a93565b5b90600052602060002001546121829190612d7b565b61218c9190612a62565b905080600860008573ffffffffffffffffffffffffffffffffffffffff1673ffffffffffffffffffffffffffffffffffffffff16815260200190815260200160002083815481106121e0576121df612a93565b5b9060005260206000200160008282546121f991906129dd565b9250508190555050808061220c90612c23565b9150506120cc565b5050808061222190612c23565b915050612079565b50565b60025481565b600a818154811061224257600080fd5b906000526020600020016000915054906101000a900473ffffffffffffffffffffffffffffffffffffffff1681565b82805461227d90612812565b90600052602060002090601f01602090048101928261229f57600085556122e6565b82601f106122b857805160ff19168380011785556122e6565b828001600101855582156122e6579182015b828111156122e55782518255916020019190600101906122ca565b5b5090506122f391906122f7565b5090565b5b808211156123105760008160009055506001016122f8565b5090565b6000604051905090565b600080fd5b600080fd5b6000819050919050565b61233b81612328565b811461234657600080fd5b50565b60008135905061235881612332565b92915050565b6000602082840312156123745761237361231e565b5b600061238284828501612349565b91505092915050565b61239481612328565b82525050565b600081519050919050565b600082825260208201905092915050565b60005b838110156123d45780820151818401526020810190506123b9565b838111156123e3576000848401525b50505050565b6000601f19601f8301169050919050565b60006124058261239a565b61240f81856123a5565b935061241f8185602086016123b6565b612428816123e9565b840191505092915050565b600073ffffffffffffffffffffffffffffffffffffffff82169050919050565b600061245e82612433565b9050919050565b61246e81612453565b82525050565b60008115159050919050565b61248981612474565b82525050565b6000610120820190506124a5600083018c61238b565b81810360208301526124b7818b6123fa565b905081810360408301526124cb818a6123fa565b90506124da6060830189612465565b6124e7608083018861238b565b6124f460a083018761238b565b61250160c083018661238b565b61250e60e0830185612480565b61251c610100830184612480565b9a9950505050505050505050565b61253381612453565b811461253e57600080fd5b50565b6000813590506125508161252a565b92915050565b60006020828403121561256c5761256b61231e565b5b600061257a84828501612541565b91505092915050565b6000602082019050612598600083018461238b565b92915050565b600060208201905081810360008301526125b881846123fa565b905092915050565b600080604083850312156125d7576125d661231e565b5b60006125e585828601612541565b92505060206125f685828601612349565b9150509250929050565b600080fd5b600080fd5b7f4e487b7100000000000000000000000000000000000000000000000000000000600052604160045260246000fd5b612642826123e9565b810181811067ffffffffffffffff821117156126615761266061260a565b5b80604052505050565b6000612674612314565b90506126808282612639565b919050565b600067ffffffffffffffff8211156126a05761269f61260a565b5b6126a9826123e9565b9050602081019050919050565b82818337600083830152505050565b60006126d86126d384612685565b61266a565b9050828152602081018484840111156126f4576126f3612605565b5b6126ff8482856126b6565b509392505050565b600082601f83011261271c5761271b612600565b5b813561272c8482602086016126c5565b91505092915050565b6000806040838503121561274c5761274b61231e565b5b600083013567ffffffffffffffff81111561276a57612769612323565b5b61277685828601612707565b925050602083013567ffffffffffffffff81111561279757612796612323565b5b6127a385828601612707565b9150509250929050565b60006020820190506127c26000830184612465565b92915050565b60006020820190506127dd6000830184612480565b92915050565b7f4e487b7100000000000000000000000000000000000000000000000000000000600052602260045260246000fd5b6000600282049050600182168061282a57607f821691505b6020821081141561283e5761283d6127e3565b5b50919050565b7f596f7520646f6e27742068617665207065726d697373696f6e20746f20766f7460008201527f6500000000000000000000000000000000000000000000000000000000000000602082015250565b60006128a06021836123a5565b91506128ab82612844565b604082019050919050565b600060208201905081810360008301526128cf81612893565b9050919050565b7f596f7520616c726561647920766f746564000000000000000000000000000000600082015250565b600061290c6011836123a5565b9150612917826128d6565b602082019050919050565b6000602082019050818103600083015261293b816128ff565b9050919050565b7f5468652070726f706f73616c20697320636f6d706c6574650000000000000000600082015250565b60006129786018836123a5565b915061298382612942565b602082019050919050565b600060208201905081810360008301526129a78161296b565b9050919050565b7f4e487b7100000000000000000000000000000000000000000000000000000000600052601160045260246000fd5b60006129e882612328565b91506129f383612328565b9250827fffffffffffffffffffffffffffffffffffffffffffffffffffffffffffffffff03821115612a2857612a276129ae565b5b828201905092915050565b7f4e487b7100000000000000000000000000000000000000000000000000000000600052601260045260246000fd5b6000612a6d82612328565b9150612a7883612328565b925082612a8857612a87612a33565b5b828204905092915050565b7f4e487b7100000000000000000000000000000000000000000000000000000000600052603260045260246000fd5b7f4e6f742079657400000000000000000000000000000000000000000000000000600082015250565b6000612af86007836123a5565b9150612b0382612ac2565b602082019050919050565b60006020820190508181036000830152612b2781612aeb565b9050919050565b6000612b3982612328565b9150612b4483612328565b925082821015612b5757612b566129ae565b5b828203905092915050565b7f4e487b7100000000000000000000000000000000000000000000000000000000600052603160045260246000fd5b7f596f7520646f6e2774206861766520656e6f75676820746f6b656e7320746f2060008201527f7175616c6966792061732064656c656761746500000000000000000000000000602082015250565b6000612bed6033836123a5565b9150612bf882612b91565b604082019050919050565b60006020820190508181036000830152612c1c81612be0565b9050919050565b6000612c2e82612328565b91507fffffffffffffffffffffffffffffffffffffffffffffffffffffffffffffffff821415612c6157612c606129ae565b5b600182019050919050565b7f496e73756666696369656e742062616c616e6365000000000000000000000000600082015250565b6000612ca26014836123a5565b9150612cad82612c6c565b602082019050919050565b60006020820190508181036000830152612cd181612c95565b9050919050565b7f43616e2774207374616b65203020746f6b656e73000000000000000000000000600082015250565b6000612d0e6014836123a5565b9150612d1982612cd8565b602082019050919050565b60006020820190508181036000830152612d3d81612d01565b9050919050565b6000606082019050612d596000830186612465565b612d666020830185612465565b612d73604083018461238b565b949350505050565b6000612d8682612328565b9150612d9183612328565b9250817fffffffffffffffffffffffffffffffffffffffffffffffffffffffffffffffff0483118215151615612dca57612dc96129ae565b5b82820290509291505056fea26469706673582212209c1eba573ac94e1247aa1f114d8c2b00dfdcb0fa499b60e88d0a484df95b522a64736f6c634300080b0033","opcodes":"PUSH1 0x80 PUSH1 0x40 MSTORE PUSH1 0x40 MLOAD DUP1 PUSH1 0x40 ADD PUSH1 0x40 MSTORE DUP1 PUSH1 0xA DUP2 MSTORE PUSH1 0x20 ADD PUSH32 0x43726F7764536861726500000000000000000000000000000000000000000000 DUP2 MSTORE POP PUSH1 0x3 SWAP1 DUP1 MLOAD SWAP1 PUSH1 0x20 ADD SWAP1 PUSH3 0x51 SWAP3 SWAP2 SWAP1 PUSH3 0x13D JUMP JUMPDEST POP CALLVALUE DUP1 ISZERO PUSH3 0x5F JUMPI PUSH1 0x0 DUP1 REVERT JUMPDEST POP PUSH1 0x40 MLOAD PUSH3 0x3109 CODESIZE SUB DUP1 PUSH3 0x3109 DUP4 CODECOPY DUP2 DUP2 ADD PUSH1 0x40 MSTORE DUP2 ADD SWAP1 PUSH3 0x85 SWAP2 SWAP1 PUSH3 0x257 JUMP JUMPDEST DUP1 PUSH1 0x0 DUP1 PUSH2 0x100 EXP DUP2 SLOAD DUP2 PUSH20 0xFFFFFFFFFFFFFFFFFFFFFFFFFFFFFFFFFFFFFFFF MUL NOT AND SWAP1 DUP4 PUSH20 0xFFFFFFFFFFFFFFFFFFFFFFFFFFFFFFFFFFFFFFFF AND MUL OR SWAP1 SSTORE POP PUSH3 0x186A0 PUSH1 0x1 DUP2 SWAP1 SSTORE POP PUSH1 0x1 SLOAD PUSH1 0x4 PUSH1 0x0 DUP1 PUSH1 0x0 SWAP1 SLOAD SWAP1 PUSH2 0x100 EXP SWAP1 DIV PUSH20 0xFFFFFFFFFFFFFFFFFFFFFFFFFFFFFFFFFFFFFFFF AND PUSH20 0xFFFFFFFFFFFFFFFFFFFFFFFFFFFFFFFFFFFFFFFF AND PUSH20 0xFFFFFFFFFFFFFFFFFFFFFFFFFFFFFFFFFFFFFFFF AND DUP2 MSTORE PUSH1 0x20 ADD SWAP1 DUP2 MSTORE PUSH1 0x20 ADD PUSH1 0x0 KECCAK256 DUP2 SWAP1 SSTORE POP POP PUSH3 0x2EE JUMP JUMPDEST DUP3 DUP1 SLOAD PUSH3 0x14B SWAP1 PUSH3 0x2B8 JUMP JUMPDEST SWAP1 PUSH1 0x0 MSTORE PUSH1 0x20 PUSH1 0x0 KECCAK256 SWAP1 PUSH1 0x1F ADD PUSH1 0x20 SWAP1 DIV DUP2 ADD SWAP3 DUP3 PUSH3 0x16F JUMPI PUSH1 0x0 DUP6 SSTORE PUSH3 0x1BB JUMP JUMPDEST DUP3 PUSH1 0x1F LT PUSH3 0x18A JUMPI DUP1 MLOAD PUSH1 0xFF NOT AND DUP4 DUP1 ADD OR DUP6 SSTORE PUSH3 0x1BB JUMP JUMPDEST DUP3 DUP1 ADD PUSH1 0x1 ADD DUP6 SSTORE DUP3 ISZERO PUSH3 0x1BB JUMPI SWAP2 DUP3 ADD JUMPDEST DUP3 DUP2 GT ISZERO PUSH3 0x1BA JUMPI DUP3 MLOAD DUP3 SSTORE SWAP2 PUSH1 0x20 ADD SWAP2 SWAP1 PUSH1 0x1 ADD SWAP1 PUSH3 0x19D JUMP JUMPDEST JUMPDEST POP SWAP1 POP PUSH3 0x1CA SWAP2 SWAP1 PUSH3 0x1CE JUMP JUMPDEST POP SWAP1 JUMP JUMPDEST JUMPDEST DUP1 DUP3 GT ISZERO PUSH3 0x1E9 JUMPI PUSH1 0x0 DUP2 PUSH1 0x0 SWAP1 SSTORE POP PUSH1 0x1 ADD PUSH3 0x1CF JUMP JUMPDEST POP SWAP1 JUMP JUMPDEST PUSH1 0x0 DUP1 REVERT JUMPDEST PUSH1 0x0 PUSH20 0xFFFFFFFFFFFFFFFFFFFFFFFFFFFFFFFFFFFFFFFF DUP3 AND SWAP1 POP SWAP2 SWAP1 POP JUMP JUMPDEST PUSH1 0x0 PUSH3 0x21F DUP3 PUSH3 0x1F2 JUMP JUMPDEST SWAP1 POP SWAP2 SWAP1 POP JUMP JUMPDEST PUSH3 0x231 DUP2 PUSH3 0x212 JUMP JUMPDEST DUP2 EQ PUSH3 0x23D JUMPI PUSH1 0x0 DUP1 REVERT JUMPDEST POP JUMP JUMPDEST PUSH1 0x0 DUP2 MLOAD SWAP1 POP PUSH3 0x251 DUP2 PUSH3 0x226 JUMP JUMPDEST SWAP3 SWAP2 POP POP JUMP JUMPDEST PUSH1 0x0 PUSH1 0x20 DUP3 DUP5 SUB SLT ISZERO PUSH3 0x270 JUMPI PUSH3 0x26F PUSH3 0x1ED JUMP JUMPDEST JUMPDEST PUSH1 0x0 PUSH3 0x280 DUP5 DUP3 DUP6 ADD PUSH3 0x240 JUMP JUMPDEST SWAP2 POP POP SWAP3 SWAP2 POP POP JUMP JUMPDEST PUSH32 0x4E487B7100000000000000000000000000000000000000000000000000000000 PUSH1 0x0 MSTORE PUSH1 0x22 PUSH1 0x4 MSTORE PUSH1 0x24 PUSH1 0x0 REVERT JUMPDEST PUSH1 0x0 PUSH1 0x2 DUP3 DIV SWAP1 POP PUSH1 0x1 DUP3 AND DUP1 PUSH3 0x2D1 JUMPI PUSH1 0x7F DUP3 AND SWAP2 POP JUMPDEST PUSH1 0x20 DUP3 LT DUP2 EQ ISZERO PUSH3 0x2E8 JUMPI PUSH3 0x2E7 PUSH3 0x289 JUMP JUMPDEST JUMPDEST POP SWAP2 SWAP1 POP JUMP JUMPDEST PUSH2 0x2E0B DUP1 PUSH3 0x2FE PUSH1 0x0 CODECOPY PUSH1 0x0 RETURN INVALID PUSH1 0x80 PUSH1 0x40 MSTORE PUSH1 0x4 CALLDATASIZE LT PUSH2 0x140 JUMPI PUSH1 0x0 CALLDATALOAD PUSH1 0xE0 SHR DUP1 PUSH4 0x8DA5CB5B GT PUSH2 0xB6 JUMPI DUP1 PUSH4 0xB933CEAC GT PUSH2 0x6F JUMPI DUP1 PUSH4 0xB933CEAC EQ PUSH2 0x48F JUMPI DUP1 PUSH4 0xBE813D71 EQ PUSH2 0x4CC JUMPI DUP1 PUSH4 0xD0679D34 EQ PUSH2 0x4F7 JUMPI DUP1 PUSH4 0xD0E30DB0 EQ PUSH2 0x520 JUMPI DUP1 PUSH4 0xD41CE4B1 EQ PUSH2 0x52A JUMPI DUP1 PUSH4 0xFD5E6DD1 EQ PUSH2 0x555 JUMPI PUSH2 0x140 JUMP JUMPDEST DUP1 PUSH4 0x8DA5CB5B EQ PUSH2 0x36D JUMPI DUP1 PUSH4 0x8F169816 EQ PUSH2 0x398 JUMPI DUP1 PUSH4 0x8F328D7A EQ PUSH2 0x3D5 JUMPI DUP1 PUSH4 0xA694FC3A EQ PUSH2 0x3FE JUMPI DUP1 PUSH4 0xB2DD5C07 EQ PUSH2 0x427 JUMPI DUP1 PUSH4 0xB69EF8A8 EQ PUSH2 0x464 JUMPI PUSH2 0x140 JUMP JUMPDEST DUP1 PUSH4 0x18A5BBDC GT PUSH2 0x108 JUMPI DUP1 PUSH4 0x18A5BBDC EQ PUSH2 0x246 JUMPI DUP1 PUSH4 0x1C4B774B EQ PUSH2 0x283 JUMPI DUP1 PUSH4 0x25D5971F EQ PUSH2 0x2C0 JUMPI DUP1 PUSH4 0x400E3949 EQ PUSH2 0x2DC JUMPI DUP1 PUSH4 0x4AEC48C9 EQ PUSH2 0x307 JUMPI DUP1 PUSH4 0x65E481E2 EQ PUSH2 0x344 JUMPI PUSH2 0x140 JUMP JUMPDEST DUP1 PUSH4 0x13CF08B EQ PUSH2 0x145 JUMPI DUP1 PUSH4 0x14396F2 EQ PUSH2 0x18A JUMPI DUP1 PUSH4 0x4421FC7 EQ PUSH2 0x1B3 JUMPI DUP1 PUSH4 0x47FC9AA EQ PUSH2 0x1F0 JUMPI DUP1 PUSH4 0x6FDDE03 EQ PUSH2 0x21B JUMPI JUMPDEST PUSH1 0x0 DUP1 REVERT JUMPDEST CALLVALUE DUP1 ISZERO PUSH2 0x151 JUMPI PUSH1 0x0 DUP1 REVERT JUMPDEST POP PUSH2 0x16C PUSH1 0x4 DUP1 CALLDATASIZE SUB DUP2 ADD SWAP1 PUSH2 0x167 SWAP2 SWAP1 PUSH2 0x235E JUMP JUMPDEST PUSH2 0x592 JUMP JUMPDEST PUSH1 0x40 MLOAD PUSH2 0x181 SWAP10 SWAP9 SWAP8 SWAP7 SWAP6 SWAP5 SWAP4 SWAP3 SWAP2 SWAP1 PUSH2 0x248F JUMP JUMPDEST PUSH1 0x40 MLOAD DUP1 SWAP2 SUB SWAP1 RETURN JUMPDEST CALLVALUE DUP1 ISZERO PUSH2 0x196 JUMPI PUSH1 0x0 DUP1 REVERT JUMPDEST POP PUSH2 0x1B1 PUSH1 0x4 DUP1 CALLDATASIZE SUB DUP2 ADD SWAP1 PUSH2 0x1AC SWAP2 SWAP1 PUSH2 0x235E JUMP JUMPDEST PUSH2 0x72A JUMP JUMPDEST STOP JUMPDEST CALLVALUE DUP1 ISZERO PUSH2 0x1BF JUMPI PUSH1 0x0 DUP1 REVERT JUMPDEST POP PUSH2 0x1DA PUSH1 0x4 DUP1 CALLDATASIZE SUB DUP2 ADD SWAP1 PUSH2 0x1D5 SWAP2 SWAP1 PUSH2 0x2556 JUMP JUMPDEST PUSH2 0xAF5 JUMP JUMPDEST PUSH1 0x40 MLOAD PUSH2 0x1E7 SWAP2 SWAP1 PUSH2 0x2583 JUMP JUMPDEST PUSH1 0x40 MLOAD DUP1 SWAP2 SUB SWAP1 RETURN JUMPDEST CALLVALUE DUP1 ISZERO PUSH2 0x1FC JUMPI PUSH1 0x0 DUP1 REVERT JUMPDEST POP PUSH2 0x205 PUSH2 0xB0D JUMP JUMPDEST PUSH1 0x40 MLOAD PUSH2 0x212 SWAP2 SWAP1 PUSH2 0x2583 JUMP JUMPDEST PUSH1 0x40 MLOAD DUP1 SWAP2 SUB SWAP1 RETURN JUMPDEST CALLVALUE DUP1 ISZERO PUSH2 0x227 JUMPI PUSH1 0x0 DUP1 REVERT JUMPDEST POP PUSH2 0x230 PUSH2 0xB13 JUMP JUMPDEST PUSH1 0x40 MLOAD PUSH2 0x23D SWAP2 SWAP1 PUSH2 0x259E JUMP JUMPDEST PUSH1 0x40 MLOAD DUP1 SWAP2 SUB SWAP1 RETURN JUMPDEST CALLVALUE DUP1 ISZERO PUSH2 0x252 JUMPI PUSH1 0x0 DUP1 REVERT JUMPDEST POP PUSH2 0x26D PUSH1 0x4 DUP1 CALLDATASIZE SUB DUP2 ADD SWAP1 PUSH2 0x268 SWAP2 SWAP1 PUSH2 0x2556 JUMP JUMPDEST PUSH2 0xBA1 JUMP JUMPDEST PUSH1 0x40 MLOAD PUSH2 0x27A SWAP2 SWAP1 PUSH2 0x2583 JUMP JUMPDEST PUSH1 0x40 MLOAD DUP1 SWAP2 SUB SWAP1 RETURN JUMPDEST CALLVALUE DUP1 ISZERO PUSH2 0x28F JUMPI PUSH1 0x0 DUP1 REVERT JUMPDEST POP PUSH2 0x2AA PUSH1 0x4 DUP1 CALLDATASIZE SUB DUP2 ADD SWAP1 PUSH2 0x2A5 SWAP2 SWAP1 PUSH2 0x235E JUMP JUMPDEST PUSH2 0xBB9 JUMP JUMPDEST PUSH1 0x40 MLOAD PUSH2 0x2B7 SWAP2 SWAP1 PUSH2 0x2583 JUMP JUMPDEST PUSH1 0x40 MLOAD DUP1 SWAP2 SUB SWAP1 RETURN JUMPDEST PUSH2 0x2DA PUSH1 0x4 DUP1 CALLDATASIZE SUB DUP2 ADD SWAP1 PUSH2 0x2D5 SWAP2 SWAP1 PUSH2 0x235E JUMP JUMPDEST PUSH2 0xC1E JUMP JUMPDEST STOP JUMPDEST CALLVALUE DUP1 ISZERO PUSH2 0x2E8 JUMPI PUSH1 0x0 DUP1 REVERT JUMPDEST POP PUSH2 0x2F1 PUSH2 0x12EA JUMP JUMPDEST PUSH1 0x40 MLOAD PUSH2 0x2FE SWAP2 SWAP1 PUSH2 0x2583 JUMP JUMPDEST PUSH1 0x40 MLOAD DUP1 SWAP2 SUB SWAP1 RETURN JUMPDEST CALLVALUE DUP1 ISZERO PUSH2 0x313 JUMPI PUSH1 0x0 DUP1 REVERT JUMPDEST POP PUSH2 0x32E PUSH1 0x4 DUP1 CALLDATASIZE SUB DUP2 ADD SWAP1 PUSH2 0x329 SWAP2 SWAP1 PUSH2 0x25C0 JUMP JUMPDEST PUSH2 0x12F0 JUMP JUMPDEST PUSH1 0x40 MLOAD PUSH2 0x33B SWAP2 SWAP1 PUSH2 0x2583 JUMP JUMPDEST PUSH1 0x40 MLOAD DUP1 SWAP2 SUB SWAP1 RETURN JUMPDEST CALLVALUE DUP1 ISZERO PUSH2 0x350 JUMPI PUSH1 0x0 DUP1 REVERT JUMPDEST POP PUSH2 0x36B PUSH1 0x4 DUP1 CALLDATASIZE SUB DUP2 ADD SWAP1 PUSH2 0x366 SWAP2 SWAP1 PUSH2 0x2735 JUMP JUMPDEST PUSH2 0x1321 JUMP JUMPDEST STOP JUMPDEST CALLVALUE DUP1 ISZERO PUSH2 0x379 JUMPI PUSH1 0x0 DUP1 REVERT JUMPDEST POP PUSH2 0x382 PUSH2 0x1678 JUMP JUMPDEST PUSH1 0x40 MLOAD PUSH2 0x38F SWAP2 SWAP1 PUSH2 0x27AD JUMP JUMPDEST PUSH1 0x40 MLOAD DUP1 SWAP2 SUB SWAP1 RETURN JUMPDEST CALLVALUE DUP1 ISZERO PUSH2 0x3A4 JUMPI PUSH1 0x0 DUP1 REVERT JUMPDEST POP PUSH2 0x3BF PUSH1 0x4 DUP1 CALLDATASIZE SUB DUP2 ADD SWAP1 PUSH2 0x3BA SWAP2 SWAP1 PUSH2 0x25C0 JUMP JUMPDEST PUSH2 0x169C JUMP JUMPDEST PUSH1 0x40 MLOAD PUSH2 0x3CC SWAP2 SWAP1 PUSH2 0x2583 JUMP JUMPDEST PUSH1 0x40 MLOAD DUP1 SWAP2 SUB SWAP1 RETURN JUMPDEST CALLVALUE DUP1 ISZERO PUSH2 0x3E1 JUMPI PUSH1 0x0 DUP1 REVERT JUMPDEST POP PUSH2 0x3FC PUSH1 0x4 DUP1 CALLDATASIZE SUB DUP2 ADD SWAP1 PUSH2 0x3F7 SWAP2 SWAP1 PUSH2 0x235E JUMP JUMPDEST PUSH2 0x16CD JUMP JUMPDEST STOP JUMPDEST CALLVALUE DUP1 ISZERO PUSH2 0x40A JUMPI PUSH1 0x0 DUP1 REVERT JUMPDEST POP PUSH2 0x425 PUSH1 0x4 DUP1 CALLDATASIZE SUB DUP2 ADD SWAP1 PUSH2 0x420 SWAP2 SWAP1 PUSH2 0x235E JUMP JUMPDEST PUSH2 0x1A8C JUMP JUMPDEST STOP JUMPDEST CALLVALUE DUP1 ISZERO PUSH2 0x433 JUMPI PUSH1 0x0 DUP1 REVERT JUMPDEST POP PUSH2 0x44E PUSH1 0x4 DUP1 CALLDATASIZE SUB DUP2 ADD SWAP1 PUSH2 0x449 SWAP2 SWAP1 PUSH2 0x2556 JUMP JUMPDEST PUSH2 0x1E66 JUMP JUMPDEST PUSH1 0x40 MLOAD PUSH2 0x45B SWAP2 SWAP1 PUSH2 0x27C8 JUMP JUMPDEST PUSH1 0x40 MLOAD DUP1 SWAP2 SUB SWAP1 RETURN JUMPDEST CALLVALUE DUP1 ISZERO PUSH2 0x470 JUMPI PUSH1 0x0 DUP1 REVERT JUMPDEST POP PUSH2 0x479 PUSH2 0x1E86 JUMP JUMPDEST PUSH1 0x40 MLOAD PUSH2 0x486 SWAP2 SWAP1 PUSH2 0x2583 JUMP JUMPDEST PUSH1 0x40 MLOAD DUP1 SWAP2 SUB SWAP1 RETURN JUMPDEST CALLVALUE DUP1 ISZERO PUSH2 0x49B JUMPI PUSH1 0x0 DUP1 REVERT JUMPDEST POP PUSH2 0x4B6 PUSH1 0x4 DUP1 CALLDATASIZE SUB DUP2 ADD SWAP1 PUSH2 0x4B1 SWAP2 SWAP1 PUSH2 0x25C0 JUMP JUMPDEST PUSH2 0x1E8E JUMP JUMPDEST PUSH1 0x40 MLOAD PUSH2 0x4C3 SWAP2 SWAP1 PUSH2 0x2583 JUMP JUMPDEST PUSH1 0x40 MLOAD DUP1 SWAP2 SUB SWAP1 RETURN JUMPDEST CALLVALUE DUP1 ISZERO PUSH2 0x4D8 JUMPI PUSH1 0x0 DUP1 REVERT JUMPDEST POP PUSH2 0x4E1 PUSH2 0x1EBF JUMP JUMPDEST PUSH1 0x40 MLOAD PUSH2 0x4EE SWAP2 SWAP1 PUSH2 0x2583 JUMP JUMPDEST PUSH1 0x40 MLOAD DUP1 SWAP2 SUB SWAP1 RETURN JUMPDEST CALLVALUE DUP1 ISZERO PUSH2 0x503 JUMPI PUSH1 0x0 DUP1 REVERT JUMPDEST POP PUSH2 0x51E PUSH1 0x4 DUP1 CALLDATASIZE SUB DUP2 ADD SWAP1 PUSH2 0x519 SWAP2 SWAP1 PUSH2 0x25C0 JUMP JUMPDEST PUSH2 0x1F09 JUMP JUMPDEST STOP JUMPDEST PUSH2 0x528 PUSH2 0x2076 JUMP JUMPDEST STOP JUMPDEST CALLVALUE DUP1 ISZERO PUSH2 0x536 JUMPI PUSH1 0x0 DUP1 REVERT JUMPDEST POP PUSH2 0x53F PUSH2 0x222C JUMP JUMPDEST PUSH1 0x40 MLOAD PUSH2 0x54C SWAP2 SWAP1 PUSH2 0x2583 JUMP JUMPDEST PUSH1 0x40 MLOAD DUP1 SWAP2 SUB SWAP1 RETURN JUMPDEST CALLVALUE DUP1 ISZERO PUSH2 0x561 JUMPI PUSH1 0x0 DUP1 REVERT JUMPDEST POP PUSH2 0x57C PUSH1 0x4 DUP1 CALLDATASIZE SUB DUP2 ADD SWAP1 PUSH2 0x577 SWAP2 SWAP1 PUSH2 0x235E JUMP JUMPDEST PUSH2 0x2232 JUMP JUMPDEST PUSH1 0x40 MLOAD PUSH2 0x589 SWAP2 SWAP1 PUSH2 0x27AD JUMP JUMPDEST PUSH1 0x40 MLOAD DUP1 SWAP2 SUB SWAP1 RETURN JUMPDEST PUSH1 0xB PUSH1 0x20 MSTORE DUP1 PUSH1 0x0 MSTORE PUSH1 0x40 PUSH1 0x0 KECCAK256 PUSH1 0x0 SWAP2 POP SWAP1 POP DUP1 PUSH1 0x0 ADD SLOAD SWAP1 DUP1 PUSH1 0x1 ADD DUP1 SLOAD PUSH2 0x5BB SWAP1 PUSH2 0x2812 JUMP JUMPDEST DUP1 PUSH1 0x1F ADD PUSH1 0x20 DUP1 SWAP2 DIV MUL PUSH1 0x20 ADD PUSH1 0x40 MLOAD SWAP1 DUP2 ADD PUSH1 0x40 MSTORE DUP1 SWAP3 SWAP2 SWAP1 DUP2 DUP2 MSTORE PUSH1 0x20 ADD DUP3 DUP1 SLOAD PUSH2 0x5E7 SWAP1 PUSH2 0x2812 JUMP JUMPDEST DUP1 ISZERO PUSH2 0x634 JUMPI DUP1 PUSH1 0x1F LT PUSH2 0x609 JUMPI PUSH2 0x100 DUP1 DUP4 SLOAD DIV MUL DUP4 MSTORE SWAP2 PUSH1 0x20 ADD SWAP2 PUSH2 0x634 JUMP JUMPDEST DUP3 ADD SWAP2 SWAP1 PUSH1 0x0 MSTORE PUSH1 0x20 PUSH1 0x0 KECCAK256 SWAP1 JUMPDEST DUP2 SLOAD DUP2 MSTORE SWAP1 PUSH1 0x1 ADD SWAP1 PUSH1 0x20 ADD DUP1 DUP4 GT PUSH2 0x617 JUMPI DUP3 SWAP1 SUB PUSH1 0x1F AND DUP3 ADD SWAP2 JUMPDEST POP POP POP POP POP SWAP1 DUP1 PUSH1 0x2 ADD DUP1 SLOAD PUSH2 0x649 SWAP1 PUSH2 0x2812 JUMP JUMPDEST DUP1 PUSH1 0x1F ADD PUSH1 0x20 DUP1 SWAP2 DIV MUL PUSH1 0x20 ADD PUSH1 0x40 MLOAD SWAP1 DUP2 ADD PUSH1 0x40 MSTORE DUP1 SWAP3 SWAP2 SWAP1 DUP2 DUP2 MSTORE PUSH1 0x20 ADD DUP3 DUP1 SLOAD PUSH2 0x675 SWAP1 PUSH2 0x2812 JUMP JUMPDEST DUP1 ISZERO PUSH2 0x6C2 JUMPI DUP1 PUSH1 0x1F LT PUSH2 0x697 JUMPI PUSH2 0x100 DUP1 DUP4 SLOAD DIV MUL DUP4 MSTORE SWAP2 PUSH1 0x20 ADD SWAP2 PUSH2 0x6C2 JUMP JUMPDEST DUP3 ADD SWAP2 SWAP1 PUSH1 0x0 MSTORE PUSH1 0x20 PUSH1 0x0 KECCAK256 SWAP1 JUMPDEST DUP2 SLOAD DUP2 MSTORE SWAP1 PUSH1 0x1 ADD SWAP1 PUSH1 0x20 ADD DUP1 DUP4 GT PUSH2 0x6A5 JUMPI DUP3 SWAP1 SUB PUSH1 0x1F AND DUP3 ADD SWAP2 JUMPDEST POP POP POP POP POP SWAP1 DUP1 PUSH1 0x3 ADD PUSH1 0x0 SWAP1 SLOAD SWAP1 PUSH2 0x100 EXP SWAP1 DIV PUSH20 0xFFFFFFFFFFFFFFFFFFFFFFFFFFFFFFFFFFFFFFFF AND SWAP1 DUP1 PUSH1 0x7 ADD SLOAD SWAP1 DUP1 PUSH1 0x8 ADD SLOAD SWAP1 DUP1 PUSH1 0x9 ADD SLOAD SWAP1 DUP1 PUSH1 0xA ADD PUSH1 0x0 SWAP1 SLOAD SWAP1 PUSH2 0x100 EXP SWAP1 DIV PUSH1 0xFF AND SWAP1 DUP1 PUSH1 0xA ADD PUSH1 0x1 SWAP1 SLOAD SWAP1 PUSH2 0x100 EXP SWAP1 DIV PUSH1 0xFF AND SWAP1 POP DUP10 JUMP JUMPDEST DUP1 PUSH1 0x0 PUSH1 0xB PUSH1 0x0 DUP4 DUP2 MSTORE PUSH1 0x20 ADD SWAP1 DUP2 MSTORE PUSH1 0x20 ADD PUSH1 0x0 KECCAK256 PUSH1 0x4 ADD PUSH1 0x0 CALLER PUSH20 0xFFFFFFFFFFFFFFFFFFFFFFFFFFFFFFFFFFFFFFFF AND PUSH20 0xFFFFFFFFFFFFFFFFFFFFFFFFFFFFFFFFFFFFFFFF AND DUP2 MSTORE PUSH1 0x20 ADD SWAP1 DUP2 MSTORE PUSH1 0x20 ADD PUSH1 0x0 KECCAK256 SLOAD GT PUSH2 0x7C1 JUMPI PUSH1 0x40 MLOAD PUSH32 0x8C379A000000000000000000000000000000000000000000000000000000000 DUP2 MSTORE PUSH1 0x4 ADD PUSH2 0x7B8 SWAP1 PUSH2 0x28B6 JUMP JUMPDEST PUSH1 0x40 MLOAD DUP1 SWAP2 SUB SWAP1 REVERT JUMPDEST PUSH1 0xB PUSH1 0x0 DUP3 DUP2 MSTORE PUSH1 0x20 ADD SWAP1 DUP2 MSTORE PUSH1 0x20 ADD PUSH1 0x0 KECCAK256 PUSH1 0x5 ADD PUSH1 0x0 CALLER PUSH20 0xFFFFFFFFFFFFFFFFFFFFFFFFFFFFFFFFFFFFFFFF AND PUSH20 0xFFFFFFFFFFFFFFFFFFFFFFFFFFFFFFFFFFFFFFFF AND DUP2 MSTORE PUSH1 0x20 ADD SWAP1 DUP2 MSTORE PUSH1 0x20 ADD PUSH1 0x0 KECCAK256 PUSH1 0x0 SWAP1 SLOAD SWAP1 PUSH2 0x100 EXP SWAP1 DIV PUSH1 0xFF AND ISZERO PUSH2 0x862 JUMPI PUSH1 0x40 MLOAD PUSH32 0x8C379A000000000000000000000000000000000000000000000000000000000 DUP2 MSTORE PUSH1 0x4 ADD PUSH2 0x859 SWAP1 PUSH2 0x2922 JUMP JUMPDEST PUSH1 0x40 MLOAD DUP1 SWAP2 SUB SWAP1 REVERT JUMPDEST PUSH1 0xB PUSH1 0x0 DUP3 DUP2 MSTORE PUSH1 0x20 ADD SWAP1 DUP2 MSTORE PUSH1 0x20 ADD PUSH1 0x0 KECCAK256 PUSH1 0x6 ADD PUSH1 0x0 CALLER PUSH20 0xFFFFFFFFFFFFFFFFFFFFFFFFFFFFFFFFFFFFFFFF AND PUSH20 0xFFFFFFFFFFFFFFFFFFFFFFFFFFFFFFFFFFFFFFFF AND DUP2 MSTORE PUSH1 0x20 ADD SWAP1 DUP2 MSTORE PUSH1 0x20 ADD PUSH1 0x0 KECCAK256 PUSH1 0x0 SWAP1 SLOAD SWAP1 PUSH2 0x100 EXP SWAP1 DIV PUSH1 0xFF AND ISZERO PUSH2 0x903 JUMPI PUSH1 0x40 MLOAD PUSH32 0x8C379A000000000000000000000000000000000000000000000000000000000 DUP2 MSTORE PUSH1 0x4 ADD PUSH2 0x8FA SWAP1 PUSH2 0x2922 JUMP JUMPDEST PUSH1 0x40 MLOAD DUP1 SWAP2 SUB SWAP1 REVERT JUMPDEST PUSH1 0xB PUSH1 0x0 DUP3 DUP2 MSTORE PUSH1 0x20 ADD SWAP1 DUP2 MSTORE PUSH1 0x20 ADD PUSH1 0x0 KECCAK256 PUSH1 0xA ADD PUSH1 0x0 SWAP1 SLOAD SWAP1 PUSH2 0x100 EXP SWAP1 DIV PUSH1 0xFF AND ISZERO PUSH2 0x967 JUMPI PUSH1 0x40 MLOAD PUSH32 0x8C379A000000000000000000000000000000000000000000000000000000000 DUP2 MSTORE PUSH1 0x4 ADD PUSH2 0x95E SWAP1 PUSH2 0x298E JUMP JUMPDEST PUSH1 0x40 MLOAD DUP1 SWAP2 SUB SWAP1 REVERT JUMPDEST PUSH1 0x1 PUSH1 0xB PUSH1 0x0 DUP5 DUP2 MSTORE PUSH1 0x20 ADD SWAP1 DUP2 MSTORE PUSH1 0x20 ADD PUSH1 0x0 KECCAK256 PUSH1 0x6 ADD PUSH1 0x0 CALLER PUSH20 0xFFFFFFFFFFFFFFFFFFFFFFFFFFFFFFFFFFFFFFFF AND PUSH20 0xFFFFFFFFFFFFFFFFFFFFFFFFFFFFFFFFFFFFFFFF AND DUP2 MSTORE PUSH1 0x20 ADD SWAP1 DUP2 MSTORE PUSH1 0x20 ADD PUSH1 0x0 KECCAK256 PUSH1 0x0 PUSH2 0x100 EXP DUP2 SLOAD DUP2 PUSH1 0xFF MUL NOT AND SWAP1 DUP4 ISZERO ISZERO MUL OR SWAP1 SSTORE POP PUSH1 0xB PUSH1 0x0 DUP4 DUP2 MSTORE PUSH1 0x20 ADD SWAP1 DUP2 MSTORE PUSH1 0x20 ADD PUSH1 0x0 KECCAK256 PUSH1 0x4 ADD PUSH1 0x0 CALLER PUSH20 0xFFFFFFFFFFFFFFFFFFFFFFFFFFFFFFFFFFFFFFFF AND PUSH20 0xFFFFFFFFFFFFFFFFFFFFFFFFFFFFFFFFFFFFFFFF AND DUP2 MSTORE PUSH1 0x20 ADD SWAP1 DUP2 MSTORE PUSH1 0x20 ADD PUSH1 0x0 KECCAK256 SLOAD PUSH1 0xB PUSH1 0x0 DUP5 DUP2 MSTORE PUSH1 0x20 ADD SWAP1 DUP2 MSTORE PUSH1 0x20 ADD PUSH1 0x0 KECCAK256 PUSH1 0x8 ADD PUSH1 0x0 DUP3 DUP3 SLOAD PUSH2 0xA4C SWAP2 SWAP1 PUSH2 0x29DD JUMP JUMPDEST SWAP3 POP POP DUP2 SWAP1 SSTORE POP PUSH1 0x2 PUSH1 0xB PUSH1 0x0 DUP5 DUP2 MSTORE PUSH1 0x20 ADD SWAP1 DUP2 MSTORE PUSH1 0x20 ADD PUSH1 0x0 KECCAK256 PUSH1 0x9 ADD SLOAD PUSH2 0xA76 SWAP2 SWAP1 PUSH2 0x2A62 JUMP JUMPDEST PUSH1 0xB PUSH1 0x0 DUP5 DUP2 MSTORE PUSH1 0x20 ADD SWAP1 DUP2 MSTORE PUSH1 0x20 ADD PUSH1 0x0 KECCAK256 PUSH1 0x8 ADD SLOAD LT PUSH2 0xAF1 JUMPI PUSH1 0x1 PUSH1 0xB PUSH1 0x0 DUP5 DUP2 MSTORE PUSH1 0x20 ADD SWAP1 DUP2 MSTORE PUSH1 0x20 ADD PUSH1 0x0 KECCAK256 PUSH1 0xA ADD PUSH1 0x0 PUSH2 0x100 EXP DUP2 SLOAD DUP2 PUSH1 0xFF MUL NOT AND SWAP1 DUP4 ISZERO ISZERO MUL OR SWAP1 SSTORE POP PUSH1 0x0 PUSH1 0xB PUSH1 0x0 DUP5 DUP2 MSTORE PUSH1 0x20 ADD SWAP1 DUP2 MSTORE PUSH1 0x20 ADD PUSH1 0x0 KECCAK256 PUSH1 0xA ADD PUSH1 0x1 PUSH2 0x100 EXP DUP2 SLOAD DUP2 PUSH1 0xFF MUL NOT AND SWAP1 DUP4 ISZERO ISZERO MUL OR SWAP1 SSTORE POP JUMPDEST POP POP JUMP JUMPDEST PUSH1 0x6 PUSH1 0x20 MSTORE DUP1 PUSH1 0x0 MSTORE PUSH1 0x40 PUSH1 0x0 KECCAK256 PUSH1 0x0 SWAP2 POP SWAP1 POP SLOAD DUP2 JUMP JUMPDEST PUSH1 0x1 SLOAD DUP2 JUMP JUMPDEST PUSH1 0x3 DUP1 SLOAD PUSH2 0xB20 SWAP1 PUSH2 0x2812 JUMP JUMPDEST DUP1 PUSH1 0x1F ADD PUSH1 0x20 DUP1 SWAP2 DIV MUL PUSH1 0x20 ADD PUSH1 0x40 MLOAD SWAP1 DUP2 ADD PUSH1 0x40 MSTORE DUP1 SWAP3 SWAP2 SWAP1 DUP2 DUP2 MSTORE PUSH1 0x20 ADD DUP3 DUP1 SLOAD PUSH2 0xB4C SWAP1 PUSH2 0x2812 JUMP JUMPDEST DUP1 ISZERO PUSH2 0xB99 JUMPI DUP1 PUSH1 0x1F LT PUSH2 0xB6E JUMPI PUSH2 0x100 DUP1 DUP4 SLOAD DIV MUL DUP4 MSTORE SWAP2 PUSH1 0x20 ADD SWAP2 PUSH2 0xB99 JUMP JUMPDEST DUP3 ADD SWAP2 SWAP1 PUSH1 0x0 MSTORE PUSH1 0x20 PUSH1 0x0 KECCAK256 SWAP1 JUMPDEST DUP2 SLOAD DUP2 MSTORE SWAP1 PUSH1 0x1 ADD SWAP1 PUSH1 0x20 ADD DUP1 DUP4 GT PUSH2 0xB7C JUMPI DUP3 SWAP1 SUB PUSH1 0x1F AND DUP3 ADD SWAP2 JUMPDEST POP POP POP POP POP DUP2 JUMP JUMPDEST PUSH1 0x4 PUSH1 0x20 MSTORE DUP1 PUSH1 0x0 MSTORE PUSH1 0x40 PUSH1 0x0 KECCAK256 PUSH1 0x0 SWAP2 POP SWAP1 POP SLOAD DUP2 JUMP JUMPDEST PUSH1 0x0 PUSH1 0x8 PUSH1 0x0 CALLER PUSH20 0xFFFFFFFFFFFFFFFFFFFFFFFFFFFFFFFFFFFFFFFF AND PUSH20 0xFFFFFFFFFFFFFFFFFFFFFFFFFFFFFFFFFFFFFFFF AND DUP2 MSTORE PUSH1 0x20 ADD SWAP1 DUP2 MSTORE PUSH1 0x20 ADD PUSH1 0x0 KECCAK256 DUP3 DUP2 SLOAD DUP2 LT PUSH2 0xC0C JUMPI PUSH2 0xC0B PUSH2 0x2A93 JUMP JUMPDEST JUMPDEST SWAP1 PUSH1 0x0 MSTORE PUSH1 0x20 PUSH1 0x0 KECCAK256 ADD SLOAD SWAP1 POP SWAP2 SWAP1 POP JUMP JUMPDEST TIMESTAMP PUSH1 0x7 PUSH1 0x0 CALLER PUSH20 0xFFFFFFFFFFFFFFFFFFFFFFFFFFFFFFFFFFFFFFFF AND PUSH20 0xFFFFFFFFFFFFFFFFFFFFFFFFFFFFFFFFFFFFFFFF AND DUP2 MSTORE PUSH1 0x20 ADD SWAP1 DUP2 MSTORE PUSH1 0x20 ADD PUSH1 0x0 KECCAK256 DUP3 DUP2 SLOAD DUP2 LT PUSH2 0xC70 JUMPI PUSH2 0xC6F PUSH2 0x2A93 JUMP JUMPDEST JUMPDEST SWAP1 PUSH1 0x0 MSTORE PUSH1 0x20 PUSH1 0x0 KECCAK256 ADD SLOAD LT PUSH2 0xCBB JUMPI PUSH1 0x40 MLOAD PUSH32 0x8C379A000000000000000000000000000000000000000000000000000000000 DUP2 MSTORE PUSH1 0x4 ADD PUSH2 0xCB2 SWAP1 PUSH2 0x2B0E JUMP JUMPDEST PUSH1 0x40 MLOAD DUP1 SWAP2 SUB SWAP1 REVERT JUMPDEST CALLER PUSH20 0xFFFFFFFFFFFFFFFFFFFFFFFFFFFFFFFFFFFFFFFF AND PUSH2 0x8FC PUSH1 0x8 PUSH1 0x0 CALLER PUSH20 0xFFFFFFFFFFFFFFFFFFFFFFFFFFFFFFFFFFFFFFFF AND PUSH20 0xFFFFFFFFFFFFFFFFFFFFFFFFFFFFFFFFFFFFFFFF AND DUP2 MSTORE PUSH1 0x20 ADD SWAP1 DUP2 MSTORE PUSH1 0x20 ADD PUSH1 0x0 KECCAK256 DUP4 DUP2 SLOAD DUP2 LT PUSH2 0xD26 JUMPI PUSH2 0xD25 PUSH2 0x2A93 JUMP JUMPDEST JUMPDEST SWAP1 PUSH1 0x0 MSTORE PUSH1 0x20 PUSH1 0x0 KECCAK256 ADD SLOAD SWAP1 DUP2 ISZERO MUL SWAP1 PUSH1 0x40 MLOAD PUSH1 0x0 PUSH1 0x40 MLOAD DUP1 DUP4 SUB DUP2 DUP6 DUP9 DUP9 CALL SWAP4 POP POP POP POP ISZERO DUP1 ISZERO PUSH2 0xD5C JUMPI RETURNDATASIZE PUSH1 0x0 DUP1 RETURNDATACOPY RETURNDATASIZE PUSH1 0x0 REVERT JUMPDEST POP PUSH1 0x5 PUSH1 0x0 CALLER PUSH20 0xFFFFFFFFFFFFFFFFFFFFFFFFFFFFFFFFFFFFFFFF AND PUSH20 0xFFFFFFFFFFFFFFFFFFFFFFFFFFFFFFFFFFFFFFFF AND DUP2 MSTORE PUSH1 0x20 ADD SWAP1 DUP2 MSTORE PUSH1 0x20 ADD PUSH1 0x0 KECCAK256 DUP2 DUP2 SLOAD DUP2 LT PUSH2 0xDAE JUMPI PUSH2 0xDAD PUSH2 0x2A93 JUMP JUMPDEST JUMPDEST SWAP1 PUSH1 0x0 MSTORE PUSH1 0x20 PUSH1 0x0 KECCAK256 ADD SLOAD PUSH1 0x2 PUSH1 0x0 DUP3 DUP3 SLOAD PUSH2 0xDCA SWAP2 SWAP1 PUSH2 0x2B2E JUMP JUMPDEST SWAP3 POP POP DUP2 SWAP1 SSTORE POP PUSH1 0x5 PUSH1 0x0 CALLER PUSH20 0xFFFFFFFFFFFFFFFFFFFFFFFFFFFFFFFFFFFFFFFF AND PUSH20 0xFFFFFFFFFFFFFFFFFFFFFFFFFFFFFFFFFFFFFFFF AND DUP2 MSTORE PUSH1 0x20 ADD SWAP1 DUP2 MSTORE PUSH1 0x20 ADD PUSH1 0x0 KECCAK256 DUP2 DUP2 SLOAD DUP2 LT PUSH2 0xE22 JUMPI PUSH2 0xE21 PUSH2 0x2A93 JUMP JUMPDEST JUMPDEST SWAP1 PUSH1 0x0 MSTORE PUSH1 0x20 PUSH1 0x0 KECCAK256 ADD SLOAD PUSH1 0x6 PUSH1 0x0 CALLER PUSH20 0xFFFFFFFFFFFFFFFFFFFFFFFFFFFFFFFFFFFFFFFF AND PUSH20 0xFFFFFFFFFFFFFFFFFFFFFFFFFFFFFFFFFFFFFFFF AND DUP2 MSTORE PUSH1 0x20 ADD SWAP1 DUP2 MSTORE PUSH1 0x20 ADD PUSH1 0x0 KECCAK256 PUSH1 0x0 DUP3 DUP3 SLOAD PUSH2 0xE7B SWAP2 SWAP1 PUSH2 0x2B2E JUMP JUMPDEST SWAP3 POP POP DUP2 SWAP1 SSTORE POP PUSH1 0x5 PUSH1 0x0 CALLER PUSH20 0xFFFFFFFFFFFFFFFFFFFFFFFFFFFFFFFFFFFFFFFF AND PUSH20 0xFFFFFFFFFFFFFFFFFFFFFFFFFFFFFFFFFFFFFFFF AND DUP2 MSTORE PUSH1 0x20 ADD SWAP1 DUP2 MSTORE PUSH1 0x20 ADD PUSH1 0x0 KECCAK256 DUP2 DUP2 SLOAD DUP2 LT PUSH2 0xED3 JUMPI PUSH2 0xED2 PUSH2 0x2A93 JUMP JUMPDEST JUMPDEST SWAP1 PUSH1 0x0 MSTORE PUSH1 0x20 PUSH1 0x0 KECCAK256 ADD SLOAD PUSH1 0x4 PUSH1 0x0 CALLER PUSH20 0xFFFFFFFFFFFFFFFFFFFFFFFFFFFFFFFFFFFFFFFF AND PUSH20 0xFFFFFFFFFFFFFFFFFFFFFFFFFFFFFFFFFFFFFFFF AND DUP2 MSTORE PUSH1 0x20 ADD SWAP1 DUP2 MSTORE PUSH1 0x20 ADD PUSH1 0x0 KECCAK256 PUSH1 0x0 DUP3 DUP3 SLOAD PUSH2 0xF2C SWAP2 SWAP1 PUSH2 0x29DD JUMP JUMPDEST SWAP3 POP POP DUP2 SWAP1 SSTORE POP PUSH1 0x0 PUSH1 0x1 PUSH1 0x5 PUSH1 0x0 CALLER PUSH20 0xFFFFFFFFFFFFFFFFFFFFFFFFFFFFFFFFFFFFFFFF AND PUSH20 0xFFFFFFFFFFFFFFFFFFFFFFFFFFFFFFFFFFFFFFFF AND DUP2 MSTORE PUSH1 0x20 ADD SWAP1 DUP2 MSTORE PUSH1 0x20 ADD PUSH1 0x0 KECCAK256 DUP1 SLOAD SWAP1 POP PUSH2 0xF84 SWAP2 SWAP1 PUSH2 0x2B2E JUMP JUMPDEST SWAP1 POP PUSH1 0x5 PUSH1 0x0 CALLER PUSH20 0xFFFFFFFFFFFFFFFFFFFFFFFFFFFFFFFFFFFFFFFF AND PUSH20 0xFFFFFFFFFFFFFFFFFFFFFFFFFFFFFFFFFFFFFFFF AND DUP2 MSTORE PUSH1 0x20 ADD SWAP1 DUP2 MSTORE PUSH1 0x20 ADD PUSH1 0x0 KECCAK256 DUP2 DUP2 SLOAD DUP2 LT PUSH2 0xFD7 JUMPI PUSH2 0xFD6 PUSH2 0x2A93 JUMP JUMPDEST JUMPDEST SWAP1 PUSH1 0x0 MSTORE PUSH1 0x20 PUSH1 0x0 KECCAK256 ADD SLOAD PUSH1 0x5 PUSH1 0x0 CALLER PUSH20 0xFFFFFFFFFFFFFFFFFFFFFFFFFFFFFFFFFFFFFFFF AND PUSH20 0xFFFFFFFFFFFFFFFFFFFFFFFFFFFFFFFFFFFFFFFF AND DUP2 MSTORE PUSH1 0x20 ADD SWAP1 DUP2 MSTORE PUSH1 0x20 ADD PUSH1 0x0 KECCAK256 DUP4 DUP2 SLOAD DUP2 LT PUSH2 0x1033 JUMPI PUSH2 0x1032 PUSH2 0x2A93 JUMP JUMPDEST JUMPDEST SWAP1 PUSH1 0x0 MSTORE PUSH1 0x20 PUSH1 0x0 KECCAK256 ADD DUP2 SWAP1 SSTORE POP PUSH1 0x7 PUSH1 0x0 CALLER PUSH20 0xFFFFFFFFFFFFFFFFFFFFFFFFFFFFFFFFFFFFFFFF AND PUSH20 0xFFFFFFFFFFFFFFFFFFFFFFFFFFFFFFFFFFFFFFFF AND DUP2 MSTORE PUSH1 0x20 ADD SWAP1 DUP2 MSTORE PUSH1 0x20 ADD PUSH1 0x0 KECCAK256 DUP2 DUP2 SLOAD DUP2 LT PUSH2 0x1092 JUMPI PUSH2 0x1091 PUSH2 0x2A93 JUMP JUMPDEST JUMPDEST SWAP1 PUSH1 0x0 MSTORE PUSH1 0x20 PUSH1 0x0 KECCAK256 ADD SLOAD PUSH1 0x7 PUSH1 0x0 CALLER PUSH20 0xFFFFFFFFFFFFFFFFFFFFFFFFFFFFFFFFFFFFFFFF AND PUSH20 0xFFFFFFFFFFFFFFFFFFFFFFFFFFFFFFFFFFFFFFFF AND DUP2 MSTORE PUSH1 0x20 ADD SWAP1 DUP2 MSTORE PUSH1 0x20 ADD PUSH1 0x0 KECCAK256 DUP4 DUP2 SLOAD DUP2 LT PUSH2 0x10EE JUMPI PUSH2 0x10ED PUSH2 0x2A93 JUMP JUMPDEST JUMPDEST SWAP1 PUSH1 0x0 MSTORE PUSH1 0x20 PUSH1 0x0 KECCAK256 ADD DUP2 SWAP1 SSTORE POP PUSH1 0x8 PUSH1 0x0 CALLER PUSH20 0xFFFFFFFFFFFFFFFFFFFFFFFFFFFFFFFFFFFFFFFF AND PUSH20 0xFFFFFFFFFFFFFFFFFFFFFFFFFFFFFFFFFFFFFFFF AND DUP2 MSTORE PUSH1 0x20 ADD SWAP1 DUP2 MSTORE PUSH1 0x20 ADD PUSH1 0x0 KECCAK256 DUP2 DUP2 SLOAD DUP2 LT PUSH2 0x114D JUMPI PUSH2 0x114C PUSH2 0x2A93 JUMP JUMPDEST JUMPDEST SWAP1 PUSH1 0x0 MSTORE PUSH1 0x20 PUSH1 0x0 KECCAK256 ADD SLOAD PUSH1 0x8 PUSH1 0x0 CALLER PUSH20 0xFFFFFFFFFFFFFFFFFFFFFFFFFFFFFFFFFFFFFFFF AND PUSH20 0xFFFFFFFFFFFFFFFFFFFFFFFFFFFFFFFFFFFFFFFF AND DUP2 MSTORE PUSH1 0x20 ADD SWAP1 DUP2 MSTORE PUSH1 0x20 ADD PUSH1 0x0 KECCAK256 DUP4 DUP2 SLOAD DUP2 LT PUSH2 0x11A9 JUMPI PUSH2 0x11A8 PUSH2 0x2A93 JUMP JUMPDEST JUMPDEST SWAP1 PUSH1 0x0 MSTORE PUSH1 0x20 PUSH1 0x0 KECCAK256 ADD DUP2 SWAP1 SSTORE POP PUSH1 0x5 PUSH1 0x0 CALLER PUSH20 0xFFFFFFFFFFFFFFFFFFFFFFFFFFFFFFFFFFFFFFFF AND PUSH20 0xFFFFFFFFFFFFFFFFFFFFFFFFFFFFFFFFFFFFFFFF AND DUP2 MSTORE PUSH1 0x20 ADD SWAP1 DUP2 MSTORE PUSH1 0x20 ADD PUSH1 0x0 KECCAK256 DUP1 SLOAD DUP1 PUSH2 0x1206 JUMPI PUSH2 0x1205 PUSH2 0x2B62 JUMP JUMPDEST JUMPDEST PUSH1 0x1 SWAP1 SUB DUP2 DUP2 SWAP1 PUSH1 0x0 MSTORE PUSH1 0x20 PUSH1 0x0 KECCAK256 ADD PUSH1 0x0 SWAP1 SSTORE SWAP1 SSTORE PUSH1 0x7 PUSH1 0x0 CALLER PUSH20 0xFFFFFFFFFFFFFFFFFFFFFFFFFFFFFFFFFFFFFFFF AND PUSH20 0xFFFFFFFFFFFFFFFFFFFFFFFFFFFFFFFFFFFFFFFF AND DUP2 MSTORE PUSH1 0x20 ADD SWAP1 DUP2 MSTORE PUSH1 0x20 ADD PUSH1 0x0 KECCAK256 DUP1 SLOAD DUP1 PUSH2 0x126B JUMPI PUSH2 0x126A PUSH2 0x2B62 JUMP JUMPDEST JUMPDEST PUSH1 0x1 SWAP1 SUB DUP2 DUP2 SWAP1 PUSH1 0x0 MSTORE PUSH1 0x20 PUSH1 0x0 KECCAK256 ADD PUSH1 0x0 SWAP1 SSTORE SWAP1 SSTORE PUSH1 0x8 PUSH1 0x0 CALLER PUSH20 0xFFFFFFFFFFFFFFFFFFFFFFFFFFFFFFFFFFFFFFFF AND PUSH20 0xFFFFFFFFFFFFFFFFFFFFFFFFFFFFFFFFFFFFFFFF AND DUP2 MSTORE PUSH1 0x20 ADD SWAP1 DUP2 MSTORE PUSH1 0x20 ADD PUSH1 0x0 KECCAK256 DUP1 SLOAD DUP1 PUSH2 0x12D0 JUMPI PUSH2 0x12CF PUSH2 0x2B62 JUMP JUMPDEST JUMPDEST PUSH1 0x1 SWAP1 SUB DUP2 DUP2 SWAP1 PUSH1 0x0 MSTORE PUSH1 0x20 PUSH1 0x0 KECCAK256 ADD PUSH1 0x0 SWAP1 SSTORE SWAP1 SSTORE POP POP JUMP JUMPDEST PUSH1 0xC SLOAD DUP2 JUMP JUMPDEST PUSH1 0x7 PUSH1 0x20 MSTORE DUP2 PUSH1 0x0 MSTORE PUSH1 0x40 PUSH1 0x0 KECCAK256 DUP2 DUP2 SLOAD DUP2 LT PUSH2 0x130C JUMPI PUSH1 0x0 DUP1 REVERT JUMPDEST SWAP1 PUSH1 0x0 MSTORE PUSH1 0x20 PUSH1 0x0 KECCAK256 ADD PUSH1 0x0 SWAP2 POP SWAP2 POP POP SLOAD DUP2 JUMP JUMPDEST PUSH2 0x1388 PUSH1 0x6 PUSH1 0x0 CALLER PUSH20 0xFFFFFFFFFFFFFFFFFFFFFFFFFFFFFFFFFFFFFFFF AND PUSH20 0xFFFFFFFFFFFFFFFFFFFFFFFFFFFFFFFFFFFFFFFF AND DUP2 MSTORE PUSH1 0x20 ADD SWAP1 DUP2 MSTORE PUSH1 0x20 ADD PUSH1 0x0 KECCAK256 SLOAD LT ISZERO PUSH2 0x13A5 JUMPI PUSH1 0x40 MLOAD PUSH32 0x8C379A000000000000000000000000000000000000000000000000000000000 DUP2 MSTORE PUSH1 0x4 ADD PUSH2 0x139C SWAP1 PUSH2 0x2C03 JUMP JUMPDEST PUSH1 0x40 MLOAD DUP1 SWAP2 SUB SWAP1 REVERT JUMPDEST PUSH1 0x0 PUSH1 0xB PUSH1 0x0 PUSH1 0xC PUSH1 0x0 DUP2 SLOAD DUP1 SWAP3 SWAP2 SWAP1 PUSH2 0x13BE SWAP1 PUSH2 0x2C23 JUMP JUMPDEST SWAP2 SWAP1 POP SSTORE DUP2 MSTORE PUSH1 0x20 ADD SWAP1 DUP2 MSTORE PUSH1 0x20 ADD PUSH1 0x0 KECCAK256 SWAP1 POP PUSH1 0x1 PUSH1 0xC SLOAD PUSH2 0x13E1 SWAP2 SWAP1 PUSH2 0x2B2E JUMP JUMPDEST DUP2 PUSH1 0x0 ADD DUP2 SWAP1 SSTORE POP DUP3 DUP2 PUSH1 0x1 ADD SWAP1 DUP1 MLOAD SWAP1 PUSH1 0x20 ADD SWAP1 PUSH2 0x1401 SWAP3 SWAP2 SWAP1 PUSH2 0x2271 JUMP JUMPDEST POP DUP2 DUP2 PUSH1 0x2 ADD SWAP1 DUP1 MLOAD SWAP1 PUSH1 0x20 ADD SWAP1 PUSH2 0x141A SWAP3 SWAP2 SWAP1 PUSH2 0x2271 JUMP JUMPDEST POP CALLER DUP2 PUSH1 0x3 ADD PUSH1 0x0 PUSH2 0x100 EXP DUP2 SLOAD DUP2 PUSH20 0xFFFFFFFFFFFFFFFFFFFFFFFFFFFFFFFFFFFFFFFF MUL NOT AND SWAP1 DUP4 PUSH20 0xFFFFFFFFFFFFFFFFFFFFFFFFFFFFFFFFFFFFFFFF AND MUL OR SWAP1 SSTORE POP PUSH1 0x0 DUP2 PUSH1 0x7 ADD DUP2 SWAP1 SSTORE POP PUSH1 0x0 DUP2 PUSH1 0x8 ADD DUP2 SWAP1 SSTORE POP PUSH1 0x0 DUP2 PUSH1 0xA ADD PUSH1 0x0 PUSH2 0x100 EXP DUP2 SLOAD DUP2 PUSH1 0xFF MUL NOT AND SWAP1 DUP4 ISZERO ISZERO MUL OR SWAP1 SSTORE POP PUSH1 0x0 DUP2 PUSH1 0xA ADD PUSH1 0x1 PUSH2 0x100 EXP DUP2 SLOAD DUP2 PUSH1 0xFF MUL NOT AND SWAP1 DUP4 ISZERO ISZERO MUL OR SWAP1 SSTORE POP PUSH1 0x0 DUP1 JUMPDEST PUSH1 0xA DUP1 SLOAD SWAP1 POP DUP2 LT ISZERO PUSH2 0x165C JUMPI PUSH1 0x6 PUSH1 0x0 PUSH1 0xA DUP4 DUP2 SLOAD DUP2 LT PUSH2 0x14D5 JUMPI PUSH2 0x14D4 PUSH2 0x2A93 JUMP JUMPDEST JUMPDEST SWAP1 PUSH1 0x0 MSTORE PUSH1 0x20 PUSH1 0x0 KECCAK256 ADD PUSH1 0x0 SWAP1 SLOAD SWAP1 PUSH2 0x100 EXP SWAP1 DIV PUSH20 0xFFFFFFFFFFFFFFFFFFFFFFFFFFFFFFFFFFFFFFFF AND PUSH20 0xFFFFFFFFFFFFFFFFFFFFFFFFFFFFFFFFFFFFFFFF AND PUSH20 0xFFFFFFFFFFFFFFFFFFFFFFFFFFFFFFFFFFFFFFFF AND DUP2 MSTORE PUSH1 0x20 ADD SWAP1 DUP2 MSTORE PUSH1 0x20 ADD PUSH1 0x0 KECCAK256 SLOAD DUP3 PUSH2 0x1546 SWAP2 SWAP1 PUSH2 0x29DD JUMP JUMPDEST SWAP2 POP PUSH1 0x6 PUSH1 0x0 PUSH1 0xA DUP4 DUP2 SLOAD DUP2 LT PUSH2 0x1560 JUMPI PUSH2 0x155F PUSH2 0x2A93 JUMP JUMPDEST JUMPDEST SWAP1 PUSH1 0x0 MSTORE PUSH1 0x20 PUSH1 0x0 KECCAK256 ADD PUSH1 0x0 SWAP1 SLOAD SWAP1 PUSH2 0x100 EXP SWAP1 DIV PUSH20 0xFFFFFFFFFFFFFFFFFFFFFFFFFFFFFFFFFFFFFFFF AND PUSH20 0xFFFFFFFFFFFFFFFFFFFFFFFFFFFFFFFFFFFFFFFF AND PUSH20 0xFFFFFFFFFFFFFFFFFFFFFFFFFFFFFFFFFFFFFFFF AND DUP2 MSTORE PUSH1 0x20 ADD SWAP1 DUP2 MSTORE PUSH1 0x20 ADD PUSH1 0x0 KECCAK256 SLOAD DUP4 PUSH1 0x4 ADD PUSH1 0x0 PUSH1 0xA DUP5 DUP2 SLOAD DUP2 LT PUSH2 0x15E0 JUMPI PUSH2 0x15DF PUSH2 0x2A93 JUMP JUMPDEST JUMPDEST SWAP1 PUSH1 0x0 MSTORE PUSH1 0x20 PUSH1 0x0 KECCAK256 ADD PUSH1 0x0 SWAP1 SLOAD SWAP1 PUSH2 0x100 EXP SWAP1 DIV PUSH20 0xFFFFFFFFFFFFFFFFFFFFFFFFFFFFFFFFFFFFFFFF AND PUSH20 0xFFFFFFFFFFFFFFFFFFFFFFFFFFFFFFFFFFFFFFFF AND PUSH20 0xFFFFFFFFFFFFFFFFFFFFFFFFFFFFFFFFFFFFFFFF AND DUP2 MSTORE PUSH1 0x20 ADD SWAP1 DUP2 MSTORE PUSH1 0x20 ADD PUSH1 0x0 KECCAK256 DUP2 SWAP1 SSTORE POP DUP1 DUP1 PUSH2 0x1654 SWAP1 PUSH2 0x2C23 JUMP JUMPDEST SWAP2 POP POP PUSH2 0x14B0 JUMP JUMPDEST POP PUSH1 0x2 DUP2 PUSH2 0x166A SWAP2 SWAP1 PUSH2 0x2A62 JUMP JUMPDEST DUP3 PUSH1 0x9 ADD DUP2 SWAP1 SSTORE POP POP POP POP POP JUMP JUMPDEST PUSH1 0x0 DUP1 SLOAD SWAP1 PUSH2 0x100 EXP SWAP1 DIV PUSH20 0xFFFFFFFFFFFFFFFFFFFFFFFFFFFFFFFFFFFFFFFF AND DUP2 JUMP JUMPDEST PUSH1 0x5 PUSH1 0x20 MSTORE DUP2 PUSH1 0x0 MSTORE PUSH1 0x40 PUSH1 0x0 KECCAK256 DUP2 DUP2 SLOAD DUP2 LT PUSH2 0x16B8 JUMPI PUSH1 0x0 DUP1 REVERT JUMPDEST SWAP1 PUSH1 0x0 MSTORE PUSH1 0x20 PUSH1 0x0 KECCAK256 ADD PUSH1 0x0 SWAP2 POP SWAP2 POP POP SLOAD DUP2 JUMP JUMPDEST DUP1 PUSH1 0x0 PUSH1 0xB PUSH1 0x0 DUP4 DUP2 MSTORE PUSH1 0x20 ADD SWAP1 DUP2 MSTORE PUSH1 0x20 ADD PUSH1 0x0 KECCAK256 PUSH1 0x4 ADD PUSH1 0x0 CALLER PUSH20 0xFFFFFFFFFFFFFFFFFFFFFFFFFFFFFFFFFFFFFFFF AND PUSH20 0xFFFFFFFFFFFFFFFFFFFFFFFFFFFFFFFFFFFFFFFF AND DUP2 MSTORE PUSH1 0x20 ADD SWAP1 DUP2 MSTORE PUSH1 0x20 ADD PUSH1 0x0 KECCAK256 SLOAD GT PUSH2 0x1764 JUMPI PUSH1 0x40 MLOAD PUSH32 0x8C379A000000000000000000000000000000000000000000000000000000000 DUP2 MSTORE PUSH1 0x4 ADD PUSH2 0x175B SWAP1 PUSH2 0x28B6 JUMP JUMPDEST PUSH1 0x40 MLOAD DUP1 SWAP2 SUB SWAP1 REVERT JUMPDEST PUSH1 0xB PUSH1 0x0 DUP3 DUP2 MSTORE PUSH1 0x20 ADD SWAP1 DUP2 MSTORE PUSH1 0x20 ADD PUSH1 0x0 KECCAK256 PUSH1 0x5 ADD PUSH1 0x0 CALLER PUSH20 0xFFFFFFFFFFFFFFFFFFFFFFFFFFFFFFFFFFFFFFFF AND PUSH20 0xFFFFFFFFFFFFFFFFFFFFFFFFFFFFFFFFFFFFFFFF AND DUP2 MSTORE PUSH1 0x20 ADD SWAP1 DUP2 MSTORE PUSH1 0x20 ADD PUSH1 0x0 KECCAK256 PUSH1 0x0 SWAP1 SLOAD SWAP1 PUSH2 0x100 EXP SWAP1 DIV PUSH1 0xFF AND ISZERO PUSH2 0x1805 JUMPI PUSH1 0x40 MLOAD PUSH32 0x8C379A000000000000000000000000000000000000000000000000000000000 DUP2 MSTORE PUSH1 0x4 ADD PUSH2 0x17FC SWAP1 PUSH2 0x2922 JUMP JUMPDEST PUSH1 0x40 MLOAD DUP1 SWAP2 SUB SWAP1 REVERT JUMPDEST PUSH1 0xB PUSH1 0x0 DUP3 DUP2 MSTORE PUSH1 0x20 ADD SWAP1 DUP2 MSTORE PUSH1 0x20 ADD PUSH1 0x0 KECCAK256 PUSH1 0x6 ADD PUSH1 0x0 CALLER PUSH20 0xFFFFFFFFFFFFFFFFFFFFFFFFFFFFFFFFFFFFFFFF AND PUSH20 0xFFFFFFFFFFFFFFFFFFFFFFFFFFFFFFFFFFFFFFFF AND DUP2 MSTORE PUSH1 0x20 ADD SWAP1 DUP2 MSTORE PUSH1 0x20 ADD PUSH1 0x0 KECCAK256 PUSH1 0x0 SWAP1 SLOAD SWAP1 PUSH2 0x100 EXP SWAP1 DIV PUSH1 0xFF AND ISZERO PUSH2 0x18A6 JUMPI PUSH1 0x40 MLOAD PUSH32 0x8C379A000000000000000000000000000000000000000000000000000000000 DUP2 MSTORE PUSH1 0x4 ADD PUSH2 0x189D SWAP1 PUSH2 0x2922 JUMP JUMPDEST PUSH1 0x40 MLOAD DUP1 SWAP2 SUB SWAP1 REVERT JUMPDEST PUSH1 0xB PUSH1 0x0 DUP3 DUP2 MSTORE PUSH1 0x20 ADD SWAP1 DUP2 MSTORE PUSH1 0x20 ADD PUSH1 0x0 KECCAK256 PUSH1 0xA ADD PUSH1 0x0 SWAP1 SLOAD SWAP1 PUSH2 0x100 EXP SWAP1 DIV PUSH1 0xFF AND ISZERO PUSH2 0x190A JUMPI PUSH1 0x40 MLOAD PUSH32 0x8C379A000000000000000000000000000000000000000000000000000000000 DUP2 MSTORE PUSH1 0x4 ADD PUSH2 0x1901 SWAP1 PUSH2 0x298E JUMP JUMPDEST PUSH1 0x40 MLOAD DUP1 SWAP2 SUB SWAP1 REVERT JUMPDEST PUSH1 0x1 PUSH1 0xB PUSH1 0x0 DUP5 DUP2 MSTORE PUSH1 0x20 ADD SWAP1 DUP2 MSTORE PUSH1 0x20 ADD PUSH1 0x0 KECCAK256 PUSH1 0x5 ADD PUSH1 0x0 CALLER PUSH20 0xFFFFFFFFFFFFFFFFFFFFFFFFFFFFFFFFFFFFFFFF AND PUSH20 0xFFFFFFFFFFFFFFFFFFFFFFFFFFFFFFFFFFFFFFFF AND DUP2 MSTORE PUSH1 0x20 ADD SWAP1 DUP2 MSTORE PUSH1 0x20 ADD PUSH1 0x0 KECCAK256 PUSH1 0x0 PUSH2 0x100 EXP DUP2 SLOAD DUP2 PUSH1 0xFF MUL NOT AND SWAP1 DUP4 ISZERO ISZERO MUL OR SWAP1 SSTORE POP PUSH1 0xB PUSH1 0x0 DUP4 DUP2 MSTORE PUSH1 0x20 ADD SWAP1 DUP2 MSTORE PUSH1 0x20 ADD PUSH1 0x0 KECCAK256 PUSH1 0x4 ADD PUSH1 0x0 CALLER PUSH20 0xFFFFFFFFFFFFFFFFFFFFFFFFFFFFFFFFFFFFFFFF AND PUSH20 0xFFFFFFFFFFFFFFFFFFFFFFFFFFFFFFFFFFFFFFFF AND DUP2 MSTORE PUSH1 0x20 ADD SWAP1 DUP2 MSTORE PUSH1 0x20 ADD PUSH1 0x0 KECCAK256 SLOAD PUSH1 0xB PUSH1 0x0 DUP5 DUP2 MSTORE PUSH1 0x20 ADD SWAP1 DUP2 MSTORE PUSH1 0x20 ADD PUSH1 0x0 KECCAK256 PUSH1 0x7 ADD PUSH1 0x0 DUP3 DUP3 SLOAD PUSH2 0x19EF SWAP2 SWAP1 PUSH2 0x29DD JUMP JUMPDEST SWAP3 POP POP DUP2 SWAP1 SSTORE POP PUSH1 0xB PUSH1 0x0 DUP4 DUP2 MSTORE PUSH1 0x20 ADD SWAP1 DUP2 MSTORE PUSH1 0x20 ADD PUSH1 0x0 KECCAK256 PUSH1 0x9 ADD SLOAD PUSH1 0xB PUSH1 0x0 DUP5 DUP2 MSTORE PUSH1 0x20 ADD SWAP1 DUP2 MSTORE PUSH1 0x20 ADD PUSH1 0x0 KECCAK256 PUSH1 0x7 ADD SLOAD LT PUSH2 0x1A88 JUMPI PUSH1 0x1 PUSH1 0xB PUSH1 0x0 DUP5 DUP2 MSTORE PUSH1 0x20 ADD SWAP1 DUP2 MSTORE PUSH1 0x20 ADD PUSH1 0x0 KECCAK256 PUSH1 0xA ADD PUSH1 0x0 PUSH2 0x100 EXP DUP2 SLOAD DUP2 PUSH1 0xFF MUL NOT AND SWAP1 DUP4 ISZERO ISZERO MUL OR SWAP1 SSTORE POP PUSH1 0x1 PUSH1 0xB PUSH1 0x0 DUP5 DUP2 MSTORE PUSH1 0x20 ADD SWAP1 DUP2 MSTORE PUSH1 0x20 ADD PUSH1 0x0 KECCAK256 PUSH1 0xA ADD PUSH1 0x1 PUSH2 0x100 EXP DUP2 SLOAD DUP2 PUSH1 0xFF MUL NOT AND SWAP1 DUP4 ISZERO ISZERO MUL OR SWAP1 SSTORE POP JUMPDEST POP POP JUMP JUMPDEST PUSH1 0x4 PUSH1 0x0 CALLER PUSH20 0xFFFFFFFFFFFFFFFFFFFFFFFFFFFFFFFFFFFFFFFF AND PUSH20 0xFFFFFFFFFFFFFFFFFFFFFFFFFFFFFFFFFFFFFFFF AND DUP2 MSTORE PUSH1 0x20 ADD SWAP1 DUP2 MSTORE PUSH1 0x20 ADD PUSH1 0x0 KECCAK256 SLOAD DUP2 GT ISZERO PUSH2 0x1B0E JUMPI PUSH1 0x40 MLOAD PUSH32 0x8C379A000000000000000000000000000000000000000000000000000000000 DUP2 MSTORE PUSH1 0x4 ADD PUSH2 0x1B05 SWAP1 PUSH2 0x2CB8 JUMP JUMPDEST PUSH1 0x40 MLOAD DUP1 SWAP2 SUB SWAP1 REVERT JUMPDEST PUSH1 0x0 DUP2 EQ ISZERO PUSH2 0x1B52 JUMPI PUSH1 0x40 MLOAD PUSH32 0x8C379A000000000000000000000000000000000000000000000000000000000 DUP2 MSTORE PUSH1 0x4 ADD PUSH2 0x1B49 SWAP1 PUSH2 0x2D24 JUMP JUMPDEST PUSH1 0x40 MLOAD DUP1 SWAP2 SUB SWAP1 REVERT JUMPDEST PUSH1 0x9 PUSH1 0x0 CALLER PUSH20 0xFFFFFFFFFFFFFFFFFFFFFFFFFFFFFFFFFFFFFFFF AND PUSH20 0xFFFFFFFFFFFFFFFFFFFFFFFFFFFFFFFFFFFFFFFF AND DUP2 MSTORE PUSH1 0x20 ADD SWAP1 DUP2 MSTORE PUSH1 0x20 ADD PUSH1 0x0 KECCAK256 PUSH1 0x0 SWAP1 SLOAD SWAP1 PUSH2 0x100 EXP SWAP1 DIV PUSH1 0xFF AND PUSH2 0x1C07 JUMPI PUSH1 0xA CALLER SWAP1 DUP1 PUSH1 0x1 DUP2 SLOAD ADD DUP1 DUP3 SSTORE DUP1 SWAP2 POP POP PUSH1 0x1 SWAP1 SUB SWAP1 PUSH1 0x0 MSTORE PUSH1 0x20 PUSH1 0x0 KECCAK256 ADD PUSH1 0x0 SWAP1 SWAP2 SWAP1 SWAP2 SWAP1 SWAP2 PUSH2 0x100 EXP DUP2 SLOAD DUP2 PUSH20 0xFFFFFFFFFFFFFFFFFFFFFFFFFFFFFFFFFFFFFFFF MUL NOT AND SWAP1 DUP4 PUSH20 0xFFFFFFFFFFFFFFFFFFFFFFFFFFFFFFFFFFFFFFFF AND MUL OR SWAP1 SSTORE POP JUMPDEST DUP1 PUSH1 0x2 PUSH1 0x0 DUP3 DUP3 SLOAD PUSH2 0x1C19 SWAP2 SWAP1 PUSH2 0x29DD JUMP JUMPDEST SWAP3 POP POP DUP2 SWAP1 SSTORE POP DUP1 PUSH1 0x6 PUSH1 0x0 CALLER PUSH20 0xFFFFFFFFFFFFFFFFFFFFFFFFFFFFFFFFFFFFFFFF AND PUSH20 0xFFFFFFFFFFFFFFFFFFFFFFFFFFFFFFFFFFFFFFFF AND DUP2 MSTORE PUSH1 0x20 ADD SWAP1 DUP2 MSTORE PUSH1 0x20 ADD PUSH1 0x0 KECCAK256 PUSH1 0x0 DUP3 DUP3 SLOAD PUSH2 0x1C6F SWAP2 SWAP1 PUSH2 0x29DD JUMP JUMPDEST SWAP3 POP POP DUP2 SWAP1 SSTORE POP PUSH1 0x5 PUSH1 0x0 CALLER PUSH20 0xFFFFFFFFFFFFFFFFFFFFFFFFFFFFFFFFFFFFFFFF AND PUSH20 0xFFFFFFFFFFFFFFFFFFFFFFFFFFFFFFFFFFFFFFFF AND DUP2 MSTORE PUSH1 0x20 ADD SWAP1 DUP2 MSTORE PUSH1 0x20 ADD PUSH1 0x0 KECCAK256 DUP2 SWAP1 DUP1 PUSH1 0x1 DUP2 SLOAD ADD DUP1 DUP3 SSTORE DUP1 SWAP2 POP POP PUSH1 0x1 SWAP1 SUB SWAP1 PUSH1 0x0 MSTORE PUSH1 0x20 PUSH1 0x0 KECCAK256 ADD PUSH1 0x0 SWAP1 SWAP2 SWAP1 SWAP2 SWAP1 SWAP2 POP SSTORE DUP1 PUSH1 0x4 PUSH1 0x0 CALLER PUSH20 0xFFFFFFFFFFFFFFFFFFFFFFFFFFFFFFFFFFFFFFFF AND PUSH20 0xFFFFFFFFFFFFFFFFFFFFFFFFFFFFFFFFFFFFFFFF AND DUP2 MSTORE PUSH1 0x20 ADD SWAP1 DUP2 MSTORE PUSH1 0x20 ADD PUSH1 0x0 KECCAK256 PUSH1 0x0 DUP3 DUP3 SLOAD PUSH2 0x1D2B SWAP2 SWAP1 PUSH2 0x2B2E JUMP JUMPDEST SWAP3 POP POP DUP2 SWAP1 SSTORE POP PUSH1 0x8 PUSH1 0x0 CALLER PUSH20 0xFFFFFFFFFFFFFFFFFFFFFFFFFFFFFFFFFFFFFFFF AND PUSH20 0xFFFFFFFFFFFFFFFFFFFFFFFFFFFFFFFFFFFFFFFF AND DUP2 MSTORE PUSH1 0x20 ADD SWAP1 DUP2 MSTORE PUSH1 0x20 ADD PUSH1 0x0 KECCAK256 PUSH1 0x0 SWAP1 DUP1 PUSH1 0x1 DUP2 SLOAD ADD DUP1 DUP3 SSTORE DUP1 SWAP2 POP POP PUSH1 0x1 SWAP1 SUB SWAP1 PUSH1 0x0 MSTORE PUSH1 0x20 PUSH1 0x0 KECCAK256 ADD PUSH1 0x0 SWAP1 SWAP2 SWAP1 SWAP2 SWAP1 SWAP2 POP SSTORE PUSH1 0x7 PUSH1 0x0 CALLER PUSH20 0xFFFFFFFFFFFFFFFFFFFFFFFFFFFFFFFFFFFFFFFF AND PUSH20 0xFFFFFFFFFFFFFFFFFFFFFFFFFFFFFFFFFFFFFFFF AND DUP2 MSTORE PUSH1 0x20 ADD SWAP1 DUP2 MSTORE PUSH1 0x20 ADD PUSH1 0x0 KECCAK256 PUSH1 0xF TIMESTAMP PUSH2 0x1DE5 SWAP2 SWAP1 PUSH2 0x29DD JUMP JUMPDEST SWAP1 DUP1 PUSH1 0x1 DUP2 SLOAD ADD DUP1 DUP3 SSTORE DUP1 SWAP2 POP POP PUSH1 0x1 SWAP1 SUB SWAP1 PUSH1 0x0 MSTORE PUSH1 0x20 PUSH1 0x0 KECCAK256 ADD PUSH1 0x0 SWAP1 SWAP2 SWAP1 SWAP2 SWAP1 SWAP2 POP SSTORE PUSH1 0x1 PUSH1 0x9 PUSH1 0x0 CALLER PUSH20 0xFFFFFFFFFFFFFFFFFFFFFFFFFFFFFFFFFFFFFFFF AND PUSH20 0xFFFFFFFFFFFFFFFFFFFFFFFFFFFFFFFFFFFFFFFF AND DUP2 MSTORE PUSH1 0x20 ADD SWAP1 DUP2 MSTORE PUSH1 0x20 ADD PUSH1 0x0 KECCAK256 PUSH1 0x0 PUSH2 0x100 EXP DUP2 SLOAD DUP2 PUSH1 0xFF MUL NOT AND SWAP1 DUP4 ISZERO ISZERO MUL OR SWAP1 SSTORE POP POP JUMP JUMPDEST PUSH1 0x9 PUSH1 0x20 MSTORE DUP1 PUSH1 0x0 MSTORE PUSH1 0x40 PUSH1 0x0 KECCAK256 PUSH1 0x0 SWAP2 POP SLOAD SWAP1 PUSH2 0x100 EXP SWAP1 DIV PUSH1 0xFF AND DUP2 JUMP JUMPDEST PUSH1 0x0 SELFBALANCE SWAP1 POP SWAP1 JUMP JUMPDEST PUSH1 0x8 PUSH1 0x20 MSTORE DUP2 PUSH1 0x0 MSTORE PUSH1 0x40 PUSH1 0x0 KECCAK256 DUP2 DUP2 SLOAD DUP2 LT PUSH2 0x1EAA JUMPI PUSH1 0x0 DUP1 REVERT JUMPDEST SWAP1 PUSH1 0x0 MSTORE PUSH1 0x20 PUSH1 0x0 KECCAK256 ADD PUSH1 0x0 SWAP2 POP SWAP2 POP POP SLOAD DUP2 JUMP JUMPDEST PUSH1 0x0 PUSH1 0x5 PUSH1 0x0 CALLER PUSH20 0xFFFFFFFFFFFFFFFFFFFFFFFFFFFFFFFFFFFFFFFF AND PUSH20 0xFFFFFFFFFFFFFFFFFFFFFFFFFFFFFFFFFFFFFFFF AND DUP2 MSTORE PUSH1 0x20 ADD SWAP1 DUP2 MSTORE PUSH1 0x20 ADD PUSH1 0x0 KECCAK256 DUP1 SLOAD SWAP1 POP SWAP1 POP SWAP1 JUMP JUMPDEST PUSH1 0x4 PUSH1 0x0 CALLER PUSH20 0xFFFFFFFFFFFFFFFFFFFFFFFFFFFFFFFFFFFFFFFF AND PUSH20 0xFFFFFFFFFFFFFFFFFFFFFFFFFFFFFFFFFFFFFFFF AND DUP2 MSTORE PUSH1 0x20 ADD SWAP1 DUP2 MSTORE PUSH1 0x20 ADD PUSH1 0x0 KECCAK256 SLOAD DUP2 GT ISZERO PUSH2 0x1F8B JUMPI PUSH1 0x40 MLOAD PUSH32 0x8C379A000000000000000000000000000000000000000000000000000000000 DUP2 MSTORE PUSH1 0x4 ADD PUSH2 0x1F82 SWAP1 PUSH2 0x2CB8 JUMP JUMPDEST PUSH1 0x40 MLOAD DUP1 SWAP2 SUB SWAP1 REVERT JUMPDEST DUP1 PUSH1 0x4 PUSH1 0x0 CALLER PUSH20 0xFFFFFFFFFFFFFFFFFFFFFFFFFFFFFFFFFFFFFFFF AND PUSH20 0xFFFFFFFFFFFFFFFFFFFFFFFFFFFFFFFFFFFFFFFF AND DUP2 MSTORE PUSH1 0x20 ADD SWAP1 DUP2 MSTORE PUSH1 0x20 ADD PUSH1 0x0 KECCAK256 PUSH1 0x0 DUP3 DUP3 SLOAD PUSH2 0x1FDA SWAP2 SWAP1 PUSH2 0x2B2E JUMP JUMPDEST SWAP3 POP POP DUP2 SWAP1 SSTORE POP DUP1 PUSH1 0x4 PUSH1 0x0 DUP5 PUSH20 0xFFFFFFFFFFFFFFFFFFFFFFFFFFFFFFFFFFFFFFFF AND PUSH20 0xFFFFFFFFFFFFFFFFFFFFFFFFFFFFFFFFFFFFFFFF AND DUP2 MSTORE PUSH1 0x20 ADD SWAP1 DUP2 MSTORE PUSH1 0x20 ADD PUSH1 0x0 KECCAK256 PUSH1 0x0 DUP3 DUP3 SLOAD PUSH2 0x2030 SWAP2 SWAP1 PUSH2 0x29DD JUMP JUMPDEST SWAP3 POP POP DUP2 SWAP1 SSTORE POP PUSH32 0x3990DB2D31862302A685E8086B5755072A6E2B5B780AF1EE81ECE35EE3CD3345 CALLER DUP4 DUP4 PUSH1 0x40 MLOAD PUSH2 0x206A SWAP4 SWAP3 SWAP2 SWAP1 PUSH2 0x2D44 JUMP JUMPDEST PUSH1 0x40 MLOAD DUP1 SWAP2 SUB SWAP1 LOG1 POP POP JUMP JUMPDEST PUSH1 0x0 JUMPDEST PUSH1 0xA DUP1 SLOAD SWAP1 POP DUP2 LT ISZERO PUSH2 0x2229 JUMPI PUSH1 0x0 PUSH1 0xA DUP3 DUP2 SLOAD DUP2 LT PUSH2 0x209C JUMPI PUSH2 0x209B PUSH2 0x2A93 JUMP JUMPDEST JUMPDEST SWAP1 PUSH1 0x0 MSTORE PUSH1 0x20 PUSH1 0x0 KECCAK256 ADD PUSH1 0x0 SWAP1 SLOAD SWAP1 PUSH2 0x100 EXP SWAP1 DIV PUSH20 0xFFFFFFFFFFFFFFFFFFFFFFFFFFFFFFFFFFFFFFFF AND SWAP1 POP PUSH1 0x0 JUMPDEST PUSH1 0x5 PUSH1 0x0 DUP4 PUSH20 0xFFFFFFFFFFFFFFFFFFFFFFFFFFFFFFFFFFFFFFFF AND PUSH20 0xFFFFFFFFFFFFFFFFFFFFFFFFFFFFFFFFFFFFFFFF AND DUP2 MSTORE PUSH1 0x20 ADD SWAP1 DUP2 MSTORE PUSH1 0x20 ADD PUSH1 0x0 KECCAK256 DUP1 SLOAD SWAP1 POP DUP2 LT ISZERO PUSH2 0x2214 JUMPI PUSH1 0x0 PUSH1 0x2 SLOAD CALLVALUE PUSH1 0x5 PUSH1 0x0 DUP7 PUSH20 0xFFFFFFFFFFFFFFFFFFFFFFFFFFFFFFFFFFFFFFFF AND PUSH20 0xFFFFFFFFFFFFFFFFFFFFFFFFFFFFFFFFFFFFFFFF AND DUP2 MSTORE PUSH1 0x20 ADD SWAP1 DUP2 MSTORE PUSH1 0x20 ADD PUSH1 0x0 KECCAK256 DUP5 DUP2 SLOAD DUP2 LT PUSH2 0x216D JUMPI PUSH2 0x216C PUSH2 0x2A93 JUMP JUMPDEST JUMPDEST SWAP1 PUSH1 0x0 MSTORE PUSH1 0x20 PUSH1 0x0 KECCAK256 ADD SLOAD PUSH2 0x2182 SWAP2 SWAP1 PUSH2 0x2D7B JUMP JUMPDEST PUSH2 0x218C SWAP2 SWAP1 PUSH2 0x2A62 JUMP JUMPDEST SWAP1 POP DUP1 PUSH1 0x8 PUSH1 0x0 DUP6 PUSH20 0xFFFFFFFFFFFFFFFFFFFFFFFFFFFFFFFFFFFFFFFF AND PUSH20 0xFFFFFFFFFFFFFFFFFFFFFFFFFFFFFFFFFFFFFFFF AND DUP2 MSTORE PUSH1 0x20 ADD SWAP1 DUP2 MSTORE PUSH1 0x20 ADD PUSH1 0x0 KECCAK256 DUP4 DUP2 SLOAD DUP2 LT PUSH2 0x21E0 JUMPI PUSH2 0x21DF PUSH2 0x2A93 JUMP JUMPDEST JUMPDEST SWAP1 PUSH1 0x0 MSTORE PUSH1 0x20 PUSH1 0x0 KECCAK256 ADD PUSH1 0x0 DUP3 DUP3 SLOAD PUSH2 0x21F9 SWAP2 SWAP1 PUSH2 0x29DD JUMP JUMPDEST SWAP3 POP POP DUP2 SWAP1 SSTORE POP POP DUP1 DUP1 PUSH2 0x220C SWAP1 PUSH2 0x2C23 JUMP JUMPDEST SWAP2 POP POP PUSH2 0x20CC JUMP JUMPDEST POP POP DUP1 DUP1 PUSH2 0x2221 SWAP1 PUSH2 0x2C23 JUMP JUMPDEST SWAP2 POP POP PUSH2 0x2079 JUMP JUMPDEST POP JUMP JUMPDEST PUSH1 0x2 SLOAD DUP2 JUMP JUMPDEST PUSH1 0xA DUP2 DUP2 SLOAD DUP2 LT PUSH2 0x2242 JUMPI PUSH1 0x0 DUP1 REVERT JUMPDEST SWAP1 PUSH1 0x0 MSTORE PUSH1 0x20 PUSH1 0x0 KECCAK256 ADD PUSH1 0x0 SWAP2 POP SLOAD SWAP1 PUSH2 0x100 EXP SWAP1 DIV PUSH20 0xFFFFFFFFFFFFFFFFFFFFFFFFFFFFFFFFFFFFFFFF AND DUP2 JUMP JUMPDEST DUP3 DUP1 SLOAD PUSH2 0x227D SWAP1 PUSH2 0x2812 JUMP JUMPDEST SWAP1 PUSH1 0x0 MSTORE PUSH1 0x20 PUSH1 0x0 KECCAK256 SWAP1 PUSH1 0x1F ADD PUSH1 0x20 SWAP1 DIV DUP2 ADD SWAP3 DUP3 PUSH2 0x229F JUMPI PUSH1 0x0 DUP6 SSTORE PUSH2 0x22E6 JUMP JUMPDEST DUP3 PUSH1 0x1F LT PUSH2 0x22B8 JUMPI DUP1 MLOAD PUSH1 0xFF NOT AND DUP4 DUP1 ADD OR DUP6 SSTORE PUSH2 0x22E6 JUMP JUMPDEST DUP3 DUP1 ADD PUSH1 0x1 ADD DUP6 SSTORE DUP3 ISZERO PUSH2 0x22E6 JUMPI SWAP2 DUP3 ADD JUMPDEST DUP3 DUP2 GT ISZERO PUSH2 0x22E5 JUMPI DUP3 MLOAD DUP3 SSTORE SWAP2 PUSH1 0x20 ADD SWAP2 SWAP1 PUSH1 0x1 ADD SWAP1 PUSH2 0x22CA JUMP JUMPDEST JUMPDEST POP SWAP1 POP PUSH2 0x22F3 SWAP2 SWAP1 PUSH2 0x22F7 JUMP JUMPDEST POP SWAP1 JUMP JUMPDEST JUMPDEST DUP1 DUP3 GT ISZERO PUSH2 0x2310 JUMPI PUSH1 0x0 DUP2 PUSH1 0x0 SWAP1 SSTORE POP PUSH1 0x1 ADD PUSH2 0x22F8 JUMP JUMPDEST POP SWAP1 JUMP JUMPDEST PUSH1 0x0 PUSH1 0x40 MLOAD SWAP1 POP SWAP1 JUMP JUMPDEST PUSH1 0x0 DUP1 REVERT JUMPDEST PUSH1 0x0 DUP1 REVERT JUMPDEST PUSH1 0x0 DUP2 SWAP1 POP SWAP2 SWAP1 POP JUMP JUMPDEST PUSH2 0x233B DUP2 PUSH2 0x2328 JUMP JUMPDEST DUP2 EQ PUSH2 0x2346 JUMPI PUSH1 0x0 DUP1 REVERT JUMPDEST POP JUMP JUMPDEST PUSH1 0x0 DUP2 CALLDATALOAD SWAP1 POP PUSH2 0x2358 DUP2 PUSH2 0x2332 JUMP JUMPDEST SWAP3 SWAP2 POP POP JUMP JUMPDEST PUSH1 0x0 PUSH1 0x20 DUP3 DUP5 SUB SLT ISZERO PUSH2 0x2374 JUMPI PUSH2 0x2373 PUSH2 0x231E JUMP JUMPDEST JUMPDEST PUSH1 0x0 PUSH2 0x2382 DUP5 DUP3 DUP6 ADD PUSH2 0x2349 JUMP JUMPDEST SWAP2 POP POP SWAP3 SWAP2 POP POP JUMP JUMPDEST PUSH2 0x2394 DUP2 PUSH2 0x2328 JUMP JUMPDEST DUP3 MSTORE POP POP JUMP JUMPDEST PUSH1 0x0 DUP2 MLOAD SWAP1 POP SWAP2 SWAP1 POP JUMP JUMPDEST PUSH1 0x0 DUP3 DUP3 MSTORE PUSH1 0x20 DUP3 ADD SWAP1 POP SWAP3 SWAP2 POP POP JUMP JUMPDEST PUSH1 0x0 JUMPDEST DUP4 DUP2 LT ISZERO PUSH2 0x23D4 JUMPI DUP1 DUP3 ADD MLOAD DUP2 DUP5 ADD MSTORE PUSH1 0x20 DUP2 ADD SWAP1 POP PUSH2 0x23B9 JUMP JUMPDEST DUP4 DUP2 GT ISZERO PUSH2 0x23E3 JUMPI PUSH1 0x0 DUP5 DUP5 ADD MSTORE JUMPDEST POP POP POP POP JUMP JUMPDEST PUSH1 0x0 PUSH1 0x1F NOT PUSH1 0x1F DUP4 ADD AND SWAP1 POP SWAP2 SWAP1 POP JUMP JUMPDEST PUSH1 0x0 PUSH2 0x2405 DUP3 PUSH2 0x239A JUMP JUMPDEST PUSH2 0x240F DUP2 DUP6 PUSH2 0x23A5 JUMP JUMPDEST SWAP4 POP PUSH2 0x241F DUP2 DUP6 PUSH1 0x20 DUP7 ADD PUSH2 0x23B6 JUMP JUMPDEST PUSH2 0x2428 DUP2 PUSH2 0x23E9 JUMP JUMPDEST DUP5 ADD SWAP2 POP POP SWAP3 SWAP2 POP POP JUMP JUMPDEST PUSH1 0x0 PUSH20 0xFFFFFFFFFFFFFFFFFFFFFFFFFFFFFFFFFFFFFFFF DUP3 AND SWAP1 POP SWAP2 SWAP1 POP JUMP JUMPDEST PUSH1 0x0 PUSH2 0x245E DUP3 PUSH2 0x2433 JUMP JUMPDEST SWAP1 POP SWAP2 SWAP1 POP JUMP JUMPDEST PUSH2 0x246E DUP2 PUSH2 0x2453 JUMP JUMPDEST DUP3 MSTORE POP POP JUMP JUMPDEST PUSH1 0x0 DUP2 ISZERO ISZERO SWAP1 POP SWAP2 SWAP1 POP JUMP JUMPDEST PUSH2 0x2489 DUP2 PUSH2 0x2474 JUMP JUMPDEST DUP3 MSTORE POP POP JUMP JUMPDEST PUSH1 0x0 PUSH2 0x120 DUP3 ADD SWAP1 POP PUSH2 0x24A5 PUSH1 0x0 DUP4 ADD DUP13 PUSH2 0x238B JUMP JUMPDEST DUP2 DUP2 SUB PUSH1 0x20 DUP4 ADD MSTORE PUSH2 0x24B7 DUP2 DUP12 PUSH2 0x23FA JUMP JUMPDEST SWAP1 POP DUP2 DUP2 SUB PUSH1 0x40 DUP4 ADD MSTORE PUSH2 0x24CB DUP2 DUP11 PUSH2 0x23FA JUMP JUMPDEST SWAP1 POP PUSH2 0x24DA PUSH1 0x60 DUP4 ADD DUP10 PUSH2 0x2465 JUMP JUMPDEST PUSH2 0x24E7 PUSH1 0x80 DUP4 ADD DUP9 PUSH2 0x238B JUMP JUMPDEST PUSH2 0x24F4 PUSH1 0xA0 DUP4 ADD DUP8 PUSH2 0x238B JUMP JUMPDEST PUSH2 0x2501 PUSH1 0xC0 DUP4 ADD DUP7 PUSH2 0x238B JUMP JUMPDEST PUSH2 0x250E PUSH1 0xE0 DUP4 ADD DUP6 PUSH2 0x2480 JUMP JUMPDEST PUSH2 0x251C PUSH2 0x100 DUP4 ADD DUP5 PUSH2 0x2480 JUMP JUMPDEST SWAP11 SWAP10 POP POP POP POP POP POP POP POP POP POP JUMP JUMPDEST PUSH2 0x2533 DUP2 PUSH2 0x2453 JUMP JUMPDEST DUP2 EQ PUSH2 0x253E JUMPI PUSH1 0x0 DUP1 REVERT JUMPDEST POP JUMP JUMPDEST PUSH1 0x0 DUP2 CALLDATALOAD SWAP1 POP PUSH2 0x2550 DUP2 PUSH2 0x252A JUMP JUMPDEST SWAP3 SWAP2 POP POP JUMP JUMPDEST PUSH1 0x0 PUSH1 0x20 DUP3 DUP5 SUB SLT ISZERO PUSH2 0x256C JUMPI PUSH2 0x256B PUSH2 0x231E JUMP JUMPDEST JUMPDEST PUSH1 0x0 PUSH2 0x257A DUP5 DUP3 DUP6 ADD PUSH2 0x2541 JUMP JUMPDEST SWAP2 POP POP SWAP3 SWAP2 POP POP JUMP JUMPDEST PUSH1 0x0 PUSH1 0x20 DUP3 ADD SWAP1 POP PUSH2 0x2598 PUSH1 0x0 DUP4 ADD DUP5 PUSH2 0x238B JUMP JUMPDEST SWAP3 SWAP2 POP POP JUMP JUMPDEST PUSH1 0x0 PUSH1 0x20 DUP3 ADD SWAP1 POP DUP2 DUP2 SUB PUSH1 0x0 DUP4 ADD MSTORE PUSH2 0x25B8 DUP2 DUP5 PUSH2 0x23FA JUMP JUMPDEST SWAP1 POP SWAP3 SWAP2 POP POP JUMP JUMPDEST PUSH1 0x0 DUP1 PUSH1 0x40 DUP4 DUP6 SUB SLT ISZERO PUSH2 0x25D7 JUMPI PUSH2 0x25D6 PUSH2 0x231E JUMP JUMPDEST JUMPDEST PUSH1 0x0 PUSH2 0x25E5 DUP6 DUP3 DUP7 ADD PUSH2 0x2541 JUMP JUMPDEST SWAP3 POP POP PUSH1 0x20 PUSH2 0x25F6 DUP6 DUP3 DUP7 ADD PUSH2 0x2349 JUMP JUMPDEST SWAP2 POP POP SWAP3 POP SWAP3 SWAP1 POP JUMP JUMPDEST PUSH1 0x0 DUP1 REVERT JUMPDEST PUSH1 0x0 DUP1 REVERT JUMPDEST PUSH32 0x4E487B7100000000000000000000000000000000000000000000000000000000 PUSH1 0x0 MSTORE PUSH1 0x41 PUSH1 0x4 MSTORE PUSH1 0x24 PUSH1 0x0 REVERT JUMPDEST PUSH2 0x2642 DUP3 PUSH2 0x23E9 JUMP JUMPDEST DUP2 ADD DUP2 DUP2 LT PUSH8 0xFFFFFFFFFFFFFFFF DUP3 GT OR ISZERO PUSH2 0x2661 JUMPI PUSH2 0x2660 PUSH2 0x260A JUMP JUMPDEST JUMPDEST DUP1 PUSH1 0x40 MSTORE POP POP POP JUMP JUMPDEST PUSH1 0x0 PUSH2 0x2674 PUSH2 0x2314 JUMP JUMPDEST SWAP1 POP PUSH2 0x2680 DUP3 DUP3 PUSH2 0x2639 JUMP JUMPDEST SWAP2 SWAP1 POP JUMP JUMPDEST PUSH1 0x0 PUSH8 0xFFFFFFFFFFFFFFFF DUP3 GT ISZERO PUSH2 0x26A0 JUMPI PUSH2 0x269F PUSH2 0x260A JUMP JUMPDEST JUMPDEST PUSH2 0x26A9 DUP3 PUSH2 0x23E9 JUMP JUMPDEST SWAP1 POP PUSH1 0x20 DUP2 ADD SWAP1 POP SWAP2 SWAP1 POP JUMP JUMPDEST DUP3 DUP2 DUP4 CALLDATACOPY PUSH1 0x0 DUP4 DUP4 ADD MSTORE POP POP POP JUMP JUMPDEST PUSH1 0x0 PUSH2 0x26D8 PUSH2 0x26D3 DUP5 PUSH2 0x2685 JUMP JUMPDEST PUSH2 0x266A JUMP JUMPDEST SWAP1 POP DUP3 DUP2 MSTORE PUSH1 0x20 DUP2 ADD DUP5 DUP5 DUP5 ADD GT ISZERO PUSH2 0x26F4 JUMPI PUSH2 0x26F3 PUSH2 0x2605 JUMP JUMPDEST JUMPDEST PUSH2 0x26FF DUP5 DUP3 DUP6 PUSH2 0x26B6 JUMP JUMPDEST POP SWAP4 SWAP3 POP POP POP JUMP JUMPDEST PUSH1 0x0 DUP3 PUSH1 0x1F DUP4 ADD SLT PUSH2 0x271C JUMPI PUSH2 0x271B PUSH2 0x2600 JUMP JUMPDEST JUMPDEST DUP2 CALLDATALOAD PUSH2 0x272C DUP5 DUP3 PUSH1 0x20 DUP7 ADD PUSH2 0x26C5 JUMP JUMPDEST SWAP2 POP POP SWAP3 SWAP2 POP POP JUMP JUMPDEST PUSH1 0x0 DUP1 PUSH1 0x40 DUP4 DUP6 SUB SLT ISZERO PUSH2 0x274C JUMPI PUSH2 0x274B PUSH2 0x231E JUMP JUMPDEST JUMPDEST PUSH1 0x0 DUP4 ADD CALLDATALOAD PUSH8 0xFFFFFFFFFFFFFFFF DUP2 GT ISZERO PUSH2 0x276A JUMPI PUSH2 0x2769 PUSH2 0x2323 JUMP JUMPDEST JUMPDEST PUSH2 0x2776 DUP6 DUP3 DUP7 ADD PUSH2 0x2707 JUMP JUMPDEST SWAP3 POP POP PUSH1 0x20 DUP4 ADD CALLDATALOAD PUSH8 0xFFFFFFFFFFFFFFFF DUP2 GT ISZERO PUSH2 0x2797 JUMPI PUSH2 0x2796 PUSH2 0x2323 JUMP JUMPDEST JUMPDEST PUSH2 0x27A3 DUP6 DUP3 DUP7 ADD PUSH2 0x2707 JUMP JUMPDEST SWAP2 POP POP SWAP3 POP SWAP3 SWAP1 POP JUMP JUMPDEST PUSH1 0x0 PUSH1 0x20 DUP3 ADD SWAP1 POP PUSH2 0x27C2 PUSH1 0x0 DUP4 ADD DUP5 PUSH2 0x2465 JUMP JUMPDEST SWAP3 SWAP2 POP POP JUMP JUMPDEST PUSH1 0x0 PUSH1 0x20 DUP3 ADD SWAP1 POP PUSH2 0x27DD PUSH1 0x0 DUP4 ADD DUP5 PUSH2 0x2480 JUMP JUMPDEST SWAP3 SWAP2 POP POP JUMP JUMPDEST PUSH32 0x4E487B7100000000000000000000000000000000000000000000000000000000 PUSH1 0x0 MSTORE PUSH1 0x22 PUSH1 0x4 MSTORE PUSH1 0x24 PUSH1 0x0 REVERT JUMPDEST PUSH1 0x0 PUSH1 0x2 DUP3 DIV SWAP1 POP PUSH1 0x1 DUP3 AND DUP1 PUSH2 0x282A JUMPI PUSH1 0x7F DUP3 AND SWAP2 POP JUMPDEST PUSH1 0x20 DUP3 LT DUP2 EQ ISZERO PUSH2 0x283E JUMPI PUSH2 0x283D PUSH2 0x27E3 JUMP JUMPDEST JUMPDEST POP SWAP2 SWAP1 POP JUMP JUMPDEST PUSH32 0x596F7520646F6E27742068617665207065726D697373696F6E20746F20766F74 PUSH1 0x0 DUP3 ADD MSTORE PUSH32 0x6500000000000000000000000000000000000000000000000000000000000000 PUSH1 0x20 DUP3 ADD MSTORE POP JUMP JUMPDEST PUSH1 0x0 PUSH2 0x28A0 PUSH1 0x21 DUP4 PUSH2 0x23A5 JUMP JUMPDEST SWAP2 POP PUSH2 0x28AB DUP3 PUSH2 0x2844 JUMP JUMPDEST PUSH1 0x40 DUP3 ADD SWAP1 POP SWAP2 SWAP1 POP JUMP JUMPDEST PUSH1 0x0 PUSH1 0x20 DUP3 ADD SWAP1 POP DUP2 DUP2 SUB PUSH1 0x0 DUP4 ADD MSTORE PUSH2 0x28CF DUP2 PUSH2 0x2893 JUMP JUMPDEST SWAP1 POP SWAP2 SWAP1 POP JUMP JUMPDEST PUSH32 0x596F7520616C726561647920766F746564000000000000000000000000000000 PUSH1 0x0 DUP3 ADD MSTORE POP JUMP JUMPDEST PUSH1 0x0 PUSH2 0x290C PUSH1 0x11 DUP4 PUSH2 0x23A5 JUMP JUMPDEST SWAP2 POP PUSH2 0x2917 DUP3 PUSH2 0x28D6 JUMP JUMPDEST PUSH1 0x20 DUP3 ADD SWAP1 POP SWAP2 SWAP1 POP JUMP JUMPDEST PUSH1 0x0 PUSH1 0x20 DUP3 ADD SWAP1 POP DUP2 DUP2 SUB PUSH1 0x0 DUP4 ADD MSTORE PUSH2 0x293B DUP2 PUSH2 0x28FF JUMP JUMPDEST SWAP1 POP SWAP2 SWAP1 POP JUMP JUMPDEST PUSH32 0x5468652070726F706F73616C20697320636F6D706C6574650000000000000000 PUSH1 0x0 DUP3 ADD MSTORE POP JUMP JUMPDEST PUSH1 0x0 PUSH2 0x2978 PUSH1 0x18 DUP4 PUSH2 0x23A5 JUMP JUMPDEST SWAP2 POP PUSH2 0x2983 DUP3 PUSH2 0x2942 JUMP JUMPDEST PUSH1 0x20 DUP3 ADD SWAP1 POP SWAP2 SWAP1 POP JUMP JUMPDEST PUSH1 0x0 PUSH1 0x20 DUP3 ADD SWAP1 POP DUP2 DUP2 SUB PUSH1 0x0 DUP4 ADD MSTORE PUSH2 0x29A7 DUP2 PUSH2 0x296B JUMP JUMPDEST SWAP1 POP SWAP2 SWAP1 POP JUMP JUMPDEST PUSH32 0x4E487B7100000000000000000000000000000000000000000000000000000000 PUSH1 0x0 MSTORE PUSH1 0x11 PUSH1 0x4 MSTORE PUSH1 0x24 PUSH1 0x0 REVERT JUMPDEST PUSH1 0x0 PUSH2 0x29E8 DUP3 PUSH2 0x2328 JUMP JUMPDEST SWAP2 POP PUSH2 0x29F3 DUP4 PUSH2 0x2328 JUMP JUMPDEST SWAP3 POP DUP3 PUSH32 0xFFFFFFFFFFFFFFFFFFFFFFFFFFFFFFFFFFFFFFFFFFFFFFFFFFFFFFFFFFFFFFFF SUB DUP3 GT ISZERO PUSH2 0x2A28 JUMPI PUSH2 0x2A27 PUSH2 0x29AE JUMP JUMPDEST JUMPDEST DUP3 DUP3 ADD SWAP1 POP SWAP3 SWAP2 POP POP JUMP JUMPDEST PUSH32 0x4E487B7100000000000000000000000000000000000000000000000000000000 PUSH1 0x0 MSTORE PUSH1 0x12 PUSH1 0x4 MSTORE PUSH1 0x24 PUSH1 0x0 REVERT JUMPDEST PUSH1 0x0 PUSH2 0x2A6D DUP3 PUSH2 0x2328 JUMP JUMPDEST SWAP2 POP PUSH2 0x2A78 DUP4 PUSH2 0x2328 JUMP JUMPDEST SWAP3 POP DUP3 PUSH2 0x2A88 JUMPI PUSH2 0x2A87 PUSH2 0x2A33 JUMP JUMPDEST JUMPDEST DUP3 DUP3 DIV SWAP1 POP SWAP3 SWAP2 POP POP JUMP JUMPDEST PUSH32 0x4E487B7100000000000000000000000000000000000000000000000000000000 PUSH1 0x0 MSTORE PUSH1 0x32 PUSH1 0x4 MSTORE PUSH1 0x24 PUSH1 0x0 REVERT JUMPDEST PUSH32 0x4E6F742079657400000000000000000000000000000000000000000000000000 PUSH1 0x0 DUP3 ADD MSTORE POP JUMP JUMPDEST PUSH1 0x0 PUSH2 0x2AF8 PUSH1 0x7 DUP4 PUSH2 0x23A5 JUMP JUMPDEST SWAP2 POP PUSH2 0x2B03 DUP3 PUSH2 0x2AC2 JUMP JUMPDEST PUSH1 0x20 DUP3 ADD SWAP1 POP SWAP2 SWAP1 POP JUMP JUMPDEST PUSH1 0x0 PUSH1 0x20 DUP3 ADD SWAP1 POP DUP2 DUP2 SUB PUSH1 0x0 DUP4 ADD MSTORE PUSH2 0x2B27 DUP2 PUSH2 0x2AEB JUMP JUMPDEST SWAP1 POP SWAP2 SWAP1 POP JUMP JUMPDEST PUSH1 0x0 PUSH2 0x2B39 DUP3 PUSH2 0x2328 JUMP JUMPDEST SWAP2 POP PUSH2 0x2B44 DUP4 PUSH2 0x2328 JUMP JUMPDEST SWAP3 POP DUP3 DUP3 LT ISZERO PUSH2 0x2B57 JUMPI PUSH2 0x2B56 PUSH2 0x29AE JUMP JUMPDEST JUMPDEST DUP3 DUP3 SUB SWAP1 POP SWAP3 SWAP2 POP POP JUMP JUMPDEST PUSH32 0x4E487B7100000000000000000000000000000000000000000000000000000000 PUSH1 0x0 MSTORE PUSH1 0x31 PUSH1 0x4 MSTORE PUSH1 0x24 PUSH1 0x0 REVERT JUMPDEST PUSH32 0x596F7520646F6E2774206861766520656E6F75676820746F6B656E7320746F20 PUSH1 0x0 DUP3 ADD MSTORE PUSH32 0x7175616C6966792061732064656C656761746500000000000000000000000000 PUSH1 0x20 DUP3 ADD MSTORE POP JUMP JUMPDEST PUSH1 0x0 PUSH2 0x2BED PUSH1 0x33 DUP4 PUSH2 0x23A5 JUMP JUMPDEST SWAP2 POP PUSH2 0x2BF8 DUP3 PUSH2 0x2B91 JUMP JUMPDEST PUSH1 0x40 DUP3 ADD SWAP1 POP SWAP2 SWAP1 POP JUMP JUMPDEST PUSH1 0x0 PUSH1 0x20 DUP3 ADD SWAP1 POP DUP2 DUP2 SUB PUSH1 0x0 DUP4 ADD MSTORE PUSH2 0x2C1C DUP2 PUSH2 0x2BE0 JUMP JUMPDEST SWAP1 POP SWAP2 SWAP1 POP JUMP JUMPDEST PUSH1 0x0 PUSH2 0x2C2E DUP3 PUSH2 0x2328 JUMP JUMPDEST SWAP2 POP PUSH32 0xFFFFFFFFFFFFFFFFFFFFFFFFFFFFFFFFFFFFFFFFFFFFFFFFFFFFFFFFFFFFFFFF DUP3 EQ ISZERO PUSH2 0x2C61 JUMPI PUSH2 0x2C60 PUSH2 0x29AE JUMP JUMPDEST JUMPDEST PUSH1 0x1 DUP3 ADD SWAP1 POP SWAP2 SWAP1 POP JUMP JUMPDEST PUSH32 0x496E73756666696369656E742062616C616E6365000000000000000000000000 PUSH1 0x0 DUP3 ADD MSTORE POP JUMP JUMPDEST PUSH1 0x0 PUSH2 0x2CA2 PUSH1 0x14 DUP4 PUSH2 0x23A5 JUMP JUMPDEST SWAP2 POP PUSH2 0x2CAD DUP3 PUSH2 0x2C6C JUMP JUMPDEST PUSH1 0x20 DUP3 ADD SWAP1 POP SWAP2 SWAP1 POP JUMP JUMPDEST PUSH1 0x0 PUSH1 0x20 DUP3 ADD SWAP1 POP DUP2 DUP2 SUB PUSH1 0x0 DUP4 ADD MSTORE PUSH2 0x2CD1 DUP2 PUSH2 0x2C95 JUMP JUMPDEST SWAP1 POP SWAP2 SWAP1 POP JUMP JUMPDEST PUSH32 0x43616E2774207374616B65203020746F6B656E73000000000000000000000000 PUSH1 0x0 DUP3 ADD MSTORE POP JUMP JUMPDEST PUSH1 0x0 PUSH2 0x2D0E PUSH1 0x14 DUP4 PUSH2 0x23A5 JUMP JUMPDEST SWAP2 POP PUSH2 0x2D19 DUP3 PUSH2 0x2CD8 JUMP JUMPDEST PUSH1 0x20 DUP3 ADD SWAP1 POP SWAP2 SWAP1 POP JUMP JUMPDEST PUSH1 0x0 PUSH1 0x20 DUP3 ADD SWAP1 POP DUP2 DUP2 SUB PUSH1 0x0 DUP4 ADD MSTORE PUSH2 0x2D3D DUP2 PUSH2 0x2D01 JUMP JUMPDEST SWAP1 POP SWAP2 SWAP1 POP JUMP JUMPDEST PUSH1 0x0 PUSH1 0x60 DUP3 ADD SWAP1 POP PUSH2 0x2D59 PUSH1 0x0 DUP4 ADD DUP7 PUSH2 0x2465 JUMP JUMPDEST PUSH2 0x2D66 PUSH1 0x20 DUP4 ADD DUP6 PUSH2 0x2465 JUMP JUMPDEST PUSH2 0x2D73 PUSH1 0x40 DUP4 ADD DUP5 PUSH2 0x238B JUMP JUMPDEST SWAP5 SWAP4 POP POP POP POP JUMP JUMPDEST PUSH1 0x0 PUSH2 0x2D86 DUP3 PUSH2 0x2328 JUMP JUMPDEST SWAP2 POP PUSH2 0x2D91 DUP4 PUSH2 0x2328 JUMP JUMPDEST SWAP3 POP DUP2 PUSH32 0xFFFFFFFFFFFFFFFFFFFFFFFFFFFFFFFFFFFFFFFFFFFFFFFFFFFFFFFFFFFFFFFF DIV DUP4 GT DUP3 ISZERO ISZERO AND ISZERO PUSH2 0x2DCA JUMPI PUSH2 0x2DC9 PUSH2 0x29AE JUMP JUMPDEST JUMPDEST DUP3 DUP3 MUL SWAP1 POP SWAP3 SWAP2 POP POP JUMP INVALID LOG2 PUSH5 0x6970667358 0x22 SLT KECCAK256 SWAP13 0x1E 0xBA JUMPI GASPRICE 0xC9 0x4E SLT SELFBALANCE 0xAA 0x1F GT 0x4D DUP13 0x2B STOP 0xDF 0xDC 0xB0 STATICCALL 0x49 SWAP12 PUSH1 0xE8 DUP14 EXP BASEFEE 0x4D 0xF9 JUMPDEST MSTORE 0x2A PUSH5 0x736F6C6343 STOP ADDMOD SIGNEXTEND STOP CALLER "},"gasEstimates":{"creation":{"codeDepositCost":"2357400","executionCost":"infinite","totalCost":"infinite"},"external":{"balance()":"472","createProposal(string,string)":"infinite","deposit()":"infinite","getAmountOfPools()":"2578","getReward(uint256)":"infinite","holders(address)":"2837","name()":"infinite","numProposals()":"2518","overallStaked(address)":"2882","owner()":"2534","proposals(uint256)":"infinite","registered(address)":"2956","rewards(address,uint256)":"infinite","send(address,uint256)":"infinite","stake(uint256)":"infinite","staked(address,uint256)":"infinite","stakedSupply()":"2539","stakedTime(address,uint256)":"infinite","stakers(uint256)":"5088","supply()":"2519","voteNay(uint256)":"infinite","voteYay(uint256)":"infinite","withdrawStake(uint256)":"infinite"}},"methodIdentifiers":{"balance()":"b69ef8a8","createProposal(string,string)":"65e481e2","deposit()":"d0e30db0","getAmountOfPools()":"be813d71","getReward(uint256)":"1c4b774b","holders(address)":"18a5bbdc","name()":"06fdde03","numProposals()":"400e3949","overallStaked(address)":"04421fc7","owner()":"8da5cb5b","proposals(uint256)":"013cf08b","registered(address)":"b2dd5c07","rewards(address,uint256)":"b933ceac","send(address,uint256)":"d0679d34","stake(uint256)":"a694fc3a","staked(address,uint256)":"8f169816","stakedSupply()":"d41ce4b1","stakedTime(address,uint256)":"4aec48c9","stakers(uint256)":"fd5e6dd1","supply()":"047fc9aa","voteNay(uint256)":"014396f2","voteYay(uint256)":"8f328d7a","withdrawStake(uint256)":"25d5971f"}},"storageLayout":{"storage":[{"astId":81,"contract":"Campaign.sol:Token","label":"owner","offset":0,"slot":"0","type":"t_address"},{"astId":83,"contract":"Campaign.sol:Token","label":"supply","offset":0,"slot":"1","type":"t_uint256"},{"astId":85,"contract":"Campaign.sol:Token","label":"stakedSupply","offset":0,"slot":"2","type":"t_uint256"},{"astId":88,"contract":"Campaign.sol:Token","label":"name","offset":0,"slot":"3","type":"t_string_storage"},{"astId":92,"contract":"Campaign.sol:Token","label":"holders","offset":0,"slot":"4","type":"t_mapping(t_address,t_uint256)"},{"astId":97,"contract":"Campaign.sol:Token","label":"staked","offset":0,"slot":"5","type":"t_mapping(t_address,t_array(t_uint256)dyn_storage)"},{"astId":101,"contract":"Campaign.sol:Token","label":"overallStaked","offset":0,"slot":"6","type":"t_mapping(t_address,t_uint256)"},{"astId":106,"contract":"Campaign.sol:Token","label":"stakedTime","offset":0,"slot":"7","type":"t_mapping(t_address,t_array(t_uint256)dyn_storage)"},{"astId":111,"contract":"Campaign.sol:Token","label":"rewards","offset":0,"slot":"8","type":"t_mapping(t_address,t_array(t_uint256)dyn_storage)"},{"astId":115,"contract":"Campaign.sol:Token","label":"registered","offset":0,"slot":"9","type":"t_mapping(t_address,t_bool)"},{"astId":118,"contract":"Campaign.sol:Token","label":"stakers","offset":0,"slot":"10","type":"t_array(t_address)dyn_storage"},{"astId":154,"contract":"Campaign.sol:Token","label":"proposals","offset":0,"slot":"11","type":"t_mapping(t_uint256,t_struct(Proposal)149_storage)"},{"astId":156,"contract":"Campaign.sol:Token","label":"numProposals","offset":0,"slot":"12","type":"t_uint256"}],"types":{"t_address":{"encoding":"inplace","label":"address","numberOfBytes":"20"},"t_array(t_address)dyn_storage":{"base":"t_address","encoding":"dynamic_array","label":"address[]","numberOfBytes":"32"},"t_array(t_uint256)dyn_storage":{"base":"t_uint256","encoding":"dynamic_array","label":"uint256[]","numberOfBytes":"32"},"t_bool":{"encoding":"inplace","label":"bool","numberOfBytes":"1"},"t_mapping(t_address,t_array(t_uint256)dyn_storage)":{"encoding":"mapping","key":"t_address","label":"mapping(address => uint256[])","numberOfBytes":"32","value":"t_array(t_uint256)dyn_storage"},"t_mapping(t_address,t_bool)":{"encoding":"mapping","key":"t_address","label":"mapping(address => bool)","numberOfBytes":"32","value":"t_bool"},"t_mapping(t_address,t_uint256)":{"encoding":"mapping","key":"t_address","label":"mapping(address => uint256)","numberOfBytes":"32","value":"t_uint256"},"t_mapping(t_uint256,t_struct(Proposal)149_storage)":{"encoding":"mapping","key":"t_uint256","label":"mapping(uint256 => struct Token.Proposal)","numberOfBytes":"32","value":"t_struct(Proposal)149_storage"},"t_string_storage":{"encoding":"bytes","label":"string","numberOfBytes":"32"},"t_struct(Proposal)149_storage":{"encoding":"inplace","label":"struct Token.Proposal","members":[{"astId":120,"contract":"Campaign.sol:Token","label":"number","offset":0,"slot":"0","type":"t_uint256"},{"astId":122,"contract":"Campaign.sol:Token","label":"title","offset":0,"slot":"1","type":"t_string_storage"},{"astId":124,"contract":"Campaign.sol:Token","label":"description","offset":0,"slot":"2","type":"t_string_storage"},{"astId":126,"contract":"Campaign.sol:Token","label":"delegate","offset":0,"slot":"3","type":"t_address"},{"astId":130,"contract":"Campaign.sol:Token","label":"snapshot","offset":0,"slot":"4","type":"t_mapping(t_address,t_uint256)"},{"astId":134,"contract":"Campaign.sol:Token","label":"yay","offset":0,"slot":"5","type":"t_mapping(t_address,t_bool)"},{"astId":138,"contract":"Campaign.sol:Token","label":"nay","offset":0,"slot":"6","type":"t_mapping(t_address,t_bool)"},{"astId":140,"contract":"Campaign.sol:Token","label":"yayCount","offset":0,"slot":"7","type":"t_uint256"},{"astId":142,"contract":"Campaign.sol:Token","label":"nayCount","offset":0,"slot":"8","type":"t_uint256"},{"astId":144,"contract":"Campaign.sol:Token","label":"required","offset":0,"slot":"9","type":"t_uint256"},{"astId":146,"contract":"Campaign.sol:Token","label":"complete","offset":0,"slot":"10","type":"t_bool"},{"astId":148,"contract":"Campaign.sol:Token","label":"yayBoolean","offset":1,"slot":"10","type":"t_bool"}],"numberOfBytes":"352"},"t_uint256":{"encoding":"inplace","label":"uint256","numberOfBytes":"32"}}},"userdoc":{"kind":"user","methods":{},"version":1}}